{"contracts/Loan.sol":{"LoanMarket":{"abi":[{"inputs":[],"stateMutability":"nonpayable","type":"constructor"},{"anonymous":false,"inputs":[{"indexed":true,"internalType":"uint256","name":"loanId","type":"uint256"},{"indexed":true,"internalType":"address","name":"investor","type":"address"},{"indexed":false,"internalType":"uint256","name":"gross","type":"uint256"},{"indexed":false,"internalType":"uint256","name":"fee","type":"uint256"},{"indexed":false,"internalType":"uint256","name":"net","type":"uint256"}],"name":"CollateralClaimed","type":"event"},{"anonymous":false,"inputs":[{"indexed":true,"internalType":"uint256","name":"loanId","type":"uint256"},{"indexed":true,"internalType":"address","name":"borrower","type":"address"},{"indexed":false,"internalType":"uint256","name":"amount","type":"uint256"}],"name":"CollateralWithdrawn","type":"event"},{"anonymous":false,"inputs":[{"indexed":true,"internalType":"uint256","name":"loanId","type":"uint256"},{"indexed":false,"internalType":"uint256","name":"defaultTimestamp","type":"uint256"}],"name":"Defaulted","type":"event"},{"anonymous":false,"inputs":[{"indexed":true,"internalType":"uint256","name":"loanId","type":"uint256"},{"indexed":true,"internalType":"address","name":"investor","type":"address"},{"indexed":false,"internalType":"uint256","name":"amount","type":"uint256"}],"name":"Funded","type":"event"},{"anonymous":false,"inputs":[{"indexed":true,"internalType":"uint256","name":"loanId","type":"uint256"},{"indexed":true,"internalType":"address","name":"investor","type":"address"}],"name":"FundedLoanCancelled","type":"event"},{"anonymous":false,"inputs":[{"indexed":true,"internalType":"uint256","name":"loanId","type":"uint256"},{"indexed":true,"internalType":"address","name":"investor","type":"address"},{"indexed":false,"internalType":"uint256","name":"amount","type":"uint256"}],"name":"InvestorWithdraw","type":"event"},{"anonymous":false,"inputs":[{"indexed":true,"internalType":"uint256","name":"loanId","type":"uint256"},{"indexed":true,"internalType":"address","name":"borrower","type":"address"}],"name":"LoanCancelled","type":"event"},{"anonymous":false,"inputs":[{"indexed":true,"internalType":"uint256","name":"loanId","type":"uint256"},{"indexed":true,"internalType":"address","name":"borrower","type":"address"},{"indexed":false,"internalType":"uint256","name":"amountRequested","type":"uint256"}],"name":"LoanCreated","type":"event"},{"anonymous":false,"inputs":[{"indexed":true,"internalType":"uint256","name":"loanId","type":"uint256"},{"indexed":false,"internalType":"uint256","name":"amount","type":"uint256"}],"name":"RepaymentMade","type":"event"},{"anonymous":false,"inputs":[{"indexed":true,"internalType":"uint256","name":"loanId","type":"uint256"},{"indexed":true,"internalType":"address","name":"investor","type":"address"},{"indexed":false,"internalType":"uint8","name":"score","type":"uint8"}],"name":"ScoreLeft","type":"event"},{"anonymous":false,"inputs":[{"indexed":true,"internalType":"uint256","name":"loanId","type":"uint256"},{"indexed":false,"internalType":"uint256","name":"amount","type":"uint256"}],"name":"WithdrawnByBorrower","type":"event"},{"inputs":[{"internalType":"address","name":"borrower","type":"address"}],"name":"averageScoreOfBorrower","outputs":[{"internalType":"uint256","name":"","type":"uint256"}],"stateMutability":"view","type":"function"},{"inputs":[{"internalType":"address","name":"","type":"address"}],"name":"borrowerLoanCount","outputs":[{"internalType":"uint256","name":"","type":"uint256"}],"stateMutability":"view","type":"function"},{"inputs":[{"internalType":"address","name":"","type":"address"}],"name":"borrowerScoreSum","outputs":[{"internalType":"uint256","name":"","type":"uint256"}],"stateMutability":"view","type":"function"},{"inputs":[{"internalType":"uint256","name":"loanId","type":"uint256"}],"name":"cancelFundedLoan","outputs":[],"stateMutability":"nonpayable","type":"function"},{"inputs":[{"internalType":"uint256","name":"loanId","type":"uint256"}],"name":"cancelLoan","outputs":[],"stateMutability":"nonpayable","type":"function"},{"inputs":[{"internalType":"uint256","name":"loanId","type":"uint256"}],"name":"checkDefault","outputs":[],"stateMutability":"nonpayable","type":"function"},{"inputs":[{"internalType":"uint256","name":"loanId","type":"uint256"},{"internalType":"uint8","name":"score","type":"uint8"}],"name":"claimCollateral","outputs":[],"stateMutability":"nonpayable","type":"function"},{"inputs":[{"internalType":"uint256","name":"_amountRequested","type":"uint256"},{"internalType":"uint256","name":"_interestBps","type":"uint256"},{"internalType":"uint256","name":"_durationSecs","type":"uint256"},{"internalType":"uint256","name":"_fundingDeadline","type":"uint256"},{"internalType":"uint256","name":"_collateralAmount","type":"uint256"}],"name":"createLoan","outputs":[],"stateMutability":"payable","type":"function"},{"inputs":[],"name":"feeWallet","outputs":[{"internalType":"address payable","name":"","type":"address"}],"stateMutability":"view","type":"function"},{"inputs":[{"internalType":"uint256","name":"loanId","type":"uint256"}],"name":"fundLoan","outputs":[],"stateMutability":"payable","type":"function"},{"inputs":[],"name":"getLoanCount","outputs":[{"internalType":"uint256","name":"","type":"uint256"}],"stateMutability":"view","type":"function"},{"inputs":[{"internalType":"uint256","name":"","type":"uint256"}],"name":"loans","outputs":[{"internalType":"address","name":"borrower","type":"address"},{"internalType":"uint256","name":"amountRequested","type":"uint256"},{"internalType":"uint256","name":"amountFunded","type":"uint256"},{"internalType":"uint256","name":"interestBps","type":"uint256"},{"internalType":"uint256","name":"durationSecs","type":"uint256"},{"internalType":"uint256","name":"fundingDeadline","type":"uint256"},{"internalType":"enum LoanMarket.Status","name":"status","type":"uint8"},{"internalType":"uint256","name":"startTimestamp","type":"uint256"},{"internalType":"uint256","name":"totalRepayment","type":"uint256"},{"internalType":"address","name":"investor","type":"address"},{"internalType":"uint8","name":"score","type":"uint8"},{"internalType":"uint256","name":"defaultTimestamp","type":"uint256"},{"internalType":"uint256","name":"collateralAmount","type":"uint256"},{"internalType":"bool","name":"collateralClaimed","type":"bool"}],"stateMutability":"view","type":"function"},{"inputs":[],"name":"owner","outputs":[{"internalType":"address","name":"","type":"address"}],"stateMutability":"view","type":"function"},{"inputs":[{"internalType":"uint256","name":"loanId","type":"uint256"}],"name":"repay","outputs":[],"stateMutability":"payable","type":"function"},{"inputs":[{"internalType":"uint256","name":"loanId","type":"uint256"}],"name":"withdrawAsBorrower","outputs":[],"stateMutability":"nonpayable","type":"function"},{"inputs":[{"internalType":"uint256","name":"loanId","type":"uint256"},{"internalType":"uint8","name":"score","type":"uint8"}],"name":"withdrawInvestorShare","outputs":[],"stateMutability":"nonpayable","type":"function"}],"evm":{"bytecode":{"linkReferences":{},"object":"6080806040523461004b5760018060a01b0319734e8b7696fa787b32f1d8a0b1025fd1a5d8f994cd81600154161760015560016002553390600054161760005561186d90816100518239f35b600080fdfe6080604052600436101561001257600080fd5b6000803560e01c806331798f6114611405578063371fd8e6146111f2578063498efd7a146111b55780634d8a2e151461105a578063521968121461103c5780635f76cdfd14610ce9578063759135a114610cc9578063846b909a14610b265780638da5cb5b14610aff5780639f9191241461091a578063b7f0b7ee1461068c578063bdbfa3de1461051d578063c71230bf146104e0578063cf2b4cbc14610201578063e1ec3c68146100f85763f25f4b56146100cd57600080fd5b346100f557806003193601126100f5576001546040516001600160a01b039091168152602090f35b80fd5b50346100f55760203660031901126100f5576004356003548110156101fd5761012090611463565b5060018060a01b0381541690600181015490600281015460038201549460048301549060058401549060ff6006860154169060078601549260088701549460098801549a600a8901549760ff600c600b8c01549b0154169a6040519c8d5260208d015260408c015260608b015260808a015260a089015260068210156101e95750916101c0979160ff9360c089015260e088015261010087015260018060a01b03811661012087015260a01c1661014085015261016084015261018083015215156101a0820152f35b634e487b7160e01b81526021600452602490fd5b5080fd5b5060a03660031901126100f5576004356084356102226001600254146114b4565b6002805581156104a65780340361046157604051906101c0820182811067ffffffffffffffff82111761044d5760405233825260208201838152604083018581526060840191602435835260808501604435815260a086019060643582528860c088015260e087019589875289610100890152896101208901528961014089015289610160890152610180880152886101a088015260035468010000000000000000811015610439578060016102db9201600355611463565b95909561042557875186546001600160a01b03199081166001600160a01b03928316178855945160018801559451600287015551600386015551600485015551600584015560c085015193600680850190861015610411576101a093600c9360ff969361039593881999898b8354169116179055516007850155610100890151600885015560098401916101208a01511690825416178155856101408901511681549060ff60a01b9060a01b169060ff60a01b1916179055565b610160860151600a820155610180860151600b82015501930151151591835416911617905560035460001981019081116103fd576040519182527f8910ba13a55695f056e224bbbc6b65d866b12a8c2fbdf387fb853a1cca298cd760203393a3600160025580f35b634e487b7160e01b83526011600452602483fd5b634e487b7160e01b89526021600452602489fd5b634e487b7160e01b8a5260048a905260248afd5b634e487b7160e01b8a52604160045260248afd5b634e487b7160e01b85526041600452602485fd5b60405162461bcd60e51b815260206004820152601960248201527f496e636f727265637420636f6c6c61746572616c2073656e74000000000000006044820152606490fd5b60405162461bcd60e51b81526020600482015260126024820152710416d6f756e74206d757374206265203e20360741b6044820152606490fd5b50346100f55760203660031901126100f5576004356001600160a01b038116908190036101fd578160409160209352600483522054604051908152f35b50346100f55760203660031901126100f5576004356105406001600254146114b4565b6002805561054d81611463565b5080546001600160a01b0391908216338190036106475760068201805460ff81166006811015610633576105e45760ff19166005179055600b820154908590826105c4575b5050505416907f533b2d8d57dc3b3d1c1bfd952e6355a9b573b6b9cccc5f554157003f733bb5148380a3600160025580f35b81806105dc9481935af16105d661156f565b506116d8565b388481610592565b60405162461bcd60e51b815260206004820152602160248201527f4c6f616e206973206e6f74206f70656e20666f722063616e63656c6c6174696f6044820152603760f91b6064820152608490fd5b634e487b7160e01b88526021600452602488fd5b60405162461bcd60e51b815260206004820152601c60248201527f4f6e6c792074686520626f72726f7765722063616e2063616e63656c000000006044820152606490fd5b50346100f55761069b3661143e565b906106aa6001600254146114b4565b600280556106b781611463565b506009810180546001600160a01b03929083811633036108d55760ff6006830154166006811015610633576003036108905760ff6106f99160a01c16156115ff565b60ff8516600181101580610885575b6107119061164a565b60018201549161073361271061072b6003840154866115d0565b0480946115e3565b92600a810290808204600a149015171561087157886107dc94819488839561078061076360648798048096611500565b8b5460ff60a01b191660a09f909f1b60ff60a01b169e909e178b55565b541683526005602052604083206107988282546115e3565b9055604051908152897f7514ebcac1feb55cc5d1869533571ccd5971af19a7428bb57c1f780879eec3d960203393a387600154165af16107d661156f565b50611696565b8480808087868654165af16107ef61156f565b501561082c577f0afeafe87af56d204cca28eefeec305c8d8bcb1907103f969f87e9a978745c2991602091541693604051908152a3600160025580f35b60405162461bcd60e51b815260206004820152601e60248201527f496e766573746f72207368617265207472616e73666572206661696c656400006044820152606490fd5b634e487b7160e01b89526011600452602489fd5b506005811115610708565b60405162461bcd60e51b815260206004820152601860248201527f4c6f616e20686173206e6f74206265656e2072657061696400000000000000006044820152606490fd5b60405162461bcd60e51b815260206004820152601e60248201527f4f6e6c792074686520696e766573746f722063616e20776974686472617700006044820152606490fd5b50346100f55760203660031901126100f55760043561093d6001600254146114b4565b6002805561094a81611463565b506009810180546001600160a01b039290831633819003610aa757600682019081549160ff831660068110156104115760016109869114611523565b6005840154421115610a5657878093928193926005839460ff19161790556002860154905af16109b461156f565b5015610a185784600b82015484816109fa575b505050505416907fd2242028be0a315d15003a2d3a1ddb0c1ce6692260d612166ded5d4f2321beff8380a3600160025580f35b8280928192610a0f9654165af16105d661156f565b388481846109c7565b60405162461bcd60e51b8152602060048201526016602482015275125b9d995cdd1bdc881c99599d5b990819985a5b195960521b6044820152606490fd5b60405162461bcd60e51b815260206004820152602360248201527f46756e64696e6720646561646c696e6520686173206e6f7420706173736564206044820152621e595d60ea1b6064820152608490fd5b60405162461bcd60e51b815260206004820152602a60248201527f4f6e6c792074686520696e766573746f722063616e2063616e63656c206120666044820152693ab73232b2103637b0b760b11b6064820152608490fd5b50346100f557806003193601126100f557546040516001600160a01b039091168152602090f35b5060203660031901126100f557600435610b446001600254146114b4565b60028055610b5181611463565b5060068101805460ff81166006811015610cb557610c70576005830154421015610c2b5760018301543403610be65760019060ff191617905560098101336bffffffffffffffffffffffff60a01b825416179055346002820155600742910155604051903482527f38c48552690c96ec2872092ac1db6c19fb59f5a8c5b49bbf41ed4886d0ca692660203393a3600160025580f35b60405162461bcd60e51b815260206004820152601d60248201527f496e636f72726563742066756e64696e6720616d6f756e742073656e740000006044820152606490fd5b60405162461bcd60e51b815260206004820152601b60248201527f46756e64696e6720646561646c696e65206861732070617373656400000000006044820152606490fd5b60405162461bcd60e51b815260206004820152601960248201527f4c6f616e206e6f74206f70656e20666f722066756e64696e67000000000000006044820152606490fd5b634e487b7160e01b86526021600452602486fd5b50346100f55760203660031901126100f557610ce6600435611724565b80f35b50346100f557610cf83661143e565b90610d076001600254146114b4565b60028055610d1481611724565b610d1d81611463565b506009810192835460018060a01b03928382163303610ff75760ff600682015416600681101561063357600403610fb957600c81019081549260ff8416610f6857600b820194855415610f23578693610d7f60ff610dd59460a01c16156115ff565b600160ff8316968188101580610f18575b610d999061164a565b60ff1916179055838354168a52600460205260408a20610db981546115f0565b9055885460ff60a01b191660a09190911b60ff60a01b16178855565b54168652600560205260408620610ded8282546115e3565b9055604051908152837f7514ebcac1feb55cc5d1869533571ccd5971af19a7428bb57c1f780879eec3d960203393a35492600a8402848104600a1485151715610f04576064900493610e3f8582611500565b610e56878080808a89600154165af16107d661156f565b8680808084888854165af1610e6961156f565b5015610eb0577f90a49cc0ffe370f13cdb2e8c2f3f91aeb86bae3a6aa0e060da5fb4a9b91cde999360609354169560405192835260208301526040820152a3600160025580f35b60405162461bcd60e51b815260206004820152602660248201527f436f6c6c61746572616c207472616e7366657220746f20696e766573746f722060448201526519985a5b195960d21b6064820152608490fd5b634e487b7160e01b86526011600452602486fd5b506005881115610d90565b60405162461bcd60e51b815260206004820152601b60248201527f54686973206c6f616e20686173206e6f20636f6c6c61746572616c00000000006044820152606490fd5b60405162461bcd60e51b815260206004820152602360248201527f436f6c6c61746572616c2068617320616c7265616479206265656e20636c61696044820152621b595960ea1b6064820152608490fd5b60405162461bcd60e51b8152602060048201526016602482015275131bd85b881a185cc81b9bdd08191959985d5b1d195960521b6044820152606490fd5b60405162461bcd60e51b815260206004820152601b60248201527f4f6e6c792074686520696e766573746f722063616e20636c61696d00000000006044820152606490fd5b50346100f557806003193601126100f5576020600354604051908152f35b50346100f55760203660031901126100f557600435600261107e60018254146114b4565b80805561108a82611463565b509160068301805460ff811660068110156111a15760016110ab9114611523565b84546001600160a01b0316943386900361115c57868581949282949382849560ff191617905501968754905af16110e061156f565b5015611118577f69ce060f535737417b4a4ebb86ae7a865885c5c1e8106f7ed0b8bd9c52641bc6602060019454604051908152a25580f35b606460405162461bcd60e51b815260206004820152602060248201527f4661696c656420746f2073656e642066756e647320746f20626f72726f7765726044820152fd5b60405162461bcd60e51b815260206004820152601e60248201527f4f6e6c792074686520626f72726f7765722063616e20776974686472617700006044820152606490fd5b634e487b7160e01b87526021600452602487fd5b50346100f55760203660031901126100f5576004356001600160a01b038116908190036101fd578160409160209352600583522054604051908152f35b506020806003193601126101fd576004356112116001600254146114b4565b6002805561121e81611463565b50916006830180549060ff821660068110156111a1576002036113c25761125b60018601546127106112546003890154836115d0565b04906115e3565b9182341061136e5760039083600888015560ff1916179055827fd3337f372235c0c137836a45251cd21fba324e7ef27c7acc5ac12451491793b98360018060a01b039384885416895260048252604089206112b681546115f0565b9055604051908152a2600b840193858554806112d6575b50600160025580f35b81808092868654165af16112e861156f565b501561132957907f7c5e5cb62e5ed3caf3764e4b0afedfedef533e27809d43367799787ad2abcd41929154169354604051908152a3388080808085816112cd565b60405162461bcd60e51b815260048101849052601a60248201527f436f6c6c61746572616c207472616e73666572206661696c65640000000000006044820152606490fd5b60405162461bcd60e51b815260048101859052602660248201527f496e73756666696369656e7420616d6f756e742073656e7420666f7220726570604482015265185e5b595b9d60d21b6064820152608490fd5b6064836040519062461bcd60e51b825280600483015260248201527f4c6f616e206973206e6f742061637469766520666f722072657061796d656e746044820152fd5b50346100f55760203660031901126100f557600435906001600160a01b03821682036100f5576020611436836117c9565b604051908152f35b604090600319011261145e576004359060243560ff8116810361145e5790565b600080fd5b60035481101561149e57600d906003600052027fc2575a0e9e593c00f959f8c92f12db2869c3395a3b0502d05e2516446f71f85b0190600090565b634e487b7160e01b600052603260045260246000fd5b156114bb57565b60405162461bcd60e51b815260206004820152601f60248201527f5265656e7472616e637947756172643a207265656e7472616e742063616c6c006044820152606490fd5b9190820391821161150d57565b634e487b7160e01b600052601160045260246000fd5b1561152a57565b60405162461bcd60e51b815260206004820152601b60248201527f4c6f616e206973206e6f7420696e2046756e64656420737461746500000000006044820152606490fd5b3d156115cb5767ffffffffffffffff903d8281116115b55760405192601f8201601f19908116603f01168401908111848210176115b55760405282523d6000602084013e565b634e487b7160e01b600052604160045260246000fd5b606090565b8181029291811591840414171561150d57565b9190820180921161150d57565b600019811461150d5760010190565b1561160657565b606460405162461bcd60e51b815260206004820152602060248201527f53636f72652068617320616c7265616479206265656e207375626d69747465646044820152fd5b1561165157565b60405162461bcd60e51b815260206004820152601d60248201527f53636f7265206d757374206265206265747765656e203120616e6420350000006044820152606490fd5b1561169d57565b60405162461bcd60e51b8152602060048201526013602482015272119959481d1c985b9cd9995c8819985a5b1959606a1b6044820152606490fd5b156116df57565b60405162461bcd60e51b815260206004820152601860248201527f436f6c6c61746572616c20726566756e64206661696c656400000000000000006044820152606490fd5b61172d81611463565b5060068101805460ff811660068110156117b35760021480611798575b611755575b50505050565b60049060ff1916179055600a429101557f84908fca714735411d4553ddd185a4d6fdc25fda2d15662153ef18a8ad6099b46020604051428152a23880808061174f565b506117ac60078401546004850154906115e3565b421161174a565b634e487b7160e01b600052602160045260246000fd5b6001600160a01b0316600081815260046020526040812054909190156118335760056020526040822054906064820291808304606414901517156103fd5782526004602052604082205491821561181f57500490565b634e487b7160e01b81526012600452602490fd5b509056fea264697066735822122062ef1f34304762669e3f2d479da59442f60e3140b22d9c52ac4eeada205b7d1264736f6c63430008130033","opcodes":"PUSH1 0x80 DUP1 PUSH1 0x40 MSTORE CALLVALUE PUSH2 0x4B JUMPI PUSH1 0x1 DUP1 PUSH1 0xA0 SHL SUB NOT PUSH20 0x4E8B7696FA787B32F1D8A0B1025FD1A5D8F994CD DUP2 PUSH1 0x1 SLOAD AND OR PUSH1 0x1 SSTORE PUSH1 0x1 PUSH1 0x2 SSTORE CALLER SWAP1 PUSH1 0x0 SLOAD AND OR PUSH1 0x0 SSTORE PUSH2 0x186D SWAP1 DUP2 PUSH2 0x51 DUP3 CODECOPY RETURN JUMPDEST PUSH1 0x0 DUP1 REVERT INVALID PUSH1 0x80 PUSH1 0x40 MSTORE PUSH1 0x4 CALLDATASIZE LT ISZERO PUSH2 0x12 JUMPI PUSH1 0x0 DUP1 REVERT JUMPDEST PUSH1 0x0 DUP1 CALLDATALOAD PUSH1 0xE0 SHR DUP1 PUSH4 0x31798F61 EQ PUSH2 0x1405 JUMPI DUP1 PUSH4 0x371FD8E6 EQ PUSH2 0x11F2 JUMPI DUP1 PUSH4 0x498EFD7A EQ PUSH2 0x11B5 JUMPI DUP1 PUSH4 0x4D8A2E15 EQ PUSH2 0x105A JUMPI DUP1 PUSH4 0x52196812 EQ PUSH2 0x103C JUMPI DUP1 PUSH4 0x5F76CDFD EQ PUSH2 0xCE9 JUMPI DUP1 PUSH4 0x759135A1 EQ PUSH2 0xCC9 JUMPI DUP1 PUSH4 0x846B909A EQ PUSH2 0xB26 JUMPI DUP1 PUSH4 0x8DA5CB5B EQ PUSH2 0xAFF JUMPI DUP1 PUSH4 0x9F919124 EQ PUSH2 0x91A JUMPI DUP1 PUSH4 0xB7F0B7EE EQ PUSH2 0x68C JUMPI DUP1 PUSH4 0xBDBFA3DE EQ PUSH2 0x51D JUMPI DUP1 PUSH4 0xC71230BF EQ PUSH2 0x4E0 JUMPI DUP1 PUSH4 0xCF2B4CBC EQ PUSH2 0x201 JUMPI DUP1 PUSH4 0xE1EC3C68 EQ PUSH2 0xF8 JUMPI PUSH4 0xF25F4B56 EQ PUSH2 0xCD JUMPI PUSH1 0x0 DUP1 REVERT JUMPDEST CALLVALUE PUSH2 0xF5 JUMPI DUP1 PUSH1 0x3 NOT CALLDATASIZE ADD SLT PUSH2 0xF5 JUMPI PUSH1 0x1 SLOAD PUSH1 0x40 MLOAD PUSH1 0x1 PUSH1 0x1 PUSH1 0xA0 SHL SUB SWAP1 SWAP2 AND DUP2 MSTORE PUSH1 0x20 SWAP1 RETURN JUMPDEST DUP1 REVERT JUMPDEST POP CALLVALUE PUSH2 0xF5 JUMPI PUSH1 0x20 CALLDATASIZE PUSH1 0x3 NOT ADD SLT PUSH2 0xF5 JUMPI PUSH1 0x4 CALLDATALOAD PUSH1 0x3 SLOAD DUP2 LT ISZERO PUSH2 0x1FD JUMPI PUSH2 0x120 SWAP1 PUSH2 0x1463 JUMP JUMPDEST POP PUSH1 0x1 DUP1 PUSH1 0xA0 SHL SUB DUP2 SLOAD AND SWAP1 PUSH1 0x1 DUP2 ADD SLOAD SWAP1 PUSH1 0x2 DUP2 ADD SLOAD PUSH1 0x3 DUP3 ADD SLOAD SWAP5 PUSH1 0x4 DUP4 ADD SLOAD SWAP1 PUSH1 0x5 DUP5 ADD SLOAD SWAP1 PUSH1 0xFF PUSH1 0x6 DUP7 ADD SLOAD AND SWAP1 PUSH1 0x7 DUP7 ADD SLOAD SWAP3 PUSH1 0x8 DUP8 ADD SLOAD SWAP5 PUSH1 0x9 DUP9 ADD SLOAD SWAP11 PUSH1 0xA DUP10 ADD SLOAD SWAP8 PUSH1 0xFF PUSH1 0xC PUSH1 0xB DUP13 ADD SLOAD SWAP12 ADD SLOAD AND SWAP11 PUSH1 0x40 MLOAD SWAP13 DUP14 MSTORE PUSH1 0x20 DUP14 ADD MSTORE PUSH1 0x40 DUP13 ADD MSTORE PUSH1 0x60 DUP12 ADD MSTORE PUSH1 0x80 DUP11 ADD MSTORE PUSH1 0xA0 DUP10 ADD MSTORE PUSH1 0x6 DUP3 LT ISZERO PUSH2 0x1E9 JUMPI POP SWAP2 PUSH2 0x1C0 SWAP8 SWAP2 PUSH1 0xFF SWAP4 PUSH1 0xC0 DUP10 ADD MSTORE PUSH1 0xE0 DUP9 ADD MSTORE PUSH2 0x100 DUP8 ADD MSTORE PUSH1 0x1 DUP1 PUSH1 0xA0 SHL SUB DUP2 AND PUSH2 0x120 DUP8 ADD MSTORE PUSH1 0xA0 SHR AND PUSH2 0x140 DUP6 ADD MSTORE PUSH2 0x160 DUP5 ADD MSTORE PUSH2 0x180 DUP4 ADD MSTORE ISZERO ISZERO PUSH2 0x1A0 DUP3 ADD MSTORE RETURN JUMPDEST PUSH4 0x4E487B71 PUSH1 0xE0 SHL DUP2 MSTORE PUSH1 0x21 PUSH1 0x4 MSTORE PUSH1 0x24 SWAP1 REVERT JUMPDEST POP DUP1 REVERT JUMPDEST POP PUSH1 0xA0 CALLDATASIZE PUSH1 0x3 NOT ADD SLT PUSH2 0xF5 JUMPI PUSH1 0x4 CALLDATALOAD PUSH1 0x84 CALLDATALOAD PUSH2 0x222 PUSH1 0x1 PUSH1 0x2 SLOAD EQ PUSH2 0x14B4 JUMP JUMPDEST PUSH1 0x2 DUP1 SSTORE DUP2 ISZERO PUSH2 0x4A6 JUMPI DUP1 CALLVALUE SUB PUSH2 0x461 JUMPI PUSH1 0x40 MLOAD SWAP1 PUSH2 0x1C0 DUP3 ADD DUP3 DUP2 LT PUSH8 0xFFFFFFFFFFFFFFFF DUP3 GT OR PUSH2 0x44D JUMPI PUSH1 0x40 MSTORE CALLER DUP3 MSTORE PUSH1 0x20 DUP3 ADD DUP4 DUP2 MSTORE PUSH1 0x40 DUP4 ADD DUP6 DUP2 MSTORE PUSH1 0x60 DUP5 ADD SWAP2 PUSH1 0x24 CALLDATALOAD DUP4 MSTORE PUSH1 0x80 DUP6 ADD PUSH1 0x44 CALLDATALOAD DUP2 MSTORE PUSH1 0xA0 DUP7 ADD SWAP1 PUSH1 0x64 CALLDATALOAD DUP3 MSTORE DUP9 PUSH1 0xC0 DUP9 ADD MSTORE PUSH1 0xE0 DUP8 ADD SWAP6 DUP10 DUP8 MSTORE DUP10 PUSH2 0x100 DUP10 ADD MSTORE DUP10 PUSH2 0x120 DUP10 ADD MSTORE DUP10 PUSH2 0x140 DUP10 ADD MSTORE DUP10 PUSH2 0x160 DUP10 ADD MSTORE PUSH2 0x180 DUP9 ADD MSTORE DUP9 PUSH2 0x1A0 DUP9 ADD MSTORE PUSH1 0x3 SLOAD PUSH9 0x10000000000000000 DUP2 LT ISZERO PUSH2 0x439 JUMPI DUP1 PUSH1 0x1 PUSH2 0x2DB SWAP3 ADD PUSH1 0x3 SSTORE PUSH2 0x1463 JUMP JUMPDEST SWAP6 SWAP1 SWAP6 PUSH2 0x425 JUMPI DUP8 MLOAD DUP7 SLOAD PUSH1 0x1 PUSH1 0x1 PUSH1 0xA0 SHL SUB NOT SWAP1 DUP2 AND PUSH1 0x1 PUSH1 0x1 PUSH1 0xA0 SHL SUB SWAP3 DUP4 AND OR DUP9 SSTORE SWAP5 MLOAD PUSH1 0x1 DUP9 ADD SSTORE SWAP5 MLOAD PUSH1 0x2 DUP8 ADD SSTORE MLOAD PUSH1 0x3 DUP7 ADD SSTORE MLOAD PUSH1 0x4 DUP6 ADD SSTORE MLOAD PUSH1 0x5 DUP5 ADD SSTORE PUSH1 0xC0 DUP6 ADD MLOAD SWAP4 PUSH1 0x6 DUP1 DUP6 ADD SWAP1 DUP7 LT ISZERO PUSH2 0x411 JUMPI PUSH2 0x1A0 SWAP4 PUSH1 0xC SWAP4 PUSH1 0xFF SWAP7 SWAP4 PUSH2 0x395 SWAP4 DUP9 NOT SWAP10 DUP10 DUP12 DUP4 SLOAD AND SWAP2 AND OR SWAP1 SSTORE MLOAD PUSH1 0x7 DUP6 ADD SSTORE PUSH2 0x100 DUP10 ADD MLOAD PUSH1 0x8 DUP6 ADD SSTORE PUSH1 0x9 DUP5 ADD SWAP2 PUSH2 0x120 DUP11 ADD MLOAD AND SWAP1 DUP3 SLOAD AND OR DUP2 SSTORE DUP6 PUSH2 0x140 DUP10 ADD MLOAD AND DUP2 SLOAD SWAP1 PUSH1 0xFF PUSH1 0xA0 SHL SWAP1 PUSH1 0xA0 SHL AND SWAP1 PUSH1 0xFF PUSH1 0xA0 SHL NOT AND OR SWAP1 SSTORE JUMP JUMPDEST PUSH2 0x160 DUP7 ADD MLOAD PUSH1 0xA DUP3 ADD SSTORE PUSH2 0x180 DUP7 ADD MLOAD PUSH1 0xB DUP3 ADD SSTORE ADD SWAP4 ADD MLOAD ISZERO ISZERO SWAP2 DUP4 SLOAD AND SWAP2 AND OR SWAP1 SSTORE PUSH1 0x3 SLOAD PUSH1 0x0 NOT DUP2 ADD SWAP1 DUP2 GT PUSH2 0x3FD JUMPI PUSH1 0x40 MLOAD SWAP2 DUP3 MSTORE PUSH32 0x8910BA13A55695F056E224BBBC6B65D866B12A8C2FBDF387FB853A1CCA298CD7 PUSH1 0x20 CALLER SWAP4 LOG3 PUSH1 0x1 PUSH1 0x2 SSTORE DUP1 RETURN JUMPDEST PUSH4 0x4E487B71 PUSH1 0xE0 SHL DUP4 MSTORE PUSH1 0x11 PUSH1 0x4 MSTORE PUSH1 0x24 DUP4 REVERT JUMPDEST PUSH4 0x4E487B71 PUSH1 0xE0 SHL DUP10 MSTORE PUSH1 0x21 PUSH1 0x4 MSTORE PUSH1 0x24 DUP10 REVERT JUMPDEST PUSH4 0x4E487B71 PUSH1 0xE0 SHL DUP11 MSTORE PUSH1 0x4 DUP11 SWAP1 MSTORE PUSH1 0x24 DUP11 REVERT JUMPDEST PUSH4 0x4E487B71 PUSH1 0xE0 SHL DUP11 MSTORE PUSH1 0x41 PUSH1 0x4 MSTORE PUSH1 0x24 DUP11 REVERT JUMPDEST PUSH4 0x4E487B71 PUSH1 0xE0 SHL DUP6 MSTORE PUSH1 0x41 PUSH1 0x4 MSTORE PUSH1 0x24 DUP6 REVERT JUMPDEST PUSH1 0x40 MLOAD PUSH3 0x461BCD PUSH1 0xE5 SHL DUP2 MSTORE PUSH1 0x20 PUSH1 0x4 DUP3 ADD MSTORE PUSH1 0x19 PUSH1 0x24 DUP3 ADD MSTORE PUSH32 0x496E636F727265637420636F6C6C61746572616C2073656E7400000000000000 PUSH1 0x44 DUP3 ADD MSTORE PUSH1 0x64 SWAP1 REVERT JUMPDEST PUSH1 0x40 MLOAD PUSH3 0x461BCD PUSH1 0xE5 SHL DUP2 MSTORE PUSH1 0x20 PUSH1 0x4 DUP3 ADD MSTORE PUSH1 0x12 PUSH1 0x24 DUP3 ADD MSTORE PUSH18 0x416D6F756E74206D757374206265203E203 PUSH1 0x74 SHL PUSH1 0x44 DUP3 ADD MSTORE PUSH1 0x64 SWAP1 REVERT JUMPDEST POP CALLVALUE PUSH2 0xF5 JUMPI PUSH1 0x20 CALLDATASIZE PUSH1 0x3 NOT ADD SLT PUSH2 0xF5 JUMPI PUSH1 0x4 CALLDATALOAD PUSH1 0x1 PUSH1 0x1 PUSH1 0xA0 SHL SUB DUP2 AND SWAP1 DUP2 SWAP1 SUB PUSH2 0x1FD JUMPI DUP2 PUSH1 0x40 SWAP2 PUSH1 0x20 SWAP4 MSTORE PUSH1 0x4 DUP4 MSTORE KECCAK256 SLOAD PUSH1 0x40 MLOAD SWAP1 DUP2 MSTORE RETURN JUMPDEST POP CALLVALUE PUSH2 0xF5 JUMPI PUSH1 0x20 CALLDATASIZE PUSH1 0x3 NOT ADD SLT PUSH2 0xF5 JUMPI PUSH1 0x4 CALLDATALOAD PUSH2 0x540 PUSH1 0x1 PUSH1 0x2 SLOAD EQ PUSH2 0x14B4 JUMP JUMPDEST PUSH1 0x2 DUP1 SSTORE PUSH2 0x54D DUP2 PUSH2 0x1463 JUMP JUMPDEST POP DUP1 SLOAD PUSH1 0x1 PUSH1 0x1 PUSH1 0xA0 SHL SUB SWAP2 SWAP1 DUP3 AND CALLER DUP2 SWAP1 SUB PUSH2 0x647 JUMPI PUSH1 0x6 DUP3 ADD DUP1 SLOAD PUSH1 0xFF DUP2 AND PUSH1 0x6 DUP2 LT ISZERO PUSH2 0x633 JUMPI PUSH2 0x5E4 JUMPI PUSH1 0xFF NOT AND PUSH1 0x5 OR SWAP1 SSTORE PUSH1 0xB DUP3 ADD SLOAD SWAP1 DUP6 SWAP1 DUP3 PUSH2 0x5C4 JUMPI JUMPDEST POP POP POP SLOAD AND SWAP1 PUSH32 0x533B2D8D57DC3B3D1C1BFD952E6355A9B573B6B9CCCC5F554157003F733BB514 DUP4 DUP1 LOG3 PUSH1 0x1 PUSH1 0x2 SSTORE DUP1 RETURN JUMPDEST DUP2 DUP1 PUSH2 0x5DC SWAP5 DUP2 SWAP4 GAS CALL PUSH2 0x5D6 PUSH2 0x156F JUMP JUMPDEST POP PUSH2 0x16D8 JUMP JUMPDEST CODESIZE DUP5 DUP2 PUSH2 0x592 JUMP JUMPDEST PUSH1 0x40 MLOAD PUSH3 0x461BCD PUSH1 0xE5 SHL DUP2 MSTORE PUSH1 0x20 PUSH1 0x4 DUP3 ADD MSTORE PUSH1 0x21 PUSH1 0x24 DUP3 ADD MSTORE PUSH32 0x4C6F616E206973206E6F74206F70656E20666F722063616E63656C6C6174696F PUSH1 0x44 DUP3 ADD MSTORE PUSH1 0x37 PUSH1 0xF9 SHL PUSH1 0x64 DUP3 ADD MSTORE PUSH1 0x84 SWAP1 REVERT JUMPDEST PUSH4 0x4E487B71 PUSH1 0xE0 SHL DUP9 MSTORE PUSH1 0x21 PUSH1 0x4 MSTORE PUSH1 0x24 DUP9 REVERT JUMPDEST PUSH1 0x40 MLOAD PUSH3 0x461BCD PUSH1 0xE5 SHL DUP2 MSTORE PUSH1 0x20 PUSH1 0x4 DUP3 ADD MSTORE PUSH1 0x1C PUSH1 0x24 DUP3 ADD MSTORE PUSH32 0x4F6E6C792074686520626F72726F7765722063616E2063616E63656C00000000 PUSH1 0x44 DUP3 ADD MSTORE PUSH1 0x64 SWAP1 REVERT JUMPDEST POP CALLVALUE PUSH2 0xF5 JUMPI PUSH2 0x69B CALLDATASIZE PUSH2 0x143E JUMP JUMPDEST SWAP1 PUSH2 0x6AA PUSH1 0x1 PUSH1 0x2 SLOAD EQ PUSH2 0x14B4 JUMP JUMPDEST PUSH1 0x2 DUP1 SSTORE PUSH2 0x6B7 DUP2 PUSH2 0x1463 JUMP JUMPDEST POP PUSH1 0x9 DUP2 ADD DUP1 SLOAD PUSH1 0x1 PUSH1 0x1 PUSH1 0xA0 SHL SUB SWAP3 SWAP1 DUP4 DUP2 AND CALLER SUB PUSH2 0x8D5 JUMPI PUSH1 0xFF PUSH1 0x6 DUP4 ADD SLOAD AND PUSH1 0x6 DUP2 LT ISZERO PUSH2 0x633 JUMPI PUSH1 0x3 SUB PUSH2 0x890 JUMPI PUSH1 0xFF PUSH2 0x6F9 SWAP2 PUSH1 0xA0 SHR AND ISZERO PUSH2 0x15FF JUMP JUMPDEST PUSH1 0xFF DUP6 AND PUSH1 0x1 DUP2 LT ISZERO DUP1 PUSH2 0x885 JUMPI JUMPDEST PUSH2 0x711 SWAP1 PUSH2 0x164A JUMP JUMPDEST PUSH1 0x1 DUP3 ADD SLOAD SWAP2 PUSH2 0x733 PUSH2 0x2710 PUSH2 0x72B PUSH1 0x3 DUP5 ADD SLOAD DUP7 PUSH2 0x15D0 JUMP JUMPDEST DIV DUP1 SWAP5 PUSH2 0x15E3 JUMP JUMPDEST SWAP3 PUSH1 0xA DUP2 MUL SWAP1 DUP1 DUP3 DIV PUSH1 0xA EQ SWAP1 ISZERO OR ISZERO PUSH2 0x871 JUMPI DUP9 PUSH2 0x7DC SWAP5 DUP2 SWAP5 DUP9 DUP4 SWAP6 PUSH2 0x780 PUSH2 0x763 PUSH1 0x64 DUP8 SWAP9 DIV DUP1 SWAP7 PUSH2 0x1500 JUMP JUMPDEST DUP12 SLOAD PUSH1 0xFF PUSH1 0xA0 SHL NOT AND PUSH1 0xA0 SWAP16 SWAP1 SWAP16 SHL PUSH1 0xFF PUSH1 0xA0 SHL AND SWAP15 SWAP1 SWAP15 OR DUP12 SSTORE JUMP JUMPDEST SLOAD AND DUP4 MSTORE PUSH1 0x5 PUSH1 0x20 MSTORE PUSH1 0x40 DUP4 KECCAK256 PUSH2 0x798 DUP3 DUP3 SLOAD PUSH2 0x15E3 JUMP JUMPDEST SWAP1 SSTORE PUSH1 0x40 MLOAD SWAP1 DUP2 MSTORE DUP10 PUSH32 0x7514EBCAC1FEB55CC5D1869533571CCD5971AF19A7428BB57C1F780879EEC3D9 PUSH1 0x20 CALLER SWAP4 LOG3 DUP8 PUSH1 0x1 SLOAD AND GAS CALL PUSH2 0x7D6 PUSH2 0x156F JUMP JUMPDEST POP PUSH2 0x1696 JUMP JUMPDEST DUP5 DUP1 DUP1 DUP1 DUP8 DUP7 DUP7 SLOAD AND GAS CALL PUSH2 0x7EF PUSH2 0x156F JUMP JUMPDEST POP ISZERO PUSH2 0x82C JUMPI PUSH32 0xAFEAFE87AF56D204CCA28EEFEEC305C8D8BCB1907103F969F87E9A978745C29 SWAP2 PUSH1 0x20 SWAP2 SLOAD AND SWAP4 PUSH1 0x40 MLOAD SWAP1 DUP2 MSTORE LOG3 PUSH1 0x1 PUSH1 0x2 SSTORE DUP1 RETURN JUMPDEST PUSH1 0x40 MLOAD PUSH3 0x461BCD PUSH1 0xE5 SHL DUP2 MSTORE PUSH1 0x20 PUSH1 0x4 DUP3 ADD MSTORE PUSH1 0x1E PUSH1 0x24 DUP3 ADD MSTORE PUSH32 0x496E766573746F72207368617265207472616E73666572206661696C65640000 PUSH1 0x44 DUP3 ADD MSTORE PUSH1 0x64 SWAP1 REVERT JUMPDEST PUSH4 0x4E487B71 PUSH1 0xE0 SHL DUP10 MSTORE PUSH1 0x11 PUSH1 0x4 MSTORE PUSH1 0x24 DUP10 REVERT JUMPDEST POP PUSH1 0x5 DUP2 GT ISZERO PUSH2 0x708 JUMP JUMPDEST PUSH1 0x40 MLOAD PUSH3 0x461BCD PUSH1 0xE5 SHL DUP2 MSTORE PUSH1 0x20 PUSH1 0x4 DUP3 ADD MSTORE PUSH1 0x18 PUSH1 0x24 DUP3 ADD MSTORE PUSH32 0x4C6F616E20686173206E6F74206265656E207265706169640000000000000000 PUSH1 0x44 DUP3 ADD MSTORE PUSH1 0x64 SWAP1 REVERT JUMPDEST PUSH1 0x40 MLOAD PUSH3 0x461BCD PUSH1 0xE5 SHL DUP2 MSTORE PUSH1 0x20 PUSH1 0x4 DUP3 ADD MSTORE PUSH1 0x1E PUSH1 0x24 DUP3 ADD MSTORE PUSH32 0x4F6E6C792074686520696E766573746F722063616E2077697468647261770000 PUSH1 0x44 DUP3 ADD MSTORE PUSH1 0x64 SWAP1 REVERT JUMPDEST POP CALLVALUE PUSH2 0xF5 JUMPI PUSH1 0x20 CALLDATASIZE PUSH1 0x3 NOT ADD SLT PUSH2 0xF5 JUMPI PUSH1 0x4 CALLDATALOAD PUSH2 0x93D PUSH1 0x1 PUSH1 0x2 SLOAD EQ PUSH2 0x14B4 JUMP JUMPDEST PUSH1 0x2 DUP1 SSTORE PUSH2 0x94A DUP2 PUSH2 0x1463 JUMP JUMPDEST POP PUSH1 0x9 DUP2 ADD DUP1 SLOAD PUSH1 0x1 PUSH1 0x1 PUSH1 0xA0 SHL SUB SWAP3 SWAP1 DUP4 AND CALLER DUP2 SWAP1 SUB PUSH2 0xAA7 JUMPI PUSH1 0x6 DUP3 ADD SWAP1 DUP2 SLOAD SWAP2 PUSH1 0xFF DUP4 AND PUSH1 0x6 DUP2 LT ISZERO PUSH2 0x411 JUMPI PUSH1 0x1 PUSH2 0x986 SWAP2 EQ PUSH2 0x1523 JUMP JUMPDEST PUSH1 0x5 DUP5 ADD SLOAD TIMESTAMP GT ISZERO PUSH2 0xA56 JUMPI DUP8 DUP1 SWAP4 SWAP3 DUP2 SWAP4 SWAP3 PUSH1 0x5 DUP4 SWAP5 PUSH1 0xFF NOT AND OR SWAP1 SSTORE PUSH1 0x2 DUP7 ADD SLOAD SWAP1 GAS CALL PUSH2 0x9B4 PUSH2 0x156F JUMP JUMPDEST POP ISZERO PUSH2 0xA18 JUMPI DUP5 PUSH1 0xB DUP3 ADD SLOAD DUP5 DUP2 PUSH2 0x9FA JUMPI JUMPDEST POP POP POP POP SLOAD AND SWAP1 PUSH32 0xD2242028BE0A315D15003A2D3A1DDB0C1CE6692260D612166DED5D4F2321BEFF DUP4 DUP1 LOG3 PUSH1 0x1 PUSH1 0x2 SSTORE DUP1 RETURN JUMPDEST DUP3 DUP1 SWAP3 DUP2 SWAP3 PUSH2 0xA0F SWAP7 SLOAD AND GAS CALL PUSH2 0x5D6 PUSH2 0x156F JUMP JUMPDEST CODESIZE DUP5 DUP2 DUP5 PUSH2 0x9C7 JUMP JUMPDEST PUSH1 0x40 MLOAD PUSH3 0x461BCD PUSH1 0xE5 SHL DUP2 MSTORE PUSH1 0x20 PUSH1 0x4 DUP3 ADD MSTORE PUSH1 0x16 PUSH1 0x24 DUP3 ADD MSTORE PUSH22 0x125B9D995CDD1BDC881C99599D5B990819985A5B1959 PUSH1 0x52 SHL PUSH1 0x44 DUP3 ADD MSTORE PUSH1 0x64 SWAP1 REVERT JUMPDEST PUSH1 0x40 MLOAD PUSH3 0x461BCD PUSH1 0xE5 SHL DUP2 MSTORE PUSH1 0x20 PUSH1 0x4 DUP3 ADD MSTORE PUSH1 0x23 PUSH1 0x24 DUP3 ADD MSTORE PUSH32 0x46756E64696E6720646561646C696E6520686173206E6F742070617373656420 PUSH1 0x44 DUP3 ADD MSTORE PUSH3 0x1E595D PUSH1 0xEA SHL PUSH1 0x64 DUP3 ADD MSTORE PUSH1 0x84 SWAP1 REVERT JUMPDEST PUSH1 0x40 MLOAD PUSH3 0x461BCD PUSH1 0xE5 SHL DUP2 MSTORE PUSH1 0x20 PUSH1 0x4 DUP3 ADD MSTORE PUSH1 0x2A PUSH1 0x24 DUP3 ADD MSTORE PUSH32 0x4F6E6C792074686520696E766573746F722063616E2063616E63656C20612066 PUSH1 0x44 DUP3 ADD MSTORE PUSH10 0x3AB73232B2103637B0B7 PUSH1 0xB1 SHL PUSH1 0x64 DUP3 ADD MSTORE PUSH1 0x84 SWAP1 REVERT JUMPDEST POP CALLVALUE PUSH2 0xF5 JUMPI DUP1 PUSH1 0x3 NOT CALLDATASIZE ADD SLT PUSH2 0xF5 JUMPI SLOAD PUSH1 0x40 MLOAD PUSH1 0x1 PUSH1 0x1 PUSH1 0xA0 SHL SUB SWAP1 SWAP2 AND DUP2 MSTORE PUSH1 0x20 SWAP1 RETURN JUMPDEST POP PUSH1 0x20 CALLDATASIZE PUSH1 0x3 NOT ADD SLT PUSH2 0xF5 JUMPI PUSH1 0x4 CALLDATALOAD PUSH2 0xB44 PUSH1 0x1 PUSH1 0x2 SLOAD EQ PUSH2 0x14B4 JUMP JUMPDEST PUSH1 0x2 DUP1 SSTORE PUSH2 0xB51 DUP2 PUSH2 0x1463 JUMP JUMPDEST POP PUSH1 0x6 DUP2 ADD DUP1 SLOAD PUSH1 0xFF DUP2 AND PUSH1 0x6 DUP2 LT ISZERO PUSH2 0xCB5 JUMPI PUSH2 0xC70 JUMPI PUSH1 0x5 DUP4 ADD SLOAD TIMESTAMP LT ISZERO PUSH2 0xC2B JUMPI PUSH1 0x1 DUP4 ADD SLOAD CALLVALUE SUB PUSH2 0xBE6 JUMPI PUSH1 0x1 SWAP1 PUSH1 0xFF NOT AND OR SWAP1 SSTORE PUSH1 0x9 DUP2 ADD CALLER PUSH12 0xFFFFFFFFFFFFFFFFFFFFFFFF PUSH1 0xA0 SHL DUP3 SLOAD AND OR SWAP1 SSTORE CALLVALUE PUSH1 0x2 DUP3 ADD SSTORE PUSH1 0x7 TIMESTAMP SWAP2 ADD SSTORE PUSH1 0x40 MLOAD SWAP1 CALLVALUE DUP3 MSTORE PUSH32 0x38C48552690C96EC2872092AC1DB6C19FB59F5A8C5B49BBF41ED4886D0CA6926 PUSH1 0x20 CALLER SWAP4 LOG3 PUSH1 0x1 PUSH1 0x2 SSTORE DUP1 RETURN JUMPDEST PUSH1 0x40 MLOAD PUSH3 0x461BCD PUSH1 0xE5 SHL DUP2 MSTORE PUSH1 0x20 PUSH1 0x4 DUP3 ADD MSTORE PUSH1 0x1D PUSH1 0x24 DUP3 ADD MSTORE PUSH32 0x496E636F72726563742066756E64696E6720616D6F756E742073656E74000000 PUSH1 0x44 DUP3 ADD MSTORE PUSH1 0x64 SWAP1 REVERT JUMPDEST PUSH1 0x40 MLOAD PUSH3 0x461BCD PUSH1 0xE5 SHL DUP2 MSTORE PUSH1 0x20 PUSH1 0x4 DUP3 ADD MSTORE PUSH1 0x1B PUSH1 0x24 DUP3 ADD MSTORE PUSH32 0x46756E64696E6720646561646C696E6520686173207061737365640000000000 PUSH1 0x44 DUP3 ADD MSTORE PUSH1 0x64 SWAP1 REVERT JUMPDEST PUSH1 0x40 MLOAD PUSH3 0x461BCD PUSH1 0xE5 SHL DUP2 MSTORE PUSH1 0x20 PUSH1 0x4 DUP3 ADD MSTORE PUSH1 0x19 PUSH1 0x24 DUP3 ADD MSTORE PUSH32 0x4C6F616E206E6F74206F70656E20666F722066756E64696E6700000000000000 PUSH1 0x44 DUP3 ADD MSTORE PUSH1 0x64 SWAP1 REVERT JUMPDEST PUSH4 0x4E487B71 PUSH1 0xE0 SHL DUP7 MSTORE PUSH1 0x21 PUSH1 0x4 MSTORE PUSH1 0x24 DUP7 REVERT JUMPDEST POP CALLVALUE PUSH2 0xF5 JUMPI PUSH1 0x20 CALLDATASIZE PUSH1 0x3 NOT ADD SLT PUSH2 0xF5 JUMPI PUSH2 0xCE6 PUSH1 0x4 CALLDATALOAD PUSH2 0x1724 JUMP JUMPDEST DUP1 RETURN JUMPDEST POP CALLVALUE PUSH2 0xF5 JUMPI PUSH2 0xCF8 CALLDATASIZE PUSH2 0x143E JUMP JUMPDEST SWAP1 PUSH2 0xD07 PUSH1 0x1 PUSH1 0x2 SLOAD EQ PUSH2 0x14B4 JUMP JUMPDEST PUSH1 0x2 DUP1 SSTORE PUSH2 0xD14 DUP2 PUSH2 0x1724 JUMP JUMPDEST PUSH2 0xD1D DUP2 PUSH2 0x1463 JUMP JUMPDEST POP PUSH1 0x9 DUP2 ADD SWAP3 DUP4 SLOAD PUSH1 0x1 DUP1 PUSH1 0xA0 SHL SUB SWAP3 DUP4 DUP3 AND CALLER SUB PUSH2 0xFF7 JUMPI PUSH1 0xFF PUSH1 0x6 DUP3 ADD SLOAD AND PUSH1 0x6 DUP2 LT ISZERO PUSH2 0x633 JUMPI PUSH1 0x4 SUB PUSH2 0xFB9 JUMPI PUSH1 0xC DUP2 ADD SWAP1 DUP2 SLOAD SWAP3 PUSH1 0xFF DUP5 AND PUSH2 0xF68 JUMPI PUSH1 0xB DUP3 ADD SWAP5 DUP6 SLOAD ISZERO PUSH2 0xF23 JUMPI DUP7 SWAP4 PUSH2 0xD7F PUSH1 0xFF PUSH2 0xDD5 SWAP5 PUSH1 0xA0 SHR AND ISZERO PUSH2 0x15FF JUMP JUMPDEST PUSH1 0x1 PUSH1 0xFF DUP4 AND SWAP7 DUP2 DUP9 LT ISZERO DUP1 PUSH2 0xF18 JUMPI JUMPDEST PUSH2 0xD99 SWAP1 PUSH2 0x164A JUMP JUMPDEST PUSH1 0xFF NOT AND OR SWAP1 SSTORE DUP4 DUP4 SLOAD AND DUP11 MSTORE PUSH1 0x4 PUSH1 0x20 MSTORE PUSH1 0x40 DUP11 KECCAK256 PUSH2 0xDB9 DUP2 SLOAD PUSH2 0x15F0 JUMP JUMPDEST SWAP1 SSTORE DUP9 SLOAD PUSH1 0xFF PUSH1 0xA0 SHL NOT AND PUSH1 0xA0 SWAP2 SWAP1 SWAP2 SHL PUSH1 0xFF PUSH1 0xA0 SHL AND OR DUP9 SSTORE JUMP JUMPDEST SLOAD AND DUP7 MSTORE PUSH1 0x5 PUSH1 0x20 MSTORE PUSH1 0x40 DUP7 KECCAK256 PUSH2 0xDED DUP3 DUP3 SLOAD PUSH2 0x15E3 JUMP JUMPDEST SWAP1 SSTORE PUSH1 0x40 MLOAD SWAP1 DUP2 MSTORE DUP4 PUSH32 0x7514EBCAC1FEB55CC5D1869533571CCD5971AF19A7428BB57C1F780879EEC3D9 PUSH1 0x20 CALLER SWAP4 LOG3 SLOAD SWAP3 PUSH1 0xA DUP5 MUL DUP5 DUP2 DIV PUSH1 0xA EQ DUP6 ISZERO OR ISZERO PUSH2 0xF04 JUMPI PUSH1 0x64 SWAP1 DIV SWAP4 PUSH2 0xE3F DUP6 DUP3 PUSH2 0x1500 JUMP JUMPDEST PUSH2 0xE56 DUP8 DUP1 DUP1 DUP1 DUP11 DUP10 PUSH1 0x1 SLOAD AND GAS CALL PUSH2 0x7D6 PUSH2 0x156F JUMP JUMPDEST DUP7 DUP1 DUP1 DUP1 DUP5 DUP9 DUP9 SLOAD AND GAS CALL PUSH2 0xE69 PUSH2 0x156F JUMP JUMPDEST POP ISZERO PUSH2 0xEB0 JUMPI PUSH32 0x90A49CC0FFE370F13CDB2E8C2F3F91AEB86BAE3A6AA0E060DA5FB4A9B91CDE99 SWAP4 PUSH1 0x60 SWAP4 SLOAD AND SWAP6 PUSH1 0x40 MLOAD SWAP3 DUP4 MSTORE PUSH1 0x20 DUP4 ADD MSTORE PUSH1 0x40 DUP3 ADD MSTORE LOG3 PUSH1 0x1 PUSH1 0x2 SSTORE DUP1 RETURN JUMPDEST PUSH1 0x40 MLOAD PUSH3 0x461BCD PUSH1 0xE5 SHL DUP2 MSTORE PUSH1 0x20 PUSH1 0x4 DUP3 ADD MSTORE PUSH1 0x26 PUSH1 0x24 DUP3 ADD MSTORE PUSH32 0x436F6C6C61746572616C207472616E7366657220746F20696E766573746F7220 PUSH1 0x44 DUP3 ADD MSTORE PUSH6 0x19985A5B1959 PUSH1 0xD2 SHL PUSH1 0x64 DUP3 ADD MSTORE PUSH1 0x84 SWAP1 REVERT JUMPDEST PUSH4 0x4E487B71 PUSH1 0xE0 SHL DUP7 MSTORE PUSH1 0x11 PUSH1 0x4 MSTORE PUSH1 0x24 DUP7 REVERT JUMPDEST POP PUSH1 0x5 DUP9 GT ISZERO PUSH2 0xD90 JUMP JUMPDEST PUSH1 0x40 MLOAD PUSH3 0x461BCD PUSH1 0xE5 SHL DUP2 MSTORE PUSH1 0x20 PUSH1 0x4 DUP3 ADD MSTORE PUSH1 0x1B PUSH1 0x24 DUP3 ADD MSTORE PUSH32 0x54686973206C6F616E20686173206E6F20636F6C6C61746572616C0000000000 PUSH1 0x44 DUP3 ADD MSTORE PUSH1 0x64 SWAP1 REVERT JUMPDEST PUSH1 0x40 MLOAD PUSH3 0x461BCD PUSH1 0xE5 SHL DUP2 MSTORE PUSH1 0x20 PUSH1 0x4 DUP3 ADD MSTORE PUSH1 0x23 PUSH1 0x24 DUP3 ADD MSTORE PUSH32 0x436F6C6C61746572616C2068617320616C7265616479206265656E20636C6169 PUSH1 0x44 DUP3 ADD MSTORE PUSH3 0x1B5959 PUSH1 0xEA SHL PUSH1 0x64 DUP3 ADD MSTORE PUSH1 0x84 SWAP1 REVERT JUMPDEST PUSH1 0x40 MLOAD PUSH3 0x461BCD PUSH1 0xE5 SHL DUP2 MSTORE PUSH1 0x20 PUSH1 0x4 DUP3 ADD MSTORE PUSH1 0x16 PUSH1 0x24 DUP3 ADD MSTORE PUSH22 0x131BD85B881A185CC81B9BDD08191959985D5B1D1959 PUSH1 0x52 SHL PUSH1 0x44 DUP3 ADD MSTORE PUSH1 0x64 SWAP1 REVERT JUMPDEST PUSH1 0x40 MLOAD PUSH3 0x461BCD PUSH1 0xE5 SHL DUP2 MSTORE PUSH1 0x20 PUSH1 0x4 DUP3 ADD MSTORE PUSH1 0x1B PUSH1 0x24 DUP3 ADD MSTORE PUSH32 0x4F6E6C792074686520696E766573746F722063616E20636C61696D0000000000 PUSH1 0x44 DUP3 ADD MSTORE PUSH1 0x64 SWAP1 REVERT JUMPDEST POP CALLVALUE PUSH2 0xF5 JUMPI DUP1 PUSH1 0x3 NOT CALLDATASIZE ADD SLT PUSH2 0xF5 JUMPI PUSH1 0x20 PUSH1 0x3 SLOAD PUSH1 0x40 MLOAD SWAP1 DUP2 MSTORE RETURN JUMPDEST POP CALLVALUE PUSH2 0xF5 JUMPI PUSH1 0x20 CALLDATASIZE PUSH1 0x3 NOT ADD SLT PUSH2 0xF5 JUMPI PUSH1 0x4 CALLDATALOAD PUSH1 0x2 PUSH2 0x107E PUSH1 0x1 DUP3 SLOAD EQ PUSH2 0x14B4 JUMP JUMPDEST DUP1 DUP1 SSTORE PUSH2 0x108A DUP3 PUSH2 0x1463 JUMP JUMPDEST POP SWAP2 PUSH1 0x6 DUP4 ADD DUP1 SLOAD PUSH1 0xFF DUP2 AND PUSH1 0x6 DUP2 LT ISZERO PUSH2 0x11A1 JUMPI PUSH1 0x1 PUSH2 0x10AB SWAP2 EQ PUSH2 0x1523 JUMP JUMPDEST DUP5 SLOAD PUSH1 0x1 PUSH1 0x1 PUSH1 0xA0 SHL SUB AND SWAP5 CALLER DUP7 SWAP1 SUB PUSH2 0x115C JUMPI DUP7 DUP6 DUP2 SWAP5 SWAP3 DUP3 SWAP5 SWAP4 DUP3 DUP5 SWAP6 PUSH1 0xFF NOT AND OR SWAP1 SSTORE ADD SWAP7 DUP8 SLOAD SWAP1 GAS CALL PUSH2 0x10E0 PUSH2 0x156F JUMP JUMPDEST POP ISZERO PUSH2 0x1118 JUMPI PUSH32 0x69CE060F535737417B4A4EBB86AE7A865885C5C1E8106F7ED0B8BD9C52641BC6 PUSH1 0x20 PUSH1 0x1 SWAP5 SLOAD PUSH1 0x40 MLOAD SWAP1 DUP2 MSTORE LOG2 SSTORE DUP1 RETURN JUMPDEST PUSH1 0x64 PUSH1 0x40 MLOAD PUSH3 0x461BCD PUSH1 0xE5 SHL DUP2 MSTORE PUSH1 0x20 PUSH1 0x4 DUP3 ADD MSTORE PUSH1 0x20 PUSH1 0x24 DUP3 ADD MSTORE PUSH32 0x4661696C656420746F2073656E642066756E647320746F20626F72726F776572 PUSH1 0x44 DUP3 ADD MSTORE REVERT JUMPDEST PUSH1 0x40 MLOAD PUSH3 0x461BCD PUSH1 0xE5 SHL DUP2 MSTORE PUSH1 0x20 PUSH1 0x4 DUP3 ADD MSTORE PUSH1 0x1E PUSH1 0x24 DUP3 ADD MSTORE PUSH32 0x4F6E6C792074686520626F72726F7765722063616E2077697468647261770000 PUSH1 0x44 DUP3 ADD MSTORE PUSH1 0x64 SWAP1 REVERT JUMPDEST PUSH4 0x4E487B71 PUSH1 0xE0 SHL DUP8 MSTORE PUSH1 0x21 PUSH1 0x4 MSTORE PUSH1 0x24 DUP8 REVERT JUMPDEST POP CALLVALUE PUSH2 0xF5 JUMPI PUSH1 0x20 CALLDATASIZE PUSH1 0x3 NOT ADD SLT PUSH2 0xF5 JUMPI PUSH1 0x4 CALLDATALOAD PUSH1 0x1 PUSH1 0x1 PUSH1 0xA0 SHL SUB DUP2 AND SWAP1 DUP2 SWAP1 SUB PUSH2 0x1FD JUMPI DUP2 PUSH1 0x40 SWAP2 PUSH1 0x20 SWAP4 MSTORE PUSH1 0x5 DUP4 MSTORE KECCAK256 SLOAD PUSH1 0x40 MLOAD SWAP1 DUP2 MSTORE RETURN JUMPDEST POP PUSH1 0x20 DUP1 PUSH1 0x3 NOT CALLDATASIZE ADD SLT PUSH2 0x1FD JUMPI PUSH1 0x4 CALLDATALOAD PUSH2 0x1211 PUSH1 0x1 PUSH1 0x2 SLOAD EQ PUSH2 0x14B4 JUMP JUMPDEST PUSH1 0x2 DUP1 SSTORE PUSH2 0x121E DUP2 PUSH2 0x1463 JUMP JUMPDEST POP SWAP2 PUSH1 0x6 DUP4 ADD DUP1 SLOAD SWAP1 PUSH1 0xFF DUP3 AND PUSH1 0x6 DUP2 LT ISZERO PUSH2 0x11A1 JUMPI PUSH1 0x2 SUB PUSH2 0x13C2 JUMPI PUSH2 0x125B PUSH1 0x1 DUP7 ADD SLOAD PUSH2 0x2710 PUSH2 0x1254 PUSH1 0x3 DUP10 ADD SLOAD DUP4 PUSH2 0x15D0 JUMP JUMPDEST DIV SWAP1 PUSH2 0x15E3 JUMP JUMPDEST SWAP2 DUP3 CALLVALUE LT PUSH2 0x136E JUMPI PUSH1 0x3 SWAP1 DUP4 PUSH1 0x8 DUP9 ADD SSTORE PUSH1 0xFF NOT AND OR SWAP1 SSTORE DUP3 PUSH32 0xD3337F372235C0C137836A45251CD21FBA324E7EF27C7ACC5AC12451491793B9 DUP4 PUSH1 0x1 DUP1 PUSH1 0xA0 SHL SUB SWAP4 DUP5 DUP9 SLOAD AND DUP10 MSTORE PUSH1 0x4 DUP3 MSTORE PUSH1 0x40 DUP10 KECCAK256 PUSH2 0x12B6 DUP2 SLOAD PUSH2 0x15F0 JUMP JUMPDEST SWAP1 SSTORE PUSH1 0x40 MLOAD SWAP1 DUP2 MSTORE LOG2 PUSH1 0xB DUP5 ADD SWAP4 DUP6 DUP6 SLOAD DUP1 PUSH2 0x12D6 JUMPI JUMPDEST POP PUSH1 0x1 PUSH1 0x2 SSTORE DUP1 RETURN JUMPDEST DUP2 DUP1 DUP1 SWAP3 DUP7 DUP7 SLOAD AND GAS CALL PUSH2 0x12E8 PUSH2 0x156F JUMP JUMPDEST POP ISZERO PUSH2 0x1329 JUMPI SWAP1 PUSH32 0x7C5E5CB62E5ED3CAF3764E4B0AFEDFEDEF533E27809D43367799787AD2ABCD41 SWAP3 SWAP2 SLOAD AND SWAP4 SLOAD PUSH1 0x40 MLOAD SWAP1 DUP2 MSTORE LOG3 CODESIZE DUP1 DUP1 DUP1 DUP1 DUP6 DUP2 PUSH2 0x12CD JUMP JUMPDEST PUSH1 0x40 MLOAD PUSH3 0x461BCD PUSH1 0xE5 SHL DUP2 MSTORE PUSH1 0x4 DUP2 ADD DUP5 SWAP1 MSTORE PUSH1 0x1A PUSH1 0x24 DUP3 ADD MSTORE PUSH32 0x436F6C6C61746572616C207472616E73666572206661696C6564000000000000 PUSH1 0x44 DUP3 ADD MSTORE PUSH1 0x64 SWAP1 REVERT JUMPDEST PUSH1 0x40 MLOAD PUSH3 0x461BCD PUSH1 0xE5 SHL DUP2 MSTORE PUSH1 0x4 DUP2 ADD DUP6 SWAP1 MSTORE PUSH1 0x26 PUSH1 0x24 DUP3 ADD MSTORE PUSH32 0x496E73756666696369656E7420616D6F756E742073656E7420666F7220726570 PUSH1 0x44 DUP3 ADD MSTORE PUSH6 0x185E5B595B9D PUSH1 0xD2 SHL PUSH1 0x64 DUP3 ADD MSTORE PUSH1 0x84 SWAP1 REVERT JUMPDEST PUSH1 0x64 DUP4 PUSH1 0x40 MLOAD SWAP1 PUSH3 0x461BCD PUSH1 0xE5 SHL DUP3 MSTORE DUP1 PUSH1 0x4 DUP4 ADD MSTORE PUSH1 0x24 DUP3 ADD MSTORE PUSH32 0x4C6F616E206973206E6F742061637469766520666F722072657061796D656E74 PUSH1 0x44 DUP3 ADD MSTORE REVERT JUMPDEST POP CALLVALUE PUSH2 0xF5 JUMPI PUSH1 0x20 CALLDATASIZE PUSH1 0x3 NOT ADD SLT PUSH2 0xF5 JUMPI PUSH1 0x4 CALLDATALOAD SWAP1 PUSH1 0x1 PUSH1 0x1 PUSH1 0xA0 SHL SUB DUP3 AND DUP3 SUB PUSH2 0xF5 JUMPI PUSH1 0x20 PUSH2 0x1436 DUP4 PUSH2 0x17C9 JUMP JUMPDEST PUSH1 0x40 MLOAD SWAP1 DUP2 MSTORE RETURN JUMPDEST PUSH1 0x40 SWAP1 PUSH1 0x3 NOT ADD SLT PUSH2 0x145E JUMPI PUSH1 0x4 CALLDATALOAD SWAP1 PUSH1 0x24 CALLDATALOAD PUSH1 0xFF DUP2 AND DUP2 SUB PUSH2 0x145E JUMPI SWAP1 JUMP JUMPDEST PUSH1 0x0 DUP1 REVERT JUMPDEST PUSH1 0x3 SLOAD DUP2 LT ISZERO PUSH2 0x149E JUMPI PUSH1 0xD SWAP1 PUSH1 0x3 PUSH1 0x0 MSTORE MUL PUSH32 0xC2575A0E9E593C00F959F8C92F12DB2869C3395A3B0502D05E2516446F71F85B ADD SWAP1 PUSH1 0x0 SWAP1 JUMP JUMPDEST PUSH4 0x4E487B71 PUSH1 0xE0 SHL PUSH1 0x0 MSTORE PUSH1 0x32 PUSH1 0x4 MSTORE PUSH1 0x24 PUSH1 0x0 REVERT JUMPDEST ISZERO PUSH2 0x14BB JUMPI JUMP JUMPDEST PUSH1 0x40 MLOAD PUSH3 0x461BCD PUSH1 0xE5 SHL DUP2 MSTORE PUSH1 0x20 PUSH1 0x4 DUP3 ADD MSTORE PUSH1 0x1F PUSH1 0x24 DUP3 ADD MSTORE PUSH32 0x5265656E7472616E637947756172643A207265656E7472616E742063616C6C00 PUSH1 0x44 DUP3 ADD MSTORE PUSH1 0x64 SWAP1 REVERT JUMPDEST SWAP2 SWAP1 DUP3 SUB SWAP2 DUP3 GT PUSH2 0x150D JUMPI JUMP JUMPDEST PUSH4 0x4E487B71 PUSH1 0xE0 SHL PUSH1 0x0 MSTORE PUSH1 0x11 PUSH1 0x4 MSTORE PUSH1 0x24 PUSH1 0x0 REVERT JUMPDEST ISZERO PUSH2 0x152A JUMPI JUMP JUMPDEST PUSH1 0x40 MLOAD PUSH3 0x461BCD PUSH1 0xE5 SHL DUP2 MSTORE PUSH1 0x20 PUSH1 0x4 DUP3 ADD MSTORE PUSH1 0x1B PUSH1 0x24 DUP3 ADD MSTORE PUSH32 0x4C6F616E206973206E6F7420696E2046756E6465642073746174650000000000 PUSH1 0x44 DUP3 ADD MSTORE PUSH1 0x64 SWAP1 REVERT JUMPDEST RETURNDATASIZE ISZERO PUSH2 0x15CB JUMPI PUSH8 0xFFFFFFFFFFFFFFFF SWAP1 RETURNDATASIZE DUP3 DUP2 GT PUSH2 0x15B5 JUMPI PUSH1 0x40 MLOAD SWAP3 PUSH1 0x1F DUP3 ADD PUSH1 0x1F NOT SWAP1 DUP2 AND PUSH1 0x3F ADD AND DUP5 ADD SWAP1 DUP2 GT DUP5 DUP3 LT OR PUSH2 0x15B5 JUMPI PUSH1 0x40 MSTORE DUP3 MSTORE RETURNDATASIZE PUSH1 0x0 PUSH1 0x20 DUP5 ADD RETURNDATACOPY JUMP JUMPDEST PUSH4 0x4E487B71 PUSH1 0xE0 SHL PUSH1 0x0 MSTORE PUSH1 0x41 PUSH1 0x4 MSTORE PUSH1 0x24 PUSH1 0x0 REVERT JUMPDEST PUSH1 0x60 SWAP1 JUMP JUMPDEST DUP2 DUP2 MUL SWAP3 SWAP2 DUP2 ISZERO SWAP2 DUP5 DIV EQ OR ISZERO PUSH2 0x150D JUMPI JUMP JUMPDEST SWAP2 SWAP1 DUP3 ADD DUP1 SWAP3 GT PUSH2 0x150D JUMPI JUMP JUMPDEST PUSH1 0x0 NOT DUP2 EQ PUSH2 0x150D JUMPI PUSH1 0x1 ADD SWAP1 JUMP JUMPDEST ISZERO PUSH2 0x1606 JUMPI JUMP JUMPDEST PUSH1 0x64 PUSH1 0x40 MLOAD PUSH3 0x461BCD PUSH1 0xE5 SHL DUP2 MSTORE PUSH1 0x20 PUSH1 0x4 DUP3 ADD MSTORE PUSH1 0x20 PUSH1 0x24 DUP3 ADD MSTORE PUSH32 0x53636F72652068617320616C7265616479206265656E207375626D6974746564 PUSH1 0x44 DUP3 ADD MSTORE REVERT JUMPDEST ISZERO PUSH2 0x1651 JUMPI JUMP JUMPDEST PUSH1 0x40 MLOAD PUSH3 0x461BCD PUSH1 0xE5 SHL DUP2 MSTORE PUSH1 0x20 PUSH1 0x4 DUP3 ADD MSTORE PUSH1 0x1D PUSH1 0x24 DUP3 ADD MSTORE PUSH32 0x53636F7265206D757374206265206265747765656E203120616E642035000000 PUSH1 0x44 DUP3 ADD MSTORE PUSH1 0x64 SWAP1 REVERT JUMPDEST ISZERO PUSH2 0x169D JUMPI JUMP JUMPDEST PUSH1 0x40 MLOAD PUSH3 0x461BCD PUSH1 0xE5 SHL DUP2 MSTORE PUSH1 0x20 PUSH1 0x4 DUP3 ADD MSTORE PUSH1 0x13 PUSH1 0x24 DUP3 ADD MSTORE PUSH19 0x119959481D1C985B9CD9995C8819985A5B1959 PUSH1 0x6A SHL PUSH1 0x44 DUP3 ADD MSTORE PUSH1 0x64 SWAP1 REVERT JUMPDEST ISZERO PUSH2 0x16DF JUMPI JUMP JUMPDEST PUSH1 0x40 MLOAD PUSH3 0x461BCD PUSH1 0xE5 SHL DUP2 MSTORE PUSH1 0x20 PUSH1 0x4 DUP3 ADD MSTORE PUSH1 0x18 PUSH1 0x24 DUP3 ADD MSTORE PUSH32 0x436F6C6C61746572616C20726566756E64206661696C65640000000000000000 PUSH1 0x44 DUP3 ADD MSTORE PUSH1 0x64 SWAP1 REVERT JUMPDEST PUSH2 0x172D DUP2 PUSH2 0x1463 JUMP JUMPDEST POP PUSH1 0x6 DUP2 ADD DUP1 SLOAD PUSH1 0xFF DUP2 AND PUSH1 0x6 DUP2 LT ISZERO PUSH2 0x17B3 JUMPI PUSH1 0x2 EQ DUP1 PUSH2 0x1798 JUMPI JUMPDEST PUSH2 0x1755 JUMPI JUMPDEST POP POP POP POP JUMP JUMPDEST PUSH1 0x4 SWAP1 PUSH1 0xFF NOT AND OR SWAP1 SSTORE PUSH1 0xA TIMESTAMP SWAP2 ADD SSTORE PUSH32 0x84908FCA714735411D4553DDD185A4D6FDC25FDA2D15662153EF18A8AD6099B4 PUSH1 0x20 PUSH1 0x40 MLOAD TIMESTAMP DUP2 MSTORE LOG2 CODESIZE DUP1 DUP1 DUP1 PUSH2 0x174F JUMP JUMPDEST POP PUSH2 0x17AC PUSH1 0x7 DUP5 ADD SLOAD PUSH1 0x4 DUP6 ADD SLOAD SWAP1 PUSH2 0x15E3 JUMP JUMPDEST TIMESTAMP GT PUSH2 0x174A JUMP JUMPDEST PUSH4 0x4E487B71 PUSH1 0xE0 SHL PUSH1 0x0 MSTORE PUSH1 0x21 PUSH1 0x4 MSTORE PUSH1 0x24 PUSH1 0x0 REVERT JUMPDEST PUSH1 0x1 PUSH1 0x1 PUSH1 0xA0 SHL SUB AND PUSH1 0x0 DUP2 DUP2 MSTORE PUSH1 0x4 PUSH1 0x20 MSTORE PUSH1 0x40 DUP2 KECCAK256 SLOAD SWAP1 SWAP2 SWAP1 ISZERO PUSH2 0x1833 JUMPI PUSH1 0x5 PUSH1 0x20 MSTORE PUSH1 0x40 DUP3 KECCAK256 SLOAD SWAP1 PUSH1 0x64 DUP3 MUL SWAP2 DUP1 DUP4 DIV PUSH1 0x64 EQ SWAP1 ISZERO OR ISZERO PUSH2 0x3FD JUMPI DUP3 MSTORE PUSH1 0x4 PUSH1 0x20 MSTORE PUSH1 0x40 DUP3 KECCAK256 SLOAD SWAP2 DUP3 ISZERO PUSH2 0x181F JUMPI POP DIV SWAP1 JUMP JUMPDEST PUSH4 0x4E487B71 PUSH1 0xE0 SHL DUP2 MSTORE PUSH1 0x12 PUSH1 0x4 MSTORE PUSH1 0x24 SWAP1 REVERT JUMPDEST POP SWAP1 JUMP INVALID LOG2 PUSH5 0x6970667358 0x22 SLT KECCAK256 PUSH3 0xEF1F34 ADDRESS SELFBALANCE PUSH3 0x669E3F 0x2D SELFBALANCE SWAP14 0xA5 SWAP5 TIMESTAMP 0xF6 0xE BALANCE BLOCKHASH 0xB2 0x2D SWAP13 MSTORE 0xAC 0x4E 0xEA 0xDA KECCAK256 JUMPDEST PUSH30 0x1264736F6C63430008130033000000000000000000000000000000000000 "},"methodIdentifiers":{"averageScoreOfBorrower(address)":"31798f61","borrowerLoanCount(address)":"c71230bf","borrowerScoreSum(address)":"498efd7a","cancelFundedLoan(uint256)":"9f919124","cancelLoan(uint256)":"bdbfa3de","checkDefault(uint256)":"759135a1","claimCollateral(uint256,uint8)":"5f76cdfd","createLoan(uint256,uint256,uint256,uint256,uint256)":"cf2b4cbc","feeWallet()":"f25f4b56","fundLoan(uint256)":"846b909a","getLoanCount()":"52196812","loans(uint256)":"e1ec3c68","owner()":"8da5cb5b","repay(uint256)":"371fd8e6","withdrawAsBorrower(uint256)":"4d8a2e15","withdrawInvestorShare(uint256,uint8)":"b7f0b7ee"}}}}}