{"contracts/Loan.sol":{"LoanMarket":{"abi":[{"inputs":[],"stateMutability":"nonpayable","type":"constructor"},{"anonymous":false,"inputs":[{"indexed":true,"internalType":"uint256","name":"loanId","type":"uint256"},{"indexed":true,"internalType":"address","name":"investor","type":"address"},{"indexed":false,"internalType":"uint256","name":"grossAmount","type":"uint256"},{"indexed":false,"internalType":"uint256","name":"fee","type":"uint256"},{"indexed":false,"internalType":"uint256","name":"netAmount","type":"uint256"}],"name":"CollateralClaimed","type":"event"},{"anonymous":false,"inputs":[{"indexed":true,"internalType":"uint256","name":"loanId","type":"uint256"},{"indexed":true,"internalType":"address","name":"borrower","type":"address"},{"indexed":false,"internalType":"uint256","name":"amount","type":"uint256"}],"name":"CollateralWithdrawn","type":"event"},{"anonymous":false,"inputs":[{"indexed":true,"internalType":"uint256","name":"loanId","type":"uint256"},{"indexed":false,"internalType":"uint256","name":"defaultTimestamp","type":"uint256"}],"name":"Defaulted","type":"event"},{"anonymous":false,"inputs":[{"indexed":true,"internalType":"uint256","name":"loanId","type":"uint256"},{"indexed":true,"internalType":"address","name":"investor","type":"address"},{"indexed":false,"internalType":"uint256","name":"amount","type":"uint256"}],"name":"Funded","type":"event"},{"anonymous":false,"inputs":[{"indexed":true,"internalType":"uint256","name":"loanId","type":"uint256"},{"indexed":true,"internalType":"address","name":"investor","type":"address"},{"indexed":false,"internalType":"uint256","name":"amount","type":"uint256"}],"name":"InvestorWithdraw","type":"event"},{"anonymous":false,"inputs":[{"indexed":true,"internalType":"uint256","name":"loanId","type":"uint256"},{"indexed":true,"internalType":"address","name":"borrower","type":"address"}],"name":"LoanCancelled","type":"event"},{"anonymous":false,"inputs":[{"indexed":true,"internalType":"uint256","name":"loanId","type":"uint256"},{"indexed":true,"internalType":"address","name":"borrower","type":"address"},{"indexed":false,"internalType":"uint256","name":"amountRequested","type":"uint256"}],"name":"LoanCreated","type":"event"},{"anonymous":false,"inputs":[{"indexed":true,"internalType":"uint256","name":"loanId","type":"uint256"},{"indexed":false,"internalType":"uint256","name":"amount","type":"uint256"}],"name":"RepaymentMade","type":"event"},{"anonymous":false,"inputs":[{"indexed":true,"internalType":"uint256","name":"loanId","type":"uint256"},{"indexed":true,"internalType":"address","name":"investor","type":"address"},{"indexed":false,"internalType":"uint8","name":"score","type":"uint8"}],"name":"ScoreLeft","type":"event"},{"anonymous":false,"inputs":[{"indexed":true,"internalType":"uint256","name":"loanId","type":"uint256"},{"indexed":false,"internalType":"uint256","name":"amount","type":"uint256"}],"name":"WithdrawnByBorrower","type":"event"},{"inputs":[{"internalType":"address","name":"borrower","type":"address"}],"name":"averageScoreOfBorrower","outputs":[{"internalType":"uint256","name":"avgTimes100","type":"uint256"}],"stateMutability":"view","type":"function"},{"inputs":[{"internalType":"uint256","name":"loanId","type":"uint256"}],"name":"checkDefault","outputs":[],"stateMutability":"nonpayable","type":"function"},{"inputs":[{"internalType":"uint256","name":"loanId","type":"uint256"}],"name":"claimCollateral","outputs":[],"stateMutability":"nonpayable","type":"function"},{"inputs":[{"internalType":"uint256","name":"amountRequested","type":"uint256"},{"internalType":"uint256","name":"interestBps","type":"uint256"},{"internalType":"uint256","name":"durationSecs","type":"uint256"},{"internalType":"uint256","name":"fundingDeadline","type":"uint256"},{"internalType":"uint256","name":"collateralAmount","type":"uint256"}],"name":"createLoan","outputs":[{"internalType":"uint256","name":"loanId","type":"uint256"}],"stateMutability":"payable","type":"function"},{"inputs":[],"name":"feeWallet","outputs":[{"internalType":"address payable","name":"","type":"address"}],"stateMutability":"view","type":"function"},{"inputs":[{"internalType":"uint256","name":"loanId","type":"uint256"}],"name":"fundLoan","outputs":[],"stateMutability":"payable","type":"function"},{"inputs":[],"name":"getLoanCount","outputs":[{"internalType":"uint256","name":"","type":"uint256"}],"stateMutability":"view","type":"function"},{"inputs":[{"internalType":"uint256","name":"loanId","type":"uint256"},{"internalType":"uint8","name":"score","type":"uint8"}],"name":"leaveScore","outputs":[],"stateMutability":"nonpayable","type":"function"},{"inputs":[{"internalType":"uint256","name":"","type":"uint256"}],"name":"loans","outputs":[{"internalType":"address","name":"borrower","type":"address"},{"internalType":"uint256","name":"amountRequested","type":"uint256"},{"internalType":"uint256","name":"amountFunded","type":"uint256"},{"internalType":"uint256","name":"interestBps","type":"uint256"},{"internalType":"uint256","name":"durationSecs","type":"uint256"},{"internalType":"uint256","name":"fundingDeadline","type":"uint256"},{"internalType":"enum LoanMarket.Status","name":"status","type":"uint8"},{"internalType":"uint256","name":"startTimestamp","type":"uint256"},{"internalType":"uint256","name":"totalRepayment","type":"uint256"},{"internalType":"address","name":"investor","type":"address"},{"internalType":"uint8","name":"score","type":"uint8"},{"internalType":"uint256","name":"defaultTimestamp","type":"uint256"},{"internalType":"uint256","name":"collateralAmount","type":"uint256"},{"internalType":"bool","name":"collateralClaimed","type":"bool"}],"stateMutability":"view","type":"function"},{"inputs":[],"name":"owner","outputs":[{"internalType":"address","name":"","type":"address"}],"stateMutability":"view","type":"function"},{"inputs":[{"internalType":"uint256","name":"loanId","type":"uint256"}],"name":"repay","outputs":[],"stateMutability":"payable","type":"function"},{"inputs":[{"internalType":"uint256","name":"loanId","type":"uint256"}],"name":"withdrawAsBorrower","outputs":[],"stateMutability":"nonpayable","type":"function"},{"inputs":[{"internalType":"uint256","name":"loanId","type":"uint256"}],"name":"withdrawCollateral","outputs":[],"stateMutability":"nonpayable","type":"function"},{"inputs":[{"internalType":"uint256","name":"loanId","type":"uint256"}],"name":"withdrawInvestorShare","outputs":[],"stateMutability":"nonpayable","type":"function"},{"inputs":[{"internalType":"uint256","name":"","type":"uint256"}],"name":"withdrawableOf","outputs":[{"internalType":"uint256","name":"","type":"uint256"}],"stateMutability":"view","type":"function"},{"stateMutability":"payable","type":"receive"}],"evm":{"bytecode":{"linkReferences":{},"object":"6080806040523461004b5760018060a01b0319730fade5b267b572dc1f002d1b9148976ccce9c8c881600154161760015560016002553390600054161760005561164690816100518239f35b600080fdfe6080604052600436101561005d575b361561001957600080fd5b606460405162461bcd60e51b815260206004820152602060248201527f5573652066756e644c6f616e286c6f616e49642920746f2073656e64204554486044820152fd5b60003560e01c806331798f6114611242578063371fd8e6146110705780634d8a2e1514610ed85780635219681214610eba5780635786276614610c6d5780636112fe2e14610b17578063759135a114610af9578063846b909a146109705780638da5cb5b14610947578063c49785b41461076a578063c66afff31461056f578063cf2b4cbc14610262578063d1fdb3e814610236578063e1ec3c68146101355763f25f4b560361000e5734610130576000366003190112610130576001546040516001600160a01b039091168152602090f35b600080fd5b34610130576020366003190112610130576004356003548110156101305761015c90611279565b5060018060a01b038154166001820154600283015492600381015493600482015460058301549560ff60068501541691600785015497600886015491600987015493600a8801549660ff600c600b8b01549a015416996040519b8c5260208c015260408b015260608a0152608089015260a08801526006831015610220576101c09760ff9360c089015260e088015261010087015260018060a01b03811661012087015260a01c1661014085015261016084015261018083015215156101a0820152f35b634e487b7160e01b600052602160045260246000fd5b346101305760203660031901126101305760043560005260046020526020604060002054604051908152f35b60a0366003190112610130576064356084356004351561052a57428211156104e5578034036104aa57604051916101c0830183811067ffffffffffffffff821117610494576040523383526004356020840152604083019060008252606084019060243582526080850193604435855260a08601918252600060c0870152600060e0870152600061010087015260006101208701526000610140870152600061016087015261018086015260006101a086015260035468010000000000000000811015610494578060016103399201600355611279565b94909461047e57855185546001600160a01b03199081166001600160a01b0392831617875560208801516001880155945160028701559251600386015551600485015551600584015560c0840151926006808201939190851015610220576103fb6101a093600c9360ff96871998888a835416911617905560e08901516007850155610100890151600885015560098401916101208a01511690825416178155856101408901511681549060ff60a01b9060a01b169060ff60a01b1916179055565b610160860151600a820155610180860151600b8201550193015115159183541691161790556003546000198101908111610468576020906040516004358152817f8910ba13a55695f056e224bbbc6b65d866b12a8c2fbdf387fb853a1cca298cd7843393a3604051908152f35b634e487b7160e01b600052601160045260246000fd5b634e487b7160e01b600052600060045260246000fd5b634e487b7160e01b600052604160045260246000fd5b60405162461bcd60e51b8152602060048201526013602482015272086ded8d8c2e8cae4c2d840dad2e6dac2e8c6d606b1b6044820152606490fd5b60405162461bcd60e51b815260206004820152601e60248201527f446561646c696e65206d75737420626520696e207468652066757475726500006044820152606490fd5b60405162461bcd60e51b815260206004820152601d60248201527f416d6f756e74206d7573742062652067726561746572207468616e20300000006044820152606490fd5b3461013057602080600319360112610130576004356105926001600254146112d7565b6002805561059f81611279565b5060098101546001600160a01b039391906105bd9085163314611457565b83600154161561073057826000526004825260406000205490811561070157600101546000848152600484526040812055808211156106ba5761060090826112ca565b600a810290808204600a1490151715610468576000808093610627606483950480926112ca565b97600154165af161063661135e565b5015610689577f0afeafe87af56d204cca28eefeec305c8d8bcb1907103f969f87e9a978745c2990610678600080808088335af161067261135e565b50611492565b6040519384523393a35b6001600255005b6064906040519062461bcd60e51b82526004820152600a6024820152691199594819985a5b195960b21b6044820152fd5b5092507f0afeafe87af56d204cca28eefeec305c8d8bcb1907103f969f87e9a978745c29906106f3600080808088335af161067261135e565b6040519384523393a3610682565b60405162461bcd60e51b81526004810184905260076024820152664e6f7468696e6760c81b6044820152606490fd5b60405162461bcd60e51b8152600481018390526012602482015271119959481dd85b1b195d081b9bdd081cd95d60721b6044820152606490fd5b346101305760203660031901126101305760043561078c6001600254146112d7565b6002805561079981611279565b50906009820160018060a01b03906107b5828254163314611457565b60ff60068501541660068110156102205760040361091257600c840193600b8554916107e460ff841615611596565b01549460018615926107f684156115d4565b60ff1916179055600a850290858204600a14171561046857606490049361081d85826112ca565b60008080808988600154165af161083261135e565b50156108d757600080808084888854165af161084c61135e565b5015610892577f90a49cc0ffe370f13cdb2e8c2f3f91aeb86bae3a6aa0e060da5fb4a9b91cde999360609354169560405192835260208301526040820152a36001600255005b60405162461bcd60e51b815260206004820152601860248201527f496e766573746f72207472616e73666572206661696c656400000000000000006044820152606490fd5b60405162461bcd60e51b8152602060048201526013602482015272119959481d1c985b9cd9995c8819985a5b1959606a1b6044820152606490fd5b60405162461bcd60e51b815260206004820152600d60248201526c139bdd08191959985d5b1d1959609a1b6044820152606490fd5b34610130576000366003190112610130576000546040516001600160a01b039091168152602090f35b6020806003193601126101305760043561098981611279565b5060068101805460ff8116600681101561022057610ac95760058301544211610a925760018301543403610a5c576009830180546001600160a01b038116610a2657906001929134600287015533906bffffffffffffffffffffffff60a01b1617905560ff19161790556007429101557f38c48552690c96ec2872092ac1db6c19fb59f5a8c5b49bbf41ed4886d0ca6926604051923484523393a3005b60405162461bcd60e51b815260048101889052600e60248201526d105b1c9958591e48199d5b99195960921b6044820152606490fd5b60405162461bcd60e51b815260048101869052600e60248201526d135d5cdd08199d5b9908199d5b1b60921b6044820152606490fd5b60405162461bcd60e51b815260048101869052600f60248201526e111958591b1a5b99481c185cdcd959608a1b6044820152606490fd5b60405162461bcd60e51b81526004810186905260086024820152672737ba1037b832b760c11b6044820152606490fd5b3461013057602036600319011261013057610b156004356113b6565b005b3461013057602036600319011261013057600435610b396001600254146112d7565b60028055610b4681611279565b5080546001600160a01b039081169291610b61338514611323565b60ff600682015416600681101561022057600303610c3b576000808080600c850197885490610b9360ff831615611596565b600b87019960018b5493610ba88515156115d4565b60ff19161790555af1610bb961135e565b5015610bf6577f7c5e5cb62e5ed3caf3764e4b0afedfedef533e27809d43367799787ad2abcd419160209154169354604051908152a36001600255005b60405162461bcd60e51b815260206004820152601a60248201527f436f6c6c61746572616c207472616e73666572206661696c65640000000000006044820152606490fd5b60405162461bcd60e51b815260206004820152600a602482015269139bdd081c995c185a5960b21b6044820152606490fd5b3461013057604036600319011261013057600435602490813560ff81169283820361013057600354831015610e8457610ca583611279565b506009810180549092916001600160a01b0382163303610e3457600660ff910154166006811015610e1f5760038114908115610e14575b5015610dd957600186101580610dce575b15610d8a5760a01c60ff16610d465750805460ff60a01b191660a09290921b60ff60a01b169190911790556040519182527f7514ebcac1feb55cc5d1869533571ccd5971af19a7428bb57c1f780879eec3d960203393a3005b606490601b6040519162461bcd60e51b8352602060048401528201527f53636f72652068617320616c7265616479206265656e206c65667400000000006044820152fd5b60405162461bcd60e51b815260206004820152601d818401527f53636f7265206d757374206265206265747765656e203120616e6420350000006044820152606490fd5b506005861115610ced565b60405162461bcd60e51b81526020600482015260148184015273131bd85b881a5cc81b9bdd08199a5b9a5cda195960621b6044820152606490fd5b600491501487610cdc565b82634e487b7160e01b60005260216004526000fd5b60405162461bcd60e51b8152602060048201526023818501527f4f6e6c792074686520696e766573746f722063616e206c6561766520612073636044820152626f726560e81b6064820152608490fd5b606490600f6040519162461bcd60e51b8352602060048401528201526e125b9d985b1a59081b1bd85b881251608a1b6044820152fd5b34610130576000366003190112610130576020600354604051908152f35b346101305760208060031936011261013057600435600290610efd60018354146112d7565b818055610f0981611279565b50610f1e60018060a01b038254163314611323565b6006810180549160ff831660068110156102205760010361103e57600b8101541561100357840154918215610fd25760ff191684179055600080808084335af1610f6661135e565b5015610f9b576001937f69ce060f535737417b4a4ebb86ae7a865885c5c1e8106f7ed0b8bd9c52641bc691604051908152a255005b60405162461bcd60e51b815260048101859052600f60248201526e151c985b9cd9995c8819985a5b1959608a1b6044820152606490fd5b60405162461bcd60e51b8152600481018790526009602482015268139bc8185b5bdd5b9d60ba1b6044820152606490fd5b60405162461bcd60e51b815260048101879052601360248201527210dbdb1b185d195c985b081c995c5d5a5c9959606a1b6044820152606490fd5b60405162461bcd60e51b815260048101879052600a602482015269139bdd08199d5b99195960b21b6044820152606490fd5b602080600319360112610130576004359061108f6001600254146112d7565b6002805561109c82611279565b506110b160018060a01b038254163314611323565b6006810160ff815416600681101580610220576002821480928115611233575b50156111fe57610220576111f0575b6001820154600383015490818102918183041481151715610468576127106111099204906113a9565b918234106111be57600883910155600360ff1982541617905582600052600482528060406000205580341161116a575b907fd3337f372235c0c137836a45251cd21fba324e7ef27c7acc5ac12451491793b991604051908152a26001600255005b600080808061117985346112ca565b335af161118461135e565b506111395760405162461bcd60e51b815260048101839052600d60248201526c1499599d5b990819985a5b1959609a1b6044820152606490fd5b60405162461bcd60e51b815260048101859052600a60248201526909cdee840cadcdeeaced60b31b6044820152606490fd5b6111f9846113b6565b6110e0565b60405162461bcd60e51b815260048101869052600d60248201526c4e6f7420726570617961626c6560981b6044820152606490fd5b915050600460009114876110d1565b34610130576020366003190112610130576004356001600160a01b0381168103610130576112716020916114db565b604051908152f35b6003548110156112b457600d906003600052027fc2575a0e9e593c00f959f8c92f12db2869c3395a3b0502d05e2516446f71f85b0190600090565b634e487b7160e01b600052603260045260246000fd5b9190820391821161046857565b156112de57565b60405162461bcd60e51b815260206004820152601f60248201527f5265656e7472616e637947756172643a207265656e7472616e742063616c6c006044820152606490fd5b1561132a57565b60405162461bcd60e51b815260206004820152600c60248201526b2737ba103137b93937bbb2b960a11b6044820152606490fd5b3d156113a45767ffffffffffffffff903d8281116104945760405192601f8201601f19908116603f01168401908111848210176104945760405282523d6000602084013e565b606090565b9190820180921161046857565b6113bf81611279565b5060068101805460ff81166006811015610220576002148061143c575b80611430575b6113ed575b50505050565b60049060ff1916179055600a429101557f84908fca714735411d4553ddd185a4d6fdc25fda2d15662153ef18a8ad6099b46020604051428152a2388080806113e7565b50600a830154156113e2565b5061145060078401546004850154906113a9565b42116113dc565b1561145e57565b60405162461bcd60e51b815260206004820152600c60248201526b2737ba1034b73b32b9ba37b960a11b6044820152606490fd5b1561149957565b60405162461bcd60e51b815260206004820152600b60248201526a14d95b990819985a5b195960aa1b6044820152606490fd5b60001981146104685760010190565b600080918190600354915b82811061151457505050811561150d57606481029080820460641490151715610468570490565b5050600090565b61151d81611279565b50546001600160a01b038381169116148061157a575b611546575b611541906114cc565b6114e6565b939261157261156c6115419260ff600961155f8a611279565b50015460a01c16906113a9565b946114cc565b949050611538565b5060ff600961158883611279565b50015460a01c161515611533565b1561159d57565b60405162461bcd60e51b815260206004820152600f60248201526e105b1c9958591e4818db185a5b5959608a1b6044820152606490fd5b156115db57565b60405162461bcd60e51b815260206004820152600d60248201526c139bc818dbdb1b185d195c985b609a1b6044820152606490fdfea2646970667358221220b93d807649361c73115b14c53e4ae7f85db6dbfeaec52b7b13e2ecdd3a1d086364736f6c63430008130033","opcodes":"PUSH1 0x80 DUP1 PUSH1 0x40 MSTORE CALLVALUE PUSH2 0x4B JUMPI PUSH1 0x1 DUP1 PUSH1 0xA0 SHL SUB NOT PUSH20 0xFADE5B267B572DC1F002D1B9148976CCCE9C8C8 DUP2 PUSH1 0x1 SLOAD AND OR PUSH1 0x1 SSTORE PUSH1 0x1 PUSH1 0x2 SSTORE CALLER SWAP1 PUSH1 0x0 SLOAD AND OR PUSH1 0x0 SSTORE PUSH2 0x1646 SWAP1 DUP2 PUSH2 0x51 DUP3 CODECOPY RETURN JUMPDEST PUSH1 0x0 DUP1 REVERT INVALID PUSH1 0x80 PUSH1 0x40 MSTORE PUSH1 0x4 CALLDATASIZE LT ISZERO PUSH2 0x5D JUMPI JUMPDEST CALLDATASIZE ISZERO PUSH2 0x19 JUMPI PUSH1 0x0 DUP1 REVERT JUMPDEST PUSH1 0x64 PUSH1 0x40 MLOAD PUSH3 0x461BCD PUSH1 0xE5 SHL DUP2 MSTORE PUSH1 0x20 PUSH1 0x4 DUP3 ADD MSTORE PUSH1 0x20 PUSH1 0x24 DUP3 ADD MSTORE PUSH32 0x5573652066756E644C6F616E286C6F616E49642920746F2073656E6420455448 PUSH1 0x44 DUP3 ADD MSTORE REVERT JUMPDEST PUSH1 0x0 CALLDATALOAD PUSH1 0xE0 SHR DUP1 PUSH4 0x31798F61 EQ PUSH2 0x1242 JUMPI DUP1 PUSH4 0x371FD8E6 EQ PUSH2 0x1070 JUMPI DUP1 PUSH4 0x4D8A2E15 EQ PUSH2 0xED8 JUMPI DUP1 PUSH4 0x52196812 EQ PUSH2 0xEBA JUMPI DUP1 PUSH4 0x57862766 EQ PUSH2 0xC6D JUMPI DUP1 PUSH4 0x6112FE2E EQ PUSH2 0xB17 JUMPI DUP1 PUSH4 0x759135A1 EQ PUSH2 0xAF9 JUMPI DUP1 PUSH4 0x846B909A EQ PUSH2 0x970 JUMPI DUP1 PUSH4 0x8DA5CB5B EQ PUSH2 0x947 JUMPI DUP1 PUSH4 0xC49785B4 EQ PUSH2 0x76A JUMPI DUP1 PUSH4 0xC66AFFF3 EQ PUSH2 0x56F JUMPI DUP1 PUSH4 0xCF2B4CBC EQ PUSH2 0x262 JUMPI DUP1 PUSH4 0xD1FDB3E8 EQ PUSH2 0x236 JUMPI DUP1 PUSH4 0xE1EC3C68 EQ PUSH2 0x135 JUMPI PUSH4 0xF25F4B56 SUB PUSH2 0xE JUMPI CALLVALUE PUSH2 0x130 JUMPI PUSH1 0x0 CALLDATASIZE PUSH1 0x3 NOT ADD SLT PUSH2 0x130 JUMPI PUSH1 0x1 SLOAD PUSH1 0x40 MLOAD PUSH1 0x1 PUSH1 0x1 PUSH1 0xA0 SHL SUB SWAP1 SWAP2 AND DUP2 MSTORE PUSH1 0x20 SWAP1 RETURN JUMPDEST PUSH1 0x0 DUP1 REVERT JUMPDEST CALLVALUE PUSH2 0x130 JUMPI PUSH1 0x20 CALLDATASIZE PUSH1 0x3 NOT ADD SLT PUSH2 0x130 JUMPI PUSH1 0x4 CALLDATALOAD PUSH1 0x3 SLOAD DUP2 LT ISZERO PUSH2 0x130 JUMPI PUSH2 0x15C SWAP1 PUSH2 0x1279 JUMP JUMPDEST POP PUSH1 0x1 DUP1 PUSH1 0xA0 SHL SUB DUP2 SLOAD AND PUSH1 0x1 DUP3 ADD SLOAD PUSH1 0x2 DUP4 ADD SLOAD SWAP3 PUSH1 0x3 DUP2 ADD SLOAD SWAP4 PUSH1 0x4 DUP3 ADD SLOAD PUSH1 0x5 DUP4 ADD SLOAD SWAP6 PUSH1 0xFF PUSH1 0x6 DUP6 ADD SLOAD AND SWAP2 PUSH1 0x7 DUP6 ADD SLOAD SWAP8 PUSH1 0x8 DUP7 ADD SLOAD SWAP2 PUSH1 0x9 DUP8 ADD SLOAD SWAP4 PUSH1 0xA DUP9 ADD SLOAD SWAP7 PUSH1 0xFF PUSH1 0xC PUSH1 0xB DUP12 ADD SLOAD SWAP11 ADD SLOAD AND SWAP10 PUSH1 0x40 MLOAD SWAP12 DUP13 MSTORE PUSH1 0x20 DUP13 ADD MSTORE PUSH1 0x40 DUP12 ADD MSTORE PUSH1 0x60 DUP11 ADD MSTORE PUSH1 0x80 DUP10 ADD MSTORE PUSH1 0xA0 DUP9 ADD MSTORE PUSH1 0x6 DUP4 LT ISZERO PUSH2 0x220 JUMPI PUSH2 0x1C0 SWAP8 PUSH1 0xFF SWAP4 PUSH1 0xC0 DUP10 ADD MSTORE PUSH1 0xE0 DUP9 ADD MSTORE PUSH2 0x100 DUP8 ADD MSTORE PUSH1 0x1 DUP1 PUSH1 0xA0 SHL SUB DUP2 AND PUSH2 0x120 DUP8 ADD MSTORE PUSH1 0xA0 SHR AND PUSH2 0x140 DUP6 ADD MSTORE PUSH2 0x160 DUP5 ADD MSTORE PUSH2 0x180 DUP4 ADD MSTORE ISZERO ISZERO PUSH2 0x1A0 DUP3 ADD MSTORE RETURN JUMPDEST PUSH4 0x4E487B71 PUSH1 0xE0 SHL PUSH1 0x0 MSTORE PUSH1 0x21 PUSH1 0x4 MSTORE PUSH1 0x24 PUSH1 0x0 REVERT JUMPDEST CALLVALUE PUSH2 0x130 JUMPI PUSH1 0x20 CALLDATASIZE PUSH1 0x3 NOT ADD SLT PUSH2 0x130 JUMPI PUSH1 0x4 CALLDATALOAD PUSH1 0x0 MSTORE PUSH1 0x4 PUSH1 0x20 MSTORE PUSH1 0x20 PUSH1 0x40 PUSH1 0x0 KECCAK256 SLOAD PUSH1 0x40 MLOAD SWAP1 DUP2 MSTORE RETURN JUMPDEST PUSH1 0xA0 CALLDATASIZE PUSH1 0x3 NOT ADD SLT PUSH2 0x130 JUMPI PUSH1 0x64 CALLDATALOAD PUSH1 0x84 CALLDATALOAD PUSH1 0x4 CALLDATALOAD ISZERO PUSH2 0x52A JUMPI TIMESTAMP DUP3 GT ISZERO PUSH2 0x4E5 JUMPI DUP1 CALLVALUE SUB PUSH2 0x4AA JUMPI PUSH1 0x40 MLOAD SWAP2 PUSH2 0x1C0 DUP4 ADD DUP4 DUP2 LT PUSH8 0xFFFFFFFFFFFFFFFF DUP3 GT OR PUSH2 0x494 JUMPI PUSH1 0x40 MSTORE CALLER DUP4 MSTORE PUSH1 0x4 CALLDATALOAD PUSH1 0x20 DUP5 ADD MSTORE PUSH1 0x40 DUP4 ADD SWAP1 PUSH1 0x0 DUP3 MSTORE PUSH1 0x60 DUP5 ADD SWAP1 PUSH1 0x24 CALLDATALOAD DUP3 MSTORE PUSH1 0x80 DUP6 ADD SWAP4 PUSH1 0x44 CALLDATALOAD DUP6 MSTORE PUSH1 0xA0 DUP7 ADD SWAP2 DUP3 MSTORE PUSH1 0x0 PUSH1 0xC0 DUP8 ADD MSTORE PUSH1 0x0 PUSH1 0xE0 DUP8 ADD MSTORE PUSH1 0x0 PUSH2 0x100 DUP8 ADD MSTORE PUSH1 0x0 PUSH2 0x120 DUP8 ADD MSTORE PUSH1 0x0 PUSH2 0x140 DUP8 ADD MSTORE PUSH1 0x0 PUSH2 0x160 DUP8 ADD MSTORE PUSH2 0x180 DUP7 ADD MSTORE PUSH1 0x0 PUSH2 0x1A0 DUP7 ADD MSTORE PUSH1 0x3 SLOAD PUSH9 0x10000000000000000 DUP2 LT ISZERO PUSH2 0x494 JUMPI DUP1 PUSH1 0x1 PUSH2 0x339 SWAP3 ADD PUSH1 0x3 SSTORE PUSH2 0x1279 JUMP JUMPDEST SWAP5 SWAP1 SWAP5 PUSH2 0x47E JUMPI DUP6 MLOAD DUP6 SLOAD PUSH1 0x1 PUSH1 0x1 PUSH1 0xA0 SHL SUB NOT SWAP1 DUP2 AND PUSH1 0x1 PUSH1 0x1 PUSH1 0xA0 SHL SUB SWAP3 DUP4 AND OR DUP8 SSTORE PUSH1 0x20 DUP9 ADD MLOAD PUSH1 0x1 DUP9 ADD SSTORE SWAP5 MLOAD PUSH1 0x2 DUP8 ADD SSTORE SWAP3 MLOAD PUSH1 0x3 DUP7 ADD SSTORE MLOAD PUSH1 0x4 DUP6 ADD SSTORE MLOAD PUSH1 0x5 DUP5 ADD SSTORE PUSH1 0xC0 DUP5 ADD MLOAD SWAP3 PUSH1 0x6 DUP1 DUP3 ADD SWAP4 SWAP2 SWAP1 DUP6 LT ISZERO PUSH2 0x220 JUMPI PUSH2 0x3FB PUSH2 0x1A0 SWAP4 PUSH1 0xC SWAP4 PUSH1 0xFF SWAP7 DUP8 NOT SWAP9 DUP9 DUP11 DUP4 SLOAD AND SWAP2 AND OR SWAP1 SSTORE PUSH1 0xE0 DUP10 ADD MLOAD PUSH1 0x7 DUP6 ADD SSTORE PUSH2 0x100 DUP10 ADD MLOAD PUSH1 0x8 DUP6 ADD SSTORE PUSH1 0x9 DUP5 ADD SWAP2 PUSH2 0x120 DUP11 ADD MLOAD AND SWAP1 DUP3 SLOAD AND OR DUP2 SSTORE DUP6 PUSH2 0x140 DUP10 ADD MLOAD AND DUP2 SLOAD SWAP1 PUSH1 0xFF PUSH1 0xA0 SHL SWAP1 PUSH1 0xA0 SHL AND SWAP1 PUSH1 0xFF PUSH1 0xA0 SHL NOT AND OR SWAP1 SSTORE JUMP JUMPDEST PUSH2 0x160 DUP7 ADD MLOAD PUSH1 0xA DUP3 ADD SSTORE PUSH2 0x180 DUP7 ADD MLOAD PUSH1 0xB DUP3 ADD SSTORE ADD SWAP4 ADD MLOAD ISZERO ISZERO SWAP2 DUP4 SLOAD AND SWAP2 AND OR SWAP1 SSTORE PUSH1 0x3 SLOAD PUSH1 0x0 NOT DUP2 ADD SWAP1 DUP2 GT PUSH2 0x468 JUMPI PUSH1 0x20 SWAP1 PUSH1 0x40 MLOAD PUSH1 0x4 CALLDATALOAD DUP2 MSTORE DUP2 PUSH32 0x8910BA13A55695F056E224BBBC6B65D866B12A8C2FBDF387FB853A1CCA298CD7 DUP5 CALLER SWAP4 LOG3 PUSH1 0x40 MLOAD SWAP1 DUP2 MSTORE RETURN JUMPDEST PUSH4 0x4E487B71 PUSH1 0xE0 SHL PUSH1 0x0 MSTORE PUSH1 0x11 PUSH1 0x4 MSTORE PUSH1 0x24 PUSH1 0x0 REVERT JUMPDEST PUSH4 0x4E487B71 PUSH1 0xE0 SHL PUSH1 0x0 MSTORE PUSH1 0x0 PUSH1 0x4 MSTORE PUSH1 0x24 PUSH1 0x0 REVERT JUMPDEST PUSH4 0x4E487B71 PUSH1 0xE0 SHL PUSH1 0x0 MSTORE PUSH1 0x41 PUSH1 0x4 MSTORE PUSH1 0x24 PUSH1 0x0 REVERT JUMPDEST PUSH1 0x40 MLOAD PUSH3 0x461BCD PUSH1 0xE5 SHL DUP2 MSTORE PUSH1 0x20 PUSH1 0x4 DUP3 ADD MSTORE PUSH1 0x13 PUSH1 0x24 DUP3 ADD MSTORE PUSH19 0x86DED8D8C2E8CAE4C2D840DAD2E6DAC2E8C6D PUSH1 0x6B SHL PUSH1 0x44 DUP3 ADD MSTORE PUSH1 0x64 SWAP1 REVERT JUMPDEST PUSH1 0x40 MLOAD PUSH3 0x461BCD PUSH1 0xE5 SHL DUP2 MSTORE PUSH1 0x20 PUSH1 0x4 DUP3 ADD MSTORE PUSH1 0x1E PUSH1 0x24 DUP3 ADD MSTORE PUSH32 0x446561646C696E65206D75737420626520696E20746865206675747572650000 PUSH1 0x44 DUP3 ADD MSTORE PUSH1 0x64 SWAP1 REVERT JUMPDEST PUSH1 0x40 MLOAD PUSH3 0x461BCD PUSH1 0xE5 SHL DUP2 MSTORE PUSH1 0x20 PUSH1 0x4 DUP3 ADD MSTORE PUSH1 0x1D PUSH1 0x24 DUP3 ADD MSTORE PUSH32 0x416D6F756E74206D7573742062652067726561746572207468616E2030000000 PUSH1 0x44 DUP3 ADD MSTORE PUSH1 0x64 SWAP1 REVERT JUMPDEST CALLVALUE PUSH2 0x130 JUMPI PUSH1 0x20 DUP1 PUSH1 0x3 NOT CALLDATASIZE ADD SLT PUSH2 0x130 JUMPI PUSH1 0x4 CALLDATALOAD PUSH2 0x592 PUSH1 0x1 PUSH1 0x2 SLOAD EQ PUSH2 0x12D7 JUMP JUMPDEST PUSH1 0x2 DUP1 SSTORE PUSH2 0x59F DUP2 PUSH2 0x1279 JUMP JUMPDEST POP PUSH1 0x9 DUP2 ADD SLOAD PUSH1 0x1 PUSH1 0x1 PUSH1 0xA0 SHL SUB SWAP4 SWAP2 SWAP1 PUSH2 0x5BD SWAP1 DUP6 AND CALLER EQ PUSH2 0x1457 JUMP JUMPDEST DUP4 PUSH1 0x1 SLOAD AND ISZERO PUSH2 0x730 JUMPI DUP3 PUSH1 0x0 MSTORE PUSH1 0x4 DUP3 MSTORE PUSH1 0x40 PUSH1 0x0 KECCAK256 SLOAD SWAP1 DUP2 ISZERO PUSH2 0x701 JUMPI PUSH1 0x1 ADD SLOAD PUSH1 0x0 DUP5 DUP2 MSTORE PUSH1 0x4 DUP5 MSTORE PUSH1 0x40 DUP2 KECCAK256 SSTORE DUP1 DUP3 GT ISZERO PUSH2 0x6BA JUMPI PUSH2 0x600 SWAP1 DUP3 PUSH2 0x12CA JUMP JUMPDEST PUSH1 0xA DUP2 MUL SWAP1 DUP1 DUP3 DIV PUSH1 0xA EQ SWAP1 ISZERO OR ISZERO PUSH2 0x468 JUMPI PUSH1 0x0 DUP1 DUP1 SWAP4 PUSH2 0x627 PUSH1 0x64 DUP4 SWAP6 DIV DUP1 SWAP3 PUSH2 0x12CA JUMP JUMPDEST SWAP8 PUSH1 0x1 SLOAD AND GAS CALL PUSH2 0x636 PUSH2 0x135E JUMP JUMPDEST POP ISZERO PUSH2 0x689 JUMPI PUSH32 0xAFEAFE87AF56D204CCA28EEFEEC305C8D8BCB1907103F969F87E9A978745C29 SWAP1 PUSH2 0x678 PUSH1 0x0 DUP1 DUP1 DUP1 DUP9 CALLER GAS CALL PUSH2 0x672 PUSH2 0x135E JUMP JUMPDEST POP PUSH2 0x1492 JUMP JUMPDEST PUSH1 0x40 MLOAD SWAP4 DUP5 MSTORE CALLER SWAP4 LOG3 JUMPDEST PUSH1 0x1 PUSH1 0x2 SSTORE STOP JUMPDEST PUSH1 0x64 SWAP1 PUSH1 0x40 MLOAD SWAP1 PUSH3 0x461BCD PUSH1 0xE5 SHL DUP3 MSTORE PUSH1 0x4 DUP3 ADD MSTORE PUSH1 0xA PUSH1 0x24 DUP3 ADD MSTORE PUSH10 0x1199594819985A5B1959 PUSH1 0xB2 SHL PUSH1 0x44 DUP3 ADD MSTORE REVERT JUMPDEST POP SWAP3 POP PUSH32 0xAFEAFE87AF56D204CCA28EEFEEC305C8D8BCB1907103F969F87E9A978745C29 SWAP1 PUSH2 0x6F3 PUSH1 0x0 DUP1 DUP1 DUP1 DUP9 CALLER GAS CALL PUSH2 0x672 PUSH2 0x135E JUMP JUMPDEST PUSH1 0x40 MLOAD SWAP4 DUP5 MSTORE CALLER SWAP4 LOG3 PUSH2 0x682 JUMP JUMPDEST PUSH1 0x40 MLOAD PUSH3 0x461BCD PUSH1 0xE5 SHL DUP2 MSTORE PUSH1 0x4 DUP2 ADD DUP5 SWAP1 MSTORE PUSH1 0x7 PUSH1 0x24 DUP3 ADD MSTORE PUSH7 0x4E6F7468696E67 PUSH1 0xC8 SHL PUSH1 0x44 DUP3 ADD MSTORE PUSH1 0x64 SWAP1 REVERT JUMPDEST PUSH1 0x40 MLOAD PUSH3 0x461BCD PUSH1 0xE5 SHL DUP2 MSTORE PUSH1 0x4 DUP2 ADD DUP4 SWAP1 MSTORE PUSH1 0x12 PUSH1 0x24 DUP3 ADD MSTORE PUSH18 0x119959481DD85B1B195D081B9BDD081CD95D PUSH1 0x72 SHL PUSH1 0x44 DUP3 ADD MSTORE PUSH1 0x64 SWAP1 REVERT JUMPDEST CALLVALUE PUSH2 0x130 JUMPI PUSH1 0x20 CALLDATASIZE PUSH1 0x3 NOT ADD SLT PUSH2 0x130 JUMPI PUSH1 0x4 CALLDATALOAD PUSH2 0x78C PUSH1 0x1 PUSH1 0x2 SLOAD EQ PUSH2 0x12D7 JUMP JUMPDEST PUSH1 0x2 DUP1 SSTORE PUSH2 0x799 DUP2 PUSH2 0x1279 JUMP JUMPDEST POP SWAP1 PUSH1 0x9 DUP3 ADD PUSH1 0x1 DUP1 PUSH1 0xA0 SHL SUB SWAP1 PUSH2 0x7B5 DUP3 DUP3 SLOAD AND CALLER EQ PUSH2 0x1457 JUMP JUMPDEST PUSH1 0xFF PUSH1 0x6 DUP6 ADD SLOAD AND PUSH1 0x6 DUP2 LT ISZERO PUSH2 0x220 JUMPI PUSH1 0x4 SUB PUSH2 0x912 JUMPI PUSH1 0xC DUP5 ADD SWAP4 PUSH1 0xB DUP6 SLOAD SWAP2 PUSH2 0x7E4 PUSH1 0xFF DUP5 AND ISZERO PUSH2 0x1596 JUMP JUMPDEST ADD SLOAD SWAP5 PUSH1 0x1 DUP7 ISZERO SWAP3 PUSH2 0x7F6 DUP5 ISZERO PUSH2 0x15D4 JUMP JUMPDEST PUSH1 0xFF NOT AND OR SWAP1 SSTORE PUSH1 0xA DUP6 MUL SWAP1 DUP6 DUP3 DIV PUSH1 0xA EQ OR ISZERO PUSH2 0x468 JUMPI PUSH1 0x64 SWAP1 DIV SWAP4 PUSH2 0x81D DUP6 DUP3 PUSH2 0x12CA JUMP JUMPDEST PUSH1 0x0 DUP1 DUP1 DUP1 DUP10 DUP9 PUSH1 0x1 SLOAD AND GAS CALL PUSH2 0x832 PUSH2 0x135E JUMP JUMPDEST POP ISZERO PUSH2 0x8D7 JUMPI PUSH1 0x0 DUP1 DUP1 DUP1 DUP5 DUP9 DUP9 SLOAD AND GAS CALL PUSH2 0x84C PUSH2 0x135E JUMP JUMPDEST POP ISZERO PUSH2 0x892 JUMPI PUSH32 0x90A49CC0FFE370F13CDB2E8C2F3F91AEB86BAE3A6AA0E060DA5FB4A9B91CDE99 SWAP4 PUSH1 0x60 SWAP4 SLOAD AND SWAP6 PUSH1 0x40 MLOAD SWAP3 DUP4 MSTORE PUSH1 0x20 DUP4 ADD MSTORE PUSH1 0x40 DUP3 ADD MSTORE LOG3 PUSH1 0x1 PUSH1 0x2 SSTORE STOP JUMPDEST PUSH1 0x40 MLOAD PUSH3 0x461BCD PUSH1 0xE5 SHL DUP2 MSTORE PUSH1 0x20 PUSH1 0x4 DUP3 ADD MSTORE PUSH1 0x18 PUSH1 0x24 DUP3 ADD MSTORE PUSH32 0x496E766573746F72207472616E73666572206661696C65640000000000000000 PUSH1 0x44 DUP3 ADD MSTORE PUSH1 0x64 SWAP1 REVERT JUMPDEST PUSH1 0x40 MLOAD PUSH3 0x461BCD PUSH1 0xE5 SHL DUP2 MSTORE PUSH1 0x20 PUSH1 0x4 DUP3 ADD MSTORE PUSH1 0x13 PUSH1 0x24 DUP3 ADD MSTORE PUSH19 0x119959481D1C985B9CD9995C8819985A5B1959 PUSH1 0x6A SHL PUSH1 0x44 DUP3 ADD MSTORE PUSH1 0x64 SWAP1 REVERT JUMPDEST PUSH1 0x40 MLOAD PUSH3 0x461BCD PUSH1 0xE5 SHL DUP2 MSTORE PUSH1 0x20 PUSH1 0x4 DUP3 ADD MSTORE PUSH1 0xD PUSH1 0x24 DUP3 ADD MSTORE PUSH13 0x139BDD08191959985D5B1D1959 PUSH1 0x9A SHL PUSH1 0x44 DUP3 ADD MSTORE PUSH1 0x64 SWAP1 REVERT JUMPDEST CALLVALUE PUSH2 0x130 JUMPI PUSH1 0x0 CALLDATASIZE PUSH1 0x3 NOT ADD SLT PUSH2 0x130 JUMPI PUSH1 0x0 SLOAD PUSH1 0x40 MLOAD PUSH1 0x1 PUSH1 0x1 PUSH1 0xA0 SHL SUB SWAP1 SWAP2 AND DUP2 MSTORE PUSH1 0x20 SWAP1 RETURN JUMPDEST PUSH1 0x20 DUP1 PUSH1 0x3 NOT CALLDATASIZE ADD SLT PUSH2 0x130 JUMPI PUSH1 0x4 CALLDATALOAD PUSH2 0x989 DUP2 PUSH2 0x1279 JUMP JUMPDEST POP PUSH1 0x6 DUP2 ADD DUP1 SLOAD PUSH1 0xFF DUP2 AND PUSH1 0x6 DUP2 LT ISZERO PUSH2 0x220 JUMPI PUSH2 0xAC9 JUMPI PUSH1 0x5 DUP4 ADD SLOAD TIMESTAMP GT PUSH2 0xA92 JUMPI PUSH1 0x1 DUP4 ADD SLOAD CALLVALUE SUB PUSH2 0xA5C JUMPI PUSH1 0x9 DUP4 ADD DUP1 SLOAD PUSH1 0x1 PUSH1 0x1 PUSH1 0xA0 SHL SUB DUP2 AND PUSH2 0xA26 JUMPI SWAP1 PUSH1 0x1 SWAP3 SWAP2 CALLVALUE PUSH1 0x2 DUP8 ADD SSTORE CALLER SWAP1 PUSH12 0xFFFFFFFFFFFFFFFFFFFFFFFF PUSH1 0xA0 SHL AND OR SWAP1 SSTORE PUSH1 0xFF NOT AND OR SWAP1 SSTORE PUSH1 0x7 TIMESTAMP SWAP2 ADD SSTORE PUSH32 0x38C48552690C96EC2872092AC1DB6C19FB59F5A8C5B49BBF41ED4886D0CA6926 PUSH1 0x40 MLOAD SWAP3 CALLVALUE DUP5 MSTORE CALLER SWAP4 LOG3 STOP JUMPDEST PUSH1 0x40 MLOAD PUSH3 0x461BCD PUSH1 0xE5 SHL DUP2 MSTORE PUSH1 0x4 DUP2 ADD DUP9 SWAP1 MSTORE PUSH1 0xE PUSH1 0x24 DUP3 ADD MSTORE PUSH14 0x105B1C9958591E48199D5B991959 PUSH1 0x92 SHL PUSH1 0x44 DUP3 ADD MSTORE PUSH1 0x64 SWAP1 REVERT JUMPDEST PUSH1 0x40 MLOAD PUSH3 0x461BCD PUSH1 0xE5 SHL DUP2 MSTORE PUSH1 0x4 DUP2 ADD DUP7 SWAP1 MSTORE PUSH1 0xE PUSH1 0x24 DUP3 ADD MSTORE PUSH14 0x135D5CDD08199D5B9908199D5B1B PUSH1 0x92 SHL PUSH1 0x44 DUP3 ADD MSTORE PUSH1 0x64 SWAP1 REVERT JUMPDEST PUSH1 0x40 MLOAD PUSH3 0x461BCD PUSH1 0xE5 SHL DUP2 MSTORE PUSH1 0x4 DUP2 ADD DUP7 SWAP1 MSTORE PUSH1 0xF PUSH1 0x24 DUP3 ADD MSTORE PUSH15 0x111958591B1A5B99481C185CDCD959 PUSH1 0x8A SHL PUSH1 0x44 DUP3 ADD MSTORE PUSH1 0x64 SWAP1 REVERT JUMPDEST PUSH1 0x40 MLOAD PUSH3 0x461BCD PUSH1 0xE5 SHL DUP2 MSTORE PUSH1 0x4 DUP2 ADD DUP7 SWAP1 MSTORE PUSH1 0x8 PUSH1 0x24 DUP3 ADD MSTORE PUSH8 0x2737BA1037B832B7 PUSH1 0xC1 SHL PUSH1 0x44 DUP3 ADD MSTORE PUSH1 0x64 SWAP1 REVERT JUMPDEST CALLVALUE PUSH2 0x130 JUMPI PUSH1 0x20 CALLDATASIZE PUSH1 0x3 NOT ADD SLT PUSH2 0x130 JUMPI PUSH2 0xB15 PUSH1 0x4 CALLDATALOAD PUSH2 0x13B6 JUMP JUMPDEST STOP JUMPDEST CALLVALUE PUSH2 0x130 JUMPI PUSH1 0x20 CALLDATASIZE PUSH1 0x3 NOT ADD SLT PUSH2 0x130 JUMPI PUSH1 0x4 CALLDATALOAD PUSH2 0xB39 PUSH1 0x1 PUSH1 0x2 SLOAD EQ PUSH2 0x12D7 JUMP JUMPDEST PUSH1 0x2 DUP1 SSTORE PUSH2 0xB46 DUP2 PUSH2 0x1279 JUMP JUMPDEST POP DUP1 SLOAD PUSH1 0x1 PUSH1 0x1 PUSH1 0xA0 SHL SUB SWAP1 DUP2 AND SWAP3 SWAP2 PUSH2 0xB61 CALLER DUP6 EQ PUSH2 0x1323 JUMP JUMPDEST PUSH1 0xFF PUSH1 0x6 DUP3 ADD SLOAD AND PUSH1 0x6 DUP2 LT ISZERO PUSH2 0x220 JUMPI PUSH1 0x3 SUB PUSH2 0xC3B JUMPI PUSH1 0x0 DUP1 DUP1 DUP1 PUSH1 0xC DUP6 ADD SWAP8 DUP9 SLOAD SWAP1 PUSH2 0xB93 PUSH1 0xFF DUP4 AND ISZERO PUSH2 0x1596 JUMP JUMPDEST PUSH1 0xB DUP8 ADD SWAP10 PUSH1 0x1 DUP12 SLOAD SWAP4 PUSH2 0xBA8 DUP6 ISZERO ISZERO PUSH2 0x15D4 JUMP JUMPDEST PUSH1 0xFF NOT AND OR SWAP1 SSTORE GAS CALL PUSH2 0xBB9 PUSH2 0x135E JUMP JUMPDEST POP ISZERO PUSH2 0xBF6 JUMPI PUSH32 0x7C5E5CB62E5ED3CAF3764E4B0AFEDFEDEF533E27809D43367799787AD2ABCD41 SWAP2 PUSH1 0x20 SWAP2 SLOAD AND SWAP4 SLOAD PUSH1 0x40 MLOAD SWAP1 DUP2 MSTORE LOG3 PUSH1 0x1 PUSH1 0x2 SSTORE STOP JUMPDEST PUSH1 0x40 MLOAD PUSH3 0x461BCD PUSH1 0xE5 SHL DUP2 MSTORE PUSH1 0x20 PUSH1 0x4 DUP3 ADD MSTORE PUSH1 0x1A PUSH1 0x24 DUP3 ADD MSTORE PUSH32 0x436F6C6C61746572616C207472616E73666572206661696C6564000000000000 PUSH1 0x44 DUP3 ADD MSTORE PUSH1 0x64 SWAP1 REVERT JUMPDEST PUSH1 0x40 MLOAD PUSH3 0x461BCD PUSH1 0xE5 SHL DUP2 MSTORE PUSH1 0x20 PUSH1 0x4 DUP3 ADD MSTORE PUSH1 0xA PUSH1 0x24 DUP3 ADD MSTORE PUSH10 0x139BDD081C995C185A59 PUSH1 0xB2 SHL PUSH1 0x44 DUP3 ADD MSTORE PUSH1 0x64 SWAP1 REVERT JUMPDEST CALLVALUE PUSH2 0x130 JUMPI PUSH1 0x40 CALLDATASIZE PUSH1 0x3 NOT ADD SLT PUSH2 0x130 JUMPI PUSH1 0x4 CALLDATALOAD PUSH1 0x24 SWAP1 DUP2 CALLDATALOAD PUSH1 0xFF DUP2 AND SWAP3 DUP4 DUP3 SUB PUSH2 0x130 JUMPI PUSH1 0x3 SLOAD DUP4 LT ISZERO PUSH2 0xE84 JUMPI PUSH2 0xCA5 DUP4 PUSH2 0x1279 JUMP JUMPDEST POP PUSH1 0x9 DUP2 ADD DUP1 SLOAD SWAP1 SWAP3 SWAP2 PUSH1 0x1 PUSH1 0x1 PUSH1 0xA0 SHL SUB DUP3 AND CALLER SUB PUSH2 0xE34 JUMPI PUSH1 0x6 PUSH1 0xFF SWAP2 ADD SLOAD AND PUSH1 0x6 DUP2 LT ISZERO PUSH2 0xE1F JUMPI PUSH1 0x3 DUP2 EQ SWAP1 DUP2 ISZERO PUSH2 0xE14 JUMPI JUMPDEST POP ISZERO PUSH2 0xDD9 JUMPI PUSH1 0x1 DUP7 LT ISZERO DUP1 PUSH2 0xDCE JUMPI JUMPDEST ISZERO PUSH2 0xD8A JUMPI PUSH1 0xA0 SHR PUSH1 0xFF AND PUSH2 0xD46 JUMPI POP DUP1 SLOAD PUSH1 0xFF PUSH1 0xA0 SHL NOT AND PUSH1 0xA0 SWAP3 SWAP1 SWAP3 SHL PUSH1 0xFF PUSH1 0xA0 SHL AND SWAP2 SWAP1 SWAP2 OR SWAP1 SSTORE PUSH1 0x40 MLOAD SWAP2 DUP3 MSTORE PUSH32 0x7514EBCAC1FEB55CC5D1869533571CCD5971AF19A7428BB57C1F780879EEC3D9 PUSH1 0x20 CALLER SWAP4 LOG3 STOP JUMPDEST PUSH1 0x64 SWAP1 PUSH1 0x1B PUSH1 0x40 MLOAD SWAP2 PUSH3 0x461BCD PUSH1 0xE5 SHL DUP4 MSTORE PUSH1 0x20 PUSH1 0x4 DUP5 ADD MSTORE DUP3 ADD MSTORE PUSH32 0x53636F72652068617320616C7265616479206265656E206C6566740000000000 PUSH1 0x44 DUP3 ADD MSTORE REVERT JUMPDEST PUSH1 0x40 MLOAD PUSH3 0x461BCD PUSH1 0xE5 SHL DUP2 MSTORE PUSH1 0x20 PUSH1 0x4 DUP3 ADD MSTORE PUSH1 0x1D DUP2 DUP5 ADD MSTORE PUSH32 0x53636F7265206D757374206265206265747765656E203120616E642035000000 PUSH1 0x44 DUP3 ADD MSTORE PUSH1 0x64 SWAP1 REVERT JUMPDEST POP PUSH1 0x5 DUP7 GT ISZERO PUSH2 0xCED JUMP JUMPDEST PUSH1 0x40 MLOAD PUSH3 0x461BCD PUSH1 0xE5 SHL DUP2 MSTORE PUSH1 0x20 PUSH1 0x4 DUP3 ADD MSTORE PUSH1 0x14 DUP2 DUP5 ADD MSTORE PUSH20 0x131BD85B881A5CC81B9BDD08199A5B9A5CDA1959 PUSH1 0x62 SHL PUSH1 0x44 DUP3 ADD MSTORE PUSH1 0x64 SWAP1 REVERT JUMPDEST PUSH1 0x4 SWAP2 POP EQ DUP8 PUSH2 0xCDC JUMP JUMPDEST DUP3 PUSH4 0x4E487B71 PUSH1 0xE0 SHL PUSH1 0x0 MSTORE PUSH1 0x21 PUSH1 0x4 MSTORE PUSH1 0x0 REVERT JUMPDEST PUSH1 0x40 MLOAD PUSH3 0x461BCD PUSH1 0xE5 SHL DUP2 MSTORE PUSH1 0x20 PUSH1 0x4 DUP3 ADD MSTORE PUSH1 0x23 DUP2 DUP6 ADD MSTORE PUSH32 0x4F6E6C792074686520696E766573746F722063616E206C656176652061207363 PUSH1 0x44 DUP3 ADD MSTORE PUSH3 0x6F7265 PUSH1 0xE8 SHL PUSH1 0x64 DUP3 ADD MSTORE PUSH1 0x84 SWAP1 REVERT JUMPDEST PUSH1 0x64 SWAP1 PUSH1 0xF PUSH1 0x40 MLOAD SWAP2 PUSH3 0x461BCD PUSH1 0xE5 SHL DUP4 MSTORE PUSH1 0x20 PUSH1 0x4 DUP5 ADD MSTORE DUP3 ADD MSTORE PUSH15 0x125B9D985B1A59081B1BD85B881251 PUSH1 0x8A SHL PUSH1 0x44 DUP3 ADD MSTORE REVERT JUMPDEST CALLVALUE PUSH2 0x130 JUMPI PUSH1 0x0 CALLDATASIZE PUSH1 0x3 NOT ADD SLT PUSH2 0x130 JUMPI PUSH1 0x20 PUSH1 0x3 SLOAD PUSH1 0x40 MLOAD SWAP1 DUP2 MSTORE RETURN JUMPDEST CALLVALUE PUSH2 0x130 JUMPI PUSH1 0x20 DUP1 PUSH1 0x3 NOT CALLDATASIZE ADD SLT PUSH2 0x130 JUMPI PUSH1 0x4 CALLDATALOAD PUSH1 0x2 SWAP1 PUSH2 0xEFD PUSH1 0x1 DUP4 SLOAD EQ PUSH2 0x12D7 JUMP JUMPDEST DUP2 DUP1 SSTORE PUSH2 0xF09 DUP2 PUSH2 0x1279 JUMP JUMPDEST POP PUSH2 0xF1E PUSH1 0x1 DUP1 PUSH1 0xA0 SHL SUB DUP3 SLOAD AND CALLER EQ PUSH2 0x1323 JUMP JUMPDEST PUSH1 0x6 DUP2 ADD DUP1 SLOAD SWAP2 PUSH1 0xFF DUP4 AND PUSH1 0x6 DUP2 LT ISZERO PUSH2 0x220 JUMPI PUSH1 0x1 SUB PUSH2 0x103E JUMPI PUSH1 0xB DUP2 ADD SLOAD ISZERO PUSH2 0x1003 JUMPI DUP5 ADD SLOAD SWAP2 DUP3 ISZERO PUSH2 0xFD2 JUMPI PUSH1 0xFF NOT AND DUP5 OR SWAP1 SSTORE PUSH1 0x0 DUP1 DUP1 DUP1 DUP5 CALLER GAS CALL PUSH2 0xF66 PUSH2 0x135E JUMP JUMPDEST POP ISZERO PUSH2 0xF9B JUMPI PUSH1 0x1 SWAP4 PUSH32 0x69CE060F535737417B4A4EBB86AE7A865885C5C1E8106F7ED0B8BD9C52641BC6 SWAP2 PUSH1 0x40 MLOAD SWAP1 DUP2 MSTORE LOG2 SSTORE STOP JUMPDEST PUSH1 0x40 MLOAD PUSH3 0x461BCD PUSH1 0xE5 SHL DUP2 MSTORE PUSH1 0x4 DUP2 ADD DUP6 SWAP1 MSTORE PUSH1 0xF PUSH1 0x24 DUP3 ADD MSTORE PUSH15 0x151C985B9CD9995C8819985A5B1959 PUSH1 0x8A SHL PUSH1 0x44 DUP3 ADD MSTORE PUSH1 0x64 SWAP1 REVERT JUMPDEST PUSH1 0x40 MLOAD PUSH3 0x461BCD PUSH1 0xE5 SHL DUP2 MSTORE PUSH1 0x4 DUP2 ADD DUP8 SWAP1 MSTORE PUSH1 0x9 PUSH1 0x24 DUP3 ADD MSTORE PUSH9 0x139BC8185B5BDD5B9D PUSH1 0xBA SHL PUSH1 0x44 DUP3 ADD MSTORE PUSH1 0x64 SWAP1 REVERT JUMPDEST PUSH1 0x40 MLOAD PUSH3 0x461BCD PUSH1 0xE5 SHL DUP2 MSTORE PUSH1 0x4 DUP2 ADD DUP8 SWAP1 MSTORE PUSH1 0x13 PUSH1 0x24 DUP3 ADD MSTORE PUSH19 0x10DBDB1B185D195C985B081C995C5D5A5C9959 PUSH1 0x6A SHL PUSH1 0x44 DUP3 ADD MSTORE PUSH1 0x64 SWAP1 REVERT JUMPDEST PUSH1 0x40 MLOAD PUSH3 0x461BCD PUSH1 0xE5 SHL DUP2 MSTORE PUSH1 0x4 DUP2 ADD DUP8 SWAP1 MSTORE PUSH1 0xA PUSH1 0x24 DUP3 ADD MSTORE PUSH10 0x139BDD08199D5B991959 PUSH1 0xB2 SHL PUSH1 0x44 DUP3 ADD MSTORE PUSH1 0x64 SWAP1 REVERT JUMPDEST PUSH1 0x20 DUP1 PUSH1 0x3 NOT CALLDATASIZE ADD SLT PUSH2 0x130 JUMPI PUSH1 0x4 CALLDATALOAD SWAP1 PUSH2 0x108F PUSH1 0x1 PUSH1 0x2 SLOAD EQ PUSH2 0x12D7 JUMP JUMPDEST PUSH1 0x2 DUP1 SSTORE PUSH2 0x109C DUP3 PUSH2 0x1279 JUMP JUMPDEST POP PUSH2 0x10B1 PUSH1 0x1 DUP1 PUSH1 0xA0 SHL SUB DUP3 SLOAD AND CALLER EQ PUSH2 0x1323 JUMP JUMPDEST PUSH1 0x6 DUP2 ADD PUSH1 0xFF DUP2 SLOAD AND PUSH1 0x6 DUP2 LT ISZERO DUP1 PUSH2 0x220 JUMPI PUSH1 0x2 DUP3 EQ DUP1 SWAP3 DUP2 ISZERO PUSH2 0x1233 JUMPI JUMPDEST POP ISZERO PUSH2 0x11FE JUMPI PUSH2 0x220 JUMPI PUSH2 0x11F0 JUMPI JUMPDEST PUSH1 0x1 DUP3 ADD SLOAD PUSH1 0x3 DUP4 ADD SLOAD SWAP1 DUP2 DUP2 MUL SWAP2 DUP2 DUP4 DIV EQ DUP2 ISZERO OR ISZERO PUSH2 0x468 JUMPI PUSH2 0x2710 PUSH2 0x1109 SWAP3 DIV SWAP1 PUSH2 0x13A9 JUMP JUMPDEST SWAP2 DUP3 CALLVALUE LT PUSH2 0x11BE JUMPI PUSH1 0x8 DUP4 SWAP2 ADD SSTORE PUSH1 0x3 PUSH1 0xFF NOT DUP3 SLOAD AND OR SWAP1 SSTORE DUP3 PUSH1 0x0 MSTORE PUSH1 0x4 DUP3 MSTORE DUP1 PUSH1 0x40 PUSH1 0x0 KECCAK256 SSTORE DUP1 CALLVALUE GT PUSH2 0x116A JUMPI JUMPDEST SWAP1 PUSH32 0xD3337F372235C0C137836A45251CD21FBA324E7EF27C7ACC5AC12451491793B9 SWAP2 PUSH1 0x40 MLOAD SWAP1 DUP2 MSTORE LOG2 PUSH1 0x1 PUSH1 0x2 SSTORE STOP JUMPDEST PUSH1 0x0 DUP1 DUP1 DUP1 PUSH2 0x1179 DUP6 CALLVALUE PUSH2 0x12CA JUMP JUMPDEST CALLER GAS CALL PUSH2 0x1184 PUSH2 0x135E JUMP JUMPDEST POP PUSH2 0x1139 JUMPI PUSH1 0x40 MLOAD PUSH3 0x461BCD PUSH1 0xE5 SHL DUP2 MSTORE PUSH1 0x4 DUP2 ADD DUP4 SWAP1 MSTORE PUSH1 0xD PUSH1 0x24 DUP3 ADD MSTORE PUSH13 0x1499599D5B990819985A5B1959 PUSH1 0x9A SHL PUSH1 0x44 DUP3 ADD MSTORE PUSH1 0x64 SWAP1 REVERT JUMPDEST PUSH1 0x40 MLOAD PUSH3 0x461BCD PUSH1 0xE5 SHL DUP2 MSTORE PUSH1 0x4 DUP2 ADD DUP6 SWAP1 MSTORE PUSH1 0xA PUSH1 0x24 DUP3 ADD MSTORE PUSH10 0x9CDEE840CADCDEEACED PUSH1 0xB3 SHL PUSH1 0x44 DUP3 ADD MSTORE PUSH1 0x64 SWAP1 REVERT JUMPDEST PUSH2 0x11F9 DUP5 PUSH2 0x13B6 JUMP JUMPDEST PUSH2 0x10E0 JUMP JUMPDEST PUSH1 0x40 MLOAD PUSH3 0x461BCD PUSH1 0xE5 SHL DUP2 MSTORE PUSH1 0x4 DUP2 ADD DUP7 SWAP1 MSTORE PUSH1 0xD PUSH1 0x24 DUP3 ADD MSTORE PUSH13 0x4E6F7420726570617961626C65 PUSH1 0x98 SHL PUSH1 0x44 DUP3 ADD MSTORE PUSH1 0x64 SWAP1 REVERT JUMPDEST SWAP2 POP POP PUSH1 0x4 PUSH1 0x0 SWAP2 EQ DUP8 PUSH2 0x10D1 JUMP JUMPDEST CALLVALUE PUSH2 0x130 JUMPI PUSH1 0x20 CALLDATASIZE PUSH1 0x3 NOT ADD SLT PUSH2 0x130 JUMPI PUSH1 0x4 CALLDATALOAD PUSH1 0x1 PUSH1 0x1 PUSH1 0xA0 SHL SUB DUP2 AND DUP2 SUB PUSH2 0x130 JUMPI PUSH2 0x1271 PUSH1 0x20 SWAP2 PUSH2 0x14DB JUMP JUMPDEST PUSH1 0x40 MLOAD SWAP1 DUP2 MSTORE RETURN JUMPDEST PUSH1 0x3 SLOAD DUP2 LT ISZERO PUSH2 0x12B4 JUMPI PUSH1 0xD SWAP1 PUSH1 0x3 PUSH1 0x0 MSTORE MUL PUSH32 0xC2575A0E9E593C00F959F8C92F12DB2869C3395A3B0502D05E2516446F71F85B ADD SWAP1 PUSH1 0x0 SWAP1 JUMP JUMPDEST PUSH4 0x4E487B71 PUSH1 0xE0 SHL PUSH1 0x0 MSTORE PUSH1 0x32 PUSH1 0x4 MSTORE PUSH1 0x24 PUSH1 0x0 REVERT JUMPDEST SWAP2 SWAP1 DUP3 SUB SWAP2 DUP3 GT PUSH2 0x468 JUMPI JUMP JUMPDEST ISZERO PUSH2 0x12DE JUMPI JUMP JUMPDEST PUSH1 0x40 MLOAD PUSH3 0x461BCD PUSH1 0xE5 SHL DUP2 MSTORE PUSH1 0x20 PUSH1 0x4 DUP3 ADD MSTORE PUSH1 0x1F PUSH1 0x24 DUP3 ADD MSTORE PUSH32 0x5265656E7472616E637947756172643A207265656E7472616E742063616C6C00 PUSH1 0x44 DUP3 ADD MSTORE PUSH1 0x64 SWAP1 REVERT JUMPDEST ISZERO PUSH2 0x132A JUMPI JUMP JUMPDEST PUSH1 0x40 MLOAD PUSH3 0x461BCD PUSH1 0xE5 SHL DUP2 MSTORE PUSH1 0x20 PUSH1 0x4 DUP3 ADD MSTORE PUSH1 0xC PUSH1 0x24 DUP3 ADD MSTORE PUSH12 0x2737BA103137B93937BBB2B9 PUSH1 0xA1 SHL PUSH1 0x44 DUP3 ADD MSTORE PUSH1 0x64 SWAP1 REVERT JUMPDEST RETURNDATASIZE ISZERO PUSH2 0x13A4 JUMPI PUSH8 0xFFFFFFFFFFFFFFFF SWAP1 RETURNDATASIZE DUP3 DUP2 GT PUSH2 0x494 JUMPI PUSH1 0x40 MLOAD SWAP3 PUSH1 0x1F DUP3 ADD PUSH1 0x1F NOT SWAP1 DUP2 AND PUSH1 0x3F ADD AND DUP5 ADD SWAP1 DUP2 GT DUP5 DUP3 LT OR PUSH2 0x494 JUMPI PUSH1 0x40 MSTORE DUP3 MSTORE RETURNDATASIZE PUSH1 0x0 PUSH1 0x20 DUP5 ADD RETURNDATACOPY JUMP JUMPDEST PUSH1 0x60 SWAP1 JUMP JUMPDEST SWAP2 SWAP1 DUP3 ADD DUP1 SWAP3 GT PUSH2 0x468 JUMPI JUMP JUMPDEST PUSH2 0x13BF DUP2 PUSH2 0x1279 JUMP JUMPDEST POP PUSH1 0x6 DUP2 ADD DUP1 SLOAD PUSH1 0xFF DUP2 AND PUSH1 0x6 DUP2 LT ISZERO PUSH2 0x220 JUMPI PUSH1 0x2 EQ DUP1 PUSH2 0x143C JUMPI JUMPDEST DUP1 PUSH2 0x1430 JUMPI JUMPDEST PUSH2 0x13ED JUMPI JUMPDEST POP POP POP POP JUMP JUMPDEST PUSH1 0x4 SWAP1 PUSH1 0xFF NOT AND OR SWAP1 SSTORE PUSH1 0xA TIMESTAMP SWAP2 ADD SSTORE PUSH32 0x84908FCA714735411D4553DDD185A4D6FDC25FDA2D15662153EF18A8AD6099B4 PUSH1 0x20 PUSH1 0x40 MLOAD TIMESTAMP DUP2 MSTORE LOG2 CODESIZE DUP1 DUP1 DUP1 PUSH2 0x13E7 JUMP JUMPDEST POP PUSH1 0xA DUP4 ADD SLOAD ISZERO PUSH2 0x13E2 JUMP JUMPDEST POP PUSH2 0x1450 PUSH1 0x7 DUP5 ADD SLOAD PUSH1 0x4 DUP6 ADD SLOAD SWAP1 PUSH2 0x13A9 JUMP JUMPDEST TIMESTAMP GT PUSH2 0x13DC JUMP JUMPDEST ISZERO PUSH2 0x145E JUMPI JUMP JUMPDEST PUSH1 0x40 MLOAD PUSH3 0x461BCD PUSH1 0xE5 SHL DUP2 MSTORE PUSH1 0x20 PUSH1 0x4 DUP3 ADD MSTORE PUSH1 0xC PUSH1 0x24 DUP3 ADD MSTORE PUSH12 0x2737BA1034B73B32B9BA37B9 PUSH1 0xA1 SHL PUSH1 0x44 DUP3 ADD MSTORE PUSH1 0x64 SWAP1 REVERT JUMPDEST ISZERO PUSH2 0x1499 JUMPI JUMP JUMPDEST PUSH1 0x40 MLOAD PUSH3 0x461BCD PUSH1 0xE5 SHL DUP2 MSTORE PUSH1 0x20 PUSH1 0x4 DUP3 ADD MSTORE PUSH1 0xB PUSH1 0x24 DUP3 ADD MSTORE PUSH11 0x14D95B990819985A5B1959 PUSH1 0xAA SHL PUSH1 0x44 DUP3 ADD MSTORE PUSH1 0x64 SWAP1 REVERT JUMPDEST PUSH1 0x0 NOT DUP2 EQ PUSH2 0x468 JUMPI PUSH1 0x1 ADD SWAP1 JUMP JUMPDEST PUSH1 0x0 DUP1 SWAP2 DUP2 SWAP1 PUSH1 0x3 SLOAD SWAP2 JUMPDEST DUP3 DUP2 LT PUSH2 0x1514 JUMPI POP POP POP DUP2 ISZERO PUSH2 0x150D JUMPI PUSH1 0x64 DUP2 MUL SWAP1 DUP1 DUP3 DIV PUSH1 0x64 EQ SWAP1 ISZERO OR ISZERO PUSH2 0x468 JUMPI DIV SWAP1 JUMP JUMPDEST POP POP PUSH1 0x0 SWAP1 JUMP JUMPDEST PUSH2 0x151D DUP2 PUSH2 0x1279 JUMP JUMPDEST POP SLOAD PUSH1 0x1 PUSH1 0x1 PUSH1 0xA0 SHL SUB DUP4 DUP2 AND SWAP2 AND EQ DUP1 PUSH2 0x157A JUMPI JUMPDEST PUSH2 0x1546 JUMPI JUMPDEST PUSH2 0x1541 SWAP1 PUSH2 0x14CC JUMP JUMPDEST PUSH2 0x14E6 JUMP JUMPDEST SWAP4 SWAP3 PUSH2 0x1572 PUSH2 0x156C PUSH2 0x1541 SWAP3 PUSH1 0xFF PUSH1 0x9 PUSH2 0x155F DUP11 PUSH2 0x1279 JUMP JUMPDEST POP ADD SLOAD PUSH1 0xA0 SHR AND SWAP1 PUSH2 0x13A9 JUMP JUMPDEST SWAP5 PUSH2 0x14CC JUMP JUMPDEST SWAP5 SWAP1 POP PUSH2 0x1538 JUMP JUMPDEST POP PUSH1 0xFF PUSH1 0x9 PUSH2 0x1588 DUP4 PUSH2 0x1279 JUMP JUMPDEST POP ADD SLOAD PUSH1 0xA0 SHR AND ISZERO ISZERO PUSH2 0x1533 JUMP JUMPDEST ISZERO PUSH2 0x159D JUMPI JUMP JUMPDEST PUSH1 0x40 MLOAD PUSH3 0x461BCD PUSH1 0xE5 SHL DUP2 MSTORE PUSH1 0x20 PUSH1 0x4 DUP3 ADD MSTORE PUSH1 0xF PUSH1 0x24 DUP3 ADD MSTORE PUSH15 0x105B1C9958591E4818DB185A5B5959 PUSH1 0x8A SHL PUSH1 0x44 DUP3 ADD MSTORE PUSH1 0x64 SWAP1 REVERT JUMPDEST ISZERO PUSH2 0x15DB JUMPI JUMP JUMPDEST PUSH1 0x40 MLOAD PUSH3 0x461BCD PUSH1 0xE5 SHL DUP2 MSTORE PUSH1 0x20 PUSH1 0x4 DUP3 ADD MSTORE PUSH1 0xD PUSH1 0x24 DUP3 ADD MSTORE PUSH13 0x139BC818DBDB1B185D195C985B PUSH1 0x9A SHL PUSH1 0x44 DUP3 ADD MSTORE PUSH1 0x64 SWAP1 REVERT INVALID LOG2 PUSH5 0x6970667358 0x22 SLT KECCAK256 0xB9 RETURNDATASIZE DUP1 PUSH23 0x49361C73115B14C53E4AE7F85DB6DBFEAEC52B7B13E2EC 0xDD GASPRICE SAR ADDMOD PUSH4 0x64736F6C PUSH4 0x43000813 STOP CALLER "},"methodIdentifiers":{"averageScoreOfBorrower(address)":"31798f61","checkDefault(uint256)":"759135a1","claimCollateral(uint256)":"c49785b4","createLoan(uint256,uint256,uint256,uint256,uint256)":"cf2b4cbc","feeWallet()":"f25f4b56","fundLoan(uint256)":"846b909a","getLoanCount()":"52196812","leaveScore(uint256,uint8)":"57862766","loans(uint256)":"e1ec3c68","owner()":"8da5cb5b","repay(uint256)":"371fd8e6","withdrawAsBorrower(uint256)":"4d8a2e15","withdrawCollateral(uint256)":"6112fe2e","withdrawInvestorShare(uint256)":"c66afff3","withdrawableOf(uint256)":"d1fdb3e8"}}}}}