{"contracts/Loan.sol":{"LoanMarket":{"abi":[{"inputs":[],"stateMutability":"nonpayable","type":"constructor"},{"anonymous":false,"inputs":[{"indexed":true,"internalType":"uint256","name":"loanId","type":"uint256"},{"indexed":true,"internalType":"address","name":"investor","type":"address"},{"indexed":false,"internalType":"uint256","name":"gross","type":"uint256"},{"indexed":false,"internalType":"uint256","name":"fee","type":"uint256"},{"indexed":false,"internalType":"uint256","name":"net","type":"uint256"}],"name":"CollateralClaimed","type":"event"},{"anonymous":false,"inputs":[{"indexed":true,"internalType":"uint256","name":"loanId","type":"uint256"},{"indexed":true,"internalType":"address","name":"borrower","type":"address"},{"indexed":false,"internalType":"uint256","name":"amount","type":"uint256"}],"name":"CollateralWithdrawn","type":"event"},{"anonymous":false,"inputs":[{"indexed":true,"internalType":"uint256","name":"loanId","type":"uint256"},{"indexed":false,"internalType":"uint256","name":"defaultTimestamp","type":"uint256"}],"name":"Defaulted","type":"event"},{"anonymous":false,"inputs":[{"indexed":true,"internalType":"uint256","name":"loanId","type":"uint256"},{"indexed":true,"internalType":"address","name":"investor","type":"address"},{"indexed":false,"internalType":"uint256","name":"amount","type":"uint256"}],"name":"Funded","type":"event"},{"anonymous":false,"inputs":[{"indexed":true,"internalType":"uint256","name":"loanId","type":"uint256"},{"indexed":true,"internalType":"address","name":"investor","type":"address"},{"indexed":false,"internalType":"uint256","name":"amount","type":"uint256"}],"name":"InvestorWithdraw","type":"event"},{"anonymous":false,"inputs":[{"indexed":true,"internalType":"uint256","name":"loanId","type":"uint256"},{"indexed":true,"internalType":"address","name":"borrower","type":"address"}],"name":"LoanCancelled","type":"event"},{"anonymous":false,"inputs":[{"indexed":true,"internalType":"uint256","name":"loanId","type":"uint256"},{"indexed":true,"internalType":"address","name":"borrower","type":"address"},{"indexed":false,"internalType":"uint256","name":"amountRequested","type":"uint256"}],"name":"LoanCreated","type":"event"},{"anonymous":false,"inputs":[{"indexed":true,"internalType":"uint256","name":"loanId","type":"uint256"},{"indexed":false,"internalType":"uint256","name":"amount","type":"uint256"}],"name":"RepaymentMade","type":"event"},{"anonymous":false,"inputs":[{"indexed":true,"internalType":"uint256","name":"loanId","type":"uint256"},{"indexed":true,"internalType":"address","name":"investor","type":"address"},{"indexed":false,"internalType":"uint8","name":"score","type":"uint8"}],"name":"ScoreLeft","type":"event"},{"anonymous":false,"inputs":[{"indexed":true,"internalType":"uint256","name":"loanId","type":"uint256"},{"indexed":false,"internalType":"uint256","name":"amount","type":"uint256"}],"name":"WithdrawnByBorrower","type":"event"},{"inputs":[{"internalType":"address","name":"borrower","type":"address"}],"name":"averageScoreOfBorrower","outputs":[{"internalType":"uint256","name":"","type":"uint256"}],"stateMutability":"view","type":"function"},{"inputs":[{"internalType":"address","name":"","type":"address"}],"name":"borrowerLoanCount","outputs":[{"internalType":"uint256","name":"","type":"uint256"}],"stateMutability":"view","type":"function"},{"inputs":[{"internalType":"address","name":"","type":"address"}],"name":"borrowerScoreSum","outputs":[{"internalType":"uint256","name":"","type":"uint256"}],"stateMutability":"view","type":"function"},{"inputs":[{"internalType":"uint256","name":"loanId","type":"uint256"}],"name":"cancelLoan","outputs":[],"stateMutability":"nonpayable","type":"function"},{"inputs":[{"internalType":"uint256","name":"loanId","type":"uint256"}],"name":"checkDefault","outputs":[],"stateMutability":"nonpayable","type":"function"},{"inputs":[{"internalType":"uint256","name":"loanId","type":"uint256"},{"internalType":"uint8","name":"score","type":"uint8"}],"name":"claimCollateral","outputs":[],"stateMutability":"nonpayable","type":"function"},{"inputs":[{"internalType":"uint256","name":"_amountRequested","type":"uint256"},{"internalType":"uint256","name":"_interestBps","type":"uint256"},{"internalType":"uint256","name":"_durationSecs","type":"uint256"},{"internalType":"uint256","name":"_fundingDeadline","type":"uint256"},{"internalType":"uint256","name":"_collateralAmount","type":"uint256"}],"name":"createLoan","outputs":[],"stateMutability":"payable","type":"function"},{"inputs":[],"name":"feeWallet","outputs":[{"internalType":"address payable","name":"","type":"address"}],"stateMutability":"view","type":"function"},{"inputs":[{"internalType":"uint256","name":"loanId","type":"uint256"}],"name":"fundLoan","outputs":[],"stateMutability":"payable","type":"function"},{"inputs":[],"name":"getLoanCount","outputs":[{"internalType":"uint256","name":"","type":"uint256"}],"stateMutability":"view","type":"function"},{"inputs":[{"internalType":"uint256","name":"","type":"uint256"}],"name":"loans","outputs":[{"internalType":"address","name":"borrower","type":"address"},{"internalType":"uint256","name":"amountRequested","type":"uint256"},{"internalType":"uint256","name":"amountFunded","type":"uint256"},{"internalType":"uint256","name":"interestBps","type":"uint256"},{"internalType":"uint256","name":"durationSecs","type":"uint256"},{"internalType":"uint256","name":"fundingDeadline","type":"uint256"},{"internalType":"enum LoanMarket.Status","name":"status","type":"uint8"},{"internalType":"uint256","name":"startTimestamp","type":"uint256"},{"internalType":"uint256","name":"totalRepayment","type":"uint256"},{"internalType":"address","name":"investor","type":"address"},{"internalType":"uint8","name":"score","type":"uint8"},{"internalType":"uint256","name":"defaultTimestamp","type":"uint256"},{"internalType":"uint256","name":"collateralAmount","type":"uint256"},{"internalType":"bool","name":"collateralClaimed","type":"bool"}],"stateMutability":"view","type":"function"},{"inputs":[],"name":"owner","outputs":[{"internalType":"address","name":"","type":"address"}],"stateMutability":"view","type":"function"},{"inputs":[{"internalType":"uint256","name":"loanId","type":"uint256"}],"name":"repay","outputs":[],"stateMutability":"payable","type":"function"},{"inputs":[{"internalType":"uint256","name":"loanId","type":"uint256"}],"name":"withdrawAsBorrower","outputs":[],"stateMutability":"nonpayable","type":"function"},{"inputs":[{"internalType":"uint256","name":"loanId","type":"uint256"},{"internalType":"uint8","name":"score","type":"uint8"}],"name":"withdrawInvestorShare","outputs":[],"stateMutability":"nonpayable","type":"function"}],"evm":{"bytecode":{"linkReferences":{},"object":"6080806040523461004b5760018060a01b0319734e8b7696fa787b32f1d8a0b1025fd1a5d8f994cd81600154161760015560016002553390600054161760005561166a90816100518239f35b600080fdfe6080604052600436101561001257600080fd5b6000803560e01c806331798f611461129a578063371fd8e614611087578063498efd7a1461104a5780634d8a2e1514610eae5780635219681214610e905780635f76cdfd14610b3d578063759135a114610b1d578063846b909a1461097a5780638da5cb5b14610953578063b7f0b7ee146106c5578063bdbfa3de14610512578063c71230bf146104d5578063cf2b4cbc146101f6578063e1ec3c68146100ed5763f25f4b56146100c257600080fd5b346100ea57806003193601126100ea576001546040516001600160a01b039091168152602090f35b80fd5b50346100ea5760203660031901126100ea576004356003548110156101f257610115906112f8565b5060018060a01b0381541690600181015490600281015460038201549460048301549060058401549060ff6006860154169060078601549260088701549460098801549a600a8901549760ff600c600b8c01549b0154169a6040519c8d5260208d015260408c015260608b015260808a015260a089015260068210156101de5750916101c0979160ff9360c089015260e088015261010087015260018060a01b03811661012087015260a01c1661014085015261016084015261018083015215156101a0820152f35b634e487b7160e01b81526021600452602490fd5b5080fd5b5060a03660031901126100ea57600435608435610217600160025414611349565b60028055811561049b5780340361045657604051906101c0820182811067ffffffffffffffff8211176104425760405233825260208201838152604083018581526060840191602435835260808501604435815260a086019060643582528860c088015260e087019589875289610100890152896101208901528961014089015289610160890152610180880152886101a08801526003546801000000000000000081101561042e578060016102d092016003556112f8565b95909561041a57875186546001600160a01b03199081166001600160a01b03928316178855945160018801559451600287015551600386015551600485015551600584015560c085015193600680850190861015610406576101a093600c9360ff969361038a93881999898b8354169116179055516007850155610100890151600885015560098401916101208a01511690825416178155856101408901511681549060ff60a01b9060a01b169060ff60a01b1916179055565b610160860151600a820155610180860151600b82015501930151151591835416911617905560035460001981019081116103f2576040519182527f8910ba13a55695f056e224bbbc6b65d866b12a8c2fbdf387fb853a1cca298cd760203393a3600160025580f35b634e487b7160e01b83526011600452602483fd5b634e487b7160e01b89526021600452602489fd5b634e487b7160e01b8a5260048a905260248afd5b634e487b7160e01b8a52604160045260248afd5b634e487b7160e01b85526041600452602485fd5b60405162461bcd60e51b815260206004820152601960248201527f496e636f727265637420636f6c6c61746572616c2073656e74000000000000006044820152606490fd5b60405162461bcd60e51b81526020600482015260126024820152710416d6f756e74206d757374206265203e20360741b6044820152606490fd5b50346100ea5760203660031901126100ea576004356001600160a01b038116908190036101f2578160409160209352600483522054604051908152f35b50346100ea5760203660031901126100ea57600435610535600160025414611349565b60028055610542816112f8565b5080546001600160a01b03919082163381900361068057600682019081549160ff8316600681101561066c5761061d576005879360ff1916179055600b830154806105ba575b5050505416907f533b2d8d57dc3b3d1c1bfd952e6355a9b573b6b9cccc5f554157003f733bb5148380a3600160025580f35b8280929181925af16105ca6113b8565b50156105d857833880610588565b60405162461bcd60e51b815260206004820152601860248201527f436f6c6c61746572616c20726566756e64206661696c656400000000000000006044820152606490fd5b60405162461bcd60e51b815260206004820152602160248201527f4c6f616e206973206e6f74206f70656e20666f722063616e63656c6c6174696f6044820152603760f91b6064820152608490fd5b634e487b7160e01b88526021600452602488fd5b60405162461bcd60e51b815260206004820152601c60248201527f4f6e6c792074686520626f72726f7765722063616e2063616e63656c000000006044820152606490fd5b50346100ea576106d4366112d3565b906106e3600160025414611349565b600280556106f0816112f8565b506009810180546001600160a01b039290838116330361090e5760ff600683015416600681101561066c576003036108c95760ff6107329160a01c1615611448565b60ff85166001811015806108be575b61074a90611493565b60018201549161076c612710610764600384015486611419565b04809461142c565b92600a810290808204600a14901517156108aa57886108159481948883956107b961079c60648798048096611395565b8b5460ff60a01b191660a09f909f1b60ff60a01b169e909e178b55565b541683526005602052604083206107d182825461142c565b9055604051908152897f7514ebcac1feb55cc5d1869533571ccd5971af19a7428bb57c1f780879eec3d960203393a387600154165af161080f6113b8565b506114df565b8480808087868654165af16108286113b8565b5015610865577f0afeafe87af56d204cca28eefeec305c8d8bcb1907103f969f87e9a978745c2991602091541693604051908152a3600160025580f35b60405162461bcd60e51b815260206004820152601e60248201527f496e766573746f72207368617265207472616e73666572206661696c656400006044820152606490fd5b634e487b7160e01b89526011600452602489fd5b506005811115610741565b60405162461bcd60e51b815260206004820152601860248201527f4c6f616e20686173206e6f74206265656e2072657061696400000000000000006044820152606490fd5b60405162461bcd60e51b815260206004820152601e60248201527f4f6e6c792074686520696e766573746f722063616e20776974686472617700006044820152606490fd5b50346100ea57806003193601126100ea57546040516001600160a01b039091168152602090f35b5060203660031901126100ea57600435610998600160025414611349565b600280556109a5816112f8565b5060068101805460ff81166006811015610b0957610ac4576005830154421015610a7f5760018301543403610a3a5760019060ff191617905560098101336bffffffffffffffffffffffff60a01b825416179055346002820155600742910155604051903482527f38c48552690c96ec2872092ac1db6c19fb59f5a8c5b49bbf41ed4886d0ca692660203393a3600160025580f35b60405162461bcd60e51b815260206004820152601d60248201527f496e636f72726563742066756e64696e6720616d6f756e742073656e740000006044820152606490fd5b60405162461bcd60e51b815260206004820152601b60248201527f46756e64696e6720646561646c696e65206861732070617373656400000000006044820152606490fd5b60405162461bcd60e51b815260206004820152601960248201527f4c6f616e206e6f74206f70656e20666f722066756e64696e67000000000000006044820152606490fd5b634e487b7160e01b86526021600452602486fd5b50346100ea5760203660031901126100ea57610b3a600435611521565b80f35b50346100ea57610b4c366112d3565b90610b5b600160025414611349565b60028055610b6881611521565b610b71816112f8565b506009810192835460018060a01b03928382163303610e4b5760ff600682015416600681101561066c57600403610e0d57600c81019081549260ff8416610dbc57600b820194855415610d77578693610bd360ff610c299460a01c1615611448565b600160ff8316968188101580610d6c575b610bed90611493565b60ff1916179055838354168a52600460205260408a20610c0d8154611439565b9055885460ff60a01b191660a09190911b60ff60a01b16178855565b54168652600560205260408620610c4182825461142c565b9055604051908152837f7514ebcac1feb55cc5d1869533571ccd5971af19a7428bb57c1f780879eec3d960203393a35492600a8402848104600a1485151715610d58576064900493610c938582611395565b610caa878080808a89600154165af161080f6113b8565b8680808084888854165af1610cbd6113b8565b5015610d04577f90a49cc0ffe370f13cdb2e8c2f3f91aeb86bae3a6aa0e060da5fb4a9b91cde999360609354169560405192835260208301526040820152a3600160025580f35b60405162461bcd60e51b815260206004820152602660248201527f436f6c6c61746572616c207472616e7366657220746f20696e766573746f722060448201526519985a5b195960d21b6064820152608490fd5b634e487b7160e01b86526011600452602486fd5b506005881115610be4565b60405162461bcd60e51b815260206004820152601b60248201527f54686973206c6f616e20686173206e6f20636f6c6c61746572616c00000000006044820152606490fd5b60405162461bcd60e51b815260206004820152602360248201527f436f6c6c61746572616c2068617320616c7265616479206265656e20636c61696044820152621b595960ea1b6064820152608490fd5b60405162461bcd60e51b8152602060048201526016602482015275131bd85b881a185cc81b9bdd08191959985d5b1d195960521b6044820152606490fd5b60405162461bcd60e51b815260206004820152601b60248201527f4f6e6c792074686520696e766573746f722063616e20636c61696d00000000006044820152606490fd5b50346100ea57806003193601126100ea576020600354604051908152f35b50346100ea57602090816003193601126100ea57600435600290610ed56001835414611349565b818055610ee1816112f8565b50600681019081549160ff8316600681101561103657600103610ff15781546001600160a01b03169233849003610fac5786868194829482849560ff191617905501948554905af1610f316113b8565b5015610f6957600193947f69ce060f535737417b4a4ebb86ae7a865885c5c1e8106f7ed0b8bd9c52641bc69154604051908152a25580f35b6064856040519062461bcd60e51b825280600483015260248201527f4661696c656420746f2073656e642066756e647320746f20626f72726f7765726044820152fd5b60405162461bcd60e51b815260048101899052601e60248201527f4f6e6c792074686520626f72726f7765722063616e20776974686472617700006044820152606490fd5b60405162461bcd60e51b815260048101889052601b60248201527f4c6f616e206973206e6f7420696e2046756e64656420737461746500000000006044820152606490fd5b634e487b7160e01b87526021600452602487fd5b50346100ea5760203660031901126100ea576004356001600160a01b038116908190036101f2578160409160209352600583522054604051908152f35b506020806003193601126101f2576004356110a6600160025414611349565b600280556110b3816112f8565b50916006830180549060ff8216600681101561103657600203611257576110f060018601546127106110e9600389015483611419565b049061142c565b918234106112035760039083600888015560ff1916179055827fd3337f372235c0c137836a45251cd21fba324e7ef27c7acc5ac12451491793b98360018060a01b0393848854168952600482526040892061114b8154611439565b9055604051908152a2600b8401938585548061116b575b50600160025580f35b81808092868654165af161117d6113b8565b50156111be57907f7c5e5cb62e5ed3caf3764e4b0afedfedef533e27809d43367799787ad2abcd41929154169354604051908152a338808080808581611162565b60405162461bcd60e51b815260048101849052601a60248201527f436f6c6c61746572616c207472616e73666572206661696c65640000000000006044820152606490fd5b60405162461bcd60e51b815260048101859052602660248201527f496e73756666696369656e7420616d6f756e742073656e7420666f7220726570604482015265185e5b595b9d60d21b6064820152608490fd5b6064836040519062461bcd60e51b825280600483015260248201527f4c6f616e206973206e6f742061637469766520666f722072657061796d656e746044820152fd5b50346100ea5760203660031901126100ea57600435906001600160a01b03821682036100ea5760206112cb836115c6565b604051908152f35b60409060031901126112f3576004359060243560ff811681036112f35790565b600080fd5b60035481101561133357600d906003600052027fc2575a0e9e593c00f959f8c92f12db2869c3395a3b0502d05e2516446f71f85b0190600090565b634e487b7160e01b600052603260045260246000fd5b1561135057565b60405162461bcd60e51b815260206004820152601f60248201527f5265656e7472616e637947756172643a207265656e7472616e742063616c6c006044820152606490fd5b919082039182116113a257565b634e487b7160e01b600052601160045260246000fd5b3d156114145767ffffffffffffffff903d8281116113fe5760405192601f8201601f19908116603f01168401908111848210176113fe5760405282523d6000602084013e565b634e487b7160e01b600052604160045260246000fd5b606090565b818102929181159184041417156113a257565b919082018092116113a257565b60001981146113a25760010190565b1561144f57565b606460405162461bcd60e51b815260206004820152602060248201527f53636f72652068617320616c7265616479206265656e207375626d69747465646044820152fd5b1561149a57565b60405162461bcd60e51b815260206004820152601d60248201527f53636f7265206d757374206265206265747765656e203120616e6420350000006044820152606490fd5b156114e657565b60405162461bcd60e51b8152602060048201526013602482015272119959481d1c985b9cd9995c8819985a5b1959606a1b6044820152606490fd5b61152a816112f8565b5060068101805460ff811660068110156115b05760021480611595575b611552575b50505050565b60049060ff1916179055600a429101557f84908fca714735411d4553ddd185a4d6fdc25fda2d15662153ef18a8ad6099b46020604051428152a23880808061154c565b506115a9600784015460048501549061142c565b4211611547565b634e487b7160e01b600052602160045260246000fd5b6001600160a01b0316600081815260046020526040812054909190156116305760056020526040822054906064820291808304606414901517156103f25782526004602052604082205491821561161c57500490565b634e487b7160e01b81526012600452602490fd5b509056fea26469706673582212203d008db7174dc0dafb1b8de8b8dab37be9f25b5b7add0356da7948cf9ead79a164736f6c63430008130033","opcodes":"PUSH1 0x80 DUP1 PUSH1 0x40 MSTORE CALLVALUE PUSH2 0x4B JUMPI PUSH1 0x1 DUP1 PUSH1 0xA0 SHL SUB NOT PUSH20 0x4E8B7696FA787B32F1D8A0B1025FD1A5D8F994CD DUP2 PUSH1 0x1 SLOAD AND OR PUSH1 0x1 SSTORE PUSH1 0x1 PUSH1 0x2 SSTORE CALLER SWAP1 PUSH1 0x0 SLOAD AND OR PUSH1 0x0 SSTORE PUSH2 0x166A SWAP1 DUP2 PUSH2 0x51 DUP3 CODECOPY RETURN JUMPDEST PUSH1 0x0 DUP1 REVERT INVALID PUSH1 0x80 PUSH1 0x40 MSTORE PUSH1 0x4 CALLDATASIZE LT ISZERO PUSH2 0x12 JUMPI PUSH1 0x0 DUP1 REVERT JUMPDEST PUSH1 0x0 DUP1 CALLDATALOAD PUSH1 0xE0 SHR DUP1 PUSH4 0x31798F61 EQ PUSH2 0x129A JUMPI DUP1 PUSH4 0x371FD8E6 EQ PUSH2 0x1087 JUMPI DUP1 PUSH4 0x498EFD7A EQ PUSH2 0x104A JUMPI DUP1 PUSH4 0x4D8A2E15 EQ PUSH2 0xEAE JUMPI DUP1 PUSH4 0x52196812 EQ PUSH2 0xE90 JUMPI DUP1 PUSH4 0x5F76CDFD EQ PUSH2 0xB3D JUMPI DUP1 PUSH4 0x759135A1 EQ PUSH2 0xB1D JUMPI DUP1 PUSH4 0x846B909A EQ PUSH2 0x97A JUMPI DUP1 PUSH4 0x8DA5CB5B EQ PUSH2 0x953 JUMPI DUP1 PUSH4 0xB7F0B7EE EQ PUSH2 0x6C5 JUMPI DUP1 PUSH4 0xBDBFA3DE EQ PUSH2 0x512 JUMPI DUP1 PUSH4 0xC71230BF EQ PUSH2 0x4D5 JUMPI DUP1 PUSH4 0xCF2B4CBC EQ PUSH2 0x1F6 JUMPI DUP1 PUSH4 0xE1EC3C68 EQ PUSH2 0xED JUMPI PUSH4 0xF25F4B56 EQ PUSH2 0xC2 JUMPI PUSH1 0x0 DUP1 REVERT JUMPDEST CALLVALUE PUSH2 0xEA JUMPI DUP1 PUSH1 0x3 NOT CALLDATASIZE ADD SLT PUSH2 0xEA JUMPI PUSH1 0x1 SLOAD PUSH1 0x40 MLOAD PUSH1 0x1 PUSH1 0x1 PUSH1 0xA0 SHL SUB SWAP1 SWAP2 AND DUP2 MSTORE PUSH1 0x20 SWAP1 RETURN JUMPDEST DUP1 REVERT JUMPDEST POP CALLVALUE PUSH2 0xEA JUMPI PUSH1 0x20 CALLDATASIZE PUSH1 0x3 NOT ADD SLT PUSH2 0xEA JUMPI PUSH1 0x4 CALLDATALOAD PUSH1 0x3 SLOAD DUP2 LT ISZERO PUSH2 0x1F2 JUMPI PUSH2 0x115 SWAP1 PUSH2 0x12F8 JUMP JUMPDEST POP PUSH1 0x1 DUP1 PUSH1 0xA0 SHL SUB DUP2 SLOAD AND SWAP1 PUSH1 0x1 DUP2 ADD SLOAD SWAP1 PUSH1 0x2 DUP2 ADD SLOAD PUSH1 0x3 DUP3 ADD SLOAD SWAP5 PUSH1 0x4 DUP4 ADD SLOAD SWAP1 PUSH1 0x5 DUP5 ADD SLOAD SWAP1 PUSH1 0xFF PUSH1 0x6 DUP7 ADD SLOAD AND SWAP1 PUSH1 0x7 DUP7 ADD SLOAD SWAP3 PUSH1 0x8 DUP8 ADD SLOAD SWAP5 PUSH1 0x9 DUP9 ADD SLOAD SWAP11 PUSH1 0xA DUP10 ADD SLOAD SWAP8 PUSH1 0xFF PUSH1 0xC PUSH1 0xB DUP13 ADD SLOAD SWAP12 ADD SLOAD AND SWAP11 PUSH1 0x40 MLOAD SWAP13 DUP14 MSTORE PUSH1 0x20 DUP14 ADD MSTORE PUSH1 0x40 DUP13 ADD MSTORE PUSH1 0x60 DUP12 ADD MSTORE PUSH1 0x80 DUP11 ADD MSTORE PUSH1 0xA0 DUP10 ADD MSTORE PUSH1 0x6 DUP3 LT ISZERO PUSH2 0x1DE JUMPI POP SWAP2 PUSH2 0x1C0 SWAP8 SWAP2 PUSH1 0xFF SWAP4 PUSH1 0xC0 DUP10 ADD MSTORE PUSH1 0xE0 DUP9 ADD MSTORE PUSH2 0x100 DUP8 ADD MSTORE PUSH1 0x1 DUP1 PUSH1 0xA0 SHL SUB DUP2 AND PUSH2 0x120 DUP8 ADD MSTORE PUSH1 0xA0 SHR AND PUSH2 0x140 DUP6 ADD MSTORE PUSH2 0x160 DUP5 ADD MSTORE PUSH2 0x180 DUP4 ADD MSTORE ISZERO ISZERO PUSH2 0x1A0 DUP3 ADD MSTORE RETURN JUMPDEST PUSH4 0x4E487B71 PUSH1 0xE0 SHL DUP2 MSTORE PUSH1 0x21 PUSH1 0x4 MSTORE PUSH1 0x24 SWAP1 REVERT JUMPDEST POP DUP1 REVERT JUMPDEST POP PUSH1 0xA0 CALLDATASIZE PUSH1 0x3 NOT ADD SLT PUSH2 0xEA JUMPI PUSH1 0x4 CALLDATALOAD PUSH1 0x84 CALLDATALOAD PUSH2 0x217 PUSH1 0x1 PUSH1 0x2 SLOAD EQ PUSH2 0x1349 JUMP JUMPDEST PUSH1 0x2 DUP1 SSTORE DUP2 ISZERO PUSH2 0x49B JUMPI DUP1 CALLVALUE SUB PUSH2 0x456 JUMPI PUSH1 0x40 MLOAD SWAP1 PUSH2 0x1C0 DUP3 ADD DUP3 DUP2 LT PUSH8 0xFFFFFFFFFFFFFFFF DUP3 GT OR PUSH2 0x442 JUMPI PUSH1 0x40 MSTORE CALLER DUP3 MSTORE PUSH1 0x20 DUP3 ADD DUP4 DUP2 MSTORE PUSH1 0x40 DUP4 ADD DUP6 DUP2 MSTORE PUSH1 0x60 DUP5 ADD SWAP2 PUSH1 0x24 CALLDATALOAD DUP4 MSTORE PUSH1 0x80 DUP6 ADD PUSH1 0x44 CALLDATALOAD DUP2 MSTORE PUSH1 0xA0 DUP7 ADD SWAP1 PUSH1 0x64 CALLDATALOAD DUP3 MSTORE DUP9 PUSH1 0xC0 DUP9 ADD MSTORE PUSH1 0xE0 DUP8 ADD SWAP6 DUP10 DUP8 MSTORE DUP10 PUSH2 0x100 DUP10 ADD MSTORE DUP10 PUSH2 0x120 DUP10 ADD MSTORE DUP10 PUSH2 0x140 DUP10 ADD MSTORE DUP10 PUSH2 0x160 DUP10 ADD MSTORE PUSH2 0x180 DUP9 ADD MSTORE DUP9 PUSH2 0x1A0 DUP9 ADD MSTORE PUSH1 0x3 SLOAD PUSH9 0x10000000000000000 DUP2 LT ISZERO PUSH2 0x42E JUMPI DUP1 PUSH1 0x1 PUSH2 0x2D0 SWAP3 ADD PUSH1 0x3 SSTORE PUSH2 0x12F8 JUMP JUMPDEST SWAP6 SWAP1 SWAP6 PUSH2 0x41A JUMPI DUP8 MLOAD DUP7 SLOAD PUSH1 0x1 PUSH1 0x1 PUSH1 0xA0 SHL SUB NOT SWAP1 DUP2 AND PUSH1 0x1 PUSH1 0x1 PUSH1 0xA0 SHL SUB SWAP3 DUP4 AND OR DUP9 SSTORE SWAP5 MLOAD PUSH1 0x1 DUP9 ADD SSTORE SWAP5 MLOAD PUSH1 0x2 DUP8 ADD SSTORE MLOAD PUSH1 0x3 DUP7 ADD SSTORE MLOAD PUSH1 0x4 DUP6 ADD SSTORE MLOAD PUSH1 0x5 DUP5 ADD SSTORE PUSH1 0xC0 DUP6 ADD MLOAD SWAP4 PUSH1 0x6 DUP1 DUP6 ADD SWAP1 DUP7 LT ISZERO PUSH2 0x406 JUMPI PUSH2 0x1A0 SWAP4 PUSH1 0xC SWAP4 PUSH1 0xFF SWAP7 SWAP4 PUSH2 0x38A SWAP4 DUP9 NOT SWAP10 DUP10 DUP12 DUP4 SLOAD AND SWAP2 AND OR SWAP1 SSTORE MLOAD PUSH1 0x7 DUP6 ADD SSTORE PUSH2 0x100 DUP10 ADD MLOAD PUSH1 0x8 DUP6 ADD SSTORE PUSH1 0x9 DUP5 ADD SWAP2 PUSH2 0x120 DUP11 ADD MLOAD AND SWAP1 DUP3 SLOAD AND OR DUP2 SSTORE DUP6 PUSH2 0x140 DUP10 ADD MLOAD AND DUP2 SLOAD SWAP1 PUSH1 0xFF PUSH1 0xA0 SHL SWAP1 PUSH1 0xA0 SHL AND SWAP1 PUSH1 0xFF PUSH1 0xA0 SHL NOT AND OR SWAP1 SSTORE JUMP JUMPDEST PUSH2 0x160 DUP7 ADD MLOAD PUSH1 0xA DUP3 ADD SSTORE PUSH2 0x180 DUP7 ADD MLOAD PUSH1 0xB DUP3 ADD SSTORE ADD SWAP4 ADD MLOAD ISZERO ISZERO SWAP2 DUP4 SLOAD AND SWAP2 AND OR SWAP1 SSTORE PUSH1 0x3 SLOAD PUSH1 0x0 NOT DUP2 ADD SWAP1 DUP2 GT PUSH2 0x3F2 JUMPI PUSH1 0x40 MLOAD SWAP2 DUP3 MSTORE PUSH32 0x8910BA13A55695F056E224BBBC6B65D866B12A8C2FBDF387FB853A1CCA298CD7 PUSH1 0x20 CALLER SWAP4 LOG3 PUSH1 0x1 PUSH1 0x2 SSTORE DUP1 RETURN JUMPDEST PUSH4 0x4E487B71 PUSH1 0xE0 SHL DUP4 MSTORE PUSH1 0x11 PUSH1 0x4 MSTORE PUSH1 0x24 DUP4 REVERT JUMPDEST PUSH4 0x4E487B71 PUSH1 0xE0 SHL DUP10 MSTORE PUSH1 0x21 PUSH1 0x4 MSTORE PUSH1 0x24 DUP10 REVERT JUMPDEST PUSH4 0x4E487B71 PUSH1 0xE0 SHL DUP11 MSTORE PUSH1 0x4 DUP11 SWAP1 MSTORE PUSH1 0x24 DUP11 REVERT JUMPDEST PUSH4 0x4E487B71 PUSH1 0xE0 SHL DUP11 MSTORE PUSH1 0x41 PUSH1 0x4 MSTORE PUSH1 0x24 DUP11 REVERT JUMPDEST PUSH4 0x4E487B71 PUSH1 0xE0 SHL DUP6 MSTORE PUSH1 0x41 PUSH1 0x4 MSTORE PUSH1 0x24 DUP6 REVERT JUMPDEST PUSH1 0x40 MLOAD PUSH3 0x461BCD PUSH1 0xE5 SHL DUP2 MSTORE PUSH1 0x20 PUSH1 0x4 DUP3 ADD MSTORE PUSH1 0x19 PUSH1 0x24 DUP3 ADD MSTORE PUSH32 0x496E636F727265637420636F6C6C61746572616C2073656E7400000000000000 PUSH1 0x44 DUP3 ADD MSTORE PUSH1 0x64 SWAP1 REVERT JUMPDEST PUSH1 0x40 MLOAD PUSH3 0x461BCD PUSH1 0xE5 SHL DUP2 MSTORE PUSH1 0x20 PUSH1 0x4 DUP3 ADD MSTORE PUSH1 0x12 PUSH1 0x24 DUP3 ADD MSTORE PUSH18 0x416D6F756E74206D757374206265203E203 PUSH1 0x74 SHL PUSH1 0x44 DUP3 ADD MSTORE PUSH1 0x64 SWAP1 REVERT JUMPDEST POP CALLVALUE PUSH2 0xEA JUMPI PUSH1 0x20 CALLDATASIZE PUSH1 0x3 NOT ADD SLT PUSH2 0xEA JUMPI PUSH1 0x4 CALLDATALOAD PUSH1 0x1 PUSH1 0x1 PUSH1 0xA0 SHL SUB DUP2 AND SWAP1 DUP2 SWAP1 SUB PUSH2 0x1F2 JUMPI DUP2 PUSH1 0x40 SWAP2 PUSH1 0x20 SWAP4 MSTORE PUSH1 0x4 DUP4 MSTORE KECCAK256 SLOAD PUSH1 0x40 MLOAD SWAP1 DUP2 MSTORE RETURN JUMPDEST POP CALLVALUE PUSH2 0xEA JUMPI PUSH1 0x20 CALLDATASIZE PUSH1 0x3 NOT ADD SLT PUSH2 0xEA JUMPI PUSH1 0x4 CALLDATALOAD PUSH2 0x535 PUSH1 0x1 PUSH1 0x2 SLOAD EQ PUSH2 0x1349 JUMP JUMPDEST PUSH1 0x2 DUP1 SSTORE PUSH2 0x542 DUP2 PUSH2 0x12F8 JUMP JUMPDEST POP DUP1 SLOAD PUSH1 0x1 PUSH1 0x1 PUSH1 0xA0 SHL SUB SWAP2 SWAP1 DUP3 AND CALLER DUP2 SWAP1 SUB PUSH2 0x680 JUMPI PUSH1 0x6 DUP3 ADD SWAP1 DUP2 SLOAD SWAP2 PUSH1 0xFF DUP4 AND PUSH1 0x6 DUP2 LT ISZERO PUSH2 0x66C JUMPI PUSH2 0x61D JUMPI PUSH1 0x5 DUP8 SWAP4 PUSH1 0xFF NOT AND OR SWAP1 SSTORE PUSH1 0xB DUP4 ADD SLOAD DUP1 PUSH2 0x5BA JUMPI JUMPDEST POP POP POP SLOAD AND SWAP1 PUSH32 0x533B2D8D57DC3B3D1C1BFD952E6355A9B573B6B9CCCC5F554157003F733BB514 DUP4 DUP1 LOG3 PUSH1 0x1 PUSH1 0x2 SSTORE DUP1 RETURN JUMPDEST DUP3 DUP1 SWAP3 SWAP2 DUP2 SWAP3 GAS CALL PUSH2 0x5CA PUSH2 0x13B8 JUMP JUMPDEST POP ISZERO PUSH2 0x5D8 JUMPI DUP4 CODESIZE DUP1 PUSH2 0x588 JUMP JUMPDEST PUSH1 0x40 MLOAD PUSH3 0x461BCD PUSH1 0xE5 SHL DUP2 MSTORE PUSH1 0x20 PUSH1 0x4 DUP3 ADD MSTORE PUSH1 0x18 PUSH1 0x24 DUP3 ADD MSTORE PUSH32 0x436F6C6C61746572616C20726566756E64206661696C65640000000000000000 PUSH1 0x44 DUP3 ADD MSTORE PUSH1 0x64 SWAP1 REVERT JUMPDEST PUSH1 0x40 MLOAD PUSH3 0x461BCD PUSH1 0xE5 SHL DUP2 MSTORE PUSH1 0x20 PUSH1 0x4 DUP3 ADD MSTORE PUSH1 0x21 PUSH1 0x24 DUP3 ADD MSTORE PUSH32 0x4C6F616E206973206E6F74206F70656E20666F722063616E63656C6C6174696F PUSH1 0x44 DUP3 ADD MSTORE PUSH1 0x37 PUSH1 0xF9 SHL PUSH1 0x64 DUP3 ADD MSTORE PUSH1 0x84 SWAP1 REVERT JUMPDEST PUSH4 0x4E487B71 PUSH1 0xE0 SHL DUP9 MSTORE PUSH1 0x21 PUSH1 0x4 MSTORE PUSH1 0x24 DUP9 REVERT JUMPDEST PUSH1 0x40 MLOAD PUSH3 0x461BCD PUSH1 0xE5 SHL DUP2 MSTORE PUSH1 0x20 PUSH1 0x4 DUP3 ADD MSTORE PUSH1 0x1C PUSH1 0x24 DUP3 ADD MSTORE PUSH32 0x4F6E6C792074686520626F72726F7765722063616E2063616E63656C00000000 PUSH1 0x44 DUP3 ADD MSTORE PUSH1 0x64 SWAP1 REVERT JUMPDEST POP CALLVALUE PUSH2 0xEA JUMPI PUSH2 0x6D4 CALLDATASIZE PUSH2 0x12D3 JUMP JUMPDEST SWAP1 PUSH2 0x6E3 PUSH1 0x1 PUSH1 0x2 SLOAD EQ PUSH2 0x1349 JUMP JUMPDEST PUSH1 0x2 DUP1 SSTORE PUSH2 0x6F0 DUP2 PUSH2 0x12F8 JUMP JUMPDEST POP PUSH1 0x9 DUP2 ADD DUP1 SLOAD PUSH1 0x1 PUSH1 0x1 PUSH1 0xA0 SHL SUB SWAP3 SWAP1 DUP4 DUP2 AND CALLER SUB PUSH2 0x90E JUMPI PUSH1 0xFF PUSH1 0x6 DUP4 ADD SLOAD AND PUSH1 0x6 DUP2 LT ISZERO PUSH2 0x66C JUMPI PUSH1 0x3 SUB PUSH2 0x8C9 JUMPI PUSH1 0xFF PUSH2 0x732 SWAP2 PUSH1 0xA0 SHR AND ISZERO PUSH2 0x1448 JUMP JUMPDEST PUSH1 0xFF DUP6 AND PUSH1 0x1 DUP2 LT ISZERO DUP1 PUSH2 0x8BE JUMPI JUMPDEST PUSH2 0x74A SWAP1 PUSH2 0x1493 JUMP JUMPDEST PUSH1 0x1 DUP3 ADD SLOAD SWAP2 PUSH2 0x76C PUSH2 0x2710 PUSH2 0x764 PUSH1 0x3 DUP5 ADD SLOAD DUP7 PUSH2 0x1419 JUMP JUMPDEST DIV DUP1 SWAP5 PUSH2 0x142C JUMP JUMPDEST SWAP3 PUSH1 0xA DUP2 MUL SWAP1 DUP1 DUP3 DIV PUSH1 0xA EQ SWAP1 ISZERO OR ISZERO PUSH2 0x8AA JUMPI DUP9 PUSH2 0x815 SWAP5 DUP2 SWAP5 DUP9 DUP4 SWAP6 PUSH2 0x7B9 PUSH2 0x79C PUSH1 0x64 DUP8 SWAP9 DIV DUP1 SWAP7 PUSH2 0x1395 JUMP JUMPDEST DUP12 SLOAD PUSH1 0xFF PUSH1 0xA0 SHL NOT AND PUSH1 0xA0 SWAP16 SWAP1 SWAP16 SHL PUSH1 0xFF PUSH1 0xA0 SHL AND SWAP15 SWAP1 SWAP15 OR DUP12 SSTORE JUMP JUMPDEST SLOAD AND DUP4 MSTORE PUSH1 0x5 PUSH1 0x20 MSTORE PUSH1 0x40 DUP4 KECCAK256 PUSH2 0x7D1 DUP3 DUP3 SLOAD PUSH2 0x142C JUMP JUMPDEST SWAP1 SSTORE PUSH1 0x40 MLOAD SWAP1 DUP2 MSTORE DUP10 PUSH32 0x7514EBCAC1FEB55CC5D1869533571CCD5971AF19A7428BB57C1F780879EEC3D9 PUSH1 0x20 CALLER SWAP4 LOG3 DUP8 PUSH1 0x1 SLOAD AND GAS CALL PUSH2 0x80F PUSH2 0x13B8 JUMP JUMPDEST POP PUSH2 0x14DF JUMP JUMPDEST DUP5 DUP1 DUP1 DUP1 DUP8 DUP7 DUP7 SLOAD AND GAS CALL PUSH2 0x828 PUSH2 0x13B8 JUMP JUMPDEST POP ISZERO PUSH2 0x865 JUMPI PUSH32 0xAFEAFE87AF56D204CCA28EEFEEC305C8D8BCB1907103F969F87E9A978745C29 SWAP2 PUSH1 0x20 SWAP2 SLOAD AND SWAP4 PUSH1 0x40 MLOAD SWAP1 DUP2 MSTORE LOG3 PUSH1 0x1 PUSH1 0x2 SSTORE DUP1 RETURN JUMPDEST PUSH1 0x40 MLOAD PUSH3 0x461BCD PUSH1 0xE5 SHL DUP2 MSTORE PUSH1 0x20 PUSH1 0x4 DUP3 ADD MSTORE PUSH1 0x1E PUSH1 0x24 DUP3 ADD MSTORE PUSH32 0x496E766573746F72207368617265207472616E73666572206661696C65640000 PUSH1 0x44 DUP3 ADD MSTORE PUSH1 0x64 SWAP1 REVERT JUMPDEST PUSH4 0x4E487B71 PUSH1 0xE0 SHL DUP10 MSTORE PUSH1 0x11 PUSH1 0x4 MSTORE PUSH1 0x24 DUP10 REVERT JUMPDEST POP PUSH1 0x5 DUP2 GT ISZERO PUSH2 0x741 JUMP JUMPDEST PUSH1 0x40 MLOAD PUSH3 0x461BCD PUSH1 0xE5 SHL DUP2 MSTORE PUSH1 0x20 PUSH1 0x4 DUP3 ADD MSTORE PUSH1 0x18 PUSH1 0x24 DUP3 ADD MSTORE PUSH32 0x4C6F616E20686173206E6F74206265656E207265706169640000000000000000 PUSH1 0x44 DUP3 ADD MSTORE PUSH1 0x64 SWAP1 REVERT JUMPDEST PUSH1 0x40 MLOAD PUSH3 0x461BCD PUSH1 0xE5 SHL DUP2 MSTORE PUSH1 0x20 PUSH1 0x4 DUP3 ADD MSTORE PUSH1 0x1E PUSH1 0x24 DUP3 ADD MSTORE PUSH32 0x4F6E6C792074686520696E766573746F722063616E2077697468647261770000 PUSH1 0x44 DUP3 ADD MSTORE PUSH1 0x64 SWAP1 REVERT JUMPDEST POP CALLVALUE PUSH2 0xEA JUMPI DUP1 PUSH1 0x3 NOT CALLDATASIZE ADD SLT PUSH2 0xEA JUMPI SLOAD PUSH1 0x40 MLOAD PUSH1 0x1 PUSH1 0x1 PUSH1 0xA0 SHL SUB SWAP1 SWAP2 AND DUP2 MSTORE PUSH1 0x20 SWAP1 RETURN JUMPDEST POP PUSH1 0x20 CALLDATASIZE PUSH1 0x3 NOT ADD SLT PUSH2 0xEA JUMPI PUSH1 0x4 CALLDATALOAD PUSH2 0x998 PUSH1 0x1 PUSH1 0x2 SLOAD EQ PUSH2 0x1349 JUMP JUMPDEST PUSH1 0x2 DUP1 SSTORE PUSH2 0x9A5 DUP2 PUSH2 0x12F8 JUMP JUMPDEST POP PUSH1 0x6 DUP2 ADD DUP1 SLOAD PUSH1 0xFF DUP2 AND PUSH1 0x6 DUP2 LT ISZERO PUSH2 0xB09 JUMPI PUSH2 0xAC4 JUMPI PUSH1 0x5 DUP4 ADD SLOAD TIMESTAMP LT ISZERO PUSH2 0xA7F JUMPI PUSH1 0x1 DUP4 ADD SLOAD CALLVALUE SUB PUSH2 0xA3A JUMPI PUSH1 0x1 SWAP1 PUSH1 0xFF NOT AND OR SWAP1 SSTORE PUSH1 0x9 DUP2 ADD CALLER PUSH12 0xFFFFFFFFFFFFFFFFFFFFFFFF PUSH1 0xA0 SHL DUP3 SLOAD AND OR SWAP1 SSTORE CALLVALUE PUSH1 0x2 DUP3 ADD SSTORE PUSH1 0x7 TIMESTAMP SWAP2 ADD SSTORE PUSH1 0x40 MLOAD SWAP1 CALLVALUE DUP3 MSTORE PUSH32 0x38C48552690C96EC2872092AC1DB6C19FB59F5A8C5B49BBF41ED4886D0CA6926 PUSH1 0x20 CALLER SWAP4 LOG3 PUSH1 0x1 PUSH1 0x2 SSTORE DUP1 RETURN JUMPDEST PUSH1 0x40 MLOAD PUSH3 0x461BCD PUSH1 0xE5 SHL DUP2 MSTORE PUSH1 0x20 PUSH1 0x4 DUP3 ADD MSTORE PUSH1 0x1D PUSH1 0x24 DUP3 ADD MSTORE PUSH32 0x496E636F72726563742066756E64696E6720616D6F756E742073656E74000000 PUSH1 0x44 DUP3 ADD MSTORE PUSH1 0x64 SWAP1 REVERT JUMPDEST PUSH1 0x40 MLOAD PUSH3 0x461BCD PUSH1 0xE5 SHL DUP2 MSTORE PUSH1 0x20 PUSH1 0x4 DUP3 ADD MSTORE PUSH1 0x1B PUSH1 0x24 DUP3 ADD MSTORE PUSH32 0x46756E64696E6720646561646C696E6520686173207061737365640000000000 PUSH1 0x44 DUP3 ADD MSTORE PUSH1 0x64 SWAP1 REVERT JUMPDEST PUSH1 0x40 MLOAD PUSH3 0x461BCD PUSH1 0xE5 SHL DUP2 MSTORE PUSH1 0x20 PUSH1 0x4 DUP3 ADD MSTORE PUSH1 0x19 PUSH1 0x24 DUP3 ADD MSTORE PUSH32 0x4C6F616E206E6F74206F70656E20666F722066756E64696E6700000000000000 PUSH1 0x44 DUP3 ADD MSTORE PUSH1 0x64 SWAP1 REVERT JUMPDEST PUSH4 0x4E487B71 PUSH1 0xE0 SHL DUP7 MSTORE PUSH1 0x21 PUSH1 0x4 MSTORE PUSH1 0x24 DUP7 REVERT JUMPDEST POP CALLVALUE PUSH2 0xEA JUMPI PUSH1 0x20 CALLDATASIZE PUSH1 0x3 NOT ADD SLT PUSH2 0xEA JUMPI PUSH2 0xB3A PUSH1 0x4 CALLDATALOAD PUSH2 0x1521 JUMP JUMPDEST DUP1 RETURN JUMPDEST POP CALLVALUE PUSH2 0xEA JUMPI PUSH2 0xB4C CALLDATASIZE PUSH2 0x12D3 JUMP JUMPDEST SWAP1 PUSH2 0xB5B PUSH1 0x1 PUSH1 0x2 SLOAD EQ PUSH2 0x1349 JUMP JUMPDEST PUSH1 0x2 DUP1 SSTORE PUSH2 0xB68 DUP2 PUSH2 0x1521 JUMP JUMPDEST PUSH2 0xB71 DUP2 PUSH2 0x12F8 JUMP JUMPDEST POP PUSH1 0x9 DUP2 ADD SWAP3 DUP4 SLOAD PUSH1 0x1 DUP1 PUSH1 0xA0 SHL SUB SWAP3 DUP4 DUP3 AND CALLER SUB PUSH2 0xE4B JUMPI PUSH1 0xFF PUSH1 0x6 DUP3 ADD SLOAD AND PUSH1 0x6 DUP2 LT ISZERO PUSH2 0x66C JUMPI PUSH1 0x4 SUB PUSH2 0xE0D JUMPI PUSH1 0xC DUP2 ADD SWAP1 DUP2 SLOAD SWAP3 PUSH1 0xFF DUP5 AND PUSH2 0xDBC JUMPI PUSH1 0xB DUP3 ADD SWAP5 DUP6 SLOAD ISZERO PUSH2 0xD77 JUMPI DUP7 SWAP4 PUSH2 0xBD3 PUSH1 0xFF PUSH2 0xC29 SWAP5 PUSH1 0xA0 SHR AND ISZERO PUSH2 0x1448 JUMP JUMPDEST PUSH1 0x1 PUSH1 0xFF DUP4 AND SWAP7 DUP2 DUP9 LT ISZERO DUP1 PUSH2 0xD6C JUMPI JUMPDEST PUSH2 0xBED SWAP1 PUSH2 0x1493 JUMP JUMPDEST PUSH1 0xFF NOT AND OR SWAP1 SSTORE DUP4 DUP4 SLOAD AND DUP11 MSTORE PUSH1 0x4 PUSH1 0x20 MSTORE PUSH1 0x40 DUP11 KECCAK256 PUSH2 0xC0D DUP2 SLOAD PUSH2 0x1439 JUMP JUMPDEST SWAP1 SSTORE DUP9 SLOAD PUSH1 0xFF PUSH1 0xA0 SHL NOT AND PUSH1 0xA0 SWAP2 SWAP1 SWAP2 SHL PUSH1 0xFF PUSH1 0xA0 SHL AND OR DUP9 SSTORE JUMP JUMPDEST SLOAD AND DUP7 MSTORE PUSH1 0x5 PUSH1 0x20 MSTORE PUSH1 0x40 DUP7 KECCAK256 PUSH2 0xC41 DUP3 DUP3 SLOAD PUSH2 0x142C JUMP JUMPDEST SWAP1 SSTORE PUSH1 0x40 MLOAD SWAP1 DUP2 MSTORE DUP4 PUSH32 0x7514EBCAC1FEB55CC5D1869533571CCD5971AF19A7428BB57C1F780879EEC3D9 PUSH1 0x20 CALLER SWAP4 LOG3 SLOAD SWAP3 PUSH1 0xA DUP5 MUL DUP5 DUP2 DIV PUSH1 0xA EQ DUP6 ISZERO OR ISZERO PUSH2 0xD58 JUMPI PUSH1 0x64 SWAP1 DIV SWAP4 PUSH2 0xC93 DUP6 DUP3 PUSH2 0x1395 JUMP JUMPDEST PUSH2 0xCAA DUP8 DUP1 DUP1 DUP1 DUP11 DUP10 PUSH1 0x1 SLOAD AND GAS CALL PUSH2 0x80F PUSH2 0x13B8 JUMP JUMPDEST DUP7 DUP1 DUP1 DUP1 DUP5 DUP9 DUP9 SLOAD AND GAS CALL PUSH2 0xCBD PUSH2 0x13B8 JUMP JUMPDEST POP ISZERO PUSH2 0xD04 JUMPI PUSH32 0x90A49CC0FFE370F13CDB2E8C2F3F91AEB86BAE3A6AA0E060DA5FB4A9B91CDE99 SWAP4 PUSH1 0x60 SWAP4 SLOAD AND SWAP6 PUSH1 0x40 MLOAD SWAP3 DUP4 MSTORE PUSH1 0x20 DUP4 ADD MSTORE PUSH1 0x40 DUP3 ADD MSTORE LOG3 PUSH1 0x1 PUSH1 0x2 SSTORE DUP1 RETURN JUMPDEST PUSH1 0x40 MLOAD PUSH3 0x461BCD PUSH1 0xE5 SHL DUP2 MSTORE PUSH1 0x20 PUSH1 0x4 DUP3 ADD MSTORE PUSH1 0x26 PUSH1 0x24 DUP3 ADD MSTORE PUSH32 0x436F6C6C61746572616C207472616E7366657220746F20696E766573746F7220 PUSH1 0x44 DUP3 ADD MSTORE PUSH6 0x19985A5B1959 PUSH1 0xD2 SHL PUSH1 0x64 DUP3 ADD MSTORE PUSH1 0x84 SWAP1 REVERT JUMPDEST PUSH4 0x4E487B71 PUSH1 0xE0 SHL DUP7 MSTORE PUSH1 0x11 PUSH1 0x4 MSTORE PUSH1 0x24 DUP7 REVERT JUMPDEST POP PUSH1 0x5 DUP9 GT ISZERO PUSH2 0xBE4 JUMP JUMPDEST PUSH1 0x40 MLOAD PUSH3 0x461BCD PUSH1 0xE5 SHL DUP2 MSTORE PUSH1 0x20 PUSH1 0x4 DUP3 ADD MSTORE PUSH1 0x1B PUSH1 0x24 DUP3 ADD MSTORE PUSH32 0x54686973206C6F616E20686173206E6F20636F6C6C61746572616C0000000000 PUSH1 0x44 DUP3 ADD MSTORE PUSH1 0x64 SWAP1 REVERT JUMPDEST PUSH1 0x40 MLOAD PUSH3 0x461BCD PUSH1 0xE5 SHL DUP2 MSTORE PUSH1 0x20 PUSH1 0x4 DUP3 ADD MSTORE PUSH1 0x23 PUSH1 0x24 DUP3 ADD MSTORE PUSH32 0x436F6C6C61746572616C2068617320616C7265616479206265656E20636C6169 PUSH1 0x44 DUP3 ADD MSTORE PUSH3 0x1B5959 PUSH1 0xEA SHL PUSH1 0x64 DUP3 ADD MSTORE PUSH1 0x84 SWAP1 REVERT JUMPDEST PUSH1 0x40 MLOAD PUSH3 0x461BCD PUSH1 0xE5 SHL DUP2 MSTORE PUSH1 0x20 PUSH1 0x4 DUP3 ADD MSTORE PUSH1 0x16 PUSH1 0x24 DUP3 ADD MSTORE PUSH22 0x131BD85B881A185CC81B9BDD08191959985D5B1D1959 PUSH1 0x52 SHL PUSH1 0x44 DUP3 ADD MSTORE PUSH1 0x64 SWAP1 REVERT JUMPDEST PUSH1 0x40 MLOAD PUSH3 0x461BCD PUSH1 0xE5 SHL DUP2 MSTORE PUSH1 0x20 PUSH1 0x4 DUP3 ADD MSTORE PUSH1 0x1B PUSH1 0x24 DUP3 ADD MSTORE PUSH32 0x4F6E6C792074686520696E766573746F722063616E20636C61696D0000000000 PUSH1 0x44 DUP3 ADD MSTORE PUSH1 0x64 SWAP1 REVERT JUMPDEST POP CALLVALUE PUSH2 0xEA JUMPI DUP1 PUSH1 0x3 NOT CALLDATASIZE ADD SLT PUSH2 0xEA JUMPI PUSH1 0x20 PUSH1 0x3 SLOAD PUSH1 0x40 MLOAD SWAP1 DUP2 MSTORE RETURN JUMPDEST POP CALLVALUE PUSH2 0xEA JUMPI PUSH1 0x20 SWAP1 DUP2 PUSH1 0x3 NOT CALLDATASIZE ADD SLT PUSH2 0xEA JUMPI PUSH1 0x4 CALLDATALOAD PUSH1 0x2 SWAP1 PUSH2 0xED5 PUSH1 0x1 DUP4 SLOAD EQ PUSH2 0x1349 JUMP JUMPDEST DUP2 DUP1 SSTORE PUSH2 0xEE1 DUP2 PUSH2 0x12F8 JUMP JUMPDEST POP PUSH1 0x6 DUP2 ADD SWAP1 DUP2 SLOAD SWAP2 PUSH1 0xFF DUP4 AND PUSH1 0x6 DUP2 LT ISZERO PUSH2 0x1036 JUMPI PUSH1 0x1 SUB PUSH2 0xFF1 JUMPI DUP2 SLOAD PUSH1 0x1 PUSH1 0x1 PUSH1 0xA0 SHL SUB AND SWAP3 CALLER DUP5 SWAP1 SUB PUSH2 0xFAC JUMPI DUP7 DUP7 DUP2 SWAP5 DUP3 SWAP5 DUP3 DUP5 SWAP6 PUSH1 0xFF NOT AND OR SWAP1 SSTORE ADD SWAP5 DUP6 SLOAD SWAP1 GAS CALL PUSH2 0xF31 PUSH2 0x13B8 JUMP JUMPDEST POP ISZERO PUSH2 0xF69 JUMPI PUSH1 0x1 SWAP4 SWAP5 PUSH32 0x69CE060F535737417B4A4EBB86AE7A865885C5C1E8106F7ED0B8BD9C52641BC6 SWAP2 SLOAD PUSH1 0x40 MLOAD SWAP1 DUP2 MSTORE LOG2 SSTORE DUP1 RETURN JUMPDEST PUSH1 0x64 DUP6 PUSH1 0x40 MLOAD SWAP1 PUSH3 0x461BCD PUSH1 0xE5 SHL DUP3 MSTORE DUP1 PUSH1 0x4 DUP4 ADD MSTORE PUSH1 0x24 DUP3 ADD MSTORE PUSH32 0x4661696C656420746F2073656E642066756E647320746F20626F72726F776572 PUSH1 0x44 DUP3 ADD MSTORE REVERT JUMPDEST PUSH1 0x40 MLOAD PUSH3 0x461BCD PUSH1 0xE5 SHL DUP2 MSTORE PUSH1 0x4 DUP2 ADD DUP10 SWAP1 MSTORE PUSH1 0x1E PUSH1 0x24 DUP3 ADD MSTORE PUSH32 0x4F6E6C792074686520626F72726F7765722063616E2077697468647261770000 PUSH1 0x44 DUP3 ADD MSTORE PUSH1 0x64 SWAP1 REVERT JUMPDEST PUSH1 0x40 MLOAD PUSH3 0x461BCD PUSH1 0xE5 SHL DUP2 MSTORE PUSH1 0x4 DUP2 ADD DUP9 SWAP1 MSTORE PUSH1 0x1B PUSH1 0x24 DUP3 ADD MSTORE PUSH32 0x4C6F616E206973206E6F7420696E2046756E6465642073746174650000000000 PUSH1 0x44 DUP3 ADD MSTORE PUSH1 0x64 SWAP1 REVERT JUMPDEST PUSH4 0x4E487B71 PUSH1 0xE0 SHL DUP8 MSTORE PUSH1 0x21 PUSH1 0x4 MSTORE PUSH1 0x24 DUP8 REVERT JUMPDEST POP CALLVALUE PUSH2 0xEA JUMPI PUSH1 0x20 CALLDATASIZE PUSH1 0x3 NOT ADD SLT PUSH2 0xEA JUMPI PUSH1 0x4 CALLDATALOAD PUSH1 0x1 PUSH1 0x1 PUSH1 0xA0 SHL SUB DUP2 AND SWAP1 DUP2 SWAP1 SUB PUSH2 0x1F2 JUMPI DUP2 PUSH1 0x40 SWAP2 PUSH1 0x20 SWAP4 MSTORE PUSH1 0x5 DUP4 MSTORE KECCAK256 SLOAD PUSH1 0x40 MLOAD SWAP1 DUP2 MSTORE RETURN JUMPDEST POP PUSH1 0x20 DUP1 PUSH1 0x3 NOT CALLDATASIZE ADD SLT PUSH2 0x1F2 JUMPI PUSH1 0x4 CALLDATALOAD PUSH2 0x10A6 PUSH1 0x1 PUSH1 0x2 SLOAD EQ PUSH2 0x1349 JUMP JUMPDEST PUSH1 0x2 DUP1 SSTORE PUSH2 0x10B3 DUP2 PUSH2 0x12F8 JUMP JUMPDEST POP SWAP2 PUSH1 0x6 DUP4 ADD DUP1 SLOAD SWAP1 PUSH1 0xFF DUP3 AND PUSH1 0x6 DUP2 LT ISZERO PUSH2 0x1036 JUMPI PUSH1 0x2 SUB PUSH2 0x1257 JUMPI PUSH2 0x10F0 PUSH1 0x1 DUP7 ADD SLOAD PUSH2 0x2710 PUSH2 0x10E9 PUSH1 0x3 DUP10 ADD SLOAD DUP4 PUSH2 0x1419 JUMP JUMPDEST DIV SWAP1 PUSH2 0x142C JUMP JUMPDEST SWAP2 DUP3 CALLVALUE LT PUSH2 0x1203 JUMPI PUSH1 0x3 SWAP1 DUP4 PUSH1 0x8 DUP9 ADD SSTORE PUSH1 0xFF NOT AND OR SWAP1 SSTORE DUP3 PUSH32 0xD3337F372235C0C137836A45251CD21FBA324E7EF27C7ACC5AC12451491793B9 DUP4 PUSH1 0x1 DUP1 PUSH1 0xA0 SHL SUB SWAP4 DUP5 DUP9 SLOAD AND DUP10 MSTORE PUSH1 0x4 DUP3 MSTORE PUSH1 0x40 DUP10 KECCAK256 PUSH2 0x114B DUP2 SLOAD PUSH2 0x1439 JUMP JUMPDEST SWAP1 SSTORE PUSH1 0x40 MLOAD SWAP1 DUP2 MSTORE LOG2 PUSH1 0xB DUP5 ADD SWAP4 DUP6 DUP6 SLOAD DUP1 PUSH2 0x116B JUMPI JUMPDEST POP PUSH1 0x1 PUSH1 0x2 SSTORE DUP1 RETURN JUMPDEST DUP2 DUP1 DUP1 SWAP3 DUP7 DUP7 SLOAD AND GAS CALL PUSH2 0x117D PUSH2 0x13B8 JUMP JUMPDEST POP ISZERO PUSH2 0x11BE JUMPI SWAP1 PUSH32 0x7C5E5CB62E5ED3CAF3764E4B0AFEDFEDEF533E27809D43367799787AD2ABCD41 SWAP3 SWAP2 SLOAD AND SWAP4 SLOAD PUSH1 0x40 MLOAD SWAP1 DUP2 MSTORE LOG3 CODESIZE DUP1 DUP1 DUP1 DUP1 DUP6 DUP2 PUSH2 0x1162 JUMP JUMPDEST PUSH1 0x40 MLOAD PUSH3 0x461BCD PUSH1 0xE5 SHL DUP2 MSTORE PUSH1 0x4 DUP2 ADD DUP5 SWAP1 MSTORE PUSH1 0x1A PUSH1 0x24 DUP3 ADD MSTORE PUSH32 0x436F6C6C61746572616C207472616E73666572206661696C6564000000000000 PUSH1 0x44 DUP3 ADD MSTORE PUSH1 0x64 SWAP1 REVERT JUMPDEST PUSH1 0x40 MLOAD PUSH3 0x461BCD PUSH1 0xE5 SHL DUP2 MSTORE PUSH1 0x4 DUP2 ADD DUP6 SWAP1 MSTORE PUSH1 0x26 PUSH1 0x24 DUP3 ADD MSTORE PUSH32 0x496E73756666696369656E7420616D6F756E742073656E7420666F7220726570 PUSH1 0x44 DUP3 ADD MSTORE PUSH6 0x185E5B595B9D PUSH1 0xD2 SHL PUSH1 0x64 DUP3 ADD MSTORE PUSH1 0x84 SWAP1 REVERT JUMPDEST PUSH1 0x64 DUP4 PUSH1 0x40 MLOAD SWAP1 PUSH3 0x461BCD PUSH1 0xE5 SHL DUP3 MSTORE DUP1 PUSH1 0x4 DUP4 ADD MSTORE PUSH1 0x24 DUP3 ADD MSTORE PUSH32 0x4C6F616E206973206E6F742061637469766520666F722072657061796D656E74 PUSH1 0x44 DUP3 ADD MSTORE REVERT JUMPDEST POP CALLVALUE PUSH2 0xEA JUMPI PUSH1 0x20 CALLDATASIZE PUSH1 0x3 NOT ADD SLT PUSH2 0xEA JUMPI PUSH1 0x4 CALLDATALOAD SWAP1 PUSH1 0x1 PUSH1 0x1 PUSH1 0xA0 SHL SUB DUP3 AND DUP3 SUB PUSH2 0xEA JUMPI PUSH1 0x20 PUSH2 0x12CB DUP4 PUSH2 0x15C6 JUMP JUMPDEST PUSH1 0x40 MLOAD SWAP1 DUP2 MSTORE RETURN JUMPDEST PUSH1 0x40 SWAP1 PUSH1 0x3 NOT ADD SLT PUSH2 0x12F3 JUMPI PUSH1 0x4 CALLDATALOAD SWAP1 PUSH1 0x24 CALLDATALOAD PUSH1 0xFF DUP2 AND DUP2 SUB PUSH2 0x12F3 JUMPI SWAP1 JUMP JUMPDEST PUSH1 0x0 DUP1 REVERT JUMPDEST PUSH1 0x3 SLOAD DUP2 LT ISZERO PUSH2 0x1333 JUMPI PUSH1 0xD SWAP1 PUSH1 0x3 PUSH1 0x0 MSTORE MUL PUSH32 0xC2575A0E9E593C00F959F8C92F12DB2869C3395A3B0502D05E2516446F71F85B ADD SWAP1 PUSH1 0x0 SWAP1 JUMP JUMPDEST PUSH4 0x4E487B71 PUSH1 0xE0 SHL PUSH1 0x0 MSTORE PUSH1 0x32 PUSH1 0x4 MSTORE PUSH1 0x24 PUSH1 0x0 REVERT JUMPDEST ISZERO PUSH2 0x1350 JUMPI JUMP JUMPDEST PUSH1 0x40 MLOAD PUSH3 0x461BCD PUSH1 0xE5 SHL DUP2 MSTORE PUSH1 0x20 PUSH1 0x4 DUP3 ADD MSTORE PUSH1 0x1F PUSH1 0x24 DUP3 ADD MSTORE PUSH32 0x5265656E7472616E637947756172643A207265656E7472616E742063616C6C00 PUSH1 0x44 DUP3 ADD MSTORE PUSH1 0x64 SWAP1 REVERT JUMPDEST SWAP2 SWAP1 DUP3 SUB SWAP2 DUP3 GT PUSH2 0x13A2 JUMPI JUMP JUMPDEST PUSH4 0x4E487B71 PUSH1 0xE0 SHL PUSH1 0x0 MSTORE PUSH1 0x11 PUSH1 0x4 MSTORE PUSH1 0x24 PUSH1 0x0 REVERT JUMPDEST RETURNDATASIZE ISZERO PUSH2 0x1414 JUMPI PUSH8 0xFFFFFFFFFFFFFFFF SWAP1 RETURNDATASIZE DUP3 DUP2 GT PUSH2 0x13FE JUMPI PUSH1 0x40 MLOAD SWAP3 PUSH1 0x1F DUP3 ADD PUSH1 0x1F NOT SWAP1 DUP2 AND PUSH1 0x3F ADD AND DUP5 ADD SWAP1 DUP2 GT DUP5 DUP3 LT OR PUSH2 0x13FE JUMPI PUSH1 0x40 MSTORE DUP3 MSTORE RETURNDATASIZE PUSH1 0x0 PUSH1 0x20 DUP5 ADD RETURNDATACOPY JUMP JUMPDEST PUSH4 0x4E487B71 PUSH1 0xE0 SHL PUSH1 0x0 MSTORE PUSH1 0x41 PUSH1 0x4 MSTORE PUSH1 0x24 PUSH1 0x0 REVERT JUMPDEST PUSH1 0x60 SWAP1 JUMP JUMPDEST DUP2 DUP2 MUL SWAP3 SWAP2 DUP2 ISZERO SWAP2 DUP5 DIV EQ OR ISZERO PUSH2 0x13A2 JUMPI JUMP JUMPDEST SWAP2 SWAP1 DUP3 ADD DUP1 SWAP3 GT PUSH2 0x13A2 JUMPI JUMP JUMPDEST PUSH1 0x0 NOT DUP2 EQ PUSH2 0x13A2 JUMPI PUSH1 0x1 ADD SWAP1 JUMP JUMPDEST ISZERO PUSH2 0x144F JUMPI JUMP JUMPDEST PUSH1 0x64 PUSH1 0x40 MLOAD PUSH3 0x461BCD PUSH1 0xE5 SHL DUP2 MSTORE PUSH1 0x20 PUSH1 0x4 DUP3 ADD MSTORE PUSH1 0x20 PUSH1 0x24 DUP3 ADD MSTORE PUSH32 0x53636F72652068617320616C7265616479206265656E207375626D6974746564 PUSH1 0x44 DUP3 ADD MSTORE REVERT JUMPDEST ISZERO PUSH2 0x149A JUMPI JUMP JUMPDEST PUSH1 0x40 MLOAD PUSH3 0x461BCD PUSH1 0xE5 SHL DUP2 MSTORE PUSH1 0x20 PUSH1 0x4 DUP3 ADD MSTORE PUSH1 0x1D PUSH1 0x24 DUP3 ADD MSTORE PUSH32 0x53636F7265206D757374206265206265747765656E203120616E642035000000 PUSH1 0x44 DUP3 ADD MSTORE PUSH1 0x64 SWAP1 REVERT JUMPDEST ISZERO PUSH2 0x14E6 JUMPI JUMP JUMPDEST PUSH1 0x40 MLOAD PUSH3 0x461BCD PUSH1 0xE5 SHL DUP2 MSTORE PUSH1 0x20 PUSH1 0x4 DUP3 ADD MSTORE PUSH1 0x13 PUSH1 0x24 DUP3 ADD MSTORE PUSH19 0x119959481D1C985B9CD9995C8819985A5B1959 PUSH1 0x6A SHL PUSH1 0x44 DUP3 ADD MSTORE PUSH1 0x64 SWAP1 REVERT JUMPDEST PUSH2 0x152A DUP2 PUSH2 0x12F8 JUMP JUMPDEST POP PUSH1 0x6 DUP2 ADD DUP1 SLOAD PUSH1 0xFF DUP2 AND PUSH1 0x6 DUP2 LT ISZERO PUSH2 0x15B0 JUMPI PUSH1 0x2 EQ DUP1 PUSH2 0x1595 JUMPI JUMPDEST PUSH2 0x1552 JUMPI JUMPDEST POP POP POP POP JUMP JUMPDEST PUSH1 0x4 SWAP1 PUSH1 0xFF NOT AND OR SWAP1 SSTORE PUSH1 0xA TIMESTAMP SWAP2 ADD SSTORE PUSH32 0x84908FCA714735411D4553DDD185A4D6FDC25FDA2D15662153EF18A8AD6099B4 PUSH1 0x20 PUSH1 0x40 MLOAD TIMESTAMP DUP2 MSTORE LOG2 CODESIZE DUP1 DUP1 DUP1 PUSH2 0x154C JUMP JUMPDEST POP PUSH2 0x15A9 PUSH1 0x7 DUP5 ADD SLOAD PUSH1 0x4 DUP6 ADD SLOAD SWAP1 PUSH2 0x142C JUMP JUMPDEST TIMESTAMP GT PUSH2 0x1547 JUMP JUMPDEST PUSH4 0x4E487B71 PUSH1 0xE0 SHL PUSH1 0x0 MSTORE PUSH1 0x21 PUSH1 0x4 MSTORE PUSH1 0x24 PUSH1 0x0 REVERT JUMPDEST PUSH1 0x1 PUSH1 0x1 PUSH1 0xA0 SHL SUB AND PUSH1 0x0 DUP2 DUP2 MSTORE PUSH1 0x4 PUSH1 0x20 MSTORE PUSH1 0x40 DUP2 KECCAK256 SLOAD SWAP1 SWAP2 SWAP1 ISZERO PUSH2 0x1630 JUMPI PUSH1 0x5 PUSH1 0x20 MSTORE PUSH1 0x40 DUP3 KECCAK256 SLOAD SWAP1 PUSH1 0x64 DUP3 MUL SWAP2 DUP1 DUP4 DIV PUSH1 0x64 EQ SWAP1 ISZERO OR ISZERO PUSH2 0x3F2 JUMPI DUP3 MSTORE PUSH1 0x4 PUSH1 0x20 MSTORE PUSH1 0x40 DUP3 KECCAK256 SLOAD SWAP2 DUP3 ISZERO PUSH2 0x161C JUMPI POP DIV SWAP1 JUMP JUMPDEST PUSH4 0x4E487B71 PUSH1 0xE0 SHL DUP2 MSTORE PUSH1 0x12 PUSH1 0x4 MSTORE PUSH1 0x24 SWAP1 REVERT JUMPDEST POP SWAP1 JUMP INVALID LOG2 PUSH5 0x6970667358 0x22 SLT KECCAK256 RETURNDATASIZE STOP DUP14 0xB7 OR 0x4D 0xC0 0xDA 0xFB SHL DUP14 0xE8 0xB8 0xDA 0xB3 PUSH28 0xE9F25B5B7ADD0356DA7948CF9EAD79A164736F6C6343000813003300 "},"methodIdentifiers":{"averageScoreOfBorrower(address)":"31798f61","borrowerLoanCount(address)":"c71230bf","borrowerScoreSum(address)":"498efd7a","cancelLoan(uint256)":"bdbfa3de","checkDefault(uint256)":"759135a1","claimCollateral(uint256,uint8)":"5f76cdfd","createLoan(uint256,uint256,uint256,uint256,uint256)":"cf2b4cbc","feeWallet()":"f25f4b56","fundLoan(uint256)":"846b909a","getLoanCount()":"52196812","loans(uint256)":"e1ec3c68","owner()":"8da5cb5b","repay(uint256)":"371fd8e6","withdrawAsBorrower(uint256)":"4d8a2e15","withdrawInvestorShare(uint256,uint8)":"b7f0b7ee"}}}}}