{"contracts/Loan.sol":{"LoanMarket":{"abi":[{"inputs":[],"stateMutability":"nonpayable","type":"constructor"},{"anonymous":false,"inputs":[{"indexed":true,"internalType":"uint256","name":"loanId","type":"uint256"},{"indexed":true,"internalType":"address","name":"investor","type":"address"},{"indexed":false,"internalType":"uint256","name":"grossAmount","type":"uint256"},{"indexed":false,"internalType":"uint256","name":"fee","type":"uint256"},{"indexed":false,"internalType":"uint256","name":"netAmount","type":"uint256"}],"name":"CollateralClaimed","type":"event"},{"anonymous":false,"inputs":[{"indexed":true,"internalType":"uint256","name":"loanId","type":"uint256"},{"indexed":true,"internalType":"address","name":"borrower","type":"address"},{"indexed":false,"internalType":"uint256","name":"amount","type":"uint256"}],"name":"CollateralWithdrawn","type":"event"},{"anonymous":false,"inputs":[{"indexed":true,"internalType":"uint256","name":"loanId","type":"uint256"},{"indexed":false,"internalType":"uint256","name":"defaultTimestamp","type":"uint256"}],"name":"Defaulted","type":"event"},{"anonymous":false,"inputs":[{"indexed":true,"internalType":"uint256","name":"loanId","type":"uint256"},{"indexed":true,"internalType":"address","name":"investor","type":"address"},{"indexed":false,"internalType":"uint256","name":"amount","type":"uint256"}],"name":"Funded","type":"event"},{"anonymous":false,"inputs":[{"indexed":true,"internalType":"uint256","name":"loanId","type":"uint256"},{"indexed":true,"internalType":"address","name":"investor","type":"address"},{"indexed":false,"internalType":"uint256","name":"amount","type":"uint256"}],"name":"InvestorWithdraw","type":"event"},{"anonymous":false,"inputs":[{"indexed":true,"internalType":"uint256","name":"loanId","type":"uint256"},{"indexed":true,"internalType":"address","name":"borrower","type":"address"}],"name":"LoanCancelled","type":"event"},{"anonymous":false,"inputs":[{"indexed":true,"internalType":"uint256","name":"loanId","type":"uint256"},{"indexed":true,"internalType":"address","name":"borrower","type":"address"},{"indexed":false,"internalType":"uint256","name":"amountRequested","type":"uint256"}],"name":"LoanCreated","type":"event"},{"anonymous":false,"inputs":[{"indexed":true,"internalType":"uint256","name":"loanId","type":"uint256"},{"indexed":false,"internalType":"uint256","name":"amount","type":"uint256"}],"name":"RepaymentMade","type":"event"},{"anonymous":false,"inputs":[{"indexed":true,"internalType":"uint256","name":"loanId","type":"uint256"},{"indexed":true,"internalType":"address","name":"investor","type":"address"},{"indexed":false,"internalType":"uint8","name":"score","type":"uint8"}],"name":"ScoreLeft","type":"event"},{"anonymous":false,"inputs":[{"indexed":true,"internalType":"uint256","name":"loanId","type":"uint256"},{"indexed":false,"internalType":"uint256","name":"amount","type":"uint256"}],"name":"WithdrawnByBorrower","type":"event"},{"inputs":[{"internalType":"address","name":"borrower","type":"address"}],"name":"averageScoreOfBorrower","outputs":[{"internalType":"uint256","name":"avgTimes100","type":"uint256"}],"stateMutability":"view","type":"function"},{"inputs":[{"internalType":"uint256","name":"loanId","type":"uint256"}],"name":"cancelFundedLoan","outputs":[],"stateMutability":"nonpayable","type":"function"},{"inputs":[{"internalType":"uint256","name":"loanId","type":"uint256"}],"name":"cancelLoan","outputs":[],"stateMutability":"nonpayable","type":"function"},{"inputs":[{"internalType":"uint256","name":"loanId","type":"uint256"}],"name":"checkDefault","outputs":[],"stateMutability":"nonpayable","type":"function"},{"inputs":[{"internalType":"uint256","name":"loanId","type":"uint256"},{"internalType":"uint8","name":"score","type":"uint8"}],"name":"claimCollateral","outputs":[],"stateMutability":"nonpayable","type":"function"},{"inputs":[{"internalType":"uint256","name":"amountRequested","type":"uint256"},{"internalType":"uint256","name":"interestBps","type":"uint256"},{"internalType":"uint256","name":"durationSecs","type":"uint256"},{"internalType":"uint256","name":"fundingDeadline","type":"uint256"},{"internalType":"uint256","name":"collateralAmount","type":"uint256"}],"name":"createLoan","outputs":[{"internalType":"uint256","name":"loanId","type":"uint256"}],"stateMutability":"payable","type":"function"},{"inputs":[],"name":"feeWallet","outputs":[{"internalType":"address payable","name":"","type":"address"}],"stateMutability":"view","type":"function"},{"inputs":[{"internalType":"uint256","name":"loanId","type":"uint256"}],"name":"fundLoan","outputs":[],"stateMutability":"payable","type":"function"},{"inputs":[],"name":"getLoanCount","outputs":[{"internalType":"uint256","name":"","type":"uint256"}],"stateMutability":"view","type":"function"},{"inputs":[{"internalType":"uint256","name":"","type":"uint256"}],"name":"loans","outputs":[{"internalType":"address","name":"borrower","type":"address"},{"internalType":"uint256","name":"amountRequested","type":"uint256"},{"internalType":"uint256","name":"amountFunded","type":"uint256"},{"internalType":"uint256","name":"interestBps","type":"uint256"},{"internalType":"uint256","name":"durationSecs","type":"uint256"},{"internalType":"uint256","name":"fundingDeadline","type":"uint256"},{"internalType":"enum LoanMarket.Status","name":"status","type":"uint8"},{"internalType":"uint256","name":"startTimestamp","type":"uint256"},{"internalType":"uint256","name":"totalRepayment","type":"uint256"},{"internalType":"address","name":"investor","type":"address"},{"internalType":"uint8","name":"score","type":"uint8"},{"internalType":"uint256","name":"defaultTimestamp","type":"uint256"},{"internalType":"uint256","name":"collateralAmount","type":"uint256"},{"internalType":"bool","name":"collateralClaimed","type":"bool"}],"stateMutability":"view","type":"function"},{"inputs":[],"name":"owner","outputs":[{"internalType":"address","name":"","type":"address"}],"stateMutability":"view","type":"function"},{"inputs":[{"internalType":"uint256","name":"loanId","type":"uint256"}],"name":"repay","outputs":[],"stateMutability":"payable","type":"function"},{"inputs":[{"internalType":"uint256","name":"loanId","type":"uint256"}],"name":"withdrawAsBorrower","outputs":[],"stateMutability":"nonpayable","type":"function"},{"inputs":[{"internalType":"uint256","name":"loanId","type":"uint256"}],"name":"withdrawCollateral","outputs":[],"stateMutability":"nonpayable","type":"function"},{"inputs":[{"internalType":"uint256","name":"loanId","type":"uint256"},{"internalType":"uint8","name":"score","type":"uint8"}],"name":"withdrawInvestorShare","outputs":[],"stateMutability":"nonpayable","type":"function"},{"inputs":[{"internalType":"uint256","name":"","type":"uint256"}],"name":"withdrawableOf","outputs":[{"internalType":"uint256","name":"","type":"uint256"}],"stateMutability":"view","type":"function"},{"stateMutability":"payable","type":"receive"}],"evm":{"bytecode":{"linkReferences":{},"object":"6080806040523461004b5760018060a01b0319730fade5b267b572dc1f002d1b9148976ccce9c8c88160015416176001556001600255339060005416176000556118ac90816100518239f35b600080fdfe6080604052600436101561005d575b361561001957600080fd5b606460405162461bcd60e51b815260206004820152602060248201527f5573652066756e644c6f616e286c6f616e49642920746f2073656e64204554486044820152fd5b60003560e01c806331798f61146112cb578063371fd8e6146110c05780634d8a2e1514610f3c5780635219681214610f1e5780635f76cdfd14610d395780636112fe2e14610be3578063759135a114610bc5578063846b909a14610a655780638da5cb5b14610a3c5780639f91912414610898578063b7f0b7ee14610647578063bdbfa3de1461057a578063cf2b4cbc1461026d578063d1fdb3e814610241578063e1ec3c68146101405763f25f4b560361000e573461013b57600036600319011261013b576001546040516001600160a01b039091168152602090f35b600080fd5b3461013b57602036600319011261013b5760043560035481101561013b5761016790611322565b5060018060a01b038154166001820154600283015492600381015493600482015460058301549560ff60068501541691600785015497600886015491600987015493600a8801549660ff600c600b8b01549a015416996040519b8c5260208c015260408b015260608a0152608089015260a0880152600683101561022b576101c09760ff9360c089015260e088015261010087015260018060a01b03811661012087015260a01c1661014085015261016084015261018083015215156101a0820152f35b634e487b7160e01b600052602160045260246000fd5b3461013b57602036600319011261013b5760043560005260046020526020604060002054604051908152f35b60a036600319011261013b576064356084356004351561053557428211156104f0578034036104b557604051916101c0830183811067ffffffffffffffff82111761049f576040523383526004356020840152604083019060008252606084019060243582526080850193604435855260a08601918252600060c0870152600060e0870152600061010087015260006101208701526000610140870152600061016087015261018086015260006101a08601526003546801000000000000000081101561049f578060016103449201600355611322565b94909461048957855185546001600160a01b03199081166001600160a01b0392831617875560208801516001880155945160028701559251600386015551600485015551600584015560c084015192600680820193919085101561022b576104066101a093600c9360ff96871998888a835416911617905560e08901516007850155610100890151600885015560098401916101208a01511690825416178155856101408901511681549060ff60a01b9060a01b169060ff60a01b1916179055565b610160860151600a820155610180860151600b8201550193015115159183541691161790556003546000198101908111610473576020906040516004358152817f8910ba13a55695f056e224bbbc6b65d866b12a8c2fbdf387fb853a1cca298cd7843393a3604051908152f35b634e487b7160e01b600052601160045260246000fd5b634e487b7160e01b600052600060045260246000fd5b634e487b7160e01b600052604160045260246000fd5b60405162461bcd60e51b8152602060048201526013602482015272086ded8d8c2e8cae4c2d840dad2e6dac2e8c6d606b1b6044820152606490fd5b60405162461bcd60e51b815260206004820152601e60248201527f446561646c696e65206d75737420626520696e207468652066757475726500006044820152606490fd5b60405162461bcd60e51b815260206004820152601d60248201527f416d6f756e74206d7573742062652067726561746572207468616e20300000006044820152606490fd5b3461013b57602036600319011261013b5760043561059c6001600254146113b7565b600280556105a981611322565b5080546001600160a01b03919082166105c3338214611403565b60068201805460ff811690600682101561022b576105e360059215611380565b60ff1916179055600b82015480610626575b50505416907f533b2d8d57dc3b3d1c1bfd952e6355a9b573b6b9cccc5f554157003f733bb514600080a36001600255005b600080808093610640955af161063a611484565b506116e6565b83806105f5565b3461013b5761065536611302565b6106636001600254146113b7565b6002805561067082611322565b5060098101546001600160a01b0393919061068e9085163314611570565b60ff600682015416600681101561022b576003036108615783600154161561082757816000526020936004855260406000205480156107ec5760018301546000858152600488526040812055808211156107af576106ec9082611373565b600a810290808204600a149015171561047357600080809361071360648395048092611373565b95600154165af1610722611484565b501561077d57827f0afeafe87af56d204cca28eefeec305c8d8bcb1907103f969f87e9a978745c2961077696610768600080808088335af1610762611484565b506115ab565b6040519384523393a36115e5565b6001600255005b60405162461bcd60e51b815260048101869052600a6024820152691199594819985a5b195960b21b6044820152606490fd5b509050827f0afeafe87af56d204cca28eefeec305c8d8bcb1907103f969f87e9a978745c2961077696610768600080808088335af1610762611484565b60405162461bcd60e51b81526004810187905260136024820152724e6f7468696e6720746f20776974686472617760681b6044820152606490fd5b60405162461bcd60e51b8152602060048201526012602482015271119959481dd85b1b195d081b9bdd081cd95d60721b6044820152606490fd5b60405162461bcd60e51b815260206004820152600f60248201526e131bd85b881b9bdd081c995c185a59608a1b6044820152606490fd5b3461013b57602036600319011261013b576004356108ba6001600254146113b7565b600280556108c781611322565b5060098101546001600160a01b03919082166108e4338214611570565b600682019081549160ff8316600681101561022b576001610905911461143e565b6109186007850154600486015490611477565b4211156109de5760008093928193926005839460ff19161790556002860154905af1610942611484565b50156109a057600b81015480610983575b505416907f533b2d8d57dc3b3d1c1bfd952e6355a9b573b6b9cccc5f554157003f733bb514600080a36001600255005b600080808061099a94878754165af161063a611484565b83610953565b60405162461bcd60e51b8152602060048201526016602482015275125b9d995cdd1bdc881c99599d5b990819985a5b195960521b6044820152606490fd5b60405162461bcd60e51b815260206004820152603060248201527f426f72726f7765722773207769746864726177616c20706572696f642068617360448201526f081b9bdd08195e1c1a5c9959081e595d60821b6064820152608490fd5b3461013b57600036600319011261013b576000546040516001600160a01b039091168152602090f35b602036600319011261013b57600435610a7d81611322565b5060068101805460ff8116600681101561022b57610a9b9015611380565b60058301544211610b8e5760018301543403610b585760098301805491906001600160a01b038316610b225760019234600287015533906bffffffffffffffffffffffff60a01b1617905560ff1916179055600742910155604051903482527f38c48552690c96ec2872092ac1db6c19fb59f5a8c5b49bbf41ed4886d0ca692660203393a3005b60405162461bcd60e51b815260206004820152600e60248201526d105b1c9958591e48199d5b99195960921b6044820152606490fd5b60405162461bcd60e51b815260206004820152600e60248201526d135d5cdd08199d5b9908199d5b1b60921b6044820152606490fd5b60405162461bcd60e51b815260206004820152600f60248201526e111958591b1a5b99481c185cdcd959608a1b6044820152606490fd5b3461013b57602036600319011261013b57610be16004356114cf565b005b3461013b57602036600319011261013b57600435610c056001600254146113b7565b60028055610c1281611322565b5080546001600160a01b039081169291610c2d338514611403565b60ff600682015416600681101561022b57600303610d07576000808080600c850197885490610c5f60ff8316156117fc565b600b87019960018b5493610c7485151561183a565b60ff19161790555af1610c85611484565b5015610cc2577f7c5e5cb62e5ed3caf3764e4b0afedfedef533e27809d43367799787ad2abcd419160209154169354604051908152a36001600255005b60405162461bcd60e51b815260206004820152601a60248201527f436f6c6c61746572616c207472616e73666572206661696c65640000000000006044820152606490fd5b60405162461bcd60e51b815260206004820152600a602482015269139bdd081c995c185a5960b21b6044820152606490fd5b3461013b57610d4736611302565b610d556001600254146113b7565b60028055610d62826114cf565b610d6b82611322565b5091600983019260018060a01b03610d87818654163314611570565b60ff600683015416600681101561022b57600403610ee957600c8201948554610db360ff8216156117fc565b600b840154966001881592610dc8841561183a565b60ff1916179055600a870290878204600a141715610473576064900491610def8388611373565b9160008080808786600154165af1610e05611484565b5015610eae57600080808086868654165af1610e1f611484565b5015610e69576107769786937f90a49cc0ffe370f13cdb2e8c2f3f91aeb86bae3a6aa0e060da5fb4a9b91cde999360609354169560405192835260208301526040820152a36115e5565b60405162461bcd60e51b815260206004820152601860248201527f496e766573746f72207472616e73666572206661696c656400000000000000006044820152606490fd5b60405162461bcd60e51b8152602060048201526013602482015272119959481d1c985b9cd9995c8819985a5b1959606a1b6044820152606490fd5b60405162461bcd60e51b815260206004820152600d60248201526c139bdd08191959985d5b1d1959609a1b6044820152606490fd5b3461013b57600036600319011261013b576020600354604051908152f35b3461013b57602036600319011261013b576004356002610f5f60018254146113b7565b808055610f6b82611322565b5091610f8160018060a01b038454163314611403565b6006830180549360ff8516600681101561022b576001610fa1911461143e565b610fb46007820154600483015490611477565b421161107b5783015493841561104a5760ff191683179055600080808086335af1610fdd611484565b5015611013577f69ce060f535737417b4a4ebb86ae7a865885c5c1e8106f7ed0b8bd9c52641bc66020600194604051908152a255005b60405162461bcd60e51b815260206004820152600f60248201526e151c985b9cd9995c8819985a5b1959608a1b6044820152606490fd5b60405162461bcd60e51b8152602060048201526009602482015268139bc8185b5bdd5b9d60ba1b6044820152606490fd5b60405162461bcd60e51b815260206004820152601a60248201527f576974686472617720706572696f6420686173207061737365640000000000006044820152606490fd5b60208060031936011261013b57600435906110df6001600254146113b7565b600280556110ec82611322565b5061110160018060a01b038254163314611403565b6006810160ff815416600681101561022b576002036112915761112d6007830154600484015490611477565b421161124c5761113c846114cf565b600182015460038301549081810291818304148115171561047357612710611165920490611477565b9182341061121a57600883910155600360ff198254161790558260005260048252806040600020558034116111c6575b907fd3337f372235c0c137836a45251cd21fba324e7ef27c7acc5ac12451491793b991604051908152a26001600255005b60008080806111d58534611373565b335af16111e0611484565b506111955760405162461bcd60e51b815260048101839052600d60248201526c1499599d5b990819985a5b1959609a1b6044820152606490fd5b60405162461bcd60e51b815260048101859052600a60248201526909cdee840cadcdeeaced60b31b6044820152606490fd5b60405162461bcd60e51b815260048101849052601b60248201527f52657061796d656e7420706572696f64206861732070617373656400000000006044820152606490fd5b60405162461bcd60e51b81526004810184905260126024820152714c6f616e206973206e6f742061637469766560701b6044820152606490fd5b3461013b57602036600319011261013b576004356001600160a01b038116810361013b576112fa602091611741565b604051908152f35b604090600319011261013b576004359060243560ff8116810361013b5790565b60035481101561135d57600d906003600052027fc2575a0e9e593c00f959f8c92f12db2869c3395a3b0502d05e2516446f71f85b0190600090565b634e487b7160e01b600052603260045260246000fd5b9190820391821161047357565b1561138757565b60405162461bcd60e51b81526020600482015260086024820152672737ba1037b832b760c11b6044820152606490fd5b156113be57565b60405162461bcd60e51b815260206004820152601f60248201527f5265656e7472616e637947756172643a207265656e7472616e742063616c6c006044820152606490fd5b1561140a57565b60405162461bcd60e51b815260206004820152600c60248201526b2737ba103137b93937bbb2b960a11b6044820152606490fd5b1561144557565b60405162461bcd60e51b815260206004820152600a602482015269139bdd08199d5b99195960b21b6044820152606490fd5b9190820180921161047357565b3d156114ca5767ffffffffffffffff903d82811161049f5760405192601f8201601f19908116603f011684019081118482101761049f5760405282523d6000602084013e565b606090565b6114d881611322565b5060068101805460ff8116600681101561022b5760021480611555575b80611549575b611506575b50505050565b60049060ff1916179055600a429101557f84908fca714735411d4553ddd185a4d6fdc25fda2d15662153ef18a8ad6099b46020604051428152a238808080611500565b50600a830154156114fb565b506115696007840154600485015490611477565b42116114f5565b1561157757565b60405162461bcd60e51b815260206004820152600c60248201526b2737ba1034b73b32b9ba37b960a11b6044820152606490fd5b156115b257565b60405162461bcd60e51b815260206004820152600b60248201526a14d95b990819985a5b195960aa1b6044820152606490fd5b9160ff8116926001841015806116db575b15611696576009019060ff825460a01c1661165157815460ff60a01b191660a09190911b60ff60a01b161790556040519182527f7514ebcac1feb55cc5d1869533571ccd5971af19a7428bb57c1f780879eec3d960203393a3565b60405162461bcd60e51b815260206004820152601b60248201527f53636f72652068617320616c7265616479206265656e206c65667400000000006044820152606490fd5b60405162461bcd60e51b815260206004820152601d60248201527f53636f7265206d757374206265206265747765656e203120616e6420350000006044820152606490fd5b5060058411156115f6565b156116ed57565b60405162461bcd60e51b815260206004820152601860248201527f436f6c6c61746572616c20726566756e64206661696c656400000000000000006044820152606490fd5b60001981146104735760010190565b600080918190600354915b82811061177a57505050811561177357606481029080820460641490151715610473570490565b5050600090565b61178381611322565b50546001600160a01b03838116911614806117e0575b6117ac575b6117a790611732565b61174c565b93926117d86117d26117a79260ff60096117c58a611322565b50015460a01c1690611477565b94611732565b94905061179e565b5060ff60096117ee83611322565b50015460a01c161515611799565b1561180357565b60405162461bcd60e51b815260206004820152600f60248201526e105b1c9958591e4818db185a5b5959608a1b6044820152606490fd5b1561184157565b60405162461bcd60e51b815260206004820152600d60248201526c139bc818dbdb1b185d195c985b609a1b6044820152606490fdfea26469706673582212205aa24ee4d3caa54980fb451f2928c1c9b5702820c47d6009ac504bdfc2aa716364736f6c63430008130033","opcodes":"PUSH1 0x80 DUP1 PUSH1 0x40 MSTORE CALLVALUE PUSH2 0x4B JUMPI PUSH1 0x1 DUP1 PUSH1 0xA0 SHL SUB NOT PUSH20 0xFADE5B267B572DC1F002D1B9148976CCCE9C8C8 DUP2 PUSH1 0x1 SLOAD AND OR PUSH1 0x1 SSTORE PUSH1 0x1 PUSH1 0x2 SSTORE CALLER SWAP1 PUSH1 0x0 SLOAD AND OR PUSH1 0x0 SSTORE PUSH2 0x18AC SWAP1 DUP2 PUSH2 0x51 DUP3 CODECOPY RETURN JUMPDEST PUSH1 0x0 DUP1 REVERT INVALID PUSH1 0x80 PUSH1 0x40 MSTORE PUSH1 0x4 CALLDATASIZE LT ISZERO PUSH2 0x5D JUMPI JUMPDEST CALLDATASIZE ISZERO PUSH2 0x19 JUMPI PUSH1 0x0 DUP1 REVERT JUMPDEST PUSH1 0x64 PUSH1 0x40 MLOAD PUSH3 0x461BCD PUSH1 0xE5 SHL DUP2 MSTORE PUSH1 0x20 PUSH1 0x4 DUP3 ADD MSTORE PUSH1 0x20 PUSH1 0x24 DUP3 ADD MSTORE PUSH32 0x5573652066756E644C6F616E286C6F616E49642920746F2073656E6420455448 PUSH1 0x44 DUP3 ADD MSTORE REVERT JUMPDEST PUSH1 0x0 CALLDATALOAD PUSH1 0xE0 SHR DUP1 PUSH4 0x31798F61 EQ PUSH2 0x12CB JUMPI DUP1 PUSH4 0x371FD8E6 EQ PUSH2 0x10C0 JUMPI DUP1 PUSH4 0x4D8A2E15 EQ PUSH2 0xF3C JUMPI DUP1 PUSH4 0x52196812 EQ PUSH2 0xF1E JUMPI DUP1 PUSH4 0x5F76CDFD EQ PUSH2 0xD39 JUMPI DUP1 PUSH4 0x6112FE2E EQ PUSH2 0xBE3 JUMPI DUP1 PUSH4 0x759135A1 EQ PUSH2 0xBC5 JUMPI DUP1 PUSH4 0x846B909A EQ PUSH2 0xA65 JUMPI DUP1 PUSH4 0x8DA5CB5B EQ PUSH2 0xA3C JUMPI DUP1 PUSH4 0x9F919124 EQ PUSH2 0x898 JUMPI DUP1 PUSH4 0xB7F0B7EE EQ PUSH2 0x647 JUMPI DUP1 PUSH4 0xBDBFA3DE EQ PUSH2 0x57A JUMPI DUP1 PUSH4 0xCF2B4CBC EQ PUSH2 0x26D JUMPI DUP1 PUSH4 0xD1FDB3E8 EQ PUSH2 0x241 JUMPI DUP1 PUSH4 0xE1EC3C68 EQ PUSH2 0x140 JUMPI PUSH4 0xF25F4B56 SUB PUSH2 0xE JUMPI CALLVALUE PUSH2 0x13B JUMPI PUSH1 0x0 CALLDATASIZE PUSH1 0x3 NOT ADD SLT PUSH2 0x13B JUMPI PUSH1 0x1 SLOAD PUSH1 0x40 MLOAD PUSH1 0x1 PUSH1 0x1 PUSH1 0xA0 SHL SUB SWAP1 SWAP2 AND DUP2 MSTORE PUSH1 0x20 SWAP1 RETURN JUMPDEST PUSH1 0x0 DUP1 REVERT JUMPDEST CALLVALUE PUSH2 0x13B JUMPI PUSH1 0x20 CALLDATASIZE PUSH1 0x3 NOT ADD SLT PUSH2 0x13B JUMPI PUSH1 0x4 CALLDATALOAD PUSH1 0x3 SLOAD DUP2 LT ISZERO PUSH2 0x13B JUMPI PUSH2 0x167 SWAP1 PUSH2 0x1322 JUMP JUMPDEST POP PUSH1 0x1 DUP1 PUSH1 0xA0 SHL SUB DUP2 SLOAD AND PUSH1 0x1 DUP3 ADD SLOAD PUSH1 0x2 DUP4 ADD SLOAD SWAP3 PUSH1 0x3 DUP2 ADD SLOAD SWAP4 PUSH1 0x4 DUP3 ADD SLOAD PUSH1 0x5 DUP4 ADD SLOAD SWAP6 PUSH1 0xFF PUSH1 0x6 DUP6 ADD SLOAD AND SWAP2 PUSH1 0x7 DUP6 ADD SLOAD SWAP8 PUSH1 0x8 DUP7 ADD SLOAD SWAP2 PUSH1 0x9 DUP8 ADD SLOAD SWAP4 PUSH1 0xA DUP9 ADD SLOAD SWAP7 PUSH1 0xFF PUSH1 0xC PUSH1 0xB DUP12 ADD SLOAD SWAP11 ADD SLOAD AND SWAP10 PUSH1 0x40 MLOAD SWAP12 DUP13 MSTORE PUSH1 0x20 DUP13 ADD MSTORE PUSH1 0x40 DUP12 ADD MSTORE PUSH1 0x60 DUP11 ADD MSTORE PUSH1 0x80 DUP10 ADD MSTORE PUSH1 0xA0 DUP9 ADD MSTORE PUSH1 0x6 DUP4 LT ISZERO PUSH2 0x22B JUMPI PUSH2 0x1C0 SWAP8 PUSH1 0xFF SWAP4 PUSH1 0xC0 DUP10 ADD MSTORE PUSH1 0xE0 DUP9 ADD MSTORE PUSH2 0x100 DUP8 ADD MSTORE PUSH1 0x1 DUP1 PUSH1 0xA0 SHL SUB DUP2 AND PUSH2 0x120 DUP8 ADD MSTORE PUSH1 0xA0 SHR AND PUSH2 0x140 DUP6 ADD MSTORE PUSH2 0x160 DUP5 ADD MSTORE PUSH2 0x180 DUP4 ADD MSTORE ISZERO ISZERO PUSH2 0x1A0 DUP3 ADD MSTORE RETURN JUMPDEST PUSH4 0x4E487B71 PUSH1 0xE0 SHL PUSH1 0x0 MSTORE PUSH1 0x21 PUSH1 0x4 MSTORE PUSH1 0x24 PUSH1 0x0 REVERT JUMPDEST CALLVALUE PUSH2 0x13B JUMPI PUSH1 0x20 CALLDATASIZE PUSH1 0x3 NOT ADD SLT PUSH2 0x13B JUMPI PUSH1 0x4 CALLDATALOAD PUSH1 0x0 MSTORE PUSH1 0x4 PUSH1 0x20 MSTORE PUSH1 0x20 PUSH1 0x40 PUSH1 0x0 KECCAK256 SLOAD PUSH1 0x40 MLOAD SWAP1 DUP2 MSTORE RETURN JUMPDEST PUSH1 0xA0 CALLDATASIZE PUSH1 0x3 NOT ADD SLT PUSH2 0x13B JUMPI PUSH1 0x64 CALLDATALOAD PUSH1 0x84 CALLDATALOAD PUSH1 0x4 CALLDATALOAD ISZERO PUSH2 0x535 JUMPI TIMESTAMP DUP3 GT ISZERO PUSH2 0x4F0 JUMPI DUP1 CALLVALUE SUB PUSH2 0x4B5 JUMPI PUSH1 0x40 MLOAD SWAP2 PUSH2 0x1C0 DUP4 ADD DUP4 DUP2 LT PUSH8 0xFFFFFFFFFFFFFFFF DUP3 GT OR PUSH2 0x49F JUMPI PUSH1 0x40 MSTORE CALLER DUP4 MSTORE PUSH1 0x4 CALLDATALOAD PUSH1 0x20 DUP5 ADD MSTORE PUSH1 0x40 DUP4 ADD SWAP1 PUSH1 0x0 DUP3 MSTORE PUSH1 0x60 DUP5 ADD SWAP1 PUSH1 0x24 CALLDATALOAD DUP3 MSTORE PUSH1 0x80 DUP6 ADD SWAP4 PUSH1 0x44 CALLDATALOAD DUP6 MSTORE PUSH1 0xA0 DUP7 ADD SWAP2 DUP3 MSTORE PUSH1 0x0 PUSH1 0xC0 DUP8 ADD MSTORE PUSH1 0x0 PUSH1 0xE0 DUP8 ADD MSTORE PUSH1 0x0 PUSH2 0x100 DUP8 ADD MSTORE PUSH1 0x0 PUSH2 0x120 DUP8 ADD MSTORE PUSH1 0x0 PUSH2 0x140 DUP8 ADD MSTORE PUSH1 0x0 PUSH2 0x160 DUP8 ADD MSTORE PUSH2 0x180 DUP7 ADD MSTORE PUSH1 0x0 PUSH2 0x1A0 DUP7 ADD MSTORE PUSH1 0x3 SLOAD PUSH9 0x10000000000000000 DUP2 LT ISZERO PUSH2 0x49F JUMPI DUP1 PUSH1 0x1 PUSH2 0x344 SWAP3 ADD PUSH1 0x3 SSTORE PUSH2 0x1322 JUMP JUMPDEST SWAP5 SWAP1 SWAP5 PUSH2 0x489 JUMPI DUP6 MLOAD DUP6 SLOAD PUSH1 0x1 PUSH1 0x1 PUSH1 0xA0 SHL SUB NOT SWAP1 DUP2 AND PUSH1 0x1 PUSH1 0x1 PUSH1 0xA0 SHL SUB SWAP3 DUP4 AND OR DUP8 SSTORE PUSH1 0x20 DUP9 ADD MLOAD PUSH1 0x1 DUP9 ADD SSTORE SWAP5 MLOAD PUSH1 0x2 DUP8 ADD SSTORE SWAP3 MLOAD PUSH1 0x3 DUP7 ADD SSTORE MLOAD PUSH1 0x4 DUP6 ADD SSTORE MLOAD PUSH1 0x5 DUP5 ADD SSTORE PUSH1 0xC0 DUP5 ADD MLOAD SWAP3 PUSH1 0x6 DUP1 DUP3 ADD SWAP4 SWAP2 SWAP1 DUP6 LT ISZERO PUSH2 0x22B JUMPI PUSH2 0x406 PUSH2 0x1A0 SWAP4 PUSH1 0xC SWAP4 PUSH1 0xFF SWAP7 DUP8 NOT SWAP9 DUP9 DUP11 DUP4 SLOAD AND SWAP2 AND OR SWAP1 SSTORE PUSH1 0xE0 DUP10 ADD MLOAD PUSH1 0x7 DUP6 ADD SSTORE PUSH2 0x100 DUP10 ADD MLOAD PUSH1 0x8 DUP6 ADD SSTORE PUSH1 0x9 DUP5 ADD SWAP2 PUSH2 0x120 DUP11 ADD MLOAD AND SWAP1 DUP3 SLOAD AND OR DUP2 SSTORE DUP6 PUSH2 0x140 DUP10 ADD MLOAD AND DUP2 SLOAD SWAP1 PUSH1 0xFF PUSH1 0xA0 SHL SWAP1 PUSH1 0xA0 SHL AND SWAP1 PUSH1 0xFF PUSH1 0xA0 SHL NOT AND OR SWAP1 SSTORE JUMP JUMPDEST PUSH2 0x160 DUP7 ADD MLOAD PUSH1 0xA DUP3 ADD SSTORE PUSH2 0x180 DUP7 ADD MLOAD PUSH1 0xB DUP3 ADD SSTORE ADD SWAP4 ADD MLOAD ISZERO ISZERO SWAP2 DUP4 SLOAD AND SWAP2 AND OR SWAP1 SSTORE PUSH1 0x3 SLOAD PUSH1 0x0 NOT DUP2 ADD SWAP1 DUP2 GT PUSH2 0x473 JUMPI PUSH1 0x20 SWAP1 PUSH1 0x40 MLOAD PUSH1 0x4 CALLDATALOAD DUP2 MSTORE DUP2 PUSH32 0x8910BA13A55695F056E224BBBC6B65D866B12A8C2FBDF387FB853A1CCA298CD7 DUP5 CALLER SWAP4 LOG3 PUSH1 0x40 MLOAD SWAP1 DUP2 MSTORE RETURN JUMPDEST PUSH4 0x4E487B71 PUSH1 0xE0 SHL PUSH1 0x0 MSTORE PUSH1 0x11 PUSH1 0x4 MSTORE PUSH1 0x24 PUSH1 0x0 REVERT JUMPDEST PUSH4 0x4E487B71 PUSH1 0xE0 SHL PUSH1 0x0 MSTORE PUSH1 0x0 PUSH1 0x4 MSTORE PUSH1 0x24 PUSH1 0x0 REVERT JUMPDEST PUSH4 0x4E487B71 PUSH1 0xE0 SHL PUSH1 0x0 MSTORE PUSH1 0x41 PUSH1 0x4 MSTORE PUSH1 0x24 PUSH1 0x0 REVERT JUMPDEST PUSH1 0x40 MLOAD PUSH3 0x461BCD PUSH1 0xE5 SHL DUP2 MSTORE PUSH1 0x20 PUSH1 0x4 DUP3 ADD MSTORE PUSH1 0x13 PUSH1 0x24 DUP3 ADD MSTORE PUSH19 0x86DED8D8C2E8CAE4C2D840DAD2E6DAC2E8C6D PUSH1 0x6B SHL PUSH1 0x44 DUP3 ADD MSTORE PUSH1 0x64 SWAP1 REVERT JUMPDEST PUSH1 0x40 MLOAD PUSH3 0x461BCD PUSH1 0xE5 SHL DUP2 MSTORE PUSH1 0x20 PUSH1 0x4 DUP3 ADD MSTORE PUSH1 0x1E PUSH1 0x24 DUP3 ADD MSTORE PUSH32 0x446561646C696E65206D75737420626520696E20746865206675747572650000 PUSH1 0x44 DUP3 ADD MSTORE PUSH1 0x64 SWAP1 REVERT JUMPDEST PUSH1 0x40 MLOAD PUSH3 0x461BCD PUSH1 0xE5 SHL DUP2 MSTORE PUSH1 0x20 PUSH1 0x4 DUP3 ADD MSTORE PUSH1 0x1D PUSH1 0x24 DUP3 ADD MSTORE PUSH32 0x416D6F756E74206D7573742062652067726561746572207468616E2030000000 PUSH1 0x44 DUP3 ADD MSTORE PUSH1 0x64 SWAP1 REVERT JUMPDEST CALLVALUE PUSH2 0x13B JUMPI PUSH1 0x20 CALLDATASIZE PUSH1 0x3 NOT ADD SLT PUSH2 0x13B JUMPI PUSH1 0x4 CALLDATALOAD PUSH2 0x59C PUSH1 0x1 PUSH1 0x2 SLOAD EQ PUSH2 0x13B7 JUMP JUMPDEST PUSH1 0x2 DUP1 SSTORE PUSH2 0x5A9 DUP2 PUSH2 0x1322 JUMP JUMPDEST POP DUP1 SLOAD PUSH1 0x1 PUSH1 0x1 PUSH1 0xA0 SHL SUB SWAP2 SWAP1 DUP3 AND PUSH2 0x5C3 CALLER DUP3 EQ PUSH2 0x1403 JUMP JUMPDEST PUSH1 0x6 DUP3 ADD DUP1 SLOAD PUSH1 0xFF DUP2 AND SWAP1 PUSH1 0x6 DUP3 LT ISZERO PUSH2 0x22B JUMPI PUSH2 0x5E3 PUSH1 0x5 SWAP3 ISZERO PUSH2 0x1380 JUMP JUMPDEST PUSH1 0xFF NOT AND OR SWAP1 SSTORE PUSH1 0xB DUP3 ADD SLOAD DUP1 PUSH2 0x626 JUMPI JUMPDEST POP POP SLOAD AND SWAP1 PUSH32 0x533B2D8D57DC3B3D1C1BFD952E6355A9B573B6B9CCCC5F554157003F733BB514 PUSH1 0x0 DUP1 LOG3 PUSH1 0x1 PUSH1 0x2 SSTORE STOP JUMPDEST PUSH1 0x0 DUP1 DUP1 DUP1 SWAP4 PUSH2 0x640 SWAP6 GAS CALL PUSH2 0x63A PUSH2 0x1484 JUMP JUMPDEST POP PUSH2 0x16E6 JUMP JUMPDEST DUP4 DUP1 PUSH2 0x5F5 JUMP JUMPDEST CALLVALUE PUSH2 0x13B JUMPI PUSH2 0x655 CALLDATASIZE PUSH2 0x1302 JUMP JUMPDEST PUSH2 0x663 PUSH1 0x1 PUSH1 0x2 SLOAD EQ PUSH2 0x13B7 JUMP JUMPDEST PUSH1 0x2 DUP1 SSTORE PUSH2 0x670 DUP3 PUSH2 0x1322 JUMP JUMPDEST POP PUSH1 0x9 DUP2 ADD SLOAD PUSH1 0x1 PUSH1 0x1 PUSH1 0xA0 SHL SUB SWAP4 SWAP2 SWAP1 PUSH2 0x68E SWAP1 DUP6 AND CALLER EQ PUSH2 0x1570 JUMP JUMPDEST PUSH1 0xFF PUSH1 0x6 DUP3 ADD SLOAD AND PUSH1 0x6 DUP2 LT ISZERO PUSH2 0x22B JUMPI PUSH1 0x3 SUB PUSH2 0x861 JUMPI DUP4 PUSH1 0x1 SLOAD AND ISZERO PUSH2 0x827 JUMPI DUP2 PUSH1 0x0 MSTORE PUSH1 0x20 SWAP4 PUSH1 0x4 DUP6 MSTORE PUSH1 0x40 PUSH1 0x0 KECCAK256 SLOAD DUP1 ISZERO PUSH2 0x7EC JUMPI PUSH1 0x1 DUP4 ADD SLOAD PUSH1 0x0 DUP6 DUP2 MSTORE PUSH1 0x4 DUP9 MSTORE PUSH1 0x40 DUP2 KECCAK256 SSTORE DUP1 DUP3 GT ISZERO PUSH2 0x7AF JUMPI PUSH2 0x6EC SWAP1 DUP3 PUSH2 0x1373 JUMP JUMPDEST PUSH1 0xA DUP2 MUL SWAP1 DUP1 DUP3 DIV PUSH1 0xA EQ SWAP1 ISZERO OR ISZERO PUSH2 0x473 JUMPI PUSH1 0x0 DUP1 DUP1 SWAP4 PUSH2 0x713 PUSH1 0x64 DUP4 SWAP6 DIV DUP1 SWAP3 PUSH2 0x1373 JUMP JUMPDEST SWAP6 PUSH1 0x1 SLOAD AND GAS CALL PUSH2 0x722 PUSH2 0x1484 JUMP JUMPDEST POP ISZERO PUSH2 0x77D JUMPI DUP3 PUSH32 0xAFEAFE87AF56D204CCA28EEFEEC305C8D8BCB1907103F969F87E9A978745C29 PUSH2 0x776 SWAP7 PUSH2 0x768 PUSH1 0x0 DUP1 DUP1 DUP1 DUP9 CALLER GAS CALL PUSH2 0x762 PUSH2 0x1484 JUMP JUMPDEST POP PUSH2 0x15AB JUMP JUMPDEST PUSH1 0x40 MLOAD SWAP4 DUP5 MSTORE CALLER SWAP4 LOG3 PUSH2 0x15E5 JUMP JUMPDEST PUSH1 0x1 PUSH1 0x2 SSTORE STOP JUMPDEST PUSH1 0x40 MLOAD PUSH3 0x461BCD PUSH1 0xE5 SHL DUP2 MSTORE PUSH1 0x4 DUP2 ADD DUP7 SWAP1 MSTORE PUSH1 0xA PUSH1 0x24 DUP3 ADD MSTORE PUSH10 0x1199594819985A5B1959 PUSH1 0xB2 SHL PUSH1 0x44 DUP3 ADD MSTORE PUSH1 0x64 SWAP1 REVERT JUMPDEST POP SWAP1 POP DUP3 PUSH32 0xAFEAFE87AF56D204CCA28EEFEEC305C8D8BCB1907103F969F87E9A978745C29 PUSH2 0x776 SWAP7 PUSH2 0x768 PUSH1 0x0 DUP1 DUP1 DUP1 DUP9 CALLER GAS CALL PUSH2 0x762 PUSH2 0x1484 JUMP JUMPDEST PUSH1 0x40 MLOAD PUSH3 0x461BCD PUSH1 0xE5 SHL DUP2 MSTORE PUSH1 0x4 DUP2 ADD DUP8 SWAP1 MSTORE PUSH1 0x13 PUSH1 0x24 DUP3 ADD MSTORE PUSH19 0x4E6F7468696E6720746F207769746864726177 PUSH1 0x68 SHL PUSH1 0x44 DUP3 ADD MSTORE PUSH1 0x64 SWAP1 REVERT JUMPDEST PUSH1 0x40 MLOAD PUSH3 0x461BCD PUSH1 0xE5 SHL DUP2 MSTORE PUSH1 0x20 PUSH1 0x4 DUP3 ADD MSTORE PUSH1 0x12 PUSH1 0x24 DUP3 ADD MSTORE PUSH18 0x119959481DD85B1B195D081B9BDD081CD95D PUSH1 0x72 SHL PUSH1 0x44 DUP3 ADD MSTORE PUSH1 0x64 SWAP1 REVERT JUMPDEST PUSH1 0x40 MLOAD PUSH3 0x461BCD PUSH1 0xE5 SHL DUP2 MSTORE PUSH1 0x20 PUSH1 0x4 DUP3 ADD MSTORE PUSH1 0xF PUSH1 0x24 DUP3 ADD MSTORE PUSH15 0x131BD85B881B9BDD081C995C185A59 PUSH1 0x8A SHL PUSH1 0x44 DUP3 ADD MSTORE PUSH1 0x64 SWAP1 REVERT JUMPDEST CALLVALUE PUSH2 0x13B JUMPI PUSH1 0x20 CALLDATASIZE PUSH1 0x3 NOT ADD SLT PUSH2 0x13B JUMPI PUSH1 0x4 CALLDATALOAD PUSH2 0x8BA PUSH1 0x1 PUSH1 0x2 SLOAD EQ PUSH2 0x13B7 JUMP JUMPDEST PUSH1 0x2 DUP1 SSTORE PUSH2 0x8C7 DUP2 PUSH2 0x1322 JUMP JUMPDEST POP PUSH1 0x9 DUP2 ADD SLOAD PUSH1 0x1 PUSH1 0x1 PUSH1 0xA0 SHL SUB SWAP2 SWAP1 DUP3 AND PUSH2 0x8E4 CALLER DUP3 EQ PUSH2 0x1570 JUMP JUMPDEST PUSH1 0x6 DUP3 ADD SWAP1 DUP2 SLOAD SWAP2 PUSH1 0xFF DUP4 AND PUSH1 0x6 DUP2 LT ISZERO PUSH2 0x22B JUMPI PUSH1 0x1 PUSH2 0x905 SWAP2 EQ PUSH2 0x143E JUMP JUMPDEST PUSH2 0x918 PUSH1 0x7 DUP6 ADD SLOAD PUSH1 0x4 DUP7 ADD SLOAD SWAP1 PUSH2 0x1477 JUMP JUMPDEST TIMESTAMP GT ISZERO PUSH2 0x9DE JUMPI PUSH1 0x0 DUP1 SWAP4 SWAP3 DUP2 SWAP4 SWAP3 PUSH1 0x5 DUP4 SWAP5 PUSH1 0xFF NOT AND OR SWAP1 SSTORE PUSH1 0x2 DUP7 ADD SLOAD SWAP1 GAS CALL PUSH2 0x942 PUSH2 0x1484 JUMP JUMPDEST POP ISZERO PUSH2 0x9A0 JUMPI PUSH1 0xB DUP2 ADD SLOAD DUP1 PUSH2 0x983 JUMPI JUMPDEST POP SLOAD AND SWAP1 PUSH32 0x533B2D8D57DC3B3D1C1BFD952E6355A9B573B6B9CCCC5F554157003F733BB514 PUSH1 0x0 DUP1 LOG3 PUSH1 0x1 PUSH1 0x2 SSTORE STOP JUMPDEST PUSH1 0x0 DUP1 DUP1 DUP1 PUSH2 0x99A SWAP5 DUP8 DUP8 SLOAD AND GAS CALL PUSH2 0x63A PUSH2 0x1484 JUMP JUMPDEST DUP4 PUSH2 0x953 JUMP JUMPDEST PUSH1 0x40 MLOAD PUSH3 0x461BCD PUSH1 0xE5 SHL DUP2 MSTORE PUSH1 0x20 PUSH1 0x4 DUP3 ADD MSTORE PUSH1 0x16 PUSH1 0x24 DUP3 ADD MSTORE PUSH22 0x125B9D995CDD1BDC881C99599D5B990819985A5B1959 PUSH1 0x52 SHL PUSH1 0x44 DUP3 ADD MSTORE PUSH1 0x64 SWAP1 REVERT JUMPDEST PUSH1 0x40 MLOAD PUSH3 0x461BCD PUSH1 0xE5 SHL DUP2 MSTORE PUSH1 0x20 PUSH1 0x4 DUP3 ADD MSTORE PUSH1 0x30 PUSH1 0x24 DUP3 ADD MSTORE PUSH32 0x426F72726F7765722773207769746864726177616C20706572696F6420686173 PUSH1 0x44 DUP3 ADD MSTORE PUSH16 0x81B9BDD08195E1C1A5C9959081E595D PUSH1 0x82 SHL PUSH1 0x64 DUP3 ADD MSTORE PUSH1 0x84 SWAP1 REVERT JUMPDEST CALLVALUE PUSH2 0x13B JUMPI PUSH1 0x0 CALLDATASIZE PUSH1 0x3 NOT ADD SLT PUSH2 0x13B JUMPI PUSH1 0x0 SLOAD PUSH1 0x40 MLOAD PUSH1 0x1 PUSH1 0x1 PUSH1 0xA0 SHL SUB SWAP1 SWAP2 AND DUP2 MSTORE PUSH1 0x20 SWAP1 RETURN JUMPDEST PUSH1 0x20 CALLDATASIZE PUSH1 0x3 NOT ADD SLT PUSH2 0x13B JUMPI PUSH1 0x4 CALLDATALOAD PUSH2 0xA7D DUP2 PUSH2 0x1322 JUMP JUMPDEST POP PUSH1 0x6 DUP2 ADD DUP1 SLOAD PUSH1 0xFF DUP2 AND PUSH1 0x6 DUP2 LT ISZERO PUSH2 0x22B JUMPI PUSH2 0xA9B SWAP1 ISZERO PUSH2 0x1380 JUMP JUMPDEST PUSH1 0x5 DUP4 ADD SLOAD TIMESTAMP GT PUSH2 0xB8E JUMPI PUSH1 0x1 DUP4 ADD SLOAD CALLVALUE SUB PUSH2 0xB58 JUMPI PUSH1 0x9 DUP4 ADD DUP1 SLOAD SWAP2 SWAP1 PUSH1 0x1 PUSH1 0x1 PUSH1 0xA0 SHL SUB DUP4 AND PUSH2 0xB22 JUMPI PUSH1 0x1 SWAP3 CALLVALUE PUSH1 0x2 DUP8 ADD SSTORE CALLER SWAP1 PUSH12 0xFFFFFFFFFFFFFFFFFFFFFFFF PUSH1 0xA0 SHL AND OR SWAP1 SSTORE PUSH1 0xFF NOT AND OR SWAP1 SSTORE PUSH1 0x7 TIMESTAMP SWAP2 ADD SSTORE PUSH1 0x40 MLOAD SWAP1 CALLVALUE DUP3 MSTORE PUSH32 0x38C48552690C96EC2872092AC1DB6C19FB59F5A8C5B49BBF41ED4886D0CA6926 PUSH1 0x20 CALLER SWAP4 LOG3 STOP JUMPDEST PUSH1 0x40 MLOAD PUSH3 0x461BCD PUSH1 0xE5 SHL DUP2 MSTORE PUSH1 0x20 PUSH1 0x4 DUP3 ADD MSTORE PUSH1 0xE PUSH1 0x24 DUP3 ADD MSTORE PUSH14 0x105B1C9958591E48199D5B991959 PUSH1 0x92 SHL PUSH1 0x44 DUP3 ADD MSTORE PUSH1 0x64 SWAP1 REVERT JUMPDEST PUSH1 0x40 MLOAD PUSH3 0x461BCD PUSH1 0xE5 SHL DUP2 MSTORE PUSH1 0x20 PUSH1 0x4 DUP3 ADD MSTORE PUSH1 0xE PUSH1 0x24 DUP3 ADD MSTORE PUSH14 0x135D5CDD08199D5B9908199D5B1B PUSH1 0x92 SHL PUSH1 0x44 DUP3 ADD MSTORE PUSH1 0x64 SWAP1 REVERT JUMPDEST PUSH1 0x40 MLOAD PUSH3 0x461BCD PUSH1 0xE5 SHL DUP2 MSTORE PUSH1 0x20 PUSH1 0x4 DUP3 ADD MSTORE PUSH1 0xF PUSH1 0x24 DUP3 ADD MSTORE PUSH15 0x111958591B1A5B99481C185CDCD959 PUSH1 0x8A SHL PUSH1 0x44 DUP3 ADD MSTORE PUSH1 0x64 SWAP1 REVERT JUMPDEST CALLVALUE PUSH2 0x13B JUMPI PUSH1 0x20 CALLDATASIZE PUSH1 0x3 NOT ADD SLT PUSH2 0x13B JUMPI PUSH2 0xBE1 PUSH1 0x4 CALLDATALOAD PUSH2 0x14CF JUMP JUMPDEST STOP JUMPDEST CALLVALUE PUSH2 0x13B JUMPI PUSH1 0x20 CALLDATASIZE PUSH1 0x3 NOT ADD SLT PUSH2 0x13B JUMPI PUSH1 0x4 CALLDATALOAD PUSH2 0xC05 PUSH1 0x1 PUSH1 0x2 SLOAD EQ PUSH2 0x13B7 JUMP JUMPDEST PUSH1 0x2 DUP1 SSTORE PUSH2 0xC12 DUP2 PUSH2 0x1322 JUMP JUMPDEST POP DUP1 SLOAD PUSH1 0x1 PUSH1 0x1 PUSH1 0xA0 SHL SUB SWAP1 DUP2 AND SWAP3 SWAP2 PUSH2 0xC2D CALLER DUP6 EQ PUSH2 0x1403 JUMP JUMPDEST PUSH1 0xFF PUSH1 0x6 DUP3 ADD SLOAD AND PUSH1 0x6 DUP2 LT ISZERO PUSH2 0x22B JUMPI PUSH1 0x3 SUB PUSH2 0xD07 JUMPI PUSH1 0x0 DUP1 DUP1 DUP1 PUSH1 0xC DUP6 ADD SWAP8 DUP9 SLOAD SWAP1 PUSH2 0xC5F PUSH1 0xFF DUP4 AND ISZERO PUSH2 0x17FC JUMP JUMPDEST PUSH1 0xB DUP8 ADD SWAP10 PUSH1 0x1 DUP12 SLOAD SWAP4 PUSH2 0xC74 DUP6 ISZERO ISZERO PUSH2 0x183A JUMP JUMPDEST PUSH1 0xFF NOT AND OR SWAP1 SSTORE GAS CALL PUSH2 0xC85 PUSH2 0x1484 JUMP JUMPDEST POP ISZERO PUSH2 0xCC2 JUMPI PUSH32 0x7C5E5CB62E5ED3CAF3764E4B0AFEDFEDEF533E27809D43367799787AD2ABCD41 SWAP2 PUSH1 0x20 SWAP2 SLOAD AND SWAP4 SLOAD PUSH1 0x40 MLOAD SWAP1 DUP2 MSTORE LOG3 PUSH1 0x1 PUSH1 0x2 SSTORE STOP JUMPDEST PUSH1 0x40 MLOAD PUSH3 0x461BCD PUSH1 0xE5 SHL DUP2 MSTORE PUSH1 0x20 PUSH1 0x4 DUP3 ADD MSTORE PUSH1 0x1A PUSH1 0x24 DUP3 ADD MSTORE PUSH32 0x436F6C6C61746572616C207472616E73666572206661696C6564000000000000 PUSH1 0x44 DUP3 ADD MSTORE PUSH1 0x64 SWAP1 REVERT JUMPDEST PUSH1 0x40 MLOAD PUSH3 0x461BCD PUSH1 0xE5 SHL DUP2 MSTORE PUSH1 0x20 PUSH1 0x4 DUP3 ADD MSTORE PUSH1 0xA PUSH1 0x24 DUP3 ADD MSTORE PUSH10 0x139BDD081C995C185A59 PUSH1 0xB2 SHL PUSH1 0x44 DUP3 ADD MSTORE PUSH1 0x64 SWAP1 REVERT JUMPDEST CALLVALUE PUSH2 0x13B JUMPI PUSH2 0xD47 CALLDATASIZE PUSH2 0x1302 JUMP JUMPDEST PUSH2 0xD55 PUSH1 0x1 PUSH1 0x2 SLOAD EQ PUSH2 0x13B7 JUMP JUMPDEST PUSH1 0x2 DUP1 SSTORE PUSH2 0xD62 DUP3 PUSH2 0x14CF JUMP JUMPDEST PUSH2 0xD6B DUP3 PUSH2 0x1322 JUMP JUMPDEST POP SWAP2 PUSH1 0x9 DUP4 ADD SWAP3 PUSH1 0x1 DUP1 PUSH1 0xA0 SHL SUB PUSH2 0xD87 DUP2 DUP7 SLOAD AND CALLER EQ PUSH2 0x1570 JUMP JUMPDEST PUSH1 0xFF PUSH1 0x6 DUP4 ADD SLOAD AND PUSH1 0x6 DUP2 LT ISZERO PUSH2 0x22B JUMPI PUSH1 0x4 SUB PUSH2 0xEE9 JUMPI PUSH1 0xC DUP3 ADD SWAP5 DUP6 SLOAD PUSH2 0xDB3 PUSH1 0xFF DUP3 AND ISZERO PUSH2 0x17FC JUMP JUMPDEST PUSH1 0xB DUP5 ADD SLOAD SWAP7 PUSH1 0x1 DUP9 ISZERO SWAP3 PUSH2 0xDC8 DUP5 ISZERO PUSH2 0x183A JUMP JUMPDEST PUSH1 0xFF NOT AND OR SWAP1 SSTORE PUSH1 0xA DUP8 MUL SWAP1 DUP8 DUP3 DIV PUSH1 0xA EQ OR ISZERO PUSH2 0x473 JUMPI PUSH1 0x64 SWAP1 DIV SWAP2 PUSH2 0xDEF DUP4 DUP9 PUSH2 0x1373 JUMP JUMPDEST SWAP2 PUSH1 0x0 DUP1 DUP1 DUP1 DUP8 DUP7 PUSH1 0x1 SLOAD AND GAS CALL PUSH2 0xE05 PUSH2 0x1484 JUMP JUMPDEST POP ISZERO PUSH2 0xEAE JUMPI PUSH1 0x0 DUP1 DUP1 DUP1 DUP7 DUP7 DUP7 SLOAD AND GAS CALL PUSH2 0xE1F PUSH2 0x1484 JUMP JUMPDEST POP ISZERO PUSH2 0xE69 JUMPI PUSH2 0x776 SWAP8 DUP7 SWAP4 PUSH32 0x90A49CC0FFE370F13CDB2E8C2F3F91AEB86BAE3A6AA0E060DA5FB4A9B91CDE99 SWAP4 PUSH1 0x60 SWAP4 SLOAD AND SWAP6 PUSH1 0x40 MLOAD SWAP3 DUP4 MSTORE PUSH1 0x20 DUP4 ADD MSTORE PUSH1 0x40 DUP3 ADD MSTORE LOG3 PUSH2 0x15E5 JUMP JUMPDEST PUSH1 0x40 MLOAD PUSH3 0x461BCD PUSH1 0xE5 SHL DUP2 MSTORE PUSH1 0x20 PUSH1 0x4 DUP3 ADD MSTORE PUSH1 0x18 PUSH1 0x24 DUP3 ADD MSTORE PUSH32 0x496E766573746F72207472616E73666572206661696C65640000000000000000 PUSH1 0x44 DUP3 ADD MSTORE PUSH1 0x64 SWAP1 REVERT JUMPDEST PUSH1 0x40 MLOAD PUSH3 0x461BCD PUSH1 0xE5 SHL DUP2 MSTORE PUSH1 0x20 PUSH1 0x4 DUP3 ADD MSTORE PUSH1 0x13 PUSH1 0x24 DUP3 ADD MSTORE PUSH19 0x119959481D1C985B9CD9995C8819985A5B1959 PUSH1 0x6A SHL PUSH1 0x44 DUP3 ADD MSTORE PUSH1 0x64 SWAP1 REVERT JUMPDEST PUSH1 0x40 MLOAD PUSH3 0x461BCD PUSH1 0xE5 SHL DUP2 MSTORE PUSH1 0x20 PUSH1 0x4 DUP3 ADD MSTORE PUSH1 0xD PUSH1 0x24 DUP3 ADD MSTORE PUSH13 0x139BDD08191959985D5B1D1959 PUSH1 0x9A SHL PUSH1 0x44 DUP3 ADD MSTORE PUSH1 0x64 SWAP1 REVERT JUMPDEST CALLVALUE PUSH2 0x13B JUMPI PUSH1 0x0 CALLDATASIZE PUSH1 0x3 NOT ADD SLT PUSH2 0x13B JUMPI PUSH1 0x20 PUSH1 0x3 SLOAD PUSH1 0x40 MLOAD SWAP1 DUP2 MSTORE RETURN JUMPDEST CALLVALUE PUSH2 0x13B JUMPI PUSH1 0x20 CALLDATASIZE PUSH1 0x3 NOT ADD SLT PUSH2 0x13B JUMPI PUSH1 0x4 CALLDATALOAD PUSH1 0x2 PUSH2 0xF5F PUSH1 0x1 DUP3 SLOAD EQ PUSH2 0x13B7 JUMP JUMPDEST DUP1 DUP1 SSTORE PUSH2 0xF6B DUP3 PUSH2 0x1322 JUMP JUMPDEST POP SWAP2 PUSH2 0xF81 PUSH1 0x1 DUP1 PUSH1 0xA0 SHL SUB DUP5 SLOAD AND CALLER EQ PUSH2 0x1403 JUMP JUMPDEST PUSH1 0x6 DUP4 ADD DUP1 SLOAD SWAP4 PUSH1 0xFF DUP6 AND PUSH1 0x6 DUP2 LT ISZERO PUSH2 0x22B JUMPI PUSH1 0x1 PUSH2 0xFA1 SWAP2 EQ PUSH2 0x143E JUMP JUMPDEST PUSH2 0xFB4 PUSH1 0x7 DUP3 ADD SLOAD PUSH1 0x4 DUP4 ADD SLOAD SWAP1 PUSH2 0x1477 JUMP JUMPDEST TIMESTAMP GT PUSH2 0x107B JUMPI DUP4 ADD SLOAD SWAP4 DUP5 ISZERO PUSH2 0x104A JUMPI PUSH1 0xFF NOT AND DUP4 OR SWAP1 SSTORE PUSH1 0x0 DUP1 DUP1 DUP1 DUP7 CALLER GAS CALL PUSH2 0xFDD PUSH2 0x1484 JUMP JUMPDEST POP ISZERO PUSH2 0x1013 JUMPI PUSH32 0x69CE060F535737417B4A4EBB86AE7A865885C5C1E8106F7ED0B8BD9C52641BC6 PUSH1 0x20 PUSH1 0x1 SWAP5 PUSH1 0x40 MLOAD SWAP1 DUP2 MSTORE LOG2 SSTORE STOP JUMPDEST PUSH1 0x40 MLOAD PUSH3 0x461BCD PUSH1 0xE5 SHL DUP2 MSTORE PUSH1 0x20 PUSH1 0x4 DUP3 ADD MSTORE PUSH1 0xF PUSH1 0x24 DUP3 ADD MSTORE PUSH15 0x151C985B9CD9995C8819985A5B1959 PUSH1 0x8A SHL PUSH1 0x44 DUP3 ADD MSTORE PUSH1 0x64 SWAP1 REVERT JUMPDEST PUSH1 0x40 MLOAD PUSH3 0x461BCD PUSH1 0xE5 SHL DUP2 MSTORE PUSH1 0x20 PUSH1 0x4 DUP3 ADD MSTORE PUSH1 0x9 PUSH1 0x24 DUP3 ADD MSTORE PUSH9 0x139BC8185B5BDD5B9D PUSH1 0xBA SHL PUSH1 0x44 DUP3 ADD MSTORE PUSH1 0x64 SWAP1 REVERT JUMPDEST PUSH1 0x40 MLOAD PUSH3 0x461BCD PUSH1 0xE5 SHL DUP2 MSTORE PUSH1 0x20 PUSH1 0x4 DUP3 ADD MSTORE PUSH1 0x1A PUSH1 0x24 DUP3 ADD MSTORE PUSH32 0x576974686472617720706572696F642068617320706173736564000000000000 PUSH1 0x44 DUP3 ADD MSTORE PUSH1 0x64 SWAP1 REVERT JUMPDEST PUSH1 0x20 DUP1 PUSH1 0x3 NOT CALLDATASIZE ADD SLT PUSH2 0x13B JUMPI PUSH1 0x4 CALLDATALOAD SWAP1 PUSH2 0x10DF PUSH1 0x1 PUSH1 0x2 SLOAD EQ PUSH2 0x13B7 JUMP JUMPDEST PUSH1 0x2 DUP1 SSTORE PUSH2 0x10EC DUP3 PUSH2 0x1322 JUMP JUMPDEST POP PUSH2 0x1101 PUSH1 0x1 DUP1 PUSH1 0xA0 SHL SUB DUP3 SLOAD AND CALLER EQ PUSH2 0x1403 JUMP JUMPDEST PUSH1 0x6 DUP2 ADD PUSH1 0xFF DUP2 SLOAD AND PUSH1 0x6 DUP2 LT ISZERO PUSH2 0x22B JUMPI PUSH1 0x2 SUB PUSH2 0x1291 JUMPI PUSH2 0x112D PUSH1 0x7 DUP4 ADD SLOAD PUSH1 0x4 DUP5 ADD SLOAD SWAP1 PUSH2 0x1477 JUMP JUMPDEST TIMESTAMP GT PUSH2 0x124C JUMPI PUSH2 0x113C DUP5 PUSH2 0x14CF JUMP JUMPDEST PUSH1 0x1 DUP3 ADD SLOAD PUSH1 0x3 DUP4 ADD SLOAD SWAP1 DUP2 DUP2 MUL SWAP2 DUP2 DUP4 DIV EQ DUP2 ISZERO OR ISZERO PUSH2 0x473 JUMPI PUSH2 0x2710 PUSH2 0x1165 SWAP3 DIV SWAP1 PUSH2 0x1477 JUMP JUMPDEST SWAP2 DUP3 CALLVALUE LT PUSH2 0x121A JUMPI PUSH1 0x8 DUP4 SWAP2 ADD SSTORE PUSH1 0x3 PUSH1 0xFF NOT DUP3 SLOAD AND OR SWAP1 SSTORE DUP3 PUSH1 0x0 MSTORE PUSH1 0x4 DUP3 MSTORE DUP1 PUSH1 0x40 PUSH1 0x0 KECCAK256 SSTORE DUP1 CALLVALUE GT PUSH2 0x11C6 JUMPI JUMPDEST SWAP1 PUSH32 0xD3337F372235C0C137836A45251CD21FBA324E7EF27C7ACC5AC12451491793B9 SWAP2 PUSH1 0x40 MLOAD SWAP1 DUP2 MSTORE LOG2 PUSH1 0x1 PUSH1 0x2 SSTORE STOP JUMPDEST PUSH1 0x0 DUP1 DUP1 DUP1 PUSH2 0x11D5 DUP6 CALLVALUE PUSH2 0x1373 JUMP JUMPDEST CALLER GAS CALL PUSH2 0x11E0 PUSH2 0x1484 JUMP JUMPDEST POP PUSH2 0x1195 JUMPI PUSH1 0x40 MLOAD PUSH3 0x461BCD PUSH1 0xE5 SHL DUP2 MSTORE PUSH1 0x4 DUP2 ADD DUP4 SWAP1 MSTORE PUSH1 0xD PUSH1 0x24 DUP3 ADD MSTORE PUSH13 0x1499599D5B990819985A5B1959 PUSH1 0x9A SHL PUSH1 0x44 DUP3 ADD MSTORE PUSH1 0x64 SWAP1 REVERT JUMPDEST PUSH1 0x40 MLOAD PUSH3 0x461BCD PUSH1 0xE5 SHL DUP2 MSTORE PUSH1 0x4 DUP2 ADD DUP6 SWAP1 MSTORE PUSH1 0xA PUSH1 0x24 DUP3 ADD MSTORE PUSH10 0x9CDEE840CADCDEEACED PUSH1 0xB3 SHL PUSH1 0x44 DUP3 ADD MSTORE PUSH1 0x64 SWAP1 REVERT JUMPDEST PUSH1 0x40 MLOAD PUSH3 0x461BCD PUSH1 0xE5 SHL DUP2 MSTORE PUSH1 0x4 DUP2 ADD DUP5 SWAP1 MSTORE PUSH1 0x1B PUSH1 0x24 DUP3 ADD MSTORE PUSH32 0x52657061796D656E7420706572696F6420686173207061737365640000000000 PUSH1 0x44 DUP3 ADD MSTORE PUSH1 0x64 SWAP1 REVERT JUMPDEST PUSH1 0x40 MLOAD PUSH3 0x461BCD PUSH1 0xE5 SHL DUP2 MSTORE PUSH1 0x4 DUP2 ADD DUP5 SWAP1 MSTORE PUSH1 0x12 PUSH1 0x24 DUP3 ADD MSTORE PUSH18 0x4C6F616E206973206E6F7420616374697665 PUSH1 0x70 SHL PUSH1 0x44 DUP3 ADD MSTORE PUSH1 0x64 SWAP1 REVERT JUMPDEST CALLVALUE PUSH2 0x13B JUMPI PUSH1 0x20 CALLDATASIZE PUSH1 0x3 NOT ADD SLT PUSH2 0x13B JUMPI PUSH1 0x4 CALLDATALOAD PUSH1 0x1 PUSH1 0x1 PUSH1 0xA0 SHL SUB DUP2 AND DUP2 SUB PUSH2 0x13B JUMPI PUSH2 0x12FA PUSH1 0x20 SWAP2 PUSH2 0x1741 JUMP JUMPDEST PUSH1 0x40 MLOAD SWAP1 DUP2 MSTORE RETURN JUMPDEST PUSH1 0x40 SWAP1 PUSH1 0x3 NOT ADD SLT PUSH2 0x13B JUMPI PUSH1 0x4 CALLDATALOAD SWAP1 PUSH1 0x24 CALLDATALOAD PUSH1 0xFF DUP2 AND DUP2 SUB PUSH2 0x13B JUMPI SWAP1 JUMP JUMPDEST PUSH1 0x3 SLOAD DUP2 LT ISZERO PUSH2 0x135D JUMPI PUSH1 0xD SWAP1 PUSH1 0x3 PUSH1 0x0 MSTORE MUL PUSH32 0xC2575A0E9E593C00F959F8C92F12DB2869C3395A3B0502D05E2516446F71F85B ADD SWAP1 PUSH1 0x0 SWAP1 JUMP JUMPDEST PUSH4 0x4E487B71 PUSH1 0xE0 SHL PUSH1 0x0 MSTORE PUSH1 0x32 PUSH1 0x4 MSTORE PUSH1 0x24 PUSH1 0x0 REVERT JUMPDEST SWAP2 SWAP1 DUP3 SUB SWAP2 DUP3 GT PUSH2 0x473 JUMPI JUMP JUMPDEST ISZERO PUSH2 0x1387 JUMPI JUMP JUMPDEST PUSH1 0x40 MLOAD PUSH3 0x461BCD PUSH1 0xE5 SHL DUP2 MSTORE PUSH1 0x20 PUSH1 0x4 DUP3 ADD MSTORE PUSH1 0x8 PUSH1 0x24 DUP3 ADD MSTORE PUSH8 0x2737BA1037B832B7 PUSH1 0xC1 SHL PUSH1 0x44 DUP3 ADD MSTORE PUSH1 0x64 SWAP1 REVERT JUMPDEST ISZERO PUSH2 0x13BE JUMPI JUMP JUMPDEST PUSH1 0x40 MLOAD PUSH3 0x461BCD PUSH1 0xE5 SHL DUP2 MSTORE PUSH1 0x20 PUSH1 0x4 DUP3 ADD MSTORE PUSH1 0x1F PUSH1 0x24 DUP3 ADD MSTORE PUSH32 0x5265656E7472616E637947756172643A207265656E7472616E742063616C6C00 PUSH1 0x44 DUP3 ADD MSTORE PUSH1 0x64 SWAP1 REVERT JUMPDEST ISZERO PUSH2 0x140A JUMPI JUMP JUMPDEST PUSH1 0x40 MLOAD PUSH3 0x461BCD PUSH1 0xE5 SHL DUP2 MSTORE PUSH1 0x20 PUSH1 0x4 DUP3 ADD MSTORE PUSH1 0xC PUSH1 0x24 DUP3 ADD MSTORE PUSH12 0x2737BA103137B93937BBB2B9 PUSH1 0xA1 SHL PUSH1 0x44 DUP3 ADD MSTORE PUSH1 0x64 SWAP1 REVERT JUMPDEST ISZERO PUSH2 0x1445 JUMPI JUMP JUMPDEST PUSH1 0x40 MLOAD PUSH3 0x461BCD PUSH1 0xE5 SHL DUP2 MSTORE PUSH1 0x20 PUSH1 0x4 DUP3 ADD MSTORE PUSH1 0xA PUSH1 0x24 DUP3 ADD MSTORE PUSH10 0x139BDD08199D5B991959 PUSH1 0xB2 SHL PUSH1 0x44 DUP3 ADD MSTORE PUSH1 0x64 SWAP1 REVERT JUMPDEST SWAP2 SWAP1 DUP3 ADD DUP1 SWAP3 GT PUSH2 0x473 JUMPI JUMP JUMPDEST RETURNDATASIZE ISZERO PUSH2 0x14CA JUMPI PUSH8 0xFFFFFFFFFFFFFFFF SWAP1 RETURNDATASIZE DUP3 DUP2 GT PUSH2 0x49F JUMPI PUSH1 0x40 MLOAD SWAP3 PUSH1 0x1F DUP3 ADD PUSH1 0x1F NOT SWAP1 DUP2 AND PUSH1 0x3F ADD AND DUP5 ADD SWAP1 DUP2 GT DUP5 DUP3 LT OR PUSH2 0x49F JUMPI PUSH1 0x40 MSTORE DUP3 MSTORE RETURNDATASIZE PUSH1 0x0 PUSH1 0x20 DUP5 ADD RETURNDATACOPY JUMP JUMPDEST PUSH1 0x60 SWAP1 JUMP JUMPDEST PUSH2 0x14D8 DUP2 PUSH2 0x1322 JUMP JUMPDEST POP PUSH1 0x6 DUP2 ADD DUP1 SLOAD PUSH1 0xFF DUP2 AND PUSH1 0x6 DUP2 LT ISZERO PUSH2 0x22B JUMPI PUSH1 0x2 EQ DUP1 PUSH2 0x1555 JUMPI JUMPDEST DUP1 PUSH2 0x1549 JUMPI JUMPDEST PUSH2 0x1506 JUMPI JUMPDEST POP POP POP POP JUMP JUMPDEST PUSH1 0x4 SWAP1 PUSH1 0xFF NOT AND OR SWAP1 SSTORE PUSH1 0xA TIMESTAMP SWAP2 ADD SSTORE PUSH32 0x84908FCA714735411D4553DDD185A4D6FDC25FDA2D15662153EF18A8AD6099B4 PUSH1 0x20 PUSH1 0x40 MLOAD TIMESTAMP DUP2 MSTORE LOG2 CODESIZE DUP1 DUP1 DUP1 PUSH2 0x1500 JUMP JUMPDEST POP PUSH1 0xA DUP4 ADD SLOAD ISZERO PUSH2 0x14FB JUMP JUMPDEST POP PUSH2 0x1569 PUSH1 0x7 DUP5 ADD SLOAD PUSH1 0x4 DUP6 ADD SLOAD SWAP1 PUSH2 0x1477 JUMP JUMPDEST TIMESTAMP GT PUSH2 0x14F5 JUMP JUMPDEST ISZERO PUSH2 0x1577 JUMPI JUMP JUMPDEST PUSH1 0x40 MLOAD PUSH3 0x461BCD PUSH1 0xE5 SHL DUP2 MSTORE PUSH1 0x20 PUSH1 0x4 DUP3 ADD MSTORE PUSH1 0xC PUSH1 0x24 DUP3 ADD MSTORE PUSH12 0x2737BA1034B73B32B9BA37B9 PUSH1 0xA1 SHL PUSH1 0x44 DUP3 ADD MSTORE PUSH1 0x64 SWAP1 REVERT JUMPDEST ISZERO PUSH2 0x15B2 JUMPI JUMP JUMPDEST PUSH1 0x40 MLOAD PUSH3 0x461BCD PUSH1 0xE5 SHL DUP2 MSTORE PUSH1 0x20 PUSH1 0x4 DUP3 ADD MSTORE PUSH1 0xB PUSH1 0x24 DUP3 ADD MSTORE PUSH11 0x14D95B990819985A5B1959 PUSH1 0xAA SHL PUSH1 0x44 DUP3 ADD MSTORE PUSH1 0x64 SWAP1 REVERT JUMPDEST SWAP2 PUSH1 0xFF DUP2 AND SWAP3 PUSH1 0x1 DUP5 LT ISZERO DUP1 PUSH2 0x16DB JUMPI JUMPDEST ISZERO PUSH2 0x1696 JUMPI PUSH1 0x9 ADD SWAP1 PUSH1 0xFF DUP3 SLOAD PUSH1 0xA0 SHR AND PUSH2 0x1651 JUMPI DUP2 SLOAD PUSH1 0xFF PUSH1 0xA0 SHL NOT AND PUSH1 0xA0 SWAP2 SWAP1 SWAP2 SHL PUSH1 0xFF PUSH1 0xA0 SHL AND OR SWAP1 SSTORE PUSH1 0x40 MLOAD SWAP2 DUP3 MSTORE PUSH32 0x7514EBCAC1FEB55CC5D1869533571CCD5971AF19A7428BB57C1F780879EEC3D9 PUSH1 0x20 CALLER SWAP4 LOG3 JUMP JUMPDEST PUSH1 0x40 MLOAD PUSH3 0x461BCD PUSH1 0xE5 SHL DUP2 MSTORE PUSH1 0x20 PUSH1 0x4 DUP3 ADD MSTORE PUSH1 0x1B PUSH1 0x24 DUP3 ADD MSTORE PUSH32 0x53636F72652068617320616C7265616479206265656E206C6566740000000000 PUSH1 0x44 DUP3 ADD MSTORE PUSH1 0x64 SWAP1 REVERT JUMPDEST PUSH1 0x40 MLOAD PUSH3 0x461BCD PUSH1 0xE5 SHL DUP2 MSTORE PUSH1 0x20 PUSH1 0x4 DUP3 ADD MSTORE PUSH1 0x1D PUSH1 0x24 DUP3 ADD MSTORE PUSH32 0x53636F7265206D757374206265206265747765656E203120616E642035000000 PUSH1 0x44 DUP3 ADD MSTORE PUSH1 0x64 SWAP1 REVERT JUMPDEST POP PUSH1 0x5 DUP5 GT ISZERO PUSH2 0x15F6 JUMP JUMPDEST ISZERO PUSH2 0x16ED JUMPI JUMP JUMPDEST PUSH1 0x40 MLOAD PUSH3 0x461BCD PUSH1 0xE5 SHL DUP2 MSTORE PUSH1 0x20 PUSH1 0x4 DUP3 ADD MSTORE PUSH1 0x18 PUSH1 0x24 DUP3 ADD MSTORE PUSH32 0x436F6C6C61746572616C20726566756E64206661696C65640000000000000000 PUSH1 0x44 DUP3 ADD MSTORE PUSH1 0x64 SWAP1 REVERT JUMPDEST PUSH1 0x0 NOT DUP2 EQ PUSH2 0x473 JUMPI PUSH1 0x1 ADD SWAP1 JUMP JUMPDEST PUSH1 0x0 DUP1 SWAP2 DUP2 SWAP1 PUSH1 0x3 SLOAD SWAP2 JUMPDEST DUP3 DUP2 LT PUSH2 0x177A JUMPI POP POP POP DUP2 ISZERO PUSH2 0x1773 JUMPI PUSH1 0x64 DUP2 MUL SWAP1 DUP1 DUP3 DIV PUSH1 0x64 EQ SWAP1 ISZERO OR ISZERO PUSH2 0x473 JUMPI DIV SWAP1 JUMP JUMPDEST POP POP PUSH1 0x0 SWAP1 JUMP JUMPDEST PUSH2 0x1783 DUP2 PUSH2 0x1322 JUMP JUMPDEST POP SLOAD PUSH1 0x1 PUSH1 0x1 PUSH1 0xA0 SHL SUB DUP4 DUP2 AND SWAP2 AND EQ DUP1 PUSH2 0x17E0 JUMPI JUMPDEST PUSH2 0x17AC JUMPI JUMPDEST PUSH2 0x17A7 SWAP1 PUSH2 0x1732 JUMP JUMPDEST PUSH2 0x174C JUMP JUMPDEST SWAP4 SWAP3 PUSH2 0x17D8 PUSH2 0x17D2 PUSH2 0x17A7 SWAP3 PUSH1 0xFF PUSH1 0x9 PUSH2 0x17C5 DUP11 PUSH2 0x1322 JUMP JUMPDEST POP ADD SLOAD PUSH1 0xA0 SHR AND SWAP1 PUSH2 0x1477 JUMP JUMPDEST SWAP5 PUSH2 0x1732 JUMP JUMPDEST SWAP5 SWAP1 POP PUSH2 0x179E JUMP JUMPDEST POP PUSH1 0xFF PUSH1 0x9 PUSH2 0x17EE DUP4 PUSH2 0x1322 JUMP JUMPDEST POP ADD SLOAD PUSH1 0xA0 SHR AND ISZERO ISZERO PUSH2 0x1799 JUMP JUMPDEST ISZERO PUSH2 0x1803 JUMPI JUMP JUMPDEST PUSH1 0x40 MLOAD PUSH3 0x461BCD PUSH1 0xE5 SHL DUP2 MSTORE PUSH1 0x20 PUSH1 0x4 DUP3 ADD MSTORE PUSH1 0xF PUSH1 0x24 DUP3 ADD MSTORE PUSH15 0x105B1C9958591E4818DB185A5B5959 PUSH1 0x8A SHL PUSH1 0x44 DUP3 ADD MSTORE PUSH1 0x64 SWAP1 REVERT JUMPDEST ISZERO PUSH2 0x1841 JUMPI JUMP JUMPDEST PUSH1 0x40 MLOAD PUSH3 0x461BCD PUSH1 0xE5 SHL DUP2 MSTORE PUSH1 0x20 PUSH1 0x4 DUP3 ADD MSTORE PUSH1 0xD PUSH1 0x24 DUP3 ADD MSTORE PUSH13 0x139BC818DBDB1B185D195C985B PUSH1 0x9A SHL PUSH1 0x44 DUP3 ADD MSTORE PUSH1 0x64 SWAP1 REVERT INVALID LOG2 PUSH5 0x6970667358 0x22 SLT KECCAK256 GAS LOG2 0x4E 0xE4 0xD3 0xCA 0xA5 0x49 DUP1 0xFB GASLIMIT 0x1F 0x29 0x28 0xC1 0xC9 0xB5 PUSH17 0x2820C47D6009AC504BDFC2AA716364736F PUSH13 0x63430008130033000000000000 "},"methodIdentifiers":{"averageScoreOfBorrower(address)":"31798f61","cancelFundedLoan(uint256)":"9f919124","cancelLoan(uint256)":"bdbfa3de","checkDefault(uint256)":"759135a1","claimCollateral(uint256,uint8)":"5f76cdfd","createLoan(uint256,uint256,uint256,uint256,uint256)":"cf2b4cbc","feeWallet()":"f25f4b56","fundLoan(uint256)":"846b909a","getLoanCount()":"52196812","loans(uint256)":"e1ec3c68","owner()":"8da5cb5b","repay(uint256)":"371fd8e6","withdrawAsBorrower(uint256)":"4d8a2e15","withdrawCollateral(uint256)":"6112fe2e","withdrawInvestorShare(uint256,uint8)":"b7f0b7ee","withdrawableOf(uint256)":"d1fdb3e8"}}}}}