{
  "_format": "hh-sol-artifact-1",
  "contractName": "LoanMarket",
  "sourceName": "contracts/Loan.sol",
  "abi": [
    {
      "inputs": [],
      "stateMutability": "nonpayable",
      "type": "constructor"
    },
    {
      "anonymous": false,
      "inputs": [
        {
          "indexed": true,
          "internalType": "uint256",
          "name": "loanId",
          "type": "uint256"
        },
        {
          "indexed": true,
          "internalType": "address",
          "name": "investor",
          "type": "address"
        },
        {
          "indexed": false,
          "internalType": "uint256",
          "name": "gross",
          "type": "uint256"
        },
        {
          "indexed": false,
          "internalType": "uint256",
          "name": "fee",
          "type": "uint256"
        },
        {
          "indexed": false,
          "internalType": "uint256",
          "name": "net",
          "type": "uint256"
        }
      ],
      "name": "CollateralClaimed",
      "type": "event"
    },
    {
      "anonymous": false,
      "inputs": [
        {
          "indexed": true,
          "internalType": "uint256",
          "name": "loanId",
          "type": "uint256"
        },
        {
          "indexed": true,
          "internalType": "address",
          "name": "borrower",
          "type": "address"
        },
        {
          "indexed": false,
          "internalType": "uint256",
          "name": "amount",
          "type": "uint256"
        }
      ],
      "name": "CollateralWithdrawn",
      "type": "event"
    },
    {
      "anonymous": false,
      "inputs": [
        {
          "indexed": true,
          "internalType": "uint256",
          "name": "loanId",
          "type": "uint256"
        },
        {
          "indexed": false,
          "internalType": "uint256",
          "name": "defaultTimestamp",
          "type": "uint256"
        }
      ],
      "name": "Defaulted",
      "type": "event"
    },
    {
      "anonymous": false,
      "inputs": [
        {
          "indexed": true,
          "internalType": "uint256",
          "name": "loanId",
          "type": "uint256"
        },
        {
          "indexed": true,
          "internalType": "address",
          "name": "investor",
          "type": "address"
        },
        {
          "indexed": false,
          "internalType": "uint256",
          "name": "amount",
          "type": "uint256"
        }
      ],
      "name": "Funded",
      "type": "event"
    },
    {
      "anonymous": false,
      "inputs": [
        {
          "indexed": true,
          "internalType": "uint256",
          "name": "loanId",
          "type": "uint256"
        },
        {
          "indexed": true,
          "internalType": "address",
          "name": "investor",
          "type": "address"
        },
        {
          "indexed": false,
          "internalType": "uint256",
          "name": "amount",
          "type": "uint256"
        }
      ],
      "name": "InvestorWithdraw",
      "type": "event"
    },
    {
      "anonymous": false,
      "inputs": [
        {
          "indexed": true,
          "internalType": "uint256",
          "name": "loanId",
          "type": "uint256"
        },
        {
          "indexed": true,
          "internalType": "address",
          "name": "borrower",
          "type": "address"
        }
      ],
      "name": "LoanCancelled",
      "type": "event"
    },
    {
      "anonymous": false,
      "inputs": [
        {
          "indexed": true,
          "internalType": "uint256",
          "name": "loanId",
          "type": "uint256"
        },
        {
          "indexed": true,
          "internalType": "address",
          "name": "borrower",
          "type": "address"
        },
        {
          "indexed": false,
          "internalType": "uint256",
          "name": "amountRequested",
          "type": "uint256"
        }
      ],
      "name": "LoanCreated",
      "type": "event"
    },
    {
      "anonymous": false,
      "inputs": [
        {
          "indexed": true,
          "internalType": "uint256",
          "name": "loanId",
          "type": "uint256"
        },
        {
          "indexed": false,
          "internalType": "uint256",
          "name": "amount",
          "type": "uint256"
        }
      ],
      "name": "RepaymentMade",
      "type": "event"
    },
    {
      "anonymous": false,
      "inputs": [
        {
          "indexed": true,
          "internalType": "uint256",
          "name": "loanId",
          "type": "uint256"
        },
        {
          "indexed": true,
          "internalType": "address",
          "name": "investor",
          "type": "address"
        },
        {
          "indexed": false,
          "internalType": "uint8",
          "name": "score",
          "type": "uint8"
        }
      ],
      "name": "ScoreLeft",
      "type": "event"
    },
    {
      "anonymous": false,
      "inputs": [
        {
          "indexed": true,
          "internalType": "uint256",
          "name": "loanId",
          "type": "uint256"
        },
        {
          "indexed": false,
          "internalType": "uint256",
          "name": "amount",
          "type": "uint256"
        }
      ],
      "name": "WithdrawnByBorrower",
      "type": "event"
    },
    {
      "inputs": [
        {
          "internalType": "address",
          "name": "borrower",
          "type": "address"
        }
      ],
      "name": "averageScoreOfBorrower",
      "outputs": [
        {
          "internalType": "uint256",
          "name": "",
          "type": "uint256"
        }
      ],
      "stateMutability": "view",
      "type": "function"
    },
    {
      "inputs": [
        {
          "internalType": "address",
          "name": "",
          "type": "address"
        }
      ],
      "name": "borrowerLoanCount",
      "outputs": [
        {
          "internalType": "uint256",
          "name": "",
          "type": "uint256"
        }
      ],
      "stateMutability": "view",
      "type": "function"
    },
    {
      "inputs": [
        {
          "internalType": "address",
          "name": "",
          "type": "address"
        }
      ],
      "name": "borrowerScoreSum",
      "outputs": [
        {
          "internalType": "uint256",
          "name": "",
          "type": "uint256"
        }
      ],
      "stateMutability": "view",
      "type": "function"
    },
    {
      "inputs": [
        {
          "internalType": "uint256",
          "name": "loanId",
          "type": "uint256"
        }
      ],
      "name": "cancelLoan",
      "outputs": [],
      "stateMutability": "nonpayable",
      "type": "function"
    },
    {
      "inputs": [
        {
          "internalType": "uint256",
          "name": "loanId",
          "type": "uint256"
        }
      ],
      "name": "checkDefault",
      "outputs": [],
      "stateMutability": "nonpayable",
      "type": "function"
    },
    {
      "inputs": [
        {
          "internalType": "uint256",
          "name": "loanId",
          "type": "uint256"
        },
        {
          "internalType": "uint8",
          "name": "score",
          "type": "uint8"
        }
      ],
      "name": "claimCollateral",
      "outputs": [],
      "stateMutability": "nonpayable",
      "type": "function"
    },
    {
      "inputs": [
        {
          "internalType": "uint256",
          "name": "_amountRequested",
          "type": "uint256"
        },
        {
          "internalType": "uint256",
          "name": "_interestBps",
          "type": "uint256"
        },
        {
          "internalType": "uint256",
          "name": "_durationSecs",
          "type": "uint256"
        },
        {
          "internalType": "uint256",
          "name": "_fundingDeadline",
          "type": "uint256"
        },
        {
          "internalType": "uint256",
          "name": "_collateralAmount",
          "type": "uint256"
        }
      ],
      "name": "createLoan",
      "outputs": [],
      "stateMutability": "payable",
      "type": "function"
    },
    {
      "inputs": [],
      "name": "feeWallet",
      "outputs": [
        {
          "internalType": "address payable",
          "name": "",
          "type": "address"
        }
      ],
      "stateMutability": "view",
      "type": "function"
    },
    {
      "inputs": [
        {
          "internalType": "uint256",
          "name": "loanId",
          "type": "uint256"
        }
      ],
      "name": "fundLoan",
      "outputs": [],
      "stateMutability": "payable",
      "type": "function"
    },
    {
      "inputs": [],
      "name": "getLoanCount",
      "outputs": [
        {
          "internalType": "uint256",
          "name": "",
          "type": "uint256"
        }
      ],
      "stateMutability": "view",
      "type": "function"
    },
    {
      "inputs": [
        {
          "internalType": "uint256",
          "name": "",
          "type": "uint256"
        }
      ],
      "name": "loans",
      "outputs": [
        {
          "internalType": "address",
          "name": "borrower",
          "type": "address"
        },
        {
          "internalType": "uint256",
          "name": "amountRequested",
          "type": "uint256"
        },
        {
          "internalType": "uint256",
          "name": "amountFunded",
          "type": "uint256"
        },
        {
          "internalType": "uint256",
          "name": "interestBps",
          "type": "uint256"
        },
        {
          "internalType": "uint256",
          "name": "durationSecs",
          "type": "uint256"
        },
        {
          "internalType": "uint256",
          "name": "fundingDeadline",
          "type": "uint256"
        },
        {
          "internalType": "enum LoanMarket.Status",
          "name": "status",
          "type": "uint8"
        },
        {
          "internalType": "uint256",
          "name": "startTimestamp",
          "type": "uint256"
        },
        {
          "internalType": "uint256",
          "name": "totalRepayment",
          "type": "uint256"
        },
        {
          "internalType": "address",
          "name": "investor",
          "type": "address"
        },
        {
          "internalType": "uint8",
          "name": "score",
          "type": "uint8"
        },
        {
          "internalType": "uint256",
          "name": "defaultTimestamp",
          "type": "uint256"
        },
        {
          "internalType": "uint256",
          "name": "collateralAmount",
          "type": "uint256"
        },
        {
          "internalType": "bool",
          "name": "collateralClaimed",
          "type": "bool"
        }
      ],
      "stateMutability": "view",
      "type": "function"
    },
    {
      "inputs": [],
      "name": "owner",
      "outputs": [
        {
          "internalType": "address",
          "name": "",
          "type": "address"
        }
      ],
      "stateMutability": "view",
      "type": "function"
    },
    {
      "inputs": [
        {
          "internalType": "uint256",
          "name": "loanId",
          "type": "uint256"
        }
      ],
      "name": "repay",
      "outputs": [],
      "stateMutability": "payable",
      "type": "function"
    },
    {
      "inputs": [
        {
          "internalType": "uint256",
          "name": "loanId",
          "type": "uint256"
        }
      ],
      "name": "withdrawAsBorrower",
      "outputs": [],
      "stateMutability": "nonpayable",
      "type": "function"
    },
    {
      "inputs": [
        {
          "internalType": "uint256",
          "name": "loanId",
          "type": "uint256"
        },
        {
          "internalType": "uint8",
          "name": "score",
          "type": "uint8"
        }
      ],
      "name": "withdrawInvestorShare",
      "outputs": [],
      "stateMutability": "nonpayable",
      "type": "function"
    }
  ],
  "bytecode": "0x6080806040523461004b5760018060a01b0319734e8b7696fa787b32f1d8a0b1025fd1a5d8f994cd81600154161760015560016002553390600054161760005561166a90816100518239f35b600080fdfe6080604052600436101561001257600080fd5b6000803560e01c806331798f611461129a578063371fd8e614611087578063498efd7a1461104a5780634d8a2e1514610eae5780635219681214610e905780635f76cdfd14610b3d578063759135a114610b1d578063846b909a1461097a5780638da5cb5b14610953578063b7f0b7ee146106c5578063bdbfa3de14610512578063c71230bf146104d5578063cf2b4cbc146101f6578063e1ec3c68146100ed5763f25f4b56146100c257600080fd5b346100ea57806003193601126100ea576001546040516001600160a01b039091168152602090f35b80fd5b50346100ea5760203660031901126100ea576004356003548110156101f257610115906112f8565b5060018060a01b0381541690600181015490600281015460038201549460048301549060058401549060ff6006860154169060078601549260088701549460098801549a600a8901549760ff600c600b8c01549b0154169a6040519c8d5260208d015260408c015260608b015260808a015260a089015260068210156101de5750916101c0979160ff9360c089015260e088015261010087015260018060a01b03811661012087015260a01c1661014085015261016084015261018083015215156101a0820152f35b634e487b7160e01b81526021600452602490fd5b5080fd5b5060a03660031901126100ea57600435608435610217600160025414611349565b60028055811561049b5780340361045657604051906101c0820182811067ffffffffffffffff8211176104425760405233825260208201838152604083018581526060840191602435835260808501604435815260a086019060643582528860c088015260e087019589875289610100890152896101208901528961014089015289610160890152610180880152886101a08801526003546801000000000000000081101561042e578060016102d092016003556112f8565b95909561041a57875186546001600160a01b03199081166001600160a01b03928316178855945160018801559451600287015551600386015551600485015551600584015560c085015193600680850190861015610406576101a093600c9360ff969361038a93881999898b8354169116179055516007850155610100890151600885015560098401916101208a01511690825416178155856101408901511681549060ff60a01b9060a01b169060ff60a01b1916179055565b610160860151600a820155610180860151600b82015501930151151591835416911617905560035460001981019081116103f2576040519182527f8910ba13a55695f056e224bbbc6b65d866b12a8c2fbdf387fb853a1cca298cd760203393a3600160025580f35b634e487b7160e01b83526011600452602483fd5b634e487b7160e01b89526021600452602489fd5b634e487b7160e01b8a5260048a905260248afd5b634e487b7160e01b8a52604160045260248afd5b634e487b7160e01b85526041600452602485fd5b60405162461bcd60e51b815260206004820152601960248201527f496e636f727265637420636f6c6c61746572616c2073656e74000000000000006044820152606490fd5b60405162461bcd60e51b81526020600482015260126024820152710416d6f756e74206d757374206265203e20360741b6044820152606490fd5b50346100ea5760203660031901126100ea576004356001600160a01b038116908190036101f2578160409160209352600483522054604051908152f35b50346100ea5760203660031901126100ea57600435610535600160025414611349565b60028055610542816112f8565b5080546001600160a01b03919082163381900361068057600682019081549160ff8316600681101561066c5761061d576005879360ff1916179055600b830154806105ba575b5050505416907f533b2d8d57dc3b3d1c1bfd952e6355a9b573b6b9cccc5f554157003f733bb5148380a3600160025580f35b8280929181925af16105ca6113b8565b50156105d857833880610588565b60405162461bcd60e51b815260206004820152601860248201527f436f6c6c61746572616c20726566756e64206661696c656400000000000000006044820152606490fd5b60405162461bcd60e51b815260206004820152602160248201527f4c6f616e206973206e6f74206f70656e20666f722063616e63656c6c6174696f6044820152603760f91b6064820152608490fd5b634e487b7160e01b88526021600452602488fd5b60405162461bcd60e51b815260206004820152601c60248201527f4f6e6c792074686520626f72726f7765722063616e2063616e63656c000000006044820152606490fd5b50346100ea576106d4366112d3565b906106e3600160025414611349565b600280556106f0816112f8565b506009810180546001600160a01b039290838116330361090e5760ff600683015416600681101561066c576003036108c95760ff6107329160a01c1615611448565b60ff85166001811015806108be575b61074a90611493565b60018201549161076c612710610764600384015486611419565b04809461142c565b92600a810290808204600a14901517156108aa57886108159481948883956107b961079c60648798048096611395565b8b5460ff60a01b191660a09f909f1b60ff60a01b169e909e178b55565b541683526005602052604083206107d182825461142c565b9055604051908152897f7514ebcac1feb55cc5d1869533571ccd5971af19a7428bb57c1f780879eec3d960203393a387600154165af161080f6113b8565b506114df565b8480808087868654165af16108286113b8565b5015610865577f0afeafe87af56d204cca28eefeec305c8d8bcb1907103f969f87e9a978745c2991602091541693604051908152a3600160025580f35b60405162461bcd60e51b815260206004820152601e60248201527f496e766573746f72207368617265207472616e73666572206661696c656400006044820152606490fd5b634e487b7160e01b89526011600452602489fd5b506005811115610741565b60405162461bcd60e51b815260206004820152601860248201527f4c6f616e20686173206e6f74206265656e2072657061696400000000000000006044820152606490fd5b60405162461bcd60e51b815260206004820152601e60248201527f4f6e6c792074686520696e766573746f722063616e20776974686472617700006044820152606490fd5b50346100ea57806003193601126100ea57546040516001600160a01b039091168152602090f35b5060203660031901126100ea57600435610998600160025414611349565b600280556109a5816112f8565b5060068101805460ff81166006811015610b0957610ac4576005830154421015610a7f5760018301543403610a3a5760019060ff191617905560098101336bffffffffffffffffffffffff60a01b825416179055346002820155600742910155604051903482527f38c48552690c96ec2872092ac1db6c19fb59f5a8c5b49bbf41ed4886d0ca692660203393a3600160025580f35b60405162461bcd60e51b815260206004820152601d60248201527f496e636f72726563742066756e64696e6720616d6f756e742073656e740000006044820152606490fd5b60405162461bcd60e51b815260206004820152601b60248201527f46756e64696e6720646561646c696e65206861732070617373656400000000006044820152606490fd5b60405162461bcd60e51b815260206004820152601960248201527f4c6f616e206e6f74206f70656e20666f722066756e64696e67000000000000006044820152606490fd5b634e487b7160e01b86526021600452602486fd5b50346100ea5760203660031901126100ea57610b3a600435611521565b80f35b50346100ea57610b4c366112d3565b90610b5b600160025414611349565b60028055610b6881611521565b610b71816112f8565b506009810192835460018060a01b03928382163303610e4b5760ff600682015416600681101561066c57600403610e0d57600c81019081549260ff8416610dbc57600b820194855415610d77578693610bd360ff610c299460a01c1615611448565b600160ff8316968188101580610d6c575b610bed90611493565b60ff1916179055838354168a52600460205260408a20610c0d8154611439565b9055885460ff60a01b191660a09190911b60ff60a01b16178855565b54168652600560205260408620610c4182825461142c565b9055604051908152837f7514ebcac1feb55cc5d1869533571ccd5971af19a7428bb57c1f780879eec3d960203393a35492600a8402848104600a1485151715610d58576064900493610c938582611395565b610caa878080808a89600154165af161080f6113b8565b8680808084888854165af1610cbd6113b8565b5015610d04577f90a49cc0ffe370f13cdb2e8c2f3f91aeb86bae3a6aa0e060da5fb4a9b91cde999360609354169560405192835260208301526040820152a3600160025580f35b60405162461bcd60e51b815260206004820152602660248201527f436f6c6c61746572616c207472616e7366657220746f20696e766573746f722060448201526519985a5b195960d21b6064820152608490fd5b634e487b7160e01b86526011600452602486fd5b506005881115610be4565b60405162461bcd60e51b815260206004820152601b60248201527f54686973206c6f616e20686173206e6f20636f6c6c61746572616c00000000006044820152606490fd5b60405162461bcd60e51b815260206004820152602360248201527f436f6c6c61746572616c2068617320616c7265616479206265656e20636c61696044820152621b595960ea1b6064820152608490fd5b60405162461bcd60e51b8152602060048201526016602482015275131bd85b881a185cc81b9bdd08191959985d5b1d195960521b6044820152606490fd5b60405162461bcd60e51b815260206004820152601b60248201527f4f6e6c792074686520696e766573746f722063616e20636c61696d00000000006044820152606490fd5b50346100ea57806003193601126100ea576020600354604051908152f35b50346100ea57602090816003193601126100ea57600435600290610ed56001835414611349565b818055610ee1816112f8565b50600681019081549160ff8316600681101561103657600103610ff15781546001600160a01b03169233849003610fac5786868194829482849560ff191617905501948554905af1610f316113b8565b5015610f6957600193947f69ce060f535737417b4a4ebb86ae7a865885c5c1e8106f7ed0b8bd9c52641bc69154604051908152a25580f35b6064856040519062461bcd60e51b825280600483015260248201527f4661696c656420746f2073656e642066756e647320746f20626f72726f7765726044820152fd5b60405162461bcd60e51b815260048101899052601e60248201527f4f6e6c792074686520626f72726f7765722063616e20776974686472617700006044820152606490fd5b60405162461bcd60e51b815260048101889052601b60248201527f4c6f616e206973206e6f7420696e2046756e64656420737461746500000000006044820152606490fd5b634e487b7160e01b87526021600452602487fd5b50346100ea5760203660031901126100ea576004356001600160a01b038116908190036101f2578160409160209352600583522054604051908152f35b506020806003193601126101f2576004356110a6600160025414611349565b600280556110b3816112f8565b50916006830180549060ff8216600681101561103657600203611257576110f060018601546127106110e9600389015483611419565b049061142c565b918234106112035760039083600888015560ff1916179055827fd3337f372235c0c137836a45251cd21fba324e7ef27c7acc5ac12451491793b98360018060a01b0393848854168952600482526040892061114b8154611439565b9055604051908152a2600b8401938585548061116b575b50600160025580f35b81808092868654165af161117d6113b8565b50156111be57907f7c5e5cb62e5ed3caf3764e4b0afedfedef533e27809d43367799787ad2abcd41929154169354604051908152a338808080808581611162565b60405162461bcd60e51b815260048101849052601a60248201527f436f6c6c61746572616c207472616e73666572206661696c65640000000000006044820152606490fd5b60405162461bcd60e51b815260048101859052602660248201527f496e73756666696369656e7420616d6f756e742073656e7420666f7220726570604482015265185e5b595b9d60d21b6064820152608490fd5b6064836040519062461bcd60e51b825280600483015260248201527f4c6f616e206973206e6f742061637469766520666f722072657061796d656e746044820152fd5b50346100ea5760203660031901126100ea57600435906001600160a01b03821682036100ea5760206112cb836115c6565b604051908152f35b60409060031901126112f3576004359060243560ff811681036112f35790565b600080fd5b60035481101561133357600d906003600052027fc2575a0e9e593c00f959f8c92f12db2869c3395a3b0502d05e2516446f71f85b0190600090565b634e487b7160e01b600052603260045260246000fd5b1561135057565b60405162461bcd60e51b815260206004820152601f60248201527f5265656e7472616e637947756172643a207265656e7472616e742063616c6c006044820152606490fd5b919082039182116113a257565b634e487b7160e01b600052601160045260246000fd5b3d156114145767ffffffffffffffff903d8281116113fe5760405192601f8201601f19908116603f01168401908111848210176113fe5760405282523d6000602084013e565b634e487b7160e01b600052604160045260246000fd5b606090565b818102929181159184041417156113a257565b919082018092116113a257565b60001981146113a25760010190565b1561144f57565b606460405162461bcd60e51b815260206004820152602060248201527f53636f72652068617320616c7265616479206265656e207375626d69747465646044820152fd5b1561149a57565b60405162461bcd60e51b815260206004820152601d60248201527f53636f7265206d757374206265206265747765656e203120616e6420350000006044820152606490fd5b156114e657565b60405162461bcd60e51b8152602060048201526013602482015272119959481d1c985b9cd9995c8819985a5b1959606a1b6044820152606490fd5b61152a816112f8565b5060068101805460ff811660068110156115b05760021480611595575b611552575b50505050565b60049060ff1916179055600a429101557f84908fca714735411d4553ddd185a4d6fdc25fda2d15662153ef18a8ad6099b46020604051428152a23880808061154c565b506115a9600784015460048501549061142c565b4211611547565b634e487b7160e01b600052602160045260246000fd5b6001600160a01b0316600081815260046020526040812054909190156116305760056020526040822054906064820291808304606414901517156103f25782526004602052604082205491821561161c57500490565b634e487b7160e01b81526012600452602490fd5b509056fea26469706673582212203d008db7174dc0dafb1b8de8b8dab37be9f25b5b7add0356da7948cf9ead79a164736f6c63430008130033",
  "linkReferences": {},
  "deployedLinkReferences": {}
}