{
  "_format": "hh-sol-artifact-1",
  "contractName": "LoanMarket",
  "sourceName": "contracts/Loan.sol",
  "abi": [
    {
      "inputs": [],
      "stateMutability": "nonpayable",
      "type": "constructor"
    },
    {
      "anonymous": false,
      "inputs": [
        {
          "indexed": true,
          "internalType": "uint256",
          "name": "loanId",
          "type": "uint256"
        },
        {
          "indexed": true,
          "internalType": "address",
          "name": "investor",
          "type": "address"
        },
        {
          "indexed": false,
          "internalType": "uint256",
          "name": "grossAmount",
          "type": "uint256"
        },
        {
          "indexed": false,
          "internalType": "uint256",
          "name": "fee",
          "type": "uint256"
        },
        {
          "indexed": false,
          "internalType": "uint256",
          "name": "netAmount",
          "type": "uint256"
        }
      ],
      "name": "CollateralClaimed",
      "type": "event"
    },
    {
      "anonymous": false,
      "inputs": [
        {
          "indexed": true,
          "internalType": "uint256",
          "name": "loanId",
          "type": "uint256"
        },
        {
          "indexed": true,
          "internalType": "address",
          "name": "borrower",
          "type": "address"
        },
        {
          "indexed": false,
          "internalType": "uint256",
          "name": "amount",
          "type": "uint256"
        }
      ],
      "name": "CollateralWithdrawn",
      "type": "event"
    },
    {
      "anonymous": false,
      "inputs": [
        {
          "indexed": true,
          "internalType": "uint256",
          "name": "loanId",
          "type": "uint256"
        },
        {
          "indexed": false,
          "internalType": "uint256",
          "name": "defaultTimestamp",
          "type": "uint256"
        }
      ],
      "name": "Defaulted",
      "type": "event"
    },
    {
      "anonymous": false,
      "inputs": [
        {
          "indexed": true,
          "internalType": "uint256",
          "name": "loanId",
          "type": "uint256"
        },
        {
          "indexed": true,
          "internalType": "address",
          "name": "investor",
          "type": "address"
        },
        {
          "indexed": false,
          "internalType": "uint256",
          "name": "amount",
          "type": "uint256"
        }
      ],
      "name": "Funded",
      "type": "event"
    },
    {
      "anonymous": false,
      "inputs": [
        {
          "indexed": true,
          "internalType": "uint256",
          "name": "loanId",
          "type": "uint256"
        },
        {
          "indexed": true,
          "internalType": "address",
          "name": "investor",
          "type": "address"
        },
        {
          "indexed": false,
          "internalType": "uint256",
          "name": "amount",
          "type": "uint256"
        }
      ],
      "name": "InvestorWithdraw",
      "type": "event"
    },
    {
      "anonymous": false,
      "inputs": [
        {
          "indexed": true,
          "internalType": "uint256",
          "name": "loanId",
          "type": "uint256"
        },
        {
          "indexed": true,
          "internalType": "address",
          "name": "borrower",
          "type": "address"
        }
      ],
      "name": "LoanCancelled",
      "type": "event"
    },
    {
      "anonymous": false,
      "inputs": [
        {
          "indexed": true,
          "internalType": "uint256",
          "name": "loanId",
          "type": "uint256"
        },
        {
          "indexed": true,
          "internalType": "address",
          "name": "borrower",
          "type": "address"
        },
        {
          "indexed": false,
          "internalType": "uint256",
          "name": "amountRequested",
          "type": "uint256"
        }
      ],
      "name": "LoanCreated",
      "type": "event"
    },
    {
      "anonymous": false,
      "inputs": [
        {
          "indexed": true,
          "internalType": "uint256",
          "name": "loanId",
          "type": "uint256"
        },
        {
          "indexed": false,
          "internalType": "uint256",
          "name": "amount",
          "type": "uint256"
        }
      ],
      "name": "RepaymentMade",
      "type": "event"
    },
    {
      "anonymous": false,
      "inputs": [
        {
          "indexed": true,
          "internalType": "uint256",
          "name": "loanId",
          "type": "uint256"
        },
        {
          "indexed": true,
          "internalType": "address",
          "name": "investor",
          "type": "address"
        },
        {
          "indexed": false,
          "internalType": "uint8",
          "name": "score",
          "type": "uint8"
        }
      ],
      "name": "ScoreLeft",
      "type": "event"
    },
    {
      "anonymous": false,
      "inputs": [
        {
          "indexed": true,
          "internalType": "uint256",
          "name": "loanId",
          "type": "uint256"
        },
        {
          "indexed": false,
          "internalType": "uint256",
          "name": "amount",
          "type": "uint256"
        }
      ],
      "name": "WithdrawnByBorrower",
      "type": "event"
    },
    {
      "inputs": [
        {
          "internalType": "address",
          "name": "borrower",
          "type": "address"
        }
      ],
      "name": "averageScoreOfBorrower",
      "outputs": [
        {
          "internalType": "uint256",
          "name": "avgTimes100",
          "type": "uint256"
        }
      ],
      "stateMutability": "view",
      "type": "function"
    },
    {
      "inputs": [
        {
          "internalType": "uint256",
          "name": "loanId",
          "type": "uint256"
        }
      ],
      "name": "checkDefault",
      "outputs": [],
      "stateMutability": "nonpayable",
      "type": "function"
    },
    {
      "inputs": [
        {
          "internalType": "uint256",
          "name": "loanId",
          "type": "uint256"
        }
      ],
      "name": "claimCollateral",
      "outputs": [],
      "stateMutability": "nonpayable",
      "type": "function"
    },
    {
      "inputs": [
        {
          "internalType": "uint256",
          "name": "amountRequested",
          "type": "uint256"
        },
        {
          "internalType": "uint256",
          "name": "interestBps",
          "type": "uint256"
        },
        {
          "internalType": "uint256",
          "name": "durationSecs",
          "type": "uint256"
        },
        {
          "internalType": "uint256",
          "name": "fundingDeadline",
          "type": "uint256"
        },
        {
          "internalType": "uint256",
          "name": "collateralAmount",
          "type": "uint256"
        }
      ],
      "name": "createLoan",
      "outputs": [
        {
          "internalType": "uint256",
          "name": "loanId",
          "type": "uint256"
        }
      ],
      "stateMutability": "payable",
      "type": "function"
    },
    {
      "inputs": [],
      "name": "feeWallet",
      "outputs": [
        {
          "internalType": "address payable",
          "name": "",
          "type": "address"
        }
      ],
      "stateMutability": "view",
      "type": "function"
    },
    {
      "inputs": [
        {
          "internalType": "uint256",
          "name": "loanId",
          "type": "uint256"
        }
      ],
      "name": "fundLoan",
      "outputs": [],
      "stateMutability": "payable",
      "type": "function"
    },
    {
      "inputs": [],
      "name": "getLoanCount",
      "outputs": [
        {
          "internalType": "uint256",
          "name": "",
          "type": "uint256"
        }
      ],
      "stateMutability": "view",
      "type": "function"
    },
    {
      "inputs": [
        {
          "internalType": "uint256",
          "name": "loanId",
          "type": "uint256"
        },
        {
          "internalType": "uint8",
          "name": "score",
          "type": "uint8"
        }
      ],
      "name": "leaveScore",
      "outputs": [],
      "stateMutability": "nonpayable",
      "type": "function"
    },
    {
      "inputs": [
        {
          "internalType": "uint256",
          "name": "",
          "type": "uint256"
        }
      ],
      "name": "loans",
      "outputs": [
        {
          "internalType": "address",
          "name": "borrower",
          "type": "address"
        },
        {
          "internalType": "uint256",
          "name": "amountRequested",
          "type": "uint256"
        },
        {
          "internalType": "uint256",
          "name": "amountFunded",
          "type": "uint256"
        },
        {
          "internalType": "uint256",
          "name": "interestBps",
          "type": "uint256"
        },
        {
          "internalType": "uint256",
          "name": "durationSecs",
          "type": "uint256"
        },
        {
          "internalType": "uint256",
          "name": "fundingDeadline",
          "type": "uint256"
        },
        {
          "internalType": "enum LoanMarket.Status",
          "name": "status",
          "type": "uint8"
        },
        {
          "internalType": "uint256",
          "name": "startTimestamp",
          "type": "uint256"
        },
        {
          "internalType": "uint256",
          "name": "totalRepayment",
          "type": "uint256"
        },
        {
          "internalType": "address",
          "name": "investor",
          "type": "address"
        },
        {
          "internalType": "uint8",
          "name": "score",
          "type": "uint8"
        },
        {
          "internalType": "uint256",
          "name": "defaultTimestamp",
          "type": "uint256"
        },
        {
          "internalType": "uint256",
          "name": "collateralAmount",
          "type": "uint256"
        },
        {
          "internalType": "bool",
          "name": "collateralClaimed",
          "type": "bool"
        }
      ],
      "stateMutability": "view",
      "type": "function"
    },
    {
      "inputs": [],
      "name": "owner",
      "outputs": [
        {
          "internalType": "address",
          "name": "",
          "type": "address"
        }
      ],
      "stateMutability": "view",
      "type": "function"
    },
    {
      "inputs": [
        {
          "internalType": "uint256",
          "name": "loanId",
          "type": "uint256"
        }
      ],
      "name": "repay",
      "outputs": [],
      "stateMutability": "payable",
      "type": "function"
    },
    {
      "inputs": [
        {
          "internalType": "uint256",
          "name": "loanId",
          "type": "uint256"
        }
      ],
      "name": "withdrawAsBorrower",
      "outputs": [],
      "stateMutability": "nonpayable",
      "type": "function"
    },
    {
      "inputs": [
        {
          "internalType": "uint256",
          "name": "loanId",
          "type": "uint256"
        }
      ],
      "name": "withdrawCollateral",
      "outputs": [],
      "stateMutability": "nonpayable",
      "type": "function"
    },
    {
      "inputs": [
        {
          "internalType": "uint256",
          "name": "loanId",
          "type": "uint256"
        }
      ],
      "name": "withdrawInvestorShare",
      "outputs": [],
      "stateMutability": "nonpayable",
      "type": "function"
    },
    {
      "inputs": [
        {
          "internalType": "uint256",
          "name": "",
          "type": "uint256"
        }
      ],
      "name": "withdrawableOf",
      "outputs": [
        {
          "internalType": "uint256",
          "name": "",
          "type": "uint256"
        }
      ],
      "stateMutability": "view",
      "type": "function"
    },
    {
      "stateMutability": "payable",
      "type": "receive"
    }
  ],
  "bytecode": "0x6080806040523461004b5760018060a01b0319730fade5b267b572dc1f002d1b9148976ccce9c8c881600154161760015560016002553390600054161760005561164690816100518239f35b600080fdfe6080604052600436101561005d575b361561001957600080fd5b606460405162461bcd60e51b815260206004820152602060248201527f5573652066756e644c6f616e286c6f616e49642920746f2073656e64204554486044820152fd5b60003560e01c806331798f6114611242578063371fd8e6146110705780634d8a2e1514610ed85780635219681214610eba5780635786276614610c6d5780636112fe2e14610b17578063759135a114610af9578063846b909a146109705780638da5cb5b14610947578063c49785b41461076a578063c66afff31461056f578063cf2b4cbc14610262578063d1fdb3e814610236578063e1ec3c68146101355763f25f4b560361000e5734610130576000366003190112610130576001546040516001600160a01b039091168152602090f35b600080fd5b34610130576020366003190112610130576004356003548110156101305761015c90611279565b5060018060a01b038154166001820154600283015492600381015493600482015460058301549560ff60068501541691600785015497600886015491600987015493600a8801549660ff600c600b8b01549a015416996040519b8c5260208c015260408b015260608a0152608089015260a08801526006831015610220576101c09760ff9360c089015260e088015261010087015260018060a01b03811661012087015260a01c1661014085015261016084015261018083015215156101a0820152f35b634e487b7160e01b600052602160045260246000fd5b346101305760203660031901126101305760043560005260046020526020604060002054604051908152f35b60a0366003190112610130576064356084356004351561052a57428211156104e5578034036104aa57604051916101c0830183811067ffffffffffffffff821117610494576040523383526004356020840152604083019060008252606084019060243582526080850193604435855260a08601918252600060c0870152600060e0870152600061010087015260006101208701526000610140870152600061016087015261018086015260006101a086015260035468010000000000000000811015610494578060016103399201600355611279565b94909461047e57855185546001600160a01b03199081166001600160a01b0392831617875560208801516001880155945160028701559251600386015551600485015551600584015560c0840151926006808201939190851015610220576103fb6101a093600c9360ff96871998888a835416911617905560e08901516007850155610100890151600885015560098401916101208a01511690825416178155856101408901511681549060ff60a01b9060a01b169060ff60a01b1916179055565b610160860151600a820155610180860151600b8201550193015115159183541691161790556003546000198101908111610468576020906040516004358152817f8910ba13a55695f056e224bbbc6b65d866b12a8c2fbdf387fb853a1cca298cd7843393a3604051908152f35b634e487b7160e01b600052601160045260246000fd5b634e487b7160e01b600052600060045260246000fd5b634e487b7160e01b600052604160045260246000fd5b60405162461bcd60e51b8152602060048201526013602482015272086ded8d8c2e8cae4c2d840dad2e6dac2e8c6d606b1b6044820152606490fd5b60405162461bcd60e51b815260206004820152601e60248201527f446561646c696e65206d75737420626520696e207468652066757475726500006044820152606490fd5b60405162461bcd60e51b815260206004820152601d60248201527f416d6f756e74206d7573742062652067726561746572207468616e20300000006044820152606490fd5b3461013057602080600319360112610130576004356105926001600254146112d7565b6002805561059f81611279565b5060098101546001600160a01b039391906105bd9085163314611457565b83600154161561073057826000526004825260406000205490811561070157600101546000848152600484526040812055808211156106ba5761060090826112ca565b600a810290808204600a1490151715610468576000808093610627606483950480926112ca565b97600154165af161063661135e565b5015610689577f0afeafe87af56d204cca28eefeec305c8d8bcb1907103f969f87e9a978745c2990610678600080808088335af161067261135e565b50611492565b6040519384523393a35b6001600255005b6064906040519062461bcd60e51b82526004820152600a6024820152691199594819985a5b195960b21b6044820152fd5b5092507f0afeafe87af56d204cca28eefeec305c8d8bcb1907103f969f87e9a978745c29906106f3600080808088335af161067261135e565b6040519384523393a3610682565b60405162461bcd60e51b81526004810184905260076024820152664e6f7468696e6760c81b6044820152606490fd5b60405162461bcd60e51b8152600481018390526012602482015271119959481dd85b1b195d081b9bdd081cd95d60721b6044820152606490fd5b346101305760203660031901126101305760043561078c6001600254146112d7565b6002805561079981611279565b50906009820160018060a01b03906107b5828254163314611457565b60ff60068501541660068110156102205760040361091257600c840193600b8554916107e460ff841615611596565b01549460018615926107f684156115d4565b60ff1916179055600a850290858204600a14171561046857606490049361081d85826112ca565b60008080808988600154165af161083261135e565b50156108d757600080808084888854165af161084c61135e565b5015610892577f90a49cc0ffe370f13cdb2e8c2f3f91aeb86bae3a6aa0e060da5fb4a9b91cde999360609354169560405192835260208301526040820152a36001600255005b60405162461bcd60e51b815260206004820152601860248201527f496e766573746f72207472616e73666572206661696c656400000000000000006044820152606490fd5b60405162461bcd60e51b8152602060048201526013602482015272119959481d1c985b9cd9995c8819985a5b1959606a1b6044820152606490fd5b60405162461bcd60e51b815260206004820152600d60248201526c139bdd08191959985d5b1d1959609a1b6044820152606490fd5b34610130576000366003190112610130576000546040516001600160a01b039091168152602090f35b6020806003193601126101305760043561098981611279565b5060068101805460ff8116600681101561022057610ac95760058301544211610a925760018301543403610a5c576009830180546001600160a01b038116610a2657906001929134600287015533906bffffffffffffffffffffffff60a01b1617905560ff19161790556007429101557f38c48552690c96ec2872092ac1db6c19fb59f5a8c5b49bbf41ed4886d0ca6926604051923484523393a3005b60405162461bcd60e51b815260048101889052600e60248201526d105b1c9958591e48199d5b99195960921b6044820152606490fd5b60405162461bcd60e51b815260048101869052600e60248201526d135d5cdd08199d5b9908199d5b1b60921b6044820152606490fd5b60405162461bcd60e51b815260048101869052600f60248201526e111958591b1a5b99481c185cdcd959608a1b6044820152606490fd5b60405162461bcd60e51b81526004810186905260086024820152672737ba1037b832b760c11b6044820152606490fd5b3461013057602036600319011261013057610b156004356113b6565b005b3461013057602036600319011261013057600435610b396001600254146112d7565b60028055610b4681611279565b5080546001600160a01b039081169291610b61338514611323565b60ff600682015416600681101561022057600303610c3b576000808080600c850197885490610b9360ff831615611596565b600b87019960018b5493610ba88515156115d4565b60ff19161790555af1610bb961135e565b5015610bf6577f7c5e5cb62e5ed3caf3764e4b0afedfedef533e27809d43367799787ad2abcd419160209154169354604051908152a36001600255005b60405162461bcd60e51b815260206004820152601a60248201527f436f6c6c61746572616c207472616e73666572206661696c65640000000000006044820152606490fd5b60405162461bcd60e51b815260206004820152600a602482015269139bdd081c995c185a5960b21b6044820152606490fd5b3461013057604036600319011261013057600435602490813560ff81169283820361013057600354831015610e8457610ca583611279565b506009810180549092916001600160a01b0382163303610e3457600660ff910154166006811015610e1f5760038114908115610e14575b5015610dd957600186101580610dce575b15610d8a5760a01c60ff16610d465750805460ff60a01b191660a09290921b60ff60a01b169190911790556040519182527f7514ebcac1feb55cc5d1869533571ccd5971af19a7428bb57c1f780879eec3d960203393a3005b606490601b6040519162461bcd60e51b8352602060048401528201527f53636f72652068617320616c7265616479206265656e206c65667400000000006044820152fd5b60405162461bcd60e51b815260206004820152601d818401527f53636f7265206d757374206265206265747765656e203120616e6420350000006044820152606490fd5b506005861115610ced565b60405162461bcd60e51b81526020600482015260148184015273131bd85b881a5cc81b9bdd08199a5b9a5cda195960621b6044820152606490fd5b600491501487610cdc565b82634e487b7160e01b60005260216004526000fd5b60405162461bcd60e51b8152602060048201526023818501527f4f6e6c792074686520696e766573746f722063616e206c6561766520612073636044820152626f726560e81b6064820152608490fd5b606490600f6040519162461bcd60e51b8352602060048401528201526e125b9d985b1a59081b1bd85b881251608a1b6044820152fd5b34610130576000366003190112610130576020600354604051908152f35b346101305760208060031936011261013057600435600290610efd60018354146112d7565b818055610f0981611279565b50610f1e60018060a01b038254163314611323565b6006810180549160ff831660068110156102205760010361103e57600b8101541561100357840154918215610fd25760ff191684179055600080808084335af1610f6661135e565b5015610f9b576001937f69ce060f535737417b4a4ebb86ae7a865885c5c1e8106f7ed0b8bd9c52641bc691604051908152a255005b60405162461bcd60e51b815260048101859052600f60248201526e151c985b9cd9995c8819985a5b1959608a1b6044820152606490fd5b60405162461bcd60e51b8152600481018790526009602482015268139bc8185b5bdd5b9d60ba1b6044820152606490fd5b60405162461bcd60e51b815260048101879052601360248201527210dbdb1b185d195c985b081c995c5d5a5c9959606a1b6044820152606490fd5b60405162461bcd60e51b815260048101879052600a602482015269139bdd08199d5b99195960b21b6044820152606490fd5b602080600319360112610130576004359061108f6001600254146112d7565b6002805561109c82611279565b506110b160018060a01b038254163314611323565b6006810160ff815416600681101580610220576002821480928115611233575b50156111fe57610220576111f0575b6001820154600383015490818102918183041481151715610468576127106111099204906113a9565b918234106111be57600883910155600360ff1982541617905582600052600482528060406000205580341161116a575b907fd3337f372235c0c137836a45251cd21fba324e7ef27c7acc5ac12451491793b991604051908152a26001600255005b600080808061117985346112ca565b335af161118461135e565b506111395760405162461bcd60e51b815260048101839052600d60248201526c1499599d5b990819985a5b1959609a1b6044820152606490fd5b60405162461bcd60e51b815260048101859052600a60248201526909cdee840cadcdeeaced60b31b6044820152606490fd5b6111f9846113b6565b6110e0565b60405162461bcd60e51b815260048101869052600d60248201526c4e6f7420726570617961626c6560981b6044820152606490fd5b915050600460009114876110d1565b34610130576020366003190112610130576004356001600160a01b0381168103610130576112716020916114db565b604051908152f35b6003548110156112b457600d906003600052027fc2575a0e9e593c00f959f8c92f12db2869c3395a3b0502d05e2516446f71f85b0190600090565b634e487b7160e01b600052603260045260246000fd5b9190820391821161046857565b156112de57565b60405162461bcd60e51b815260206004820152601f60248201527f5265656e7472616e637947756172643a207265656e7472616e742063616c6c006044820152606490fd5b1561132a57565b60405162461bcd60e51b815260206004820152600c60248201526b2737ba103137b93937bbb2b960a11b6044820152606490fd5b3d156113a45767ffffffffffffffff903d8281116104945760405192601f8201601f19908116603f01168401908111848210176104945760405282523d6000602084013e565b606090565b9190820180921161046857565b6113bf81611279565b5060068101805460ff81166006811015610220576002148061143c575b80611430575b6113ed575b50505050565b60049060ff1916179055600a429101557f84908fca714735411d4553ddd185a4d6fdc25fda2d15662153ef18a8ad6099b46020604051428152a2388080806113e7565b50600a830154156113e2565b5061145060078401546004850154906113a9565b42116113dc565b1561145e57565b60405162461bcd60e51b815260206004820152600c60248201526b2737ba1034b73b32b9ba37b960a11b6044820152606490fd5b1561149957565b60405162461bcd60e51b815260206004820152600b60248201526a14d95b990819985a5b195960aa1b6044820152606490fd5b60001981146104685760010190565b600080918190600354915b82811061151457505050811561150d57606481029080820460641490151715610468570490565b5050600090565b61151d81611279565b50546001600160a01b038381169116148061157a575b611546575b611541906114cc565b6114e6565b939261157261156c6115419260ff600961155f8a611279565b50015460a01c16906113a9565b946114cc565b949050611538565b5060ff600961158883611279565b50015460a01c161515611533565b1561159d57565b60405162461bcd60e51b815260206004820152600f60248201526e105b1c9958591e4818db185a5b5959608a1b6044820152606490fd5b156115db57565b60405162461bcd60e51b815260206004820152600d60248201526c139bc818dbdb1b185d195c985b609a1b6044820152606490fdfea2646970667358221220b93d807649361c73115b14c53e4ae7f85db6dbfeaec52b7b13e2ecdd3a1d086364736f6c63430008130033",
  "linkReferences": {},
  "deployedLinkReferences": {}
}