{
  "_format": "hh-sol-artifact-1",
  "contractName": "LoanMarket",
  "sourceName": "contracts/Loan.sol",
  "abi": [
    {
      "inputs": [],
      "stateMutability": "nonpayable",
      "type": "constructor"
    },
    {
      "anonymous": false,
      "inputs": [
        {
          "indexed": true,
          "internalType": "uint256",
          "name": "loanId",
          "type": "uint256"
        },
        {
          "indexed": false,
          "internalType": "uint256",
          "name": "defaultTimestamp",
          "type": "uint256"
        }
      ],
      "name": "Defaulted",
      "type": "event"
    },
    {
      "anonymous": false,
      "inputs": [
        {
          "indexed": true,
          "internalType": "uint256",
          "name": "loanId",
          "type": "uint256"
        },
        {
          "indexed": true,
          "internalType": "address",
          "name": "investor",
          "type": "address"
        },
        {
          "indexed": false,
          "internalType": "uint256",
          "name": "amount",
          "type": "uint256"
        }
      ],
      "name": "Funded",
      "type": "event"
    },
    {
      "anonymous": false,
      "inputs": [
        {
          "indexed": true,
          "internalType": "uint256",
          "name": "loanId",
          "type": "uint256"
        },
        {
          "indexed": true,
          "internalType": "address",
          "name": "investor",
          "type": "address"
        },
        {
          "indexed": false,
          "internalType": "uint256",
          "name": "amount",
          "type": "uint256"
        }
      ],
      "name": "InvestorWithdraw",
      "type": "event"
    },
    {
      "anonymous": false,
      "inputs": [
        {
          "indexed": true,
          "internalType": "uint256",
          "name": "loanId",
          "type": "uint256"
        },
        {
          "indexed": true,
          "internalType": "address",
          "name": "borrower",
          "type": "address"
        }
      ],
      "name": "LoanCancelled",
      "type": "event"
    },
    {
      "anonymous": false,
      "inputs": [
        {
          "indexed": true,
          "internalType": "uint256",
          "name": "loanId",
          "type": "uint256"
        },
        {
          "indexed": true,
          "internalType": "address",
          "name": "borrower",
          "type": "address"
        },
        {
          "indexed": false,
          "internalType": "uint256",
          "name": "amountRequested",
          "type": "uint256"
        }
      ],
      "name": "LoanCreated",
      "type": "event"
    },
    {
      "anonymous": false,
      "inputs": [
        {
          "indexed": true,
          "internalType": "uint256",
          "name": "loanId",
          "type": "uint256"
        },
        {
          "indexed": false,
          "internalType": "uint256",
          "name": "amount",
          "type": "uint256"
        }
      ],
      "name": "RepaymentMade",
      "type": "event"
    },
    {
      "anonymous": false,
      "inputs": [
        {
          "indexed": true,
          "internalType": "uint256",
          "name": "loanId",
          "type": "uint256"
        },
        {
          "indexed": true,
          "internalType": "address",
          "name": "investor",
          "type": "address"
        },
        {
          "indexed": false,
          "internalType": "uint8",
          "name": "score",
          "type": "uint8"
        }
      ],
      "name": "ScoreLeft",
      "type": "event"
    },
    {
      "anonymous": false,
      "inputs": [
        {
          "indexed": true,
          "internalType": "uint256",
          "name": "loanId",
          "type": "uint256"
        },
        {
          "indexed": false,
          "internalType": "uint256",
          "name": "amount",
          "type": "uint256"
        }
      ],
      "name": "WithdrawnByBorrower",
      "type": "event"
    },
    {
      "inputs": [
        {
          "internalType": "address",
          "name": "borrower",
          "type": "address"
        }
      ],
      "name": "averageScoreOfBorrower",
      "outputs": [
        {
          "internalType": "uint256",
          "name": "avgTimes100",
          "type": "uint256"
        }
      ],
      "stateMutability": "view",
      "type": "function"
    },
    {
      "inputs": [
        {
          "internalType": "uint256",
          "name": "loanId",
          "type": "uint256"
        }
      ],
      "name": "cancelLoan",
      "outputs": [],
      "stateMutability": "nonpayable",
      "type": "function"
    },
    {
      "inputs": [
        {
          "internalType": "uint256",
          "name": "loanId",
          "type": "uint256"
        }
      ],
      "name": "checkDefault",
      "outputs": [],
      "stateMutability": "nonpayable",
      "type": "function"
    },
    {
      "inputs": [
        {
          "internalType": "uint256",
          "name": "amountRequested",
          "type": "uint256"
        },
        {
          "internalType": "uint256",
          "name": "interestBps",
          "type": "uint256"
        },
        {
          "internalType": "uint256",
          "name": "durationSecs",
          "type": "uint256"
        },
        {
          "internalType": "uint256",
          "name": "fundingDeadline",
          "type": "uint256"
        }
      ],
      "name": "createLoan",
      "outputs": [
        {
          "internalType": "uint256",
          "name": "loanId",
          "type": "uint256"
        }
      ],
      "stateMutability": "nonpayable",
      "type": "function"
    },
    {
      "inputs": [
        {
          "internalType": "uint256",
          "name": "loanId",
          "type": "uint256"
        }
      ],
      "name": "fundLoan",
      "outputs": [],
      "stateMutability": "payable",
      "type": "function"
    },
    {
      "inputs": [],
      "name": "getLoanCount",
      "outputs": [
        {
          "internalType": "uint256",
          "name": "",
          "type": "uint256"
        }
      ],
      "stateMutability": "view",
      "type": "function"
    },
    {
      "inputs": [
        {
          "internalType": "uint256",
          "name": "loanId",
          "type": "uint256"
        }
      ],
      "name": "isLoanDefaulted",
      "outputs": [
        {
          "internalType": "bool",
          "name": "",
          "type": "bool"
        }
      ],
      "stateMutability": "view",
      "type": "function"
    },
    {
      "inputs": [
        {
          "internalType": "uint256",
          "name": "loanId",
          "type": "uint256"
        },
        {
          "internalType": "uint8",
          "name": "score",
          "type": "uint8"
        }
      ],
      "name": "leaveScore",
      "outputs": [],
      "stateMutability": "nonpayable",
      "type": "function"
    },
    {
      "inputs": [
        {
          "internalType": "uint256",
          "name": "",
          "type": "uint256"
        }
      ],
      "name": "loans",
      "outputs": [
        {
          "internalType": "address",
          "name": "borrower",
          "type": "address"
        },
        {
          "internalType": "uint256",
          "name": "amountRequested",
          "type": "uint256"
        },
        {
          "internalType": "uint256",
          "name": "amountFunded",
          "type": "uint256"
        },
        {
          "internalType": "uint256",
          "name": "interestBps",
          "type": "uint256"
        },
        {
          "internalType": "uint256",
          "name": "durationSecs",
          "type": "uint256"
        },
        {
          "internalType": "uint256",
          "name": "fundingDeadline",
          "type": "uint256"
        },
        {
          "internalType": "enum LoanMarket.Status",
          "name": "status",
          "type": "uint8"
        },
        {
          "internalType": "uint256",
          "name": "startTimestamp",
          "type": "uint256"
        },
        {
          "internalType": "uint256",
          "name": "totalRepayment",
          "type": "uint256"
        },
        {
          "internalType": "address",
          "name": "investor",
          "type": "address"
        },
        {
          "internalType": "uint8",
          "name": "score",
          "type": "uint8"
        },
        {
          "internalType": "uint256",
          "name": "defaultTimestamp",
          "type": "uint256"
        }
      ],
      "stateMutability": "view",
      "type": "function"
    },
    {
      "inputs": [
        {
          "internalType": "uint256",
          "name": "loanId",
          "type": "uint256"
        }
      ],
      "name": "markAsDefault",
      "outputs": [],
      "stateMutability": "nonpayable",
      "type": "function"
    },
    {
      "inputs": [],
      "name": "owner",
      "outputs": [
        {
          "internalType": "address",
          "name": "",
          "type": "address"
        }
      ],
      "stateMutability": "view",
      "type": "function"
    },
    {
      "inputs": [
        {
          "internalType": "uint256",
          "name": "loanId",
          "type": "uint256"
        }
      ],
      "name": "repay",
      "outputs": [],
      "stateMutability": "payable",
      "type": "function"
    },
    {
      "inputs": [
        {
          "internalType": "address",
          "name": "to",
          "type": "address"
        },
        {
          "internalType": "uint256",
          "name": "amount",
          "type": "uint256"
        }
      ],
      "name": "rescueETH",
      "outputs": [],
      "stateMutability": "nonpayable",
      "type": "function"
    },
    {
      "inputs": [
        {
          "internalType": "uint256",
          "name": "loanId",
          "type": "uint256"
        }
      ],
      "name": "withdrawAsBorrower",
      "outputs": [],
      "stateMutability": "nonpayable",
      "type": "function"
    },
    {
      "inputs": [
        {
          "internalType": "uint256",
          "name": "loanId",
          "type": "uint256"
        }
      ],
      "name": "withdrawInvestorShare",
      "outputs": [],
      "stateMutability": "nonpayable",
      "type": "function"
    },
    {
      "inputs": [
        {
          "internalType": "uint256",
          "name": "",
          "type": "uint256"
        }
      ],
      "name": "withdrawableOf",
      "outputs": [
        {
          "internalType": "uint256",
          "name": "",
          "type": "uint256"
        }
      ],
      "stateMutability": "view",
      "type": "function"
    },
    {
      "stateMutability": "payable",
      "type": "receive"
    }
  ],
  "bytecode": "0x60806040526001805534801561001457600080fd5b50336000806101000a81548173ffffffffffffffffffffffffffffffffffffffff021916908373ffffffffffffffffffffffffffffffffffffffff160217905550613345806100646000396000f3fe6080604052600436106100f75760003560e01c80638da5cb5b1161008a578063c66afff311610059578063c66afff31461033a578063d1fdb3e814610363578063e1ec3c68146103a0578063e8cbab09146103e857610137565b80638da5cb5b14610280578063b59d38d7146102ab578063b9fae650146102d4578063bdbfa3de1461031157610137565b806352196812116100c657806352196812146101e75780635786276614610212578063759135a11461023b578063846b909a1461026457610137565b8063099a04e51461013c57806331798f6114610165578063371fd8e6146101a25780634d8a2e15146101be57610137565b36610137576040517f08c379a000000000000000000000000000000000000000000000000000000000815260040161012e90612209565b60405180910390fd5b600080fd5b34801561014857600080fd5b50610163600480360381019061015e91906122c2565b610425565b005b34801561017157600080fd5b5061018c60048036038101906101879190612302565b610564565b604051610199919061233e565b60405180910390f35b6101bc60048036038101906101b79190612359565b6106d1565b005b3480156101ca57600080fd5b506101e560048036038101906101e09190612359565b610aed565b005b3480156101f357600080fd5b506101fc610e1a565b604051610209919061233e565b60405180910390f35b34801561021e57600080fd5b50610239600480360381019061023491906123bf565b610e27565b005b34801561024757600080fd5b50610262600480360381019061025d9190612359565b6110b6565b005b61027e60048036038101906102799190612359565b611202565b005b34801561028c57600080fd5b506102956114dc565b6040516102a2919061240e565b60405180910390f35b3480156102b757600080fd5b506102d260048036038101906102cd9190612359565b611500565b005b3480156102e057600080fd5b506102fb60048036038101906102f69190612429565b611785565b604051610308919061233e565b60405180910390f35b34801561031d57600080fd5b5061033860048036038101906103339190612359565b611a76565b005b34801561034657600080fd5b50610361600480360381019061035c9190612359565b611d3c565b005b34801561036f57600080fd5b5061038a60048036038101906103859190612359565b611fbc565b604051610397919061233e565b60405180910390f35b3480156103ac57600080fd5b506103c760048036038101906103c29190612359565b611fd4565b6040516103df9c9b9a99989796959493929190612516565b60405180910390f35b3480156103f457600080fd5b5061040f600480360381019061040a9190612359565b61209e565b60405161041c91906125eb565b60405180910390f35b60008054906101000a900473ffffffffffffffffffffffffffffffffffffffff1673ffffffffffffffffffffffffffffffffffffffff163373ffffffffffffffffffffffffffffffffffffffff16146104b3576040517f08c379a00000000000000000000000000000000000000000000000000000000081526004016104aa90612652565b60405180910390fd5b60008273ffffffffffffffffffffffffffffffffffffffff16826040516104d9906126a3565b60006040518083038185875af1925050503d8060008114610516576040519150601f19603f3d011682016040523d82523d6000602084013e61051b565b606091505b505090508061055f576040517f08c379a000000000000000000000000000000000000000000000000000000000815260040161055690612704565b60405180910390fd5b505050565b600080600090506000805b60028054905081101561069b578473ffffffffffffffffffffffffffffffffffffffff16600282815481106105a7576105a6612724565b5b90600052602060002090600b020160000160009054906101000a900473ffffffffffffffffffffffffffffffffffffffff1673ffffffffffffffffffffffffffffffffffffffff16148015610631575060006002828154811061060d5761060c612724565b5b90600052602060002090600b020160090160149054906101000a900460ff1660ff16115b15610688576002818154811061064a57610649612724565b5b90600052602060002090600b020160090160149054906101000a900460ff1660ff16836106779190612782565b92508180610684906127b6565b9250505b8080610693906127b6565b91505061056f565b50600081036106af576000925050506106cc565b806064836106bd91906127fe565b6106c7919061286f565b925050505b919050565b6001805414610715576040517f08c379a000000000000000000000000000000000000000000000000000000000815260040161070c906128ec565b60405180910390fd5b60026001819055506002805490508110610764576040517f08c379a000000000000000000000000000000000000000000000000000000000815260040161075b90612958565b60405180910390fd5b60006002828154811061077a57610779612724565b5b90600052602060002090600b020190503373ffffffffffffffffffffffffffffffffffffffff168160000160009054906101000a900473ffffffffffffffffffffffffffffffffffffffff1673ffffffffffffffffffffffffffffffffffffffff161461081c576040517f08c379a0000000000000000000000000000000000000000000000000000000008152600401610813906129c4565b60405180910390fd5b600260058111156108305761082f612490565b5b8160060160009054906101000a900460ff16600581111561085457610853612490565b5b14610894576040517f08c379a000000000000000000000000000000000000000000000000000000000815260040161088b90612a30565b60405180910390fd5b61089d826110b6565b600260058111156108b1576108b0612490565b5b8160060160009054906101000a900460ff1660058111156108d5576108d4612490565b5b14610915576040517f08c379a000000000000000000000000000000000000000000000000000000000815260040161090c90612a9c565b60405180910390fd5b600081600101549050600061271083600301548361093391906127fe565b61093d919061286f565b90506000818361094d9190612782565b905080341015610992576040517f08c379a000000000000000000000000000000000000000000000000000000000815260040161098990612b08565b60405180910390fd5b80846008018190555060038460060160006101000a81548160ff021916908360058111156109c3576109c2612490565b5b021790555080600360008781526020019081526020016000208190555080341115610aa757600081346109f69190612b28565b905060003373ffffffffffffffffffffffffffffffffffffffff1682604051610a1e906126a3565b60006040518083038185875af1925050503d8060008114610a5b576040519150601f19603f3d011682016040523d82523d6000602084013e610a60565b606091505b5050905080610aa4576040517f08c379a0000000000000000000000000000000000000000000000000000000008152600401610a9b90612ba8565b60405180910390fd5b50505b847fd3337f372235c0c137836a45251cd21fba324e7ef27c7acc5ac12451491793b982604051610ad7919061233e565b60405180910390a2505050506001808190555050565b6001805414610b31576040517f08c379a0000000000000000000000000000000000000000000000000000000008152600401610b28906128ec565b60405180910390fd5b60026001819055506002805490508110610b80576040517f08c379a0000000000000000000000000000000000000000000000000000000008152600401610b7790612958565b60405180910390fd5b600060028281548110610b9657610b95612724565b5b90600052602060002090600b020190503373ffffffffffffffffffffffffffffffffffffffff168160000160009054906101000a900473ffffffffffffffffffffffffffffffffffffffff1673ffffffffffffffffffffffffffffffffffffffff1614610c38576040517f08c379a0000000000000000000000000000000000000000000000000000000008152600401610c2f906129c4565b60405180910390fd5b60016005811115610c4c57610c4b612490565b5b8160060160009054906101000a900460ff166005811115610c7057610c6f612490565b5b14610cb0576040517f08c379a0000000000000000000000000000000000000000000000000000000008152600401610ca790612c14565b60405180910390fd5b60008160020154905060008111610cfc576040517f08c379a0000000000000000000000000000000000000000000000000000000008152600401610cf390612c80565b60405180910390fd5b60028260060160006101000a81548160ff02191690836005811115610d2457610d23612490565b5b021790555060003373ffffffffffffffffffffffffffffffffffffffff1682604051610d4f906126a3565b60006040518083038185875af1925050503d8060008114610d8c576040519150601f19603f3d011682016040523d82523d6000602084013e610d91565b606091505b5050905080610dd5576040517f08c379a0000000000000000000000000000000000000000000000000000000008152600401610dcc90612cec565b60405180910390fd5b837f69ce060f535737417b4a4ebb86ae7a865885c5c1e8106f7ed0b8bd9c52641bc683604051610e05919061233e565b60405180910390a25050506001808190555050565b6000600280549050905090565b600060028381548110610e3d57610e3c612724565b5b90600052602060002090600b020190508060090160009054906101000a900473ffffffffffffffffffffffffffffffffffffffff1673ffffffffffffffffffffffffffffffffffffffff163373ffffffffffffffffffffffffffffffffffffffff1614610edf576040517f08c379a0000000000000000000000000000000000000000000000000000000008152600401610ed690612d58565b60405180910390fd5b60036005811115610ef357610ef2612490565b5b8160060160009054906101000a900460ff166005811115610f1757610f16612490565b5b1480610f58575060046005811115610f3257610f31612490565b5b8160060160009054906101000a900460ff166005811115610f5657610f55612490565b5b145b610f97576040517f08c379a0000000000000000000000000000000000000000000000000000000008152600401610f8e90612dc4565b60405180910390fd5b60018260ff1610158015610faf575060058260ff1611155b610fee576040517f08c379a0000000000000000000000000000000000000000000000000000000008152600401610fe590612e30565b60405180910390fd5b60008160090160149054906101000a900460ff1660ff1614611045576040517f08c379a000000000000000000000000000000000000000000000000000000000815260040161103c90612e9c565b60405180910390fd5b818160090160146101000a81548160ff021916908360ff1602179055503373ffffffffffffffffffffffffffffffffffffffff16837f7514ebcac1feb55cc5d1869533571ccd5971af19a7428bb57c1f780879eec3d9846040516110a99190612ebc565b60405180910390a3505050565b60028054905081106110fd576040517f08c379a00000000000000000000000000000000000000000000000000000000081526004016110f490612958565b60405180910390fd5b60006002828154811061111357611112612724565b5b90600052602060002090600b020190506002600581111561113757611136612490565b5b8160060160009054906101000a900460ff16600581111561115b5761115a612490565b5b14801561117a5750806004015481600701546111779190612782565b42115b801561118a5750600081600a0154145b156111fe5760048160060160006101000a81548160ff021916908360058111156111b7576111b6612490565b5b02179055504281600a0181905550817f84908fca714735411d4553ddd185a4d6fdc25fda2d15662153ef18a8ad6099b4426040516111f5919061233e565b60405180910390a25b5050565b6002805490508110611249576040517f08c379a000000000000000000000000000000000000000000000000000000000815260040161124090612958565b60405180910390fd5b60006002828154811061125f5761125e612724565b5b90600052602060002090600b020190506000600581111561128357611282612490565b5b8160060160009054906101000a900460ff1660058111156112a7576112a6612490565b5b146112e7576040517f08c379a00000000000000000000000000000000000000000000000000000000081526004016112de90612f23565b60405180910390fd5b806005015442111561132e576040517f08c379a000000000000000000000000000000000000000000000000000000000815260040161132590612f8f565b60405180910390fd5b80600101543414611374576040517f08c379a000000000000000000000000000000000000000000000000000000000815260040161136b90612ffb565b60405180910390fd5b600073ffffffffffffffffffffffffffffffffffffffff168160090160009054906101000a900473ffffffffffffffffffffffffffffffffffffffff1673ffffffffffffffffffffffffffffffffffffffff1614611407576040517f08c379a00000000000000000000000000000000000000000000000000000000081526004016113fe90613067565b60405180910390fd5b348160020181905550338160090160006101000a81548173ffffffffffffffffffffffffffffffffffffffff021916908373ffffffffffffffffffffffffffffffffffffffff16021790555060018160060160006101000a81548160ff0219169083600581111561147b5761147a612490565b5b02179055504281600701819055503373ffffffffffffffffffffffffffffffffffffffff16827f38c48552690c96ec2872092ac1db6c19fb59f5a8c5b49bbf41ed4886d0ca6926346040516114d0919061233e565b60405180910390a35050565b60008054906101000a900473ffffffffffffffffffffffffffffffffffffffff1681565b6002805490508110611547576040517f08c379a000000000000000000000000000000000000000000000000000000000815260040161153e90612958565b60405180910390fd5b60006002828154811061155d5761155c612724565b5b90600052602060002090600b020190508060090160009054906101000a900473ffffffffffffffffffffffffffffffffffffffff1673ffffffffffffffffffffffffffffffffffffffff163373ffffffffffffffffffffffffffffffffffffffff16146115ff576040517f08c379a00000000000000000000000000000000000000000000000000000000081526004016115f690612d58565b60405180910390fd5b6002600581111561161357611612612490565b5b8160060160009054906101000a900460ff16600581111561163757611636612490565b5b14611677576040517f08c379a000000000000000000000000000000000000000000000000000000000815260040161166e90612a30565b60405180910390fd5b8060040154816007015461168b9190612782565b42116116cc576040517f08c379a00000000000000000000000000000000000000000000000000000000081526004016116c3906130d3565b60405180910390fd5b600081600a015414611713576040517f08c379a000000000000000000000000000000000000000000000000000000000815260040161170a9061313f565b60405180910390fd5b60048160060160006101000a81548160ff0219169083600581111561173b5761173a612490565b5b02179055504281600a0181905550817f84908fca714735411d4553ddd185a4d6fdc25fda2d15662153ef18a8ad6099b442604051611779919061233e565b60405180910390a25050565b60008085116117c9576040517f08c379a00000000000000000000000000000000000000000000000000000000081526004016117c0906131ab565b60405180910390fd5b42821161180b576040517f08c379a000000000000000000000000000000000000000000000000000000000815260040161180290613217565b60405180910390fd5b60006040518061018001604052803373ffffffffffffffffffffffffffffffffffffffff168152602001878152602001600081526020018681526020018581526020018481526020016000600581111561186857611867612490565b5b81526020016000815260200160008152602001600073ffffffffffffffffffffffffffffffffffffffff168152602001600060ff1681526020016000815250905060028190806001815401808255809150506001900390600052602060002090600b020160009091909190915060008201518160000160006101000a81548173ffffffffffffffffffffffffffffffffffffffff021916908373ffffffffffffffffffffffffffffffffffffffff1602179055506020820151816001015560408201518160020155606082015181600301556080820151816004015560a0820151816005015560c08201518160060160006101000a81548160ff0219169083600581111561197957611978612490565b5b021790555060e0820151816007015561010082015181600801556101208201518160090160006101000a81548173ffffffffffffffffffffffffffffffffffffffff021916908373ffffffffffffffffffffffffffffffffffffffff1602179055506101408201518160090160146101000a81548160ff021916908360ff16021790555061016082015181600a015550506001600280549050611a1c9190612b28565b91503373ffffffffffffffffffffffffffffffffffffffff16827f8910ba13a55695f056e224bbbc6b65d866b12a8c2fbdf387fb853a1cca298cd788604051611a65919061233e565b60405180910390a350949350505050565b6002805490508110611abd576040517f08c379a0000000000000000000000000000000000000000000000000000000008152600401611ab490612958565b60405180910390fd5b600060028281548110611ad357611ad2612724565b5b90600052602060002090600b020190508060000160009054906101000a900473ffffffffffffffffffffffffffffffffffffffff1673ffffffffffffffffffffffffffffffffffffffff163373ffffffffffffffffffffffffffffffffffffffff1614611b75576040517f08c379a0000000000000000000000000000000000000000000000000000000008152600401611b6c906129c4565b60405180910390fd5b60006005811115611b8957611b88612490565b5b8160060160009054906101000a900460ff166005811115611bad57611bac612490565b5b14611bed576040517f08c379a0000000000000000000000000000000000000000000000000000000008152600401611be490613283565b60405180910390fd5b8060050154421115611c34576040517f08c379a0000000000000000000000000000000000000000000000000000000008152600401611c2b906132ef565b60405180910390fd5b600073ffffffffffffffffffffffffffffffffffffffff168160090160009054906101000a900473ffffffffffffffffffffffffffffffffffffffff1673ffffffffffffffffffffffffffffffffffffffff1614611cc7576040517f08c379a0000000000000000000000000000000000000000000000000000000008152600401611cbe90613067565b60405180910390fd5b60058160060160006101000a81548160ff02191690836005811115611cef57611cee612490565b5b02179055503373ffffffffffffffffffffffffffffffffffffffff16827f533b2d8d57dc3b3d1c1bfd952e6355a9b573b6b9cccc5f554157003f733bb51460405160405180910390a35050565b6001805414611d80576040517f08c379a0000000000000000000000000000000000000000000000000000000008152600401611d77906128ec565b60405180910390fd5b6002600181905550600060028281548110611d9e57611d9d612724565b5b90600052602060002090600b020190508060090160009054906101000a900473ffffffffffffffffffffffffffffffffffffffff1673ffffffffffffffffffffffffffffffffffffffff163373ffffffffffffffffffffffffffffffffffffffff1614611e40576040517f08c379a0000000000000000000000000000000000000000000000000000000008152600401611e3790612d58565b60405180910390fd5b60006003600084815260200190815260200160002054905060008111611e9b576040517f08c379a0000000000000000000000000000000000000000000000000000000008152600401611e9290612c80565b60405180910390fd5b6000600360008581526020019081526020016000208190555060003373ffffffffffffffffffffffffffffffffffffffff1682604051611eda906126a3565b60006040518083038185875af1925050503d8060008114611f17576040519150601f19603f3d011682016040523d82523d6000602084013e611f1c565b606091505b5050905080611f60576040517f08c379a0000000000000000000000000000000000000000000000000000000008152600401611f5790612cec565b60405180910390fd5b3373ffffffffffffffffffffffffffffffffffffffff16847f0afeafe87af56d204cca28eefeec305c8d8bcb1907103f969f87e9a978745c2984604051611fa7919061233e565b60405180910390a35050506001808190555050565b60036020528060005260406000206000915090505481565b60028181548110611fe457600080fd5b90600052602060002090600b02016000915090508060000160009054906101000a900473ffffffffffffffffffffffffffffffffffffffff16908060010154908060020154908060030154908060040154908060050154908060060160009054906101000a900460ff16908060070154908060080154908060090160009054906101000a900473ffffffffffffffffffffffffffffffffffffffff16908060090160149054906101000a900460ff169080600a015490508c565b600060028054905082106120e7576040517f08c379a00000000000000000000000000000000000000000000000000000000081526004016120de90612958565b60405180910390fd5b6000600283815481106120fd576120fc612724565b5b90600052602060002090600b020190506004600581111561212157612120612490565b5b8160060160009054906101000a900460ff16600581111561214557612144612490565b5b14806121a45750600260058111156121605761215f612490565b5b8160060160009054906101000a900460ff16600581111561218457612183612490565b5b1480156121a35750806004015481600701546121a09190612782565b42115b5b915050919050565b600082825260208201905092915050565b7f7573652066756e644c6f616e286c6f616e496429000000000000000000000000600082015250565b60006121f36014836121ac565b91506121fe826121bd565b602082019050919050565b60006020820190508181036000830152612222816121e6565b9050919050565b600080fd5b600073ffffffffffffffffffffffffffffffffffffffff82169050919050565b60006122598261222e565b9050919050565b6122698161224e565b811461227457600080fd5b50565b60008135905061228681612260565b92915050565b6000819050919050565b61229f8161228c565b81146122aa57600080fd5b50565b6000813590506122bc81612296565b92915050565b600080604083850312156122d9576122d8612229565b5b60006122e785828601612277565b92505060206122f8858286016122ad565b9150509250929050565b60006020828403121561231857612317612229565b5b600061232684828501612277565b91505092915050565b6123388161228c565b82525050565b6000602082019050612353600083018461232f565b92915050565b60006020828403121561236f5761236e612229565b5b600061237d848285016122ad565b91505092915050565b600060ff82169050919050565b61239c81612386565b81146123a757600080fd5b50565b6000813590506123b981612393565b92915050565b600080604083850312156123d6576123d5612229565b5b60006123e4858286016122ad565b92505060206123f5858286016123aa565b9150509250929050565b6124088161224e565b82525050565b600060208201905061242360008301846123ff565b92915050565b6000806000806080858703121561244357612442612229565b5b6000612451878288016122ad565b9450506020612462878288016122ad565b9350506040612473878288016122ad565b9250506060612484878288016122ad565b91505092959194509250565b7f4e487b7100000000000000000000000000000000000000000000000000000000600052602160045260246000fd5b600681106124d0576124cf612490565b5b50565b60008190506124e1826124bf565b919050565b60006124f1826124d3565b9050919050565b612501816124e6565b82525050565b61251081612386565b82525050565b60006101808201905061252c600083018f6123ff565b612539602083018e61232f565b612546604083018d61232f565b612553606083018c61232f565b612560608083018b61232f565b61256d60a083018a61232f565b61257a60c08301896124f8565b61258760e083018861232f565b61259561010083018761232f565b6125a36101208301866123ff565b6125b1610140830185612507565b6125bf61016083018461232f565b9d9c50505050505050505050505050565b60008115159050919050565b6125e5816125d0565b82525050565b600060208201905061260060008301846125dc565b92915050565b7f6f6e6c79206f776e657200000000000000000000000000000000000000000000600082015250565b600061263c600a836121ac565b915061264782612606565b602082019050919050565b6000602082019050818103600083015261266b8161262f565b9050919050565b600081905092915050565b50565b600061268d600083612672565b91506126988261267d565b600082019050919050565b60006126ae82612680565b9150819050919050565b7f726573637565206661696c656400000000000000000000000000000000000000600082015250565b60006126ee600d836121ac565b91506126f9826126b8565b602082019050919050565b6000602082019050818103600083015261271d816126e1565b9050919050565b7f4e487b7100000000000000000000000000000000000000000000000000000000600052603260045260246000fd5b7f4e487b7100000000000000000000000000000000000000000000000000000000600052601160045260246000fd5b600061278d8261228c565b91506127988361228c565b92508282019050808211156127b0576127af612753565b5b92915050565b60006127c18261228c565b91507fffffffffffffffffffffffffffffffffffffffffffffffffffffffffffffffff82036127f3576127f2612753565b5b600182019050919050565b60006128098261228c565b91506128148361228c565b92508282026128228161228c565b9150828204841483151761283957612838612753565b5b5092915050565b7f4e487b7100000000000000000000000000000000000000000000000000000000600052601260045260246000fd5b600061287a8261228c565b91506128858361228c565b92508261289557612894612840565b5b828204905092915050565b7f5265656e7472616e637947756172643a207265656e7472616e742063616c6c00600082015250565b60006128d6601f836121ac565b91506128e1826128a0565b602082019050919050565b60006020820190508181036000830152612905816128c9565b9050919050565b7f696e76616c6964206c6f616e0000000000000000000000000000000000000000600082015250565b6000612942600c836121ac565b915061294d8261290c565b602082019050919050565b6000602082019050818103600083015261297181612935565b9050919050565b7f6f6e6c7920626f72726f77657200000000000000000000000000000000000000600082015250565b60006129ae600d836121ac565b91506129b982612978565b602082019050919050565b600060208201905081810360008301526129dd816129a1565b9050919050565b7f6e6f742061637469766500000000000000000000000000000000000000000000600082015250565b6000612a1a600a836121ac565b9150612a25826129e4565b602082019050919050565b60006020820190508181036000830152612a4981612a0d565b9050919050565b7f6c6f616e2069732064656661756c746564000000000000000000000000000000600082015250565b6000612a866011836121ac565b9150612a9182612a50565b602082019050919050565b60006020820190508181036000830152612ab581612a79565b9050919050565b7f6e6f7420656e6f75676800000000000000000000000000000000000000000000600082015250565b6000612af2600a836121ac565b9150612afd82612abc565b602082019050919050565b60006020820190508181036000830152612b2181612ae5565b9050919050565b6000612b338261228c565b9150612b3e8361228c565b9250828203905081811115612b5657612b55612753565b5b92915050565b7f726566756e64206661696c656400000000000000000000000000000000000000600082015250565b6000612b92600d836121ac565b9150612b9d82612b5c565b602082019050919050565b60006020820190508181036000830152612bc181612b85565b9050919050565b7f6e6f742066756e64656400000000000000000000000000000000000000000000600082015250565b6000612bfe600a836121ac565b9150612c0982612bc8565b602082019050919050565b60006020820190508181036000830152612c2d81612bf1565b9050919050565b7f6e6f7468696e6700000000000000000000000000000000000000000000000000600082015250565b6000612c6a6007836121ac565b9150612c7582612c34565b602082019050919050565b60006020820190508181036000830152612c9981612c5d565b9050919050565b7f7472616e73666572206661696c65640000000000000000000000000000000000600082015250565b6000612cd6600f836121ac565b9150612ce182612ca0565b602082019050919050565b60006020820190508181036000830152612d0581612cc9565b9050919050565b7f6f6e6c7920696e766573746f7200000000000000000000000000000000000000600082015250565b6000612d42600d836121ac565b9150612d4d82612d0c565b602082019050919050565b60006020820190508181036000830152612d7181612d35565b9050919050565b7f6c6f616e206e6f742066696e6973686564000000000000000000000000000000600082015250565b6000612dae6011836121ac565b9150612db982612d78565b602082019050919050565b60006020820190508181036000830152612ddd81612da1565b9050919050565b7f73636f726520312d350000000000000000000000000000000000000000000000600082015250565b6000612e1a6009836121ac565b9150612e2582612de4565b602082019050919050565b60006020820190508181036000830152612e4981612e0d565b9050919050565b7f616c7265616479206c6566742073636f72650000000000000000000000000000600082015250565b6000612e866012836121ac565b9150612e9182612e50565b602082019050919050565b60006020820190508181036000830152612eb581612e79565b9050919050565b6000602082019050612ed16000830184612507565b92915050565b7f6e6f74206f70656e000000000000000000000000000000000000000000000000600082015250565b6000612f0d6008836121ac565b9150612f1882612ed7565b602082019050919050565b60006020820190508181036000830152612f3c81612f00565b9050919050565b7f66756e64696e6720636c6f736564000000000000000000000000000000000000600082015250565b6000612f79600e836121ac565b9150612f8482612f43565b602082019050919050565b60006020820190508181036000830152612fa881612f6c565b9050919050565b7f6d7573742066756e642066756c6c20616d6f756e740000000000000000000000600082015250565b6000612fe56015836121ac565b9150612ff082612faf565b602082019050919050565b6000602082019050818103600083015261301481612fd8565b9050919050565b7f616c72656164792066756e646564000000000000000000000000000000000000600082015250565b6000613051600e836121ac565b915061305c8261301b565b602082019050919050565b6000602082019050818103600083015261308081613044565b9050919050565b7f6e6f742079657420647565000000000000000000000000000000000000000000600082015250565b60006130bd600b836121ac565b91506130c882613087565b602082019050919050565b600060208201905081810360008301526130ec816130b0565b9050919050565b7f616c72656164792064656661756c746564000000000000000000000000000000600082015250565b60006131296011836121ac565b9150613134826130f3565b602082019050919050565b600060208201905081810360008301526131588161311c565b9050919050565b7f616d6f756e743e30000000000000000000000000000000000000000000000000600082015250565b60006131956008836121ac565b91506131a08261315f565b602082019050919050565b600060208201905081810360008301526131c481613188565b9050919050565b7f646561646c696e65206675747572650000000000000000000000000000000000600082015250565b6000613201600f836121ac565b915061320c826131cb565b602082019050919050565b60006020820190508181036000830152613230816131f4565b9050919050565b7f6f6e6c79206f70656e206c6f616e732063616e2062652063616e63656c6c6564600082015250565b600061326d6020836121ac565b915061327882613237565b602082019050919050565b6000602082019050818103600083015261329c81613260565b9050919050565b7f66756e64696e6720706572696f6420656e646564000000000000000000000000600082015250565b60006132d96014836121ac565b91506132e4826132a3565b602082019050919050565b60006020820190508181036000830152613308816132cc565b905091905056fea26469706673582212202466fe9ea67bd82f5a2201b764d802a57154556a1a52e043f896b375dba691e464736f6c63430008130033",
  "linkReferences": {},
  "deployedLinkReferences": {}
}