{
  "_format": "hh-sol-artifact-1",
  "contractName": "LoanMarket",
  "sourceName": "contracts/Loan.sol",
  "abi": [
    {
      "inputs": [],
      "stateMutability": "nonpayable",
      "type": "constructor"
    },
    {
      "anonymous": false,
      "inputs": [
        {
          "indexed": true,
          "internalType": "uint256",
          "name": "loanId",
          "type": "uint256"
        },
        {
          "indexed": false,
          "internalType": "uint256",
          "name": "defaultTimestamp",
          "type": "uint256"
        }
      ],
      "name": "Defaulted",
      "type": "event"
    },
    {
      "anonymous": false,
      "inputs": [
        {
          "indexed": true,
          "internalType": "uint256",
          "name": "loanId",
          "type": "uint256"
        },
        {
          "indexed": true,
          "internalType": "address",
          "name": "investor",
          "type": "address"
        },
        {
          "indexed": false,
          "internalType": "uint256",
          "name": "amount",
          "type": "uint256"
        }
      ],
      "name": "Funded",
      "type": "event"
    },
    {
      "anonymous": false,
      "inputs": [
        {
          "indexed": true,
          "internalType": "uint256",
          "name": "loanId",
          "type": "uint256"
        },
        {
          "indexed": true,
          "internalType": "address",
          "name": "investor",
          "type": "address"
        },
        {
          "indexed": false,
          "internalType": "uint256",
          "name": "amount",
          "type": "uint256"
        }
      ],
      "name": "InvestorWithdraw",
      "type": "event"
    },
    {
      "anonymous": false,
      "inputs": [
        {
          "indexed": true,
          "internalType": "uint256",
          "name": "loanId",
          "type": "uint256"
        },
        {
          "indexed": true,
          "internalType": "address",
          "name": "borrower",
          "type": "address"
        }
      ],
      "name": "LoanCancelled",
      "type": "event"
    },
    {
      "anonymous": false,
      "inputs": [
        {
          "indexed": true,
          "internalType": "uint256",
          "name": "loanId",
          "type": "uint256"
        },
        {
          "indexed": true,
          "internalType": "address",
          "name": "borrower",
          "type": "address"
        },
        {
          "indexed": false,
          "internalType": "uint256",
          "name": "amountRequested",
          "type": "uint256"
        }
      ],
      "name": "LoanCreated",
      "type": "event"
    },
    {
      "anonymous": false,
      "inputs": [
        {
          "indexed": true,
          "internalType": "uint256",
          "name": "loanId",
          "type": "uint256"
        },
        {
          "indexed": false,
          "internalType": "uint256",
          "name": "amount",
          "type": "uint256"
        }
      ],
      "name": "RepaymentMade",
      "type": "event"
    },
    {
      "anonymous": false,
      "inputs": [
        {
          "indexed": true,
          "internalType": "uint256",
          "name": "loanId",
          "type": "uint256"
        },
        {
          "indexed": true,
          "internalType": "address",
          "name": "investor",
          "type": "address"
        },
        {
          "indexed": false,
          "internalType": "uint8",
          "name": "score",
          "type": "uint8"
        }
      ],
      "name": "ScoreLeft",
      "type": "event"
    },
    {
      "anonymous": false,
      "inputs": [
        {
          "indexed": true,
          "internalType": "uint256",
          "name": "loanId",
          "type": "uint256"
        },
        {
          "indexed": false,
          "internalType": "uint256",
          "name": "amount",
          "type": "uint256"
        }
      ],
      "name": "WithdrawnByBorrower",
      "type": "event"
    },
    {
      "inputs": [
        {
          "internalType": "address",
          "name": "borrower",
          "type": "address"
        }
      ],
      "name": "averageScoreOfBorrower",
      "outputs": [
        {
          "internalType": "uint256",
          "name": "avgTimes100",
          "type": "uint256"
        }
      ],
      "stateMutability": "view",
      "type": "function"
    },
    {
      "inputs": [
        {
          "internalType": "uint256",
          "name": "loanId",
          "type": "uint256"
        }
      ],
      "name": "cancelLoan",
      "outputs": [],
      "stateMutability": "nonpayable",
      "type": "function"
    },
    {
      "inputs": [
        {
          "internalType": "uint256",
          "name": "loanId",
          "type": "uint256"
        }
      ],
      "name": "checkDefault",
      "outputs": [],
      "stateMutability": "nonpayable",
      "type": "function"
    },
    {
      "inputs": [
        {
          "internalType": "uint256",
          "name": "amountRequested",
          "type": "uint256"
        },
        {
          "internalType": "uint256",
          "name": "interestBps",
          "type": "uint256"
        },
        {
          "internalType": "uint256",
          "name": "durationSecs",
          "type": "uint256"
        },
        {
          "internalType": "uint256",
          "name": "fundingDeadline",
          "type": "uint256"
        }
      ],
      "name": "createLoan",
      "outputs": [
        {
          "internalType": "uint256",
          "name": "loanId",
          "type": "uint256"
        }
      ],
      "stateMutability": "nonpayable",
      "type": "function"
    },
    {
      "inputs": [],
      "name": "feeWallet",
      "outputs": [
        {
          "internalType": "address payable",
          "name": "",
          "type": "address"
        }
      ],
      "stateMutability": "view",
      "type": "function"
    },
    {
      "inputs": [
        {
          "internalType": "uint256",
          "name": "loanId",
          "type": "uint256"
        }
      ],
      "name": "fundLoan",
      "outputs": [],
      "stateMutability": "payable",
      "type": "function"
    },
    {
      "inputs": [],
      "name": "getLoanCount",
      "outputs": [
        {
          "internalType": "uint256",
          "name": "",
          "type": "uint256"
        }
      ],
      "stateMutability": "view",
      "type": "function"
    },
    {
      "inputs": [
        {
          "internalType": "uint256",
          "name": "loanId",
          "type": "uint256"
        }
      ],
      "name": "isLoanDefaulted",
      "outputs": [
        {
          "internalType": "bool",
          "name": "",
          "type": "bool"
        }
      ],
      "stateMutability": "view",
      "type": "function"
    },
    {
      "inputs": [
        {
          "internalType": "uint256",
          "name": "loanId",
          "type": "uint256"
        },
        {
          "internalType": "uint8",
          "name": "score",
          "type": "uint8"
        }
      ],
      "name": "leaveScore",
      "outputs": [],
      "stateMutability": "nonpayable",
      "type": "function"
    },
    {
      "inputs": [
        {
          "internalType": "uint256",
          "name": "",
          "type": "uint256"
        }
      ],
      "name": "loans",
      "outputs": [
        {
          "internalType": "address",
          "name": "borrower",
          "type": "address"
        },
        {
          "internalType": "uint256",
          "name": "amountRequested",
          "type": "uint256"
        },
        {
          "internalType": "uint256",
          "name": "amountFunded",
          "type": "uint256"
        },
        {
          "internalType": "uint256",
          "name": "interestBps",
          "type": "uint256"
        },
        {
          "internalType": "uint256",
          "name": "durationSecs",
          "type": "uint256"
        },
        {
          "internalType": "uint256",
          "name": "fundingDeadline",
          "type": "uint256"
        },
        {
          "internalType": "enum LoanMarket.Status",
          "name": "status",
          "type": "uint8"
        },
        {
          "internalType": "uint256",
          "name": "startTimestamp",
          "type": "uint256"
        },
        {
          "internalType": "uint256",
          "name": "totalRepayment",
          "type": "uint256"
        },
        {
          "internalType": "address",
          "name": "investor",
          "type": "address"
        },
        {
          "internalType": "uint8",
          "name": "score",
          "type": "uint8"
        },
        {
          "internalType": "uint256",
          "name": "defaultTimestamp",
          "type": "uint256"
        }
      ],
      "stateMutability": "view",
      "type": "function"
    },
    {
      "inputs": [
        {
          "internalType": "uint256",
          "name": "loanId",
          "type": "uint256"
        }
      ],
      "name": "markAsDefault",
      "outputs": [],
      "stateMutability": "nonpayable",
      "type": "function"
    },
    {
      "inputs": [],
      "name": "owner",
      "outputs": [
        {
          "internalType": "address",
          "name": "",
          "type": "address"
        }
      ],
      "stateMutability": "view",
      "type": "function"
    },
    {
      "inputs": [
        {
          "internalType": "uint256",
          "name": "loanId",
          "type": "uint256"
        }
      ],
      "name": "repay",
      "outputs": [],
      "stateMutability": "payable",
      "type": "function"
    },
    {
      "inputs": [
        {
          "internalType": "address",
          "name": "to",
          "type": "address"
        },
        {
          "internalType": "uint256",
          "name": "amount",
          "type": "uint256"
        }
      ],
      "name": "rescueETH",
      "outputs": [],
      "stateMutability": "nonpayable",
      "type": "function"
    },
    {
      "inputs": [
        {
          "internalType": "address payable",
          "name": "_feeWallet",
          "type": "address"
        }
      ],
      "name": "setFeeWallet",
      "outputs": [],
      "stateMutability": "nonpayable",
      "type": "function"
    },
    {
      "inputs": [
        {
          "internalType": "uint256",
          "name": "loanId",
          "type": "uint256"
        }
      ],
      "name": "withdrawAsBorrower",
      "outputs": [],
      "stateMutability": "nonpayable",
      "type": "function"
    },
    {
      "inputs": [
        {
          "internalType": "uint256",
          "name": "loanId",
          "type": "uint256"
        }
      ],
      "name": "withdrawInvestorShare",
      "outputs": [],
      "stateMutability": "nonpayable",
      "type": "function"
    },
    {
      "inputs": [
        {
          "internalType": "uint256",
          "name": "",
          "type": "uint256"
        }
      ],
      "name": "withdrawableOf",
      "outputs": [
        {
          "internalType": "uint256",
          "name": "",
          "type": "uint256"
        }
      ],
      "stateMutability": "view",
      "type": "function"
    },
    {
      "stateMutability": "payable",
      "type": "receive"
    }
  ],
  "bytecode": "0x6080604052600160025534801561001557600080fd5b50336000806101000a81548173ffffffffffffffffffffffffffffffffffffffff021916908373ffffffffffffffffffffffffffffffffffffffff160217905550613dc6806100656000396000f3fe60806040526004361061010d5760003560e01c806390d49b9d11610095578063c66afff311610064578063c66afff314610379578063d1fdb3e8146103a2578063e1ec3c68146103df578063e8cbab0914610427578063f25f4b56146104645761014d565b806390d49b9d146102c1578063b59d38d7146102ea578063b9fae65014610313578063bdbfa3de146103505761014d565b806352196812116100dc57806352196812146101fd5780635786276614610228578063759135a114610251578063846b909a1461027a5780638da5cb5b146102965761014d565b8063099a04e51461015257806331798f611461017b578063371fd8e6146101b85780634d8a2e15146101d45761014d565b3661014d576040517f08c379a000000000000000000000000000000000000000000000000000000000815260040161014490612725565b60405180910390fd5b600080fd5b34801561015e57600080fd5b50610179600480360381019061017491906127de565b61048f565b005b34801561018757600080fd5b506101a2600480360381019061019d919061281e565b6105ce565b6040516101af919061285a565b60405180910390f35b6101d260048036038101906101cd9190612875565b61073b565b005b3480156101e057600080fd5b506101fb60048036038101906101f69190612875565b610b5e565b005b34801561020957600080fd5b50610212610e8c565b60405161021f919061285a565b60405180910390f35b34801561023457600080fd5b5061024f600480360381019061024a91906128db565b610e99565b005b34801561025d57600080fd5b5061027860048036038101906102739190612875565b61116f565b005b610294600480360381019061028f9190612875565b6112bb565b005b3480156102a257600080fd5b506102ab611595565b6040516102b8919061292a565b60405180910390f35b3480156102cd57600080fd5b506102e860048036038101906102e39190612983565b6115b9565b005b3480156102f657600080fd5b50610311600480360381019061030c9190612875565b6116fa565b005b34801561031f57600080fd5b5061033a600480360381019061033591906129b0565b61197f565b604051610347919061285a565b60405180910390f35b34801561035c57600080fd5b5061037760048036038101906103729190612875565b611c70565b005b34801561038557600080fd5b506103a0600480360381019061039b9190612875565b611f36565b005b3480156103ae57600080fd5b506103c960048036038101906103c49190612875565b6124b2565b6040516103d6919061285a565b60405180910390f35b3480156103eb57600080fd5b5061040660048036038101906104019190612875565b6124ca565b60405161041e9c9b9a99989796959493929190612a9d565b60405180910390f35b34801561043357600080fd5b5061044e60048036038101906104499190612875565b612594565b60405161045b9190612b72565b60405180910390f35b34801561047057600080fd5b506104796126a2565b6040516104869190612b9c565b60405180910390f35b60008054906101000a900473ffffffffffffffffffffffffffffffffffffffff1673ffffffffffffffffffffffffffffffffffffffff163373ffffffffffffffffffffffffffffffffffffffff161461051d576040517f08c379a000000000000000000000000000000000000000000000000000000000815260040161051490612c29565b60405180910390fd5b60008273ffffffffffffffffffffffffffffffffffffffff168260405161054390612c7a565b60006040518083038185875af1925050503d8060008114610580576040519150601f19603f3d011682016040523d82523d6000602084013e610585565b606091505b50509050806105c9576040517f08c379a00000000000000000000000000000000000000000000000000000000081526004016105c090612cdb565b60405180910390fd5b505050565b600080600090506000805b600380549050811015610705578473ffffffffffffffffffffffffffffffffffffffff166003828154811061061157610610612cfb565b5b90600052602060002090600b020160000160009054906101000a900473ffffffffffffffffffffffffffffffffffffffff1673ffffffffffffffffffffffffffffffffffffffff1614801561069b575060006003828154811061067757610676612cfb565b5b90600052602060002090600b020160090160149054906101000a900460ff1660ff16115b156106f257600381815481106106b4576106b3612cfb565b5b90600052602060002090600b020160090160149054906101000a900460ff1660ff16836106e19190612d59565b925081806106ee90612d8d565b9250505b80806106fd90612d8d565b9150506105d9565b506000810361071957600092505050610736565b806064836107279190612dd5565b6107319190612e46565b925050505b919050565b600160025414610780576040517f08c379a000000000000000000000000000000000000000000000000000000000815260040161077790612ec3565b60405180910390fd5b6002808190555060038054905081106107ce576040517f08c379a00000000000000000000000000000000000000000000000000000000081526004016107c590612f2f565b60405180910390fd5b6000600382815481106107e4576107e3612cfb565b5b90600052602060002090600b020190503373ffffffffffffffffffffffffffffffffffffffff168160000160009054906101000a900473ffffffffffffffffffffffffffffffffffffffff1673ffffffffffffffffffffffffffffffffffffffff1614610886576040517f08c379a000000000000000000000000000000000000000000000000000000000815260040161087d90612f9b565b60405180910390fd5b6002600581111561089a57610899612a17565b5b8160060160009054906101000a900460ff1660058111156108be576108bd612a17565b5b14806108ff5750600460058111156108d9576108d8612a17565b5b8160060160009054906101000a900460ff1660058111156108fd576108fc612a17565b5b145b61093e576040517f08c379a000000000000000000000000000000000000000000000000000000000815260040161093590613007565b60405180910390fd5b6002600581111561095257610951612a17565b5b8160060160009054906101000a900460ff16600581111561097657610975612a17565b5b03610985576109848261116f565b5b60008160010154905060006127108360030154836109a39190612dd5565b6109ad9190612e46565b9050600081836109bd9190612d59565b905080341015610a02576040517f08c379a00000000000000000000000000000000000000000000000000000000081526004016109f990613099565b60405180910390fd5b80846008018190555060038460060160006101000a81548160ff02191690836005811115610a3357610a32612a17565b5b021790555080600460008781526020019081526020016000208190555080341115610b175760008134610a6691906130b9565b905060003373ffffffffffffffffffffffffffffffffffffffff1682604051610a8e90612c7a565b60006040518083038185875af1925050503d8060008114610acb576040519150601f19603f3d011682016040523d82523d6000602084013e610ad0565b606091505b5050905080610b14576040517f08c379a0000000000000000000000000000000000000000000000000000000008152600401610b0b90613139565b60405180910390fd5b50505b847fd3337f372235c0c137836a45251cd21fba324e7ef27c7acc5ac12451491793b982604051610b47919061285a565b60405180910390a250505050600160028190555050565b600160025414610ba3576040517f08c379a0000000000000000000000000000000000000000000000000000000008152600401610b9a90612ec3565b60405180910390fd5b600280819055506003805490508110610bf1576040517f08c379a0000000000000000000000000000000000000000000000000000000008152600401610be890612f2f565b60405180910390fd5b600060038281548110610c0757610c06612cfb565b5b90600052602060002090600b020190503373ffffffffffffffffffffffffffffffffffffffff168160000160009054906101000a900473ffffffffffffffffffffffffffffffffffffffff1673ffffffffffffffffffffffffffffffffffffffff1614610ca9576040517f08c379a0000000000000000000000000000000000000000000000000000000008152600401610ca0906131a5565b60405180910390fd5b60016005811115610cbd57610cbc612a17565b5b8160060160009054906101000a900460ff166005811115610ce157610ce0612a17565b5b14610d21576040517f08c379a0000000000000000000000000000000000000000000000000000000008152600401610d1890613211565b60405180910390fd5b60008160020154905060008111610d6d576040517f08c379a0000000000000000000000000000000000000000000000000000000008152600401610d649061327d565b60405180910390fd5b60028260060160006101000a81548160ff02191690836005811115610d9557610d94612a17565b5b021790555060003373ffffffffffffffffffffffffffffffffffffffff1682604051610dc090612c7a565b60006040518083038185875af1925050503d8060008114610dfd576040519150601f19603f3d011682016040523d82523d6000602084013e610e02565b606091505b5050905080610e46576040517f08c379a0000000000000000000000000000000000000000000000000000000008152600401610e3d906132e9565b60405180910390fd5b837f69ce060f535737417b4a4ebb86ae7a865885c5c1e8106f7ed0b8bd9c52641bc683604051610e76919061285a565b60405180910390a2505050600160028190555050565b6000600380549050905090565b6003805490508210610ee0576040517f08c379a0000000000000000000000000000000000000000000000000000000008152600401610ed790612f2f565b60405180910390fd5b600060038381548110610ef657610ef5612cfb565b5b90600052602060002090600b020190508060090160009054906101000a900473ffffffffffffffffffffffffffffffffffffffff1673ffffffffffffffffffffffffffffffffffffffff163373ffffffffffffffffffffffffffffffffffffffff1614610f98576040517f08c379a0000000000000000000000000000000000000000000000000000000008152600401610f8f9061337b565b60405180910390fd5b60036005811115610fac57610fab612a17565b5b8160060160009054906101000a900460ff166005811115610fd057610fcf612a17565b5b1480611011575060046005811115610feb57610fea612a17565b5b8160060160009054906101000a900460ff16600581111561100f5761100e612a17565b5b145b611050576040517f08c379a0000000000000000000000000000000000000000000000000000000008152600401611047906133e7565b60405180910390fd5b60018260ff1610158015611068575060058260ff1611155b6110a7576040517f08c379a000000000000000000000000000000000000000000000000000000000815260040161109e90613453565b60405180910390fd5b60008160090160149054906101000a900460ff1660ff16146110fe576040517f08c379a00000000000000000000000000000000000000000000000000000000081526004016110f5906134bf565b60405180910390fd5b818160090160146101000a81548160ff021916908360ff1602179055503373ffffffffffffffffffffffffffffffffffffffff16837f7514ebcac1feb55cc5d1869533571ccd5971af19a7428bb57c1f780879eec3d98460405161116291906134df565b60405180910390a3505050565b60038054905081106111b6576040517f08c379a00000000000000000000000000000000000000000000000000000000081526004016111ad90612f2f565b60405180910390fd5b6000600382815481106111cc576111cb612cfb565b5b90600052602060002090600b02019050600260058111156111f0576111ef612a17565b5b8160060160009054906101000a900460ff16600581111561121457611213612a17565b5b1480156112335750806004015481600701546112309190612d59565b42115b80156112435750600081600a0154145b156112b75760048160060160006101000a81548160ff021916908360058111156112705761126f612a17565b5b02179055504281600a0181905550817f84908fca714735411d4553ddd185a4d6fdc25fda2d15662153ef18a8ad6099b4426040516112ae919061285a565b60405180910390a25b5050565b6003805490508110611302576040517f08c379a00000000000000000000000000000000000000000000000000000000081526004016112f990612f2f565b60405180910390fd5b60006003828154811061131857611317612cfb565b5b90600052602060002090600b020190506000600581111561133c5761133b612a17565b5b8160060160009054906101000a900460ff1660058111156113605761135f612a17565b5b146113a0576040517f08c379a000000000000000000000000000000000000000000000000000000000815260040161139790613546565b60405180910390fd5b80600501544211156113e7576040517f08c379a00000000000000000000000000000000000000000000000000000000081526004016113de906135b2565b60405180910390fd5b8060010154341461142d576040517f08c379a00000000000000000000000000000000000000000000000000000000081526004016114249061361e565b60405180910390fd5b600073ffffffffffffffffffffffffffffffffffffffff168160090160009054906101000a900473ffffffffffffffffffffffffffffffffffffffff1673ffffffffffffffffffffffffffffffffffffffff16146114c0576040517f08c379a00000000000000000000000000000000000000000000000000000000081526004016114b79061368a565b60405180910390fd5b348160020181905550338160090160006101000a81548173ffffffffffffffffffffffffffffffffffffffff021916908373ffffffffffffffffffffffffffffffffffffffff16021790555060018160060160006101000a81548160ff0219169083600581111561153457611533612a17565b5b02179055504281600701819055503373ffffffffffffffffffffffffffffffffffffffff16827f38c48552690c96ec2872092ac1db6c19fb59f5a8c5b49bbf41ed4886d0ca692634604051611589919061285a565b60405180910390a35050565b60008054906101000a900473ffffffffffffffffffffffffffffffffffffffff1681565b60008054906101000a900473ffffffffffffffffffffffffffffffffffffffff1673ffffffffffffffffffffffffffffffffffffffff163373ffffffffffffffffffffffffffffffffffffffff1614611647576040517f08c379a000000000000000000000000000000000000000000000000000000000815260040161163e90612c29565b60405180910390fd5b600073ffffffffffffffffffffffffffffffffffffffff168173ffffffffffffffffffffffffffffffffffffffff16036116b6576040517f08c379a00000000000000000000000000000000000000000000000000000000081526004016116ad906136f6565b60405180910390fd5b80600160006101000a81548173ffffffffffffffffffffffffffffffffffffffff021916908373ffffffffffffffffffffffffffffffffffffffff16021790555050565b6003805490508110611741576040517f08c379a000000000000000000000000000000000000000000000000000000000815260040161173890612f2f565b60405180910390fd5b60006003828154811061175757611756612cfb565b5b90600052602060002090600b020190508060090160009054906101000a900473ffffffffffffffffffffffffffffffffffffffff1673ffffffffffffffffffffffffffffffffffffffff163373ffffffffffffffffffffffffffffffffffffffff16146117f9576040517f08c379a00000000000000000000000000000000000000000000000000000000081526004016117f090613788565b60405180910390fd5b6002600581111561180d5761180c612a17565b5b8160060160009054906101000a900460ff16600581111561183157611830612a17565b5b14611871576040517f08c379a0000000000000000000000000000000000000000000000000000000008152600401611868906137f4565b60405180910390fd5b806004015481600701546118859190612d59565b42116118c6576040517f08c379a00000000000000000000000000000000000000000000000000000000081526004016118bd90613860565b60405180910390fd5b600081600a01541461190d576040517f08c379a0000000000000000000000000000000000000000000000000000000008152600401611904906138cc565b60405180910390fd5b60048160060160006101000a81548160ff0219169083600581111561193557611934612a17565b5b02179055504281600a0181905550817f84908fca714735411d4553ddd185a4d6fdc25fda2d15662153ef18a8ad6099b442604051611973919061285a565b60405180910390a25050565b60008085116119c3576040517f08c379a00000000000000000000000000000000000000000000000000000000081526004016119ba90613938565b60405180910390fd5b428211611a05576040517f08c379a00000000000000000000000000000000000000000000000000000000081526004016119fc906139a4565b60405180910390fd5b60006040518061018001604052803373ffffffffffffffffffffffffffffffffffffffff1681526020018781526020016000815260200186815260200185815260200184815260200160006005811115611a6257611a61612a17565b5b81526020016000815260200160008152602001600073ffffffffffffffffffffffffffffffffffffffff168152602001600060ff1681526020016000815250905060038190806001815401808255809150506001900390600052602060002090600b020160009091909190915060008201518160000160006101000a81548173ffffffffffffffffffffffffffffffffffffffff021916908373ffffffffffffffffffffffffffffffffffffffff1602179055506020820151816001015560408201518160020155606082015181600301556080820151816004015560a0820151816005015560c08201518160060160006101000a81548160ff02191690836005811115611b7357611b72612a17565b5b021790555060e0820151816007015561010082015181600801556101208201518160090160006101000a81548173ffffffffffffffffffffffffffffffffffffffff021916908373ffffffffffffffffffffffffffffffffffffffff1602179055506101408201518160090160146101000a81548160ff021916908360ff16021790555061016082015181600a015550506001600380549050611c1691906130b9565b91503373ffffffffffffffffffffffffffffffffffffffff16827f8910ba13a55695f056e224bbbc6b65d866b12a8c2fbdf387fb853a1cca298cd788604051611c5f919061285a565b60405180910390a350949350505050565b6003805490508110611cb7576040517f08c379a0000000000000000000000000000000000000000000000000000000008152600401611cae90612f2f565b60405180910390fd5b600060038281548110611ccd57611ccc612cfb565b5b90600052602060002090600b020190508060000160009054906101000a900473ffffffffffffffffffffffffffffffffffffffff1673ffffffffffffffffffffffffffffffffffffffff163373ffffffffffffffffffffffffffffffffffffffff1614611d6f576040517f08c379a0000000000000000000000000000000000000000000000000000000008152600401611d6690613a10565b60405180910390fd5b60006005811115611d8357611d82612a17565b5b8160060160009054906101000a900460ff166005811115611da757611da6612a17565b5b14611de7576040517f08c379a0000000000000000000000000000000000000000000000000000000008152600401611dde90613a7c565b60405180910390fd5b8060050154421115611e2e576040517f08c379a0000000000000000000000000000000000000000000000000000000008152600401611e2590613ae8565b60405180910390fd5b600073ffffffffffffffffffffffffffffffffffffffff168160090160009054906101000a900473ffffffffffffffffffffffffffffffffffffffff1673ffffffffffffffffffffffffffffffffffffffff1614611ec1576040517f08c379a0000000000000000000000000000000000000000000000000000000008152600401611eb890613b54565b60405180910390fd5b60058160060160006101000a81548160ff02191690836005811115611ee957611ee8612a17565b5b02179055503373ffffffffffffffffffffffffffffffffffffffff16827f533b2d8d57dc3b3d1c1bfd952e6355a9b573b6b9cccc5f554157003f733bb51460405160405180910390a35050565b600160025414611f7b576040517f08c379a0000000000000000000000000000000000000000000000000000000008152600401611f7290612ec3565b60405180910390fd5b600280819055506003805490508110611fc9576040517f08c379a0000000000000000000000000000000000000000000000000000000008152600401611fc090612f2f565b60405180910390fd5b600060038281548110611fdf57611fde612cfb565b5b90600052602060002090600b020190508060090160009054906101000a900473ffffffffffffffffffffffffffffffffffffffff1673ffffffffffffffffffffffffffffffffffffffff163373ffffffffffffffffffffffffffffffffffffffff1614612081576040517f08c379a000000000000000000000000000000000000000000000000000000000815260040161207890613bc0565b60405180910390fd5b600073ffffffffffffffffffffffffffffffffffffffff16600160009054906101000a900473ffffffffffffffffffffffffffffffffffffffff1673ffffffffffffffffffffffffffffffffffffffff1603612112576040517f08c379a000000000000000000000000000000000000000000000000000000000815260040161210990613c2c565b60405180910390fd5b6000600460008481526020019081526020016000205490506000811161216d576040517f08c379a000000000000000000000000000000000000000000000000000000000815260040161216490613c98565b60405180910390fd5b60008260010154905060006004600086815260200190815260200160002081905550808211156123a757600081836121a591906130b9565b905060006064600a836121b89190612dd5565b6121c29190612e46565b9050600081856121d291906130b9565b90506000600160009054906101000a900473ffffffffffffffffffffffffffffffffffffffff1673ffffffffffffffffffffffffffffffffffffffff168360405161221c90612c7a565b60006040518083038185875af1925050503d8060008114612259576040519150601f19603f3d011682016040523d82523d6000602084013e61225e565b606091505b50509050806122a2576040517f08c379a000000000000000000000000000000000000000000000000000000000815260040161229990613d04565b60405180910390fd5b60003373ffffffffffffffffffffffffffffffffffffffff16836040516122c890612c7a565b60006040518083038185875af1925050503d8060008114612305576040519150601f19603f3d011682016040523d82523d6000602084013e61230a565b606091505b505090508061234e576040517f08c379a000000000000000000000000000000000000000000000000000000000815260040161234590613d70565b60405180910390fd5b3373ffffffffffffffffffffffffffffffffffffffff16897f0afeafe87af56d204cca28eefeec305c8d8bcb1907103f969f87e9a978745c2985604051612395919061285a565b60405180910390a350505050506124a4565b60003373ffffffffffffffffffffffffffffffffffffffff16836040516123cd90612c7a565b60006040518083038185875af1925050503d806000811461240a576040519150601f19603f3d011682016040523d82523d6000602084013e61240f565b606091505b5050905080612453576040517f08c379a000000000000000000000000000000000000000000000000000000000815260040161244a90613d70565b60405180910390fd5b3373ffffffffffffffffffffffffffffffffffffffff16857f0afeafe87af56d204cca28eefeec305c8d8bcb1907103f969f87e9a978745c298560405161249a919061285a565b60405180910390a3505b505050600160028190555050565b60046020528060005260406000206000915090505481565b600381815481106124da57600080fd5b90600052602060002090600b02016000915090508060000160009054906101000a900473ffffffffffffffffffffffffffffffffffffffff16908060010154908060020154908060030154908060040154908060050154908060060160009054906101000a900460ff16908060070154908060080154908060090160009054906101000a900473ffffffffffffffffffffffffffffffffffffffff16908060090160149054906101000a900460ff169080600a015490508c565b600060038054905082106125dd576040517f08c379a00000000000000000000000000000000000000000000000000000000081526004016125d490612f2f565b60405180910390fd5b6000600383815481106125f3576125f2612cfb565b5b90600052602060002090600b020190506004600581111561261757612616612a17565b5b8160060160009054906101000a900460ff16600581111561263b5761263a612a17565b5b148061269a57506002600581111561265657612655612a17565b5b8160060160009054906101000a900460ff16600581111561267a57612679612a17565b5b1480156126995750806004015481600701546126969190612d59565b42115b5b915050919050565b600160009054906101000a900473ffffffffffffffffffffffffffffffffffffffff1681565b600082825260208201905092915050565b7f5573652066756e644c6f616e286c6f616e49642920746f2073656e6420455448600082015250565b600061270f6020836126c8565b915061271a826126d9565b602082019050919050565b6000602082019050818103600083015261273e81612702565b9050919050565b600080fd5b600073ffffffffffffffffffffffffffffffffffffffff82169050919050565b60006127758261274a565b9050919050565b6127858161276a565b811461279057600080fd5b50565b6000813590506127a28161277c565b92915050565b6000819050919050565b6127bb816127a8565b81146127c657600080fd5b50565b6000813590506127d8816127b2565b92915050565b600080604083850312156127f5576127f4612745565b5b600061280385828601612793565b9250506020612814858286016127c9565b9150509250929050565b60006020828403121561283457612833612745565b5b600061284284828501612793565b91505092915050565b612854816127a8565b82525050565b600060208201905061286f600083018461284b565b92915050565b60006020828403121561288b5761288a612745565b5b6000612899848285016127c9565b91505092915050565b600060ff82169050919050565b6128b8816128a2565b81146128c357600080fd5b50565b6000813590506128d5816128af565b92915050565b600080604083850312156128f2576128f1612745565b5b6000612900858286016127c9565b9250506020612911858286016128c6565b9150509250929050565b6129248161276a565b82525050565b600060208201905061293f600083018461291b565b92915050565b60006129508261274a565b9050919050565b61296081612945565b811461296b57600080fd5b50565b60008135905061297d81612957565b92915050565b60006020828403121561299957612998612745565b5b60006129a78482850161296e565b91505092915050565b600080600080608085870312156129ca576129c9612745565b5b60006129d8878288016127c9565b94505060206129e9878288016127c9565b93505060406129fa878288016127c9565b9250506060612a0b878288016127c9565b91505092959194509250565b7f4e487b7100000000000000000000000000000000000000000000000000000000600052602160045260246000fd5b60068110612a5757612a56612a17565b5b50565b6000819050612a6882612a46565b919050565b6000612a7882612a5a565b9050919050565b612a8881612a6d565b82525050565b612a97816128a2565b82525050565b600061018082019050612ab3600083018f61291b565b612ac0602083018e61284b565b612acd604083018d61284b565b612ada606083018c61284b565b612ae7608083018b61284b565b612af460a083018a61284b565b612b0160c0830189612a7f565b612b0e60e083018861284b565b612b1c61010083018761284b565b612b2a61012083018661291b565b612b38610140830185612a8e565b612b4661016083018461284b565b9d9c50505050505050505050505050565b60008115159050919050565b612b6c81612b57565b82525050565b6000602082019050612b876000830184612b63565b92915050565b612b9681612945565b82525050565b6000602082019050612bb16000830184612b8d565b92915050565b7f4f6e6c79206f776e65722063616e2063616c6c20746869732066756e6374696f60008201527f6e00000000000000000000000000000000000000000000000000000000000000602082015250565b6000612c136021836126c8565b9150612c1e82612bb7565b604082019050919050565b60006020820190508181036000830152612c4281612c06565b9050919050565b600081905092915050565b50565b6000612c64600083612c49565b9150612c6f82612c54565b600082019050919050565b6000612c8582612c57565b9150819050919050565b7f526573637565206661696c656400000000000000000000000000000000000000600082015250565b6000612cc5600d836126c8565b9150612cd082612c8f565b602082019050919050565b60006020820190508181036000830152612cf481612cb8565b9050919050565b7f4e487b7100000000000000000000000000000000000000000000000000000000600052603260045260246000fd5b7f4e487b7100000000000000000000000000000000000000000000000000000000600052601160045260246000fd5b6000612d64826127a8565b9150612d6f836127a8565b9250828201905080821115612d8757612d86612d2a565b5b92915050565b6000612d98826127a8565b91507fffffffffffffffffffffffffffffffffffffffffffffffffffffffffffffffff8203612dca57612dc9612d2a565b5b600182019050919050565b6000612de0826127a8565b9150612deb836127a8565b9250828202612df9816127a8565b91508282048414831517612e1057612e0f612d2a565b5b5092915050565b7f4e487b7100000000000000000000000000000000000000000000000000000000600052601260045260246000fd5b6000612e51826127a8565b9150612e5c836127a8565b925082612e6c57612e6b612e17565b5b828204905092915050565b7f5265656e7472616e637947756172643a207265656e7472616e742063616c6c00600082015250565b6000612ead601f836126c8565b9150612eb882612e77565b602082019050919050565b60006020820190508181036000830152612edc81612ea0565b9050919050565b7f496e76616c6964206c6f616e2049440000000000000000000000000000000000600082015250565b6000612f19600f836126c8565b9150612f2482612ee3565b602082019050919050565b60006020820190508181036000830152612f4881612f0c565b9050919050565b7f4f6e6c792074686520626f72726f7765722063616e2072657061790000000000600082015250565b6000612f85601b836126c8565b9150612f9082612f4f565b602082019050919050565b60006020820190508181036000830152612fb481612f78565b9050919050565b7f4c6f616e206973206e6f7420696e206120726570617961626c65207374617465600082015250565b6000612ff16020836126c8565b9150612ffc82612fbb565b602082019050919050565b6000602082019050818103600083015261302081612fe4565b9050919050565b7f4e6f7420656e6f756768204554482073656e7420666f722072657061796d656e60008201527f7400000000000000000000000000000000000000000000000000000000000000602082015250565b60006130836021836126c8565b915061308e82613027565b604082019050919050565b600060208201905081810360008301526130b281613076565b9050919050565b60006130c4826127a8565b91506130cf836127a8565b92508282039050818111156130e7576130e6612d2a565b5b92915050565b7f526566756e64206661696c656400000000000000000000000000000000000000600082015250565b6000613123600d836126c8565b915061312e826130ed565b602082019050919050565b6000602082019050818103600083015261315281613116565b9050919050565b7f4f6e6c792074686520626f72726f7765722063616e2077697468647261770000600082015250565b600061318f601e836126c8565b915061319a82613159565b602082019050919050565b600060208201905081810360008301526131be81613182565b9050919050565b7f4c6f616e206973206e6f7420696e2066756e6465642073746174650000000000600082015250565b60006131fb601b836126c8565b9150613206826131c5565b602082019050919050565b6000602082019050818103600083015261322a816131ee565b9050919050565b7f4e6f20616d6f756e7420746f2077697468647261770000000000000000000000600082015250565b60006132676015836126c8565b915061327282613231565b602082019050919050565b600060208201905081810360008301526132968161325a565b9050919050565b7f5472616e73666572206661696c65640000000000000000000000000000000000600082015250565b60006132d3600f836126c8565b91506132de8261329d565b602082019050919050565b60006020820190508181036000830152613302816132c6565b9050919050565b7f4f6e6c792074686520696e766573746f722063616e206c65617665206120736360008201527f6f72650000000000000000000000000000000000000000000000000000000000602082015250565b60006133656023836126c8565b915061337082613309565b604082019050919050565b6000602082019050818103600083015261339481613358565b9050919050565b7f4c6f616e206973206e6f742066696e6973686564000000000000000000000000600082015250565b60006133d16014836126c8565b91506133dc8261339b565b602082019050919050565b60006020820190508181036000830152613400816133c4565b9050919050565b7f53636f7265206d757374206265206265747765656e203120616e642035000000600082015250565b600061343d601d836126c8565b915061344882613407565b602082019050919050565b6000602082019050818103600083015261346c81613430565b9050919050565b7f53636f72652068617320616c7265616479206265656e206c6566740000000000600082015250565b60006134a9601b836126c8565b91506134b482613473565b602082019050919050565b600060208201905081810360008301526134d88161349c565b9050919050565b60006020820190506134f46000830184612a8e565b92915050565b7f4c6f616e206973206e6f74206f70656e20666f722066756e64696e6700000000600082015250565b6000613530601c836126c8565b915061353b826134fa565b602082019050919050565b6000602082019050818103600083015261355f81613523565b9050919050565b7f46756e64696e6720706572696f642068617320636c6f73656400000000000000600082015250565b600061359c6019836126c8565b91506135a782613566565b602082019050919050565b600060208201905081810360008301526135cb8161358f565b9050919050565b7f4d7573742066756e64207468652066756c6c20616d6f756e7400000000000000600082015250565b60006136086019836126c8565b9150613613826135d2565b602082019050919050565b60006020820190508181036000830152613637816135fb565b9050919050565b7f4c6f616e2068617320616c7265616479206265656e2066756e64656400000000600082015250565b6000613674601c836126c8565b915061367f8261363e565b602082019050919050565b600060208201905081810360008301526136a381613667565b9050919050565b7f43616e6e6f74206265207a65726f206164647265737300000000000000000000600082015250565b60006136e06016836126c8565b91506136eb826136aa565b602082019050919050565b6000602082019050818103600083015261370f816136d3565b9050919050565b7f4f6e6c792074686520696e766573746f722063616e206d61726b20617320646560008201527f6661756c74000000000000000000000000000000000000000000000000000000602082015250565b60006137726025836126c8565b915061377d82613716565b604082019050919050565b600060208201905081810360008301526137a181613765565b9050919050565b7f4c6f616e206973206e6f74206163746976650000000000000000000000000000600082015250565b60006137de6012836126c8565b91506137e9826137a8565b602082019050919050565b6000602082019050818103600083015261380d816137d1565b9050919050565b7f4c6f616e206973206e6f74207965742064756500000000000000000000000000600082015250565b600061384a6013836126c8565b915061385582613814565b602082019050919050565b600060208201905081810360008301526138798161383d565b9050919050565b7f4c6f616e20697320616c72656164792064656661756c74656400000000000000600082015250565b60006138b66019836126c8565b91506138c182613880565b602082019050919050565b600060208201905081810360008301526138e5816138a9565b9050919050565b7f416d6f756e74206d7573742062652067726561746572207468616e2030000000600082015250565b6000613922601d836126c8565b915061392d826138ec565b602082019050919050565b6000602082019050818103600083015261395181613915565b9050919050565b7f446561646c696e65206d75737420626520696e20746865206675747572650000600082015250565b600061398e601e836126c8565b915061399982613958565b602082019050919050565b600060208201905081810360008301526139bd81613981565b9050919050565b7f4f6e6c792074686520626f72726f7765722063616e2063616e63656c00000000600082015250565b60006139fa601c836126c8565b9150613a05826139c4565b602082019050919050565b60006020820190508181036000830152613a29816139ed565b9050919050565b7f4f6e6c79206f70656e206c6f616e732063616e2062652063616e63656c6c6564600082015250565b6000613a666020836126c8565b9150613a7182613a30565b602082019050919050565b60006020820190508181036000830152613a9581613a59565b9050919050565b7f46756e64696e6720706572696f642068617320616c726561647920656e646564600082015250565b6000613ad26020836126c8565b9150613add82613a9c565b602082019050919050565b60006020820190508181036000830152613b0181613ac5565b9050919050565b7f43616e6e6f742063616e63656c20612066756e646564206c6f616e0000000000600082015250565b6000613b3e601b836126c8565b9150613b4982613b08565b602082019050919050565b60006020820190508181036000830152613b6d81613b31565b9050919050565b7f4f6e6c792074686520696e766573746f722063616e2077697468647261770000600082015250565b6000613baa601e836126c8565b9150613bb582613b74565b602082019050919050565b60006020820190508181036000830152613bd981613b9d565b9050919050565b7f4665652077616c6c6574206e6f74207365740000000000000000000000000000600082015250565b6000613c166012836126c8565b9150613c2182613be0565b602082019050919050565b60006020820190508181036000830152613c4581613c09565b9050919050565b7f4e6f7468696e6720746f20776974686472617700000000000000000000000000600082015250565b6000613c826013836126c8565b9150613c8d82613c4c565b602082019050919050565b60006020820190508181036000830152613cb181613c75565b9050919050565b7f466565207472616e73666572206661696c656400000000000000000000000000600082015250565b6000613cee6013836126c8565b9150613cf982613cb8565b602082019050919050565b60006020820190508181036000830152613d1d81613ce1565b9050919050565b7f496e766573746f72207368617265207472616e73666572206661696c65640000600082015250565b6000613d5a601e836126c8565b9150613d6582613d24565b602082019050919050565b60006020820190508181036000830152613d8981613d4d565b905091905056fea2646970667358221220e8919ba0ffed156e102d35ce424d53f6ff28615a5212a981ae928233176c4f0964736f6c63430008130033",
  "linkReferences": {},
  "deployedLinkReferences": {}
}