{
  "_format": "hh-sol-artifact-1",
  "contractName": "LoanMarket",
  "sourceName": "contracts/Loan.sol",
  "abi": [
    {
      "inputs": [],
      "stateMutability": "nonpayable",
      "type": "constructor"
    },
    {
      "anonymous": false,
      "inputs": [
        {
          "indexed": true,
          "internalType": "uint256",
          "name": "loanId",
          "type": "uint256"
        },
        {
          "indexed": true,
          "internalType": "address",
          "name": "investor",
          "type": "address"
        },
        {
          "indexed": false,
          "internalType": "uint256",
          "name": "grossAmount",
          "type": "uint256"
        },
        {
          "indexed": false,
          "internalType": "uint256",
          "name": "fee",
          "type": "uint256"
        },
        {
          "indexed": false,
          "internalType": "uint256",
          "name": "netAmount",
          "type": "uint256"
        }
      ],
      "name": "CollateralClaimed",
      "type": "event"
    },
    {
      "anonymous": false,
      "inputs": [
        {
          "indexed": true,
          "internalType": "uint256",
          "name": "loanId",
          "type": "uint256"
        },
        {
          "indexed": true,
          "internalType": "address",
          "name": "borrower",
          "type": "address"
        },
        {
          "indexed": false,
          "internalType": "uint256",
          "name": "amount",
          "type": "uint256"
        }
      ],
      "name": "CollateralWithdrawn",
      "type": "event"
    },
    {
      "anonymous": false,
      "inputs": [
        {
          "indexed": true,
          "internalType": "uint256",
          "name": "loanId",
          "type": "uint256"
        },
        {
          "indexed": false,
          "internalType": "uint256",
          "name": "defaultTimestamp",
          "type": "uint256"
        }
      ],
      "name": "Defaulted",
      "type": "event"
    },
    {
      "anonymous": false,
      "inputs": [
        {
          "indexed": true,
          "internalType": "uint256",
          "name": "loanId",
          "type": "uint256"
        },
        {
          "indexed": true,
          "internalType": "address",
          "name": "investor",
          "type": "address"
        },
        {
          "indexed": false,
          "internalType": "uint256",
          "name": "amount",
          "type": "uint256"
        }
      ],
      "name": "Funded",
      "type": "event"
    },
    {
      "anonymous": false,
      "inputs": [
        {
          "indexed": true,
          "internalType": "uint256",
          "name": "loanId",
          "type": "uint256"
        },
        {
          "indexed": true,
          "internalType": "address",
          "name": "investor",
          "type": "address"
        },
        {
          "indexed": false,
          "internalType": "uint256",
          "name": "amount",
          "type": "uint256"
        }
      ],
      "name": "InvestorWithdraw",
      "type": "event"
    },
    {
      "anonymous": false,
      "inputs": [
        {
          "indexed": true,
          "internalType": "uint256",
          "name": "loanId",
          "type": "uint256"
        },
        {
          "indexed": true,
          "internalType": "address",
          "name": "borrower",
          "type": "address"
        }
      ],
      "name": "LoanCancelled",
      "type": "event"
    },
    {
      "anonymous": false,
      "inputs": [
        {
          "indexed": true,
          "internalType": "uint256",
          "name": "loanId",
          "type": "uint256"
        },
        {
          "indexed": true,
          "internalType": "address",
          "name": "borrower",
          "type": "address"
        },
        {
          "indexed": false,
          "internalType": "uint256",
          "name": "amountRequested",
          "type": "uint256"
        }
      ],
      "name": "LoanCreated",
      "type": "event"
    },
    {
      "anonymous": false,
      "inputs": [
        {
          "indexed": true,
          "internalType": "uint256",
          "name": "loanId",
          "type": "uint256"
        },
        {
          "indexed": false,
          "internalType": "uint256",
          "name": "amount",
          "type": "uint256"
        }
      ],
      "name": "RepaymentMade",
      "type": "event"
    },
    {
      "anonymous": false,
      "inputs": [
        {
          "indexed": true,
          "internalType": "uint256",
          "name": "loanId",
          "type": "uint256"
        },
        {
          "indexed": true,
          "internalType": "address",
          "name": "investor",
          "type": "address"
        },
        {
          "indexed": false,
          "internalType": "uint8",
          "name": "score",
          "type": "uint8"
        }
      ],
      "name": "ScoreLeft",
      "type": "event"
    },
    {
      "anonymous": false,
      "inputs": [
        {
          "indexed": true,
          "internalType": "uint256",
          "name": "loanId",
          "type": "uint256"
        },
        {
          "indexed": false,
          "internalType": "uint256",
          "name": "amount",
          "type": "uint256"
        }
      ],
      "name": "WithdrawnByBorrower",
      "type": "event"
    },
    {
      "inputs": [
        {
          "internalType": "address",
          "name": "borrower",
          "type": "address"
        }
      ],
      "name": "averageScoreOfBorrower",
      "outputs": [
        {
          "internalType": "uint256",
          "name": "avgTimes100",
          "type": "uint256"
        }
      ],
      "stateMutability": "view",
      "type": "function"
    },
    {
      "inputs": [
        {
          "internalType": "uint256",
          "name": "loanId",
          "type": "uint256"
        }
      ],
      "name": "cancelLoan",
      "outputs": [],
      "stateMutability": "nonpayable",
      "type": "function"
    },
    {
      "inputs": [
        {
          "internalType": "uint256",
          "name": "loanId",
          "type": "uint256"
        }
      ],
      "name": "checkDefault",
      "outputs": [],
      "stateMutability": "nonpayable",
      "type": "function"
    },
    {
      "inputs": [
        {
          "internalType": "uint256",
          "name": "loanId",
          "type": "uint256"
        }
      ],
      "name": "claimCollateral",
      "outputs": [],
      "stateMutability": "nonpayable",
      "type": "function"
    },
    {
      "inputs": [
        {
          "internalType": "uint256",
          "name": "amountRequested",
          "type": "uint256"
        },
        {
          "internalType": "uint256",
          "name": "interestBps",
          "type": "uint256"
        },
        {
          "internalType": "uint256",
          "name": "durationSecs",
          "type": "uint256"
        },
        {
          "internalType": "uint256",
          "name": "fundingDeadline",
          "type": "uint256"
        },
        {
          "internalType": "uint256",
          "name": "collateralAmount",
          "type": "uint256"
        }
      ],
      "name": "createLoan",
      "outputs": [
        {
          "internalType": "uint256",
          "name": "loanId",
          "type": "uint256"
        }
      ],
      "stateMutability": "payable",
      "type": "function"
    },
    {
      "inputs": [],
      "name": "feeWallet",
      "outputs": [
        {
          "internalType": "address payable",
          "name": "",
          "type": "address"
        }
      ],
      "stateMutability": "view",
      "type": "function"
    },
    {
      "inputs": [
        {
          "internalType": "uint256",
          "name": "loanId",
          "type": "uint256"
        }
      ],
      "name": "fundLoan",
      "outputs": [],
      "stateMutability": "payable",
      "type": "function"
    },
    {
      "inputs": [],
      "name": "getLoanCount",
      "outputs": [
        {
          "internalType": "uint256",
          "name": "",
          "type": "uint256"
        }
      ],
      "stateMutability": "view",
      "type": "function"
    },
    {
      "inputs": [
        {
          "internalType": "uint256",
          "name": "loanId",
          "type": "uint256"
        },
        {
          "internalType": "uint8",
          "name": "score",
          "type": "uint8"
        }
      ],
      "name": "leaveScore",
      "outputs": [],
      "stateMutability": "nonpayable",
      "type": "function"
    },
    {
      "inputs": [
        {
          "internalType": "uint256",
          "name": "",
          "type": "uint256"
        }
      ],
      "name": "loans",
      "outputs": [
        {
          "internalType": "address",
          "name": "borrower",
          "type": "address"
        },
        {
          "internalType": "uint256",
          "name": "amountRequested",
          "type": "uint256"
        },
        {
          "internalType": "uint256",
          "name": "amountFunded",
          "type": "uint256"
        },
        {
          "internalType": "uint256",
          "name": "interestBps",
          "type": "uint256"
        },
        {
          "internalType": "uint256",
          "name": "durationSecs",
          "type": "uint256"
        },
        {
          "internalType": "uint256",
          "name": "fundingDeadline",
          "type": "uint256"
        },
        {
          "internalType": "enum LoanMarket.Status",
          "name": "status",
          "type": "uint8"
        },
        {
          "internalType": "uint256",
          "name": "startTimestamp",
          "type": "uint256"
        },
        {
          "internalType": "uint256",
          "name": "totalRepayment",
          "type": "uint256"
        },
        {
          "internalType": "address",
          "name": "investor",
          "type": "address"
        },
        {
          "internalType": "uint8",
          "name": "score",
          "type": "uint8"
        },
        {
          "internalType": "uint256",
          "name": "defaultTimestamp",
          "type": "uint256"
        },
        {
          "internalType": "uint256",
          "name": "collateralAmount",
          "type": "uint256"
        },
        {
          "internalType": "bool",
          "name": "collateralClaimed",
          "type": "bool"
        }
      ],
      "stateMutability": "view",
      "type": "function"
    },
    {
      "inputs": [],
      "name": "owner",
      "outputs": [
        {
          "internalType": "address",
          "name": "",
          "type": "address"
        }
      ],
      "stateMutability": "view",
      "type": "function"
    },
    {
      "inputs": [
        {
          "internalType": "uint256",
          "name": "loanId",
          "type": "uint256"
        }
      ],
      "name": "repay",
      "outputs": [],
      "stateMutability": "payable",
      "type": "function"
    },
    {
      "inputs": [
        {
          "internalType": "uint256",
          "name": "loanId",
          "type": "uint256"
        }
      ],
      "name": "withdrawAsBorrower",
      "outputs": [],
      "stateMutability": "nonpayable",
      "type": "function"
    },
    {
      "inputs": [
        {
          "internalType": "uint256",
          "name": "loanId",
          "type": "uint256"
        }
      ],
      "name": "withdrawCollateral",
      "outputs": [],
      "stateMutability": "nonpayable",
      "type": "function"
    },
    {
      "inputs": [
        {
          "internalType": "uint256",
          "name": "loanId",
          "type": "uint256"
        }
      ],
      "name": "withdrawInvestorShare",
      "outputs": [],
      "stateMutability": "nonpayable",
      "type": "function"
    },
    {
      "inputs": [
        {
          "internalType": "uint256",
          "name": "",
          "type": "uint256"
        }
      ],
      "name": "withdrawableOf",
      "outputs": [
        {
          "internalType": "uint256",
          "name": "",
          "type": "uint256"
        }
      ],
      "stateMutability": "view",
      "type": "function"
    },
    {
      "stateMutability": "payable",
      "type": "receive"
    }
  ],
  "bytecode": "0x6080806040523461004b5760018060a01b0319730fade5b267b572dc1f002d1b9148976ccce9c8c881600154161760015560016002553390600054161760005561173390816100518239f35b600080fdfe6080604052600436101561005d575b361561001957600080fd5b606460405162461bcd60e51b815260206004820152602060248201527f5573652066756e644c6f616e286c6f616e49642920746f2073656e64204554486044820152fd5b60003560e01c806331798f61146112f8578063371fd8e6146111265780634d8a2e1514610fd35780635219681214610fb55780635786276614610d685780636112fe2e14610c12578063759135a114610bf4578063846b909a14610a945780638da5cb5b14610a6b578063bdbfa3de1461095b578063c49785b414610775578063c66afff31461057a578063cf2b4cbc1461026d578063d1fdb3e814610241578063e1ec3c68146101405763f25f4b560361000e573461013b57600036600319011261013b576001546040516001600160a01b039091168152602090f35b600080fd5b3461013b57602036600319011261013b5760043560035481101561013b576101679061132f565b5060018060a01b038154166001820154600283015492600381015493600482015460058301549560ff60068501541691600785015497600886015491600987015493600a8801549660ff600c600b8b01549a015416996040519b8c5260208c015260408b015260608a0152608089015260a0880152600683101561022b576101c09760ff9360c089015260e088015261010087015260018060a01b03811661012087015260a01c1661014085015261016084015261018083015215156101a0820152f35b634e487b7160e01b600052602160045260246000fd5b3461013b57602036600319011261013b5760043560005260046020526020604060002054604051908152f35b60a036600319011261013b576064356084356004351561053557428211156104f0578034036104b557604051916101c0830183811067ffffffffffffffff82111761049f576040523383526004356020840152604083019060008252606084019060243582526080850193604435855260a08601918252600060c0870152600060e0870152600061010087015260006101208701526000610140870152600061016087015261018086015260006101a08601526003546801000000000000000081101561049f57806001610344920160035561132f565b94909461048957855185546001600160a01b03199081166001600160a01b0392831617875560208801516001880155945160028701559251600386015551600485015551600584015560c084015192600680820193919085101561022b576104066101a093600c9360ff96871998888a835416911617905560e08901516007850155610100890151600885015560098401916101208a01511690825416178155856101408901511681549060ff60a01b9060a01b169060ff60a01b1916179055565b610160860151600a820155610180860151600b8201550193015115159183541691161790556003546000198101908111610473576020906040516004358152817f8910ba13a55695f056e224bbbc6b65d866b12a8c2fbdf387fb853a1cca298cd7843393a3604051908152f35b634e487b7160e01b600052601160045260246000fd5b634e487b7160e01b600052600060045260246000fd5b634e487b7160e01b600052604160045260246000fd5b60405162461bcd60e51b8152602060048201526013602482015272086ded8d8c2e8cae4c2d840dad2e6dac2e8c6d606b1b6044820152606490fd5b60405162461bcd60e51b815260206004820152601e60248201527f446561646c696e65206d75737420626520696e207468652066757475726500006044820152606490fd5b60405162461bcd60e51b815260206004820152601d60248201527f416d6f756e74206d7573742062652067726561746572207468616e20300000006044820152606490fd5b3461013b5760208060031936011261013b5760043561059d6001600254146113c4565b600280556105aa8161132f565b5060098101546001600160a01b039391906105c89085163314611544565b83600154161561073b57826000526004825260406000205490811561070c57600101546000848152600484526040812055808211156106c55761060b9082611380565b600a810290808204600a149015171561047357600080809361063260648395048092611380565b97600154165af161064161144b565b5015610694577f0afeafe87af56d204cca28eefeec305c8d8bcb1907103f969f87e9a978745c2990610683600080808088335af161067d61144b565b5061157f565b6040519384523393a35b6001600255005b6064906040519062461bcd60e51b82526004820152600a6024820152691199594819985a5b195960b21b6044820152fd5b5092507f0afeafe87af56d204cca28eefeec305c8d8bcb1907103f969f87e9a978745c29906106fe600080808088335af161067d61144b565b6040519384523393a361068d565b60405162461bcd60e51b81526004810184905260076024820152664e6f7468696e6760c81b6044820152606490fd5b60405162461bcd60e51b8152600481018390526012602482015271119959481dd85b1b195d081b9bdd081cd95d60721b6044820152606490fd5b3461013b57602036600319011261013b576004356107976001600254146113c4565b600280556107a4816114a3565b6107ad8161132f565b50906009820160018060a01b03906107c9828254163314611544565b60ff600685015416600681101561022b5760040361092657600c840193600b8554916107f860ff841615611683565b015494600186159261080a84156116c1565b60ff1916179055600a850290858204600a1417156104735760649004936108318582611380565b60008080808988600154165af161084661144b565b50156108eb57600080808084888854165af161086061144b565b50156108a6577f90a49cc0ffe370f13cdb2e8c2f3f91aeb86bae3a6aa0e060da5fb4a9b91cde999360609354169560405192835260208301526040820152a36001600255005b60405162461bcd60e51b815260206004820152601860248201527f496e766573746f72207472616e73666572206661696c656400000000000000006044820152606490fd5b60405162461bcd60e51b8152602060048201526013602482015272119959481d1c985b9cd9995c8819985a5b1959606a1b6044820152606490fd5b60405162461bcd60e51b815260206004820152600d60248201526c139bdd08191959985d5b1d1959609a1b6044820152606490fd5b3461013b57602036600319011261013b5760043561097d6001600254146113c4565b6002805561098a8161132f565b5080546001600160a01b03919082166109a4338214611410565b60068201805460ff811690600682101561022b576109c46005921561138d565b60ff1916179055600b8201549081610a08575b50505416907f533b2d8d57dc3b3d1c1bfd952e6355a9b573b6b9cccc5f554157003f733bb514600080a36001600255005b600080809381935af1610a1961144b565b5015610a265783806109d7565b60405162461bcd60e51b815260206004820152601860248201527f436f6c6c61746572616c20726566756e64206661696c656400000000000000006044820152606490fd5b3461013b57600036600319011261013b576000546040516001600160a01b039091168152602090f35b602036600319011261013b57600435610aac8161132f565b5060068101805460ff8116600681101561022b57610aca901561138d565b60058301544211610bbd5760018301543403610b875760098301805491906001600160a01b038316610b515760019234600287015533906bffffffffffffffffffffffff60a01b1617905560ff1916179055600742910155604051903482527f38c48552690c96ec2872092ac1db6c19fb59f5a8c5b49bbf41ed4886d0ca692660203393a3005b60405162461bcd60e51b815260206004820152600e60248201526d105b1c9958591e48199d5b99195960921b6044820152606490fd5b60405162461bcd60e51b815260206004820152600e60248201526d135d5cdd08199d5b9908199d5b1b60921b6044820152606490fd5b60405162461bcd60e51b815260206004820152600f60248201526e111958591b1a5b99481c185cdcd959608a1b6044820152606490fd5b3461013b57602036600319011261013b57610c106004356114a3565b005b3461013b57602036600319011261013b57600435610c346001600254146113c4565b60028055610c418161132f565b5080546001600160a01b039081169291610c5c338514611410565b60ff600682015416600681101561022b57600303610d36576000808080600c850197885490610c8e60ff831615611683565b600b87019960018b5493610ca38515156116c1565b60ff19161790555af1610cb461144b565b5015610cf1577f7c5e5cb62e5ed3caf3764e4b0afedfedef533e27809d43367799787ad2abcd419160209154169354604051908152a36001600255005b60405162461bcd60e51b815260206004820152601a60248201527f436f6c6c61746572616c207472616e73666572206661696c65640000000000006044820152606490fd5b60405162461bcd60e51b815260206004820152600a602482015269139bdd081c995c185a5960b21b6044820152606490fd5b3461013b57604036600319011261013b57600435602490813560ff81169283820361013b57600354831015610f7f57610da08361132f565b506009810180549092916001600160a01b0382163303610f2f57600660ff910154166006811015610f1a5760038114908115610f0f575b5015610ed457600186101580610ec9575b15610e855760a01c60ff16610e415750805460ff60a01b191660a09290921b60ff60a01b169190911790556040519182527f7514ebcac1feb55cc5d1869533571ccd5971af19a7428bb57c1f780879eec3d960203393a3005b606490601b6040519162461bcd60e51b8352602060048401528201527f53636f72652068617320616c7265616479206265656e206c65667400000000006044820152fd5b60405162461bcd60e51b815260206004820152601d818401527f53636f7265206d757374206265206265747765656e203120616e6420350000006044820152606490fd5b506005861115610de8565b60405162461bcd60e51b81526020600482015260148184015273131bd85b881a5cc81b9bdd08199a5b9a5cda195960621b6044820152606490fd5b600491501487610dd7565b82634e487b7160e01b60005260216004526000fd5b60405162461bcd60e51b8152602060048201526023818501527f4f6e6c792074686520696e766573746f722063616e206c6561766520612073636044820152626f726560e81b6064820152608490fd5b606490600f6040519162461bcd60e51b8352602060048401528201526e125b9d985b1a59081b1bd85b881251608a1b6044820152fd5b3461013b57600036600319011261013b576020600354604051908152f35b3461013b57602036600319011261013b576004356002610ff660018254146113c4565b8080556110028261132f565b509161101860018060a01b038454163314611410565b6006830180549360ff8516600681101561022b576001036110f4578301549384156110c35760ff191683179055600080808086335af161105661144b565b501561108c577f69ce060f535737417b4a4ebb86ae7a865885c5c1e8106f7ed0b8bd9c52641bc66020600194604051908152a255005b60405162461bcd60e51b815260206004820152600f60248201526e151c985b9cd9995c8819985a5b1959608a1b6044820152606490fd5b60405162461bcd60e51b8152602060048201526009602482015268139bc8185b5bdd5b9d60ba1b6044820152606490fd5b60405162461bcd60e51b815260206004820152600a602482015269139bdd08199d5b99195960b21b6044820152606490fd5b60208060031936011261013b57600435906111456001600254146113c4565b600280556111528261132f565b5061116760018060a01b038254163314611410565b6006810160ff81541660068110158061022b5760028214809281156112e9575b50156112b45761022b576112a6575b6001820154600383015490818102918183041481151715610473576127106111bf920490611496565b9182341061127457600883910155600360ff19825416179055826000526004825280604060002055803411611220575b907fd3337f372235c0c137836a45251cd21fba324e7ef27c7acc5ac12451491793b991604051908152a26001600255005b600080808061122f8534611380565b335af161123a61144b565b506111ef5760405162461bcd60e51b815260048101839052600d60248201526c1499599d5b990819985a5b1959609a1b6044820152606490fd5b60405162461bcd60e51b815260048101859052600a60248201526909cdee840cadcdeeaced60b31b6044820152606490fd5b6112af846114a3565b611196565b60405162461bcd60e51b815260048101869052600d60248201526c4e6f7420726570617961626c6560981b6044820152606490fd5b91505060046000911487611187565b3461013b57602036600319011261013b576004356001600160a01b038116810361013b576113276020916115c8565b604051908152f35b60035481101561136a57600d906003600052027fc2575a0e9e593c00f959f8c92f12db2869c3395a3b0502d05e2516446f71f85b0190600090565b634e487b7160e01b600052603260045260246000fd5b9190820391821161047357565b1561139457565b60405162461bcd60e51b81526020600482015260086024820152672737ba1037b832b760c11b6044820152606490fd5b156113cb57565b60405162461bcd60e51b815260206004820152601f60248201527f5265656e7472616e637947756172643a207265656e7472616e742063616c6c006044820152606490fd5b1561141757565b60405162461bcd60e51b815260206004820152600c60248201526b2737ba103137b93937bbb2b960a11b6044820152606490fd5b3d156114915767ffffffffffffffff903d82811161049f5760405192601f8201601f19908116603f011684019081118482101761049f5760405282523d6000602084013e565b606090565b9190820180921161047357565b6114ac8161132f565b5060068101805460ff8116600681101561022b5760021480611529575b8061151d575b6114da575b50505050565b60049060ff1916179055600a429101557f84908fca714735411d4553ddd185a4d6fdc25fda2d15662153ef18a8ad6099b46020604051428152a2388080806114d4565b50600a830154156114cf565b5061153d6007840154600485015490611496565b42116114c9565b1561154b57565b60405162461bcd60e51b815260206004820152600c60248201526b2737ba1034b73b32b9ba37b960a11b6044820152606490fd5b1561158657565b60405162461bcd60e51b815260206004820152600b60248201526a14d95b990819985a5b195960aa1b6044820152606490fd5b60001981146104735760010190565b600080918190600354915b8281106116015750505081156115fa57606481029080820460641490151715610473570490565b5050600090565b61160a8161132f565b50546001600160a01b0383811691161480611667575b611633575b61162e906115b9565b6115d3565b939261165f61165961162e9260ff600961164c8a61132f565b50015460a01c1690611496565b946115b9565b949050611625565b5060ff60096116758361132f565b50015460a01c161515611620565b1561168a57565b60405162461bcd60e51b815260206004820152600f60248201526e105b1c9958591e4818db185a5b5959608a1b6044820152606490fd5b156116c857565b60405162461bcd60e51b815260206004820152600d60248201526c139bc818dbdb1b185d195c985b609a1b6044820152606490fdfea2646970667358221220a5ec38762c183bf689130f10eb8d6cdd2aa8d5819381760eee0a69cc969eef3f64736f6c63430008130033",
  "linkReferences": {},
  "deployedLinkReferences": {}
}