{
  "_format": "hh-sol-artifact-1",
  "contractName": "LoanMarket",
  "sourceName": "contracts/Loan.sol",
  "abi": [
    {
      "inputs": [],
      "stateMutability": "nonpayable",
      "type": "constructor"
    },
    {
      "anonymous": false,
      "inputs": [
        {
          "indexed": true,
          "internalType": "uint256",
          "name": "loanId",
          "type": "uint256"
        },
        {
          "indexed": true,
          "internalType": "address",
          "name": "investor",
          "type": "address"
        },
        {
          "indexed": false,
          "internalType": "uint256",
          "name": "gross",
          "type": "uint256"
        },
        {
          "indexed": false,
          "internalType": "uint256",
          "name": "fee",
          "type": "uint256"
        },
        {
          "indexed": false,
          "internalType": "uint256",
          "name": "net",
          "type": "uint256"
        }
      ],
      "name": "CollateralClaimed",
      "type": "event"
    },
    {
      "anonymous": false,
      "inputs": [
        {
          "indexed": true,
          "internalType": "uint256",
          "name": "loanId",
          "type": "uint256"
        },
        {
          "indexed": true,
          "internalType": "address",
          "name": "borrower",
          "type": "address"
        },
        {
          "indexed": false,
          "internalType": "uint256",
          "name": "amount",
          "type": "uint256"
        }
      ],
      "name": "CollateralWithdrawn",
      "type": "event"
    },
    {
      "anonymous": false,
      "inputs": [
        {
          "indexed": true,
          "internalType": "uint256",
          "name": "loanId",
          "type": "uint256"
        },
        {
          "indexed": false,
          "internalType": "uint256",
          "name": "defaultTimestamp",
          "type": "uint256"
        }
      ],
      "name": "Defaulted",
      "type": "event"
    },
    {
      "anonymous": false,
      "inputs": [
        {
          "indexed": true,
          "internalType": "uint256",
          "name": "loanId",
          "type": "uint256"
        },
        {
          "indexed": true,
          "internalType": "address",
          "name": "investor",
          "type": "address"
        },
        {
          "indexed": false,
          "internalType": "uint256",
          "name": "amount",
          "type": "uint256"
        }
      ],
      "name": "Funded",
      "type": "event"
    },
    {
      "anonymous": false,
      "inputs": [
        {
          "indexed": true,
          "internalType": "uint256",
          "name": "loanId",
          "type": "uint256"
        },
        {
          "indexed": true,
          "internalType": "address",
          "name": "investor",
          "type": "address"
        }
      ],
      "name": "FundedLoanCancelled",
      "type": "event"
    },
    {
      "anonymous": false,
      "inputs": [
        {
          "indexed": true,
          "internalType": "uint256",
          "name": "loanId",
          "type": "uint256"
        },
        {
          "indexed": true,
          "internalType": "address",
          "name": "investor",
          "type": "address"
        },
        {
          "indexed": false,
          "internalType": "uint256",
          "name": "amount",
          "type": "uint256"
        }
      ],
      "name": "InvestorWithdraw",
      "type": "event"
    },
    {
      "anonymous": false,
      "inputs": [
        {
          "indexed": true,
          "internalType": "uint256",
          "name": "loanId",
          "type": "uint256"
        },
        {
          "indexed": true,
          "internalType": "address",
          "name": "borrower",
          "type": "address"
        }
      ],
      "name": "LoanCancelled",
      "type": "event"
    },
    {
      "anonymous": false,
      "inputs": [
        {
          "indexed": true,
          "internalType": "uint256",
          "name": "loanId",
          "type": "uint256"
        },
        {
          "indexed": true,
          "internalType": "address",
          "name": "borrower",
          "type": "address"
        },
        {
          "indexed": false,
          "internalType": "uint256",
          "name": "amountRequested",
          "type": "uint256"
        }
      ],
      "name": "LoanCreated",
      "type": "event"
    },
    {
      "anonymous": false,
      "inputs": [
        {
          "indexed": true,
          "internalType": "uint256",
          "name": "loanId",
          "type": "uint256"
        },
        {
          "indexed": false,
          "internalType": "uint256",
          "name": "amount",
          "type": "uint256"
        }
      ],
      "name": "RepaymentMade",
      "type": "event"
    },
    {
      "anonymous": false,
      "inputs": [
        {
          "indexed": true,
          "internalType": "uint256",
          "name": "loanId",
          "type": "uint256"
        },
        {
          "indexed": true,
          "internalType": "address",
          "name": "investor",
          "type": "address"
        },
        {
          "indexed": false,
          "internalType": "uint8",
          "name": "score",
          "type": "uint8"
        }
      ],
      "name": "ScoreLeft",
      "type": "event"
    },
    {
      "anonymous": false,
      "inputs": [
        {
          "indexed": true,
          "internalType": "uint256",
          "name": "loanId",
          "type": "uint256"
        },
        {
          "indexed": false,
          "internalType": "uint256",
          "name": "amount",
          "type": "uint256"
        }
      ],
      "name": "WithdrawnByBorrower",
      "type": "event"
    },
    {
      "inputs": [
        {
          "internalType": "address",
          "name": "borrower",
          "type": "address"
        }
      ],
      "name": "averageScoreOfBorrower",
      "outputs": [
        {
          "internalType": "uint256",
          "name": "",
          "type": "uint256"
        }
      ],
      "stateMutability": "view",
      "type": "function"
    },
    {
      "inputs": [
        {
          "internalType": "address",
          "name": "",
          "type": "address"
        }
      ],
      "name": "borrowerLoanCount",
      "outputs": [
        {
          "internalType": "uint256",
          "name": "",
          "type": "uint256"
        }
      ],
      "stateMutability": "view",
      "type": "function"
    },
    {
      "inputs": [
        {
          "internalType": "address",
          "name": "",
          "type": "address"
        }
      ],
      "name": "borrowerScoreSum",
      "outputs": [
        {
          "internalType": "uint256",
          "name": "",
          "type": "uint256"
        }
      ],
      "stateMutability": "view",
      "type": "function"
    },
    {
      "inputs": [
        {
          "internalType": "uint256",
          "name": "loanId",
          "type": "uint256"
        }
      ],
      "name": "cancelFundedLoan",
      "outputs": [],
      "stateMutability": "nonpayable",
      "type": "function"
    },
    {
      "inputs": [
        {
          "internalType": "uint256",
          "name": "loanId",
          "type": "uint256"
        }
      ],
      "name": "cancelLoan",
      "outputs": [],
      "stateMutability": "nonpayable",
      "type": "function"
    },
    {
      "inputs": [
        {
          "internalType": "uint256",
          "name": "loanId",
          "type": "uint256"
        }
      ],
      "name": "checkDefault",
      "outputs": [],
      "stateMutability": "nonpayable",
      "type": "function"
    },
    {
      "inputs": [
        {
          "internalType": "uint256",
          "name": "loanId",
          "type": "uint256"
        },
        {
          "internalType": "uint8",
          "name": "score",
          "type": "uint8"
        }
      ],
      "name": "claimCollateral",
      "outputs": [],
      "stateMutability": "nonpayable",
      "type": "function"
    },
    {
      "inputs": [
        {
          "internalType": "uint256",
          "name": "_amountRequested",
          "type": "uint256"
        },
        {
          "internalType": "uint256",
          "name": "_interestBps",
          "type": "uint256"
        },
        {
          "internalType": "uint256",
          "name": "_durationSecs",
          "type": "uint256"
        },
        {
          "internalType": "uint256",
          "name": "_fundingDeadline",
          "type": "uint256"
        },
        {
          "internalType": "uint256",
          "name": "_collateralAmount",
          "type": "uint256"
        }
      ],
      "name": "createLoan",
      "outputs": [],
      "stateMutability": "payable",
      "type": "function"
    },
    {
      "inputs": [],
      "name": "feeWallet",
      "outputs": [
        {
          "internalType": "address payable",
          "name": "",
          "type": "address"
        }
      ],
      "stateMutability": "view",
      "type": "function"
    },
    {
      "inputs": [
        {
          "internalType": "uint256",
          "name": "loanId",
          "type": "uint256"
        }
      ],
      "name": "fundLoan",
      "outputs": [],
      "stateMutability": "payable",
      "type": "function"
    },
    {
      "inputs": [],
      "name": "getLoanCount",
      "outputs": [
        {
          "internalType": "uint256",
          "name": "",
          "type": "uint256"
        }
      ],
      "stateMutability": "view",
      "type": "function"
    },
    {
      "inputs": [
        {
          "internalType": "uint256",
          "name": "",
          "type": "uint256"
        }
      ],
      "name": "loans",
      "outputs": [
        {
          "internalType": "address",
          "name": "borrower",
          "type": "address"
        },
        {
          "internalType": "uint256",
          "name": "amountRequested",
          "type": "uint256"
        },
        {
          "internalType": "uint256",
          "name": "amountFunded",
          "type": "uint256"
        },
        {
          "internalType": "uint256",
          "name": "interestBps",
          "type": "uint256"
        },
        {
          "internalType": "uint256",
          "name": "durationSecs",
          "type": "uint256"
        },
        {
          "internalType": "uint256",
          "name": "fundingDeadline",
          "type": "uint256"
        },
        {
          "internalType": "enum LoanMarket.Status",
          "name": "status",
          "type": "uint8"
        },
        {
          "internalType": "uint256",
          "name": "startTimestamp",
          "type": "uint256"
        },
        {
          "internalType": "uint256",
          "name": "totalRepayment",
          "type": "uint256"
        },
        {
          "internalType": "address",
          "name": "investor",
          "type": "address"
        },
        {
          "internalType": "uint8",
          "name": "score",
          "type": "uint8"
        },
        {
          "internalType": "uint256",
          "name": "defaultTimestamp",
          "type": "uint256"
        },
        {
          "internalType": "uint256",
          "name": "collateralAmount",
          "type": "uint256"
        },
        {
          "internalType": "bool",
          "name": "collateralClaimed",
          "type": "bool"
        }
      ],
      "stateMutability": "view",
      "type": "function"
    },
    {
      "inputs": [],
      "name": "owner",
      "outputs": [
        {
          "internalType": "address",
          "name": "",
          "type": "address"
        }
      ],
      "stateMutability": "view",
      "type": "function"
    },
    {
      "inputs": [
        {
          "internalType": "uint256",
          "name": "loanId",
          "type": "uint256"
        }
      ],
      "name": "repay",
      "outputs": [],
      "stateMutability": "payable",
      "type": "function"
    },
    {
      "inputs": [
        {
          "internalType": "uint256",
          "name": "loanId",
          "type": "uint256"
        }
      ],
      "name": "withdrawAsBorrower",
      "outputs": [],
      "stateMutability": "nonpayable",
      "type": "function"
    },
    {
      "inputs": [
        {
          "internalType": "uint256",
          "name": "loanId",
          "type": "uint256"
        },
        {
          "internalType": "uint8",
          "name": "score",
          "type": "uint8"
        }
      ],
      "name": "withdrawInvestorShare",
      "outputs": [],
      "stateMutability": "nonpayable",
      "type": "function"
    }
  ],
  "bytecode": "0x6080806040523461004b5760018060a01b0319734e8b7696fa787b32f1d8a0b1025fd1a5d8f994cd81600154161760015560016002553390600054161760005561186d90816100518239f35b600080fdfe6080604052600436101561001257600080fd5b6000803560e01c806331798f6114611405578063371fd8e6146111f2578063498efd7a146111b55780634d8a2e151461105a578063521968121461103c5780635f76cdfd14610ce9578063759135a114610cc9578063846b909a14610b265780638da5cb5b14610aff5780639f9191241461091a578063b7f0b7ee1461068c578063bdbfa3de1461051d578063c71230bf146104e0578063cf2b4cbc14610201578063e1ec3c68146100f85763f25f4b56146100cd57600080fd5b346100f557806003193601126100f5576001546040516001600160a01b039091168152602090f35b80fd5b50346100f55760203660031901126100f5576004356003548110156101fd5761012090611463565b5060018060a01b0381541690600181015490600281015460038201549460048301549060058401549060ff6006860154169060078601549260088701549460098801549a600a8901549760ff600c600b8c01549b0154169a6040519c8d5260208d015260408c015260608b015260808a015260a089015260068210156101e95750916101c0979160ff9360c089015260e088015261010087015260018060a01b03811661012087015260a01c1661014085015261016084015261018083015215156101a0820152f35b634e487b7160e01b81526021600452602490fd5b5080fd5b5060a03660031901126100f5576004356084356102226001600254146114b4565b6002805581156104a65780340361046157604051906101c0820182811067ffffffffffffffff82111761044d5760405233825260208201838152604083018581526060840191602435835260808501604435815260a086019060643582528860c088015260e087019589875289610100890152896101208901528961014089015289610160890152610180880152886101a088015260035468010000000000000000811015610439578060016102db9201600355611463565b95909561042557875186546001600160a01b03199081166001600160a01b03928316178855945160018801559451600287015551600386015551600485015551600584015560c085015193600680850190861015610411576101a093600c9360ff969361039593881999898b8354169116179055516007850155610100890151600885015560098401916101208a01511690825416178155856101408901511681549060ff60a01b9060a01b169060ff60a01b1916179055565b610160860151600a820155610180860151600b82015501930151151591835416911617905560035460001981019081116103fd576040519182527f8910ba13a55695f056e224bbbc6b65d866b12a8c2fbdf387fb853a1cca298cd760203393a3600160025580f35b634e487b7160e01b83526011600452602483fd5b634e487b7160e01b89526021600452602489fd5b634e487b7160e01b8a5260048a905260248afd5b634e487b7160e01b8a52604160045260248afd5b634e487b7160e01b85526041600452602485fd5b60405162461bcd60e51b815260206004820152601960248201527f496e636f727265637420636f6c6c61746572616c2073656e74000000000000006044820152606490fd5b60405162461bcd60e51b81526020600482015260126024820152710416d6f756e74206d757374206265203e20360741b6044820152606490fd5b50346100f55760203660031901126100f5576004356001600160a01b038116908190036101fd578160409160209352600483522054604051908152f35b50346100f55760203660031901126100f5576004356105406001600254146114b4565b6002805561054d81611463565b5080546001600160a01b0391908216338190036106475760068201805460ff81166006811015610633576105e45760ff19166005179055600b820154908590826105c4575b5050505416907f533b2d8d57dc3b3d1c1bfd952e6355a9b573b6b9cccc5f554157003f733bb5148380a3600160025580f35b81806105dc9481935af16105d661156f565b506116d8565b388481610592565b60405162461bcd60e51b815260206004820152602160248201527f4c6f616e206973206e6f74206f70656e20666f722063616e63656c6c6174696f6044820152603760f91b6064820152608490fd5b634e487b7160e01b88526021600452602488fd5b60405162461bcd60e51b815260206004820152601c60248201527f4f6e6c792074686520626f72726f7765722063616e2063616e63656c000000006044820152606490fd5b50346100f55761069b3661143e565b906106aa6001600254146114b4565b600280556106b781611463565b506009810180546001600160a01b03929083811633036108d55760ff6006830154166006811015610633576003036108905760ff6106f99160a01c16156115ff565b60ff8516600181101580610885575b6107119061164a565b60018201549161073361271061072b6003840154866115d0565b0480946115e3565b92600a810290808204600a149015171561087157886107dc94819488839561078061076360648798048096611500565b8b5460ff60a01b191660a09f909f1b60ff60a01b169e909e178b55565b541683526005602052604083206107988282546115e3565b9055604051908152897f7514ebcac1feb55cc5d1869533571ccd5971af19a7428bb57c1f780879eec3d960203393a387600154165af16107d661156f565b50611696565b8480808087868654165af16107ef61156f565b501561082c577f0afeafe87af56d204cca28eefeec305c8d8bcb1907103f969f87e9a978745c2991602091541693604051908152a3600160025580f35b60405162461bcd60e51b815260206004820152601e60248201527f496e766573746f72207368617265207472616e73666572206661696c656400006044820152606490fd5b634e487b7160e01b89526011600452602489fd5b506005811115610708565b60405162461bcd60e51b815260206004820152601860248201527f4c6f616e20686173206e6f74206265656e2072657061696400000000000000006044820152606490fd5b60405162461bcd60e51b815260206004820152601e60248201527f4f6e6c792074686520696e766573746f722063616e20776974686472617700006044820152606490fd5b50346100f55760203660031901126100f55760043561093d6001600254146114b4565b6002805561094a81611463565b506009810180546001600160a01b039290831633819003610aa757600682019081549160ff831660068110156104115760016109869114611523565b6005840154421115610a5657878093928193926005839460ff19161790556002860154905af16109b461156f565b5015610a185784600b82015484816109fa575b505050505416907fd2242028be0a315d15003a2d3a1ddb0c1ce6692260d612166ded5d4f2321beff8380a3600160025580f35b8280928192610a0f9654165af16105d661156f565b388481846109c7565b60405162461bcd60e51b8152602060048201526016602482015275125b9d995cdd1bdc881c99599d5b990819985a5b195960521b6044820152606490fd5b60405162461bcd60e51b815260206004820152602360248201527f46756e64696e6720646561646c696e6520686173206e6f7420706173736564206044820152621e595d60ea1b6064820152608490fd5b60405162461bcd60e51b815260206004820152602a60248201527f4f6e6c792074686520696e766573746f722063616e2063616e63656c206120666044820152693ab73232b2103637b0b760b11b6064820152608490fd5b50346100f557806003193601126100f557546040516001600160a01b039091168152602090f35b5060203660031901126100f557600435610b446001600254146114b4565b60028055610b5181611463565b5060068101805460ff81166006811015610cb557610c70576005830154421015610c2b5760018301543403610be65760019060ff191617905560098101336bffffffffffffffffffffffff60a01b825416179055346002820155600742910155604051903482527f38c48552690c96ec2872092ac1db6c19fb59f5a8c5b49bbf41ed4886d0ca692660203393a3600160025580f35b60405162461bcd60e51b815260206004820152601d60248201527f496e636f72726563742066756e64696e6720616d6f756e742073656e740000006044820152606490fd5b60405162461bcd60e51b815260206004820152601b60248201527f46756e64696e6720646561646c696e65206861732070617373656400000000006044820152606490fd5b60405162461bcd60e51b815260206004820152601960248201527f4c6f616e206e6f74206f70656e20666f722066756e64696e67000000000000006044820152606490fd5b634e487b7160e01b86526021600452602486fd5b50346100f55760203660031901126100f557610ce6600435611724565b80f35b50346100f557610cf83661143e565b90610d076001600254146114b4565b60028055610d1481611724565b610d1d81611463565b506009810192835460018060a01b03928382163303610ff75760ff600682015416600681101561063357600403610fb957600c81019081549260ff8416610f6857600b820194855415610f23578693610d7f60ff610dd59460a01c16156115ff565b600160ff8316968188101580610f18575b610d999061164a565b60ff1916179055838354168a52600460205260408a20610db981546115f0565b9055885460ff60a01b191660a09190911b60ff60a01b16178855565b54168652600560205260408620610ded8282546115e3565b9055604051908152837f7514ebcac1feb55cc5d1869533571ccd5971af19a7428bb57c1f780879eec3d960203393a35492600a8402848104600a1485151715610f04576064900493610e3f8582611500565b610e56878080808a89600154165af16107d661156f565b8680808084888854165af1610e6961156f565b5015610eb0577f90a49cc0ffe370f13cdb2e8c2f3f91aeb86bae3a6aa0e060da5fb4a9b91cde999360609354169560405192835260208301526040820152a3600160025580f35b60405162461bcd60e51b815260206004820152602660248201527f436f6c6c61746572616c207472616e7366657220746f20696e766573746f722060448201526519985a5b195960d21b6064820152608490fd5b634e487b7160e01b86526011600452602486fd5b506005881115610d90565b60405162461bcd60e51b815260206004820152601b60248201527f54686973206c6f616e20686173206e6f20636f6c6c61746572616c00000000006044820152606490fd5b60405162461bcd60e51b815260206004820152602360248201527f436f6c6c61746572616c2068617320616c7265616479206265656e20636c61696044820152621b595960ea1b6064820152608490fd5b60405162461bcd60e51b8152602060048201526016602482015275131bd85b881a185cc81b9bdd08191959985d5b1d195960521b6044820152606490fd5b60405162461bcd60e51b815260206004820152601b60248201527f4f6e6c792074686520696e766573746f722063616e20636c61696d00000000006044820152606490fd5b50346100f557806003193601126100f5576020600354604051908152f35b50346100f55760203660031901126100f557600435600261107e60018254146114b4565b80805561108a82611463565b509160068301805460ff811660068110156111a15760016110ab9114611523565b84546001600160a01b0316943386900361115c57868581949282949382849560ff191617905501968754905af16110e061156f565b5015611118577f69ce060f535737417b4a4ebb86ae7a865885c5c1e8106f7ed0b8bd9c52641bc6602060019454604051908152a25580f35b606460405162461bcd60e51b815260206004820152602060248201527f4661696c656420746f2073656e642066756e647320746f20626f72726f7765726044820152fd5b60405162461bcd60e51b815260206004820152601e60248201527f4f6e6c792074686520626f72726f7765722063616e20776974686472617700006044820152606490fd5b634e487b7160e01b87526021600452602487fd5b50346100f55760203660031901126100f5576004356001600160a01b038116908190036101fd578160409160209352600583522054604051908152f35b506020806003193601126101fd576004356112116001600254146114b4565b6002805561121e81611463565b50916006830180549060ff821660068110156111a1576002036113c25761125b60018601546127106112546003890154836115d0565b04906115e3565b9182341061136e5760039083600888015560ff1916179055827fd3337f372235c0c137836a45251cd21fba324e7ef27c7acc5ac12451491793b98360018060a01b039384885416895260048252604089206112b681546115f0565b9055604051908152a2600b840193858554806112d6575b50600160025580f35b81808092868654165af16112e861156f565b501561132957907f7c5e5cb62e5ed3caf3764e4b0afedfedef533e27809d43367799787ad2abcd41929154169354604051908152a3388080808085816112cd565b60405162461bcd60e51b815260048101849052601a60248201527f436f6c6c61746572616c207472616e73666572206661696c65640000000000006044820152606490fd5b60405162461bcd60e51b815260048101859052602660248201527f496e73756666696369656e7420616d6f756e742073656e7420666f7220726570604482015265185e5b595b9d60d21b6064820152608490fd5b6064836040519062461bcd60e51b825280600483015260248201527f4c6f616e206973206e6f742061637469766520666f722072657061796d656e746044820152fd5b50346100f55760203660031901126100f557600435906001600160a01b03821682036100f5576020611436836117c9565b604051908152f35b604090600319011261145e576004359060243560ff8116810361145e5790565b600080fd5b60035481101561149e57600d906003600052027fc2575a0e9e593c00f959f8c92f12db2869c3395a3b0502d05e2516446f71f85b0190600090565b634e487b7160e01b600052603260045260246000fd5b156114bb57565b60405162461bcd60e51b815260206004820152601f60248201527f5265656e7472616e637947756172643a207265656e7472616e742063616c6c006044820152606490fd5b9190820391821161150d57565b634e487b7160e01b600052601160045260246000fd5b1561152a57565b60405162461bcd60e51b815260206004820152601b60248201527f4c6f616e206973206e6f7420696e2046756e64656420737461746500000000006044820152606490fd5b3d156115cb5767ffffffffffffffff903d8281116115b55760405192601f8201601f19908116603f01168401908111848210176115b55760405282523d6000602084013e565b634e487b7160e01b600052604160045260246000fd5b606090565b8181029291811591840414171561150d57565b9190820180921161150d57565b600019811461150d5760010190565b1561160657565b606460405162461bcd60e51b815260206004820152602060248201527f53636f72652068617320616c7265616479206265656e207375626d69747465646044820152fd5b1561165157565b60405162461bcd60e51b815260206004820152601d60248201527f53636f7265206d757374206265206265747765656e203120616e6420350000006044820152606490fd5b1561169d57565b60405162461bcd60e51b8152602060048201526013602482015272119959481d1c985b9cd9995c8819985a5b1959606a1b6044820152606490fd5b156116df57565b60405162461bcd60e51b815260206004820152601860248201527f436f6c6c61746572616c20726566756e64206661696c656400000000000000006044820152606490fd5b61172d81611463565b5060068101805460ff811660068110156117b35760021480611798575b611755575b50505050565b60049060ff1916179055600a429101557f84908fca714735411d4553ddd185a4d6fdc25fda2d15662153ef18a8ad6099b46020604051428152a23880808061174f565b506117ac60078401546004850154906115e3565b421161174a565b634e487b7160e01b600052602160045260246000fd5b6001600160a01b0316600081815260046020526040812054909190156118335760056020526040822054906064820291808304606414901517156103fd5782526004602052604082205491821561181f57500490565b634e487b7160e01b81526012600452602490fd5b509056fea264697066735822122062ef1f34304762669e3f2d479da59442f60e3140b22d9c52ac4eeada205b7d1264736f6c63430008130033",
  "linkReferences": {},
  "deployedLinkReferences": {}
}